:100000000C94CF1B0C94001C0C94001C0C94001C32
:100010000C94001C0C94001C0C94001C0C94001CF0
:100020000C94001C0C94001C0C94001C0C94001CE0
:100030000C94001C0C9481E00C94001C0C94001C8B
:100040000C94001C0C94001C0C94001C0C94001CC0
:100050000C94001C0C94001C0C94001C0C940BE5DC
:100060000C94001C0C946DDF0C9443DF0C94001C6A
:100070000C94001C0C94001C0C94001C0C94001C90
:100080000C94001C0C94001C0C94001C0C94001C80
:100090000C940DDF0C94E3DE0C94001C0D94CE1D2B
:1000A0000C94001C0C94001C0C94001C0C94001C60
:1000B0000C94001C0C94001C0C94001C0C94001C50
:1000C0000C94001C0C94001C0C94001C0C94001C40
:1000D0000C94001C0C94001C0C94001C0C94001C30
:1000E0000C94001C0C940CF20C94A72A0D946A1F1B
:1000F0000C94F7F10C9471450C94F5660C94A35B89
:100100000C94A3700C94FA5B0C946D3A0D94BC0C97
:100110000C94AB3D0C947D260C94DC2C0C94344355
:100120000D94B71E0C9404710D94C91C0D946811A4
:100130000D944B1F0C94F3240C944D210C944C3EC5
:100140000C943A230C9419880C9413670C94963AE7
:100150000C943D470D942E1F0C943C7E0C948ED035
:100160000C94B5E10C94CA240C945C3D0C944C7135
:100170000C943D240C943A880C94EA4E0C947D2CFB
:100180000C9490550C940E290D94683F0C947E2885
:100190000C94F5D10C945E4B0D9406140D94BD3067
:1001A0000C94E2350C94B4350C94C7440C943D3F48
:1001B0000C94957C0C942D5D0C94AE6A0C94FF3BD2
:1001C0000D94050D0C945A830D940D1F0C94C4E1ED
:1001D0000C94BA250C943F420C94142E0C94ABE171
:1001E0000C940B1F0C9405F20D94C30C0C94A93EB7
:1001F0000C9401210C94BDD00C94D0C90C94D170F6
:100200000C9436F10D94E2400D94281F0C94372A7B
:100210000D94B8110D94CF1E0C94375B0C94FC5CBC
:100220000C94F0D00C94CBEF0C943D330D94EB1563
:100230000C9400220C9450EF0D9478110C94B47C23
:100240000C94B0390C9477330D948C1F0C94BD64CE
:100250000C94BD430C94FF870D94091F0C9479886E
:100260000C944E340D9447110D9462400C947B8491
:100270000C94CCC80C941C250C9445D20C9432D10F
:100280000C94B75C0C9415D20C94FEF10D94130DE4
:100290000C94265C0C94B25B0D94DD110C94C33865
:1002A0000D94280D0C9442C90C94845E0D94D70CC7
:1002B0000C94BD260C94E9510C945E2D0C94E9F13C
:1002C0000C9427CA0C94FBD10C9491460C943625BF
:1002D0000C9403D20D94A2190C944D5E0D944640DB
:1002E0000C9479300C94DBF10C948FE10C947170C8
:1002F0000C94BA840C9431670C94C8470C94982DD4
:100300000C944BD20C94ECE10D94FE400C94196BC0
:100310000C94BC330C94A9EE0C948A5B0D94E21EF1
:100320000C9439D20C942E5D0C94D77F0C945028E9
:100330000C9435E10C94874B0C94F8290C9433D22F
:100340000C9458460C949B420D94BA110C94A03115
:100350000D94371F0C94E2D00C942DD20C94655C54
:100360000C9447350D94C6400C94523B0D94701F6D
:100370000C94E2F10D9412400D94531F0C94665CA2
:100380000C9423700C94FB5B0C9494C90C94A157AF
:100390000C94C1200D94E4110C9445540C94275CEA
:1003A0000C9421D20C9406450D94F00C0C9409D2B7
:1003B0000C94D35B0C94575B0C94673A0C94652AAD
:1003C0000C94CC2F0C94F16F0D94E00C0C94F0F184
:1003D0000D94DF160C940F330C941BD20C946929E6
:1003E0000C94EC4A0D94CB3F0C94A4340C94993F9C
:1003F0000C9470440C9408C90C948A540D94913F49
:100400000D94D00C0C9497460C94D8E10C94FB5CA2
:100410000C9411300C941E440C9404CA0C94FFD11B
:100420000C94B85C0D9432150C9427D20D944D1297
:100430000C94A22C0C9484D10D94210D0C940FD209
:100440000C94CA370C94C23F0C94E2E10C945B54B8
:100450000C941C360C94CEE10C94E6460C94EE5AA7
:100460000C9476F00C947DE10C94A1E10D94C911EB
:100470000D94C1190C944E440C9454F00C942554D2
:100480000C94B56F0D940C0D0D94121F0C94E63C5A
:100490000C9405540C9464E10D941A410D94F70CDE
:1004A0000C948D4B0D94B7110C94716A0C9487E1E8
:1004B0000D94E90C0C94EF2E0C9468340C94B22239
:1004C0000C94A0620C943FD20C94F5470D94F71E47
:1004D0000C94AA360D94D5010C94CE840C94C24988
:1004E0000D94FE0C0D94B9110C9490240D940F1FD3
:1004F0000C94CED00C944ACA0C94165E0C9413F251
:100500000C9497E10C94A9880C94FAD10C94915511
:100510000C9435F10D94D63F0D9436410C944F2632
:100520000D94A50C0C947C5D0C94DD2E0C945DE177
:100530000C949A830C9469E10C94F3EF0C946A5434
:100540000C9458880D94921F0C94DD870D941A0D0D
:100550000C942FEF0C9463530C942F5B0C94393C48
:100560000C9422370D941E1F0C9473E10D94DA1C29
:100570000D94161203F0000C4800108400208A002D
:10058000408A004042007C3F0082408084BF008857
:100590004100783E0007C00003F0000C48001084C2
:1005A00000208A00408A007C4200823F0082408016
:1005B0007CBF00204100183E0007C00003F0000C83
:1005C0004800108400788A00848A00824200823FBA
:1005D0000044408038BF00204100183E0007C000A2
:1005E000000003800EE00FE01CF01EF01EF00C6017
:1005F0000FE003800000000000003FF0201C3810D6
:100600002010385020103FF00000000000000000D3
:10061000200850141FF01FF05014200800000000A4
:1006200000000000001000200210022003000180E2
:1006300004E00E001F00000000001E401240127077
:100640001E0000001EF0129012901EF0000000002C
:100650001FF02008218822482228212020901E50A7
:10066000003000000000600C1390044009200920B5
:10067000092004401390600C000000000FE01010EF
:10068000121001103C900110121010100FE0000029
:1006900000001FF0101017D0101017D0105010507D
:1006A00010101FF00000416C6C00426164206D6FFF
:1006B00064656C20646174612E0A4C6F6164696EBC
:1006C000672064656661756C747300436800436FEE
:1006D000756E7465720054696D6572004761756767
:1006E000654D61780047617567654D696E004469C5
:1006F00073700053726300547970650057696467C2
:1007000065740023202D2D2D2D2D2D205769646714
:10071000657473202D2D2D2D2D2D00456E64706F69
:10072000696E745200456E64706F696E744C004659
:1007300061696C73616665004F76657272696465A4
:1007400056616C004F76657272696465537769749F
:100750006368005375627472696D005265766572E4
:100760007365004372760043757276650043686175
:100770006E6E656C0023202D2D2D2D2D2D204F7597
:1007800074707574206368616E6E656C73202D2DB6
:100790002D2D2D2D005472616E736974696F6E5426
:1007A000696D650023202D2D2D2D2D2D20466C6982
:1007B000676874206D6F646573202D2D2D2D2D2D90
:1007C00000446972656374696F6E004D6F64756C87
:1007D000757300436C656172004564676500436C26
:1007E0006F636B00436F756E7465720023202D2D4F
:1007F0002D2D2D2D20436F756E74657273202D2D58
:100800002D2D2D2D0056616C340056616C33005631
:10081000616C320056616C310046756E63004C6F3E
:10082000676963616C5377697463680023202D2DB9
:100830002D2D2D2D204C6F676963616C20737769B6
:100840007463686573202D2D2D2D2D2D0043757338
:10085000746F6D43757276650023202D2D2D2D2D1F
:100860002D20437573746F6D2063757276657320E8
:100870002D2D2D2D2D2D00536C6F77446F776E002D
:10088000536C6F7755700044656C6179446F776E77
:100890000044656C61795570002C00416C6C004619
:1008A0006C696768744D6F6465005472696D456E5C
:1008B00061626C65640043727600437572766556BA
:1008C000616C00437572766554797065005765698F
:1008D00067687400496E707574004F70657261745A
:1008E000696F6E004F7574707574004D697865722C
:1008F0000023202D2D2D2D2D2D204D697865722062
:100900002D2D2D2D2D2D005068617365416E676C66
:10091000650050686173654D6F646500526576656A
:100920007273654D6F64756C61746F72004D6F64A6
:10093000756C61746F7253726300506572696F6495
:100940003200506572696F643100506572696F647E
:100950004D6F64650057617665666F726D00467510
:100960006E6367656E0023202D2D2D2D2D2D2046C5
:10097000756E6374696F6E2067656E657261746F02
:100980007273202D2D2D2D2D2D00536D6F6F7468DA
:10099000005956616C005856616C004E756D506F71
:1009A000696E7473005468726F74746C6543757209
:1009B00076650023202D2D2D2D2D2D205468726F4E
:1009C00074746C65206375727665202D2D2D2D2D28
:1009D0002D0050697463684475616C5261746500E0
:1009E000456C654475616C5261746500526F6C6C46
:1009F0004475616C526174650041696C4475616C49
:100A000052617465005961774475616C5261746517
:100A1000005275644475616C52617465004578706C
:100A20006F32004578706F31005261746532005248
:100A3000617465310023202D2D2D2D2D2D20526127
:100A400074657320616E64206578706F202D2D2D84
:100A50002D2D2D0059325472696D0058325472692F
:100A60006D0059315472696D00436F6D6D6F6E5436
:100A700072696D005472696D537461746500583108
:100A80005472696D0023202D2D2D2D2D2D20547293
:100A9000696D73202D2D2D2D2D2D005065727369DC
:100AA000737456616C0050657273697374656E740B
:100AB00000496E69744D696E005265736574005328
:100AC00077697463680054696D65720023202D2D69
:100AD0002D2D2D2D2054696D657273202D2D2D2DFA
:100AE0002D2D005265636F72644D696E696D756D71
:100AF000005265636F72644D6178696D756D005366
:100B0000686F774F6E486F6D6500416C61726D5410
:100B100068726573686F6C6400416C61726D436FDD
:100B20006E646974696F6E004F6666736574004D1C
:100B3000756C7469706C69657200466163746F727C
:100B40003130004964656E74696669657200556E7E
:100B50006974734E616D65004E616D65004E6F2E58
:100B60000054656C656D657472790023202D2D2D00
:100B70002D2D2D2054656C656D65747279202D2D99
:100B80002D2D2D2D003A200053776974636857612D
:100B9000726E00436865636B5468726F74746C6541
:100BA0000023202D2D2D2D2D2D205761726E696E65
:100BB0006773202D2D2D2D2D2D00546872537263D7
:100BC00000506974636853726300456C65537263C7
:100BD00000526F6C6C5372630041696C5372630016
:100BE00059617753726300527564537263004D6F9D
:100BF00064656C54797065004D6F64656C4E616D11
:100C000065002323232323204D6F64656C20636FCD
:100C10006E66696775726174696F6E2066696C656E
:100C200020232323232300456C766F6E5200456CEE
:100C3000766F6E5200456C766F6E4C00456C766F29
:100C40006E4C00567461696C5200567461696C5246
:100C500000567461696C4C00567461696C4C004DAF
:100C60006F746F7252004D6F746F7252004D6F74DB
:100C70006F724C004D6F746F724C00560045787463
:100C8000566F6C7473005600457874566F6C7473AD
:100C9000005600457874566F6C74730052504D00C6
:100CA00052504D0052504D00F8430054656D700095
:100CB00052535349001B1E392D36274B4EC98DC642
:100CC00087D89C786CB4E493D2B1E17263000204DB
:100CD00006070809090A0A0A0A0A0A0A0A2070F815
:100CE000486953636F72653A200053636F72653AC7
:100CF0002020200047616D65206F76657200BC057D
:100D000098057405040C06020306040C080808087C
:100D10000C040C08080C06040C0C04040C08080E47
:100D2000030302020604040C080C08080808080C57
:100D3000040701030202020202060404060206037B
:100D4000070404040C080C0C08080808080C060327
:100D5000070404040C060206040C08080C0404042E
:100D60000404040406030101030202030202020355
:100D700003060602020604040E0808080C06060410
:100D8000060206044765742072656164790044694F
:100D900073636C61696D65723A0A2D2D2D2D2D2DB1
:100DA0002D2D2D2D2D0A54686973206669726D777B
:100DB0006172652069732070726F76696465642062
:100DC0002261732069732220776974686F757420BB
:100DD00077617272616E7479206F6620616E79201E
:100DE0006B696E642C2065787072657373206F7206
:100DF00020696D706C6965642E20496E206E6F20CD
:100E00006576656E74207368616C6C20746865200B
:100E1000617574686F7273206F7220636F7079727E
:100E20006967687420686F6C6465727320626520FE
:100E30006C6961626C6520666F7220616E792064F6
:100E400069726563742C20696E6469726563742CC1
:100E500020696E636964656E74616C2C20737065C3
:100E60006369616C2C206578656D706C61727920A6
:100E70006F7220636F6E73657175656E7469616CF6
:100E80002064616D616765732028696E636C7564A9
:100E9000696E6720627574206E6F74206C696D696D
:100EA00074656420746F20706572736F6E616C205E
:100EB000616E642F6F722070726F7065727479202A
:100EC00064616D61676529206F72206F7468657257
:100ED000206C696162696C697479206172697369F7
:100EE0006E672066726F6D2074686520757365206B
:100EF0006F662074686973206669726D77617265C8
:100F00002E0A496D70726F7065726C79206F706512
:100F1000726174696E67205243206D6F64656C73F3
:100F20002063616E20636175736520736572696FFC
:100F3000757320696E6A757279206F7220646561BD
:100F400074682E00F870200A4657207665723A3190
:100F50002E300A286329323032322D323032330AB1
:100F600042756B373435360A0A6769746875622EC4
:100F7000636F6D2F62756B37343536004E6F20729C
:100F80006573706F6E736500577269746520666172
:100F9000696C656400577269746520737563636575
:100FA00073730057726974696E672073657474692E
:100FB0006E6773005B57726974655D0050574D0032
:100FC000536572766F004467746C003A00200043EA
:100FD00068616E6E656C004F757470757420636F18
:100FE0006E666967004E6F20726573706F6E736511
:100FF0000052656164696E672073657474696E6719
:10100000730042696E642074696D656F7574004287
:10101000696E64206661696C65640042696E642073
:10102000737563636573730042696E64696E67000C
:101030005365636F6E646172792072637672004DDE
:1010400061696E2072637672005B436F6E666967DA
:101050007572655D005B42696E645D004661637434
:101060006F7279207265736574206861730A6265B6
:10107000656E20696E697469617465642E0A5265D3
:10108000626F6F7420746F20636F6E74696E756524
:1010900000466163746F727920726573657420779E
:1010A000696C6C0A64656C65746520616C6C2064A5
:1010B0006174612C0A696E636C7564696E67206D7A
:1010C0006F64656C732E0A0A5072657373205B55EA
:1010D000505D0A72657065617465646C79003000FA
:1010E00030006D7300467864206C6F6F703A004C6E
:1010F0006F6F7020233A00627974657300467265E1
:10110000652072616D3A0055702074696D653A0012
:101110002C2000506B7420726174653A005B46614C
:1011200063746F72792052657365745D005B5669F4
:1011300065772063686172207365745D005B447538
:101140006D70206578746E6C20454550524F4D5D32
:10115000005B44756D7020696E746E6C204545505F
:10116000524F4D5D004D6179207265647563652055
:10117000706572666F726D6E63004E6F204C4344F3
:1011800020696E7465726C6163696E670049443AE8
:10119000307833302C205372633A566972743100C0
:1011A00053696D756C6174652074656C656D6574EB
:1011B00072790053686F77206C6F6F702074696D5F
:1011C00065004E2F410044666C74204368206F72A6
:1011D0006465723A004D697865722074656D706C53
:1011E00074733A004175746F736C637420696E7028
:1011F00075743A005B4368616E6765207061737354
:10120000776F72645D005B536574207061737377F0
:101210006F72645D004C6F636B206D6F64656C73FF
:10122000004C6F636B207374617274757000506151
:101230007373776F7264005B4E6578745D0029008C
:1012400028004D756C74706C723A00476175676563
:10125000206D61783A004761756765206D696E3A67
:10126000005B4E6578745D0033504F530032504F31
:101270005300416273656E74003A0053776974637A
:101280006820000A54686573652073657474696E1C
:101290006773206D696768740A61666665637420A8
:1012A000796F7572206578697374696E670A6D6FFE
:1012B00064656C732E0A0A5B4F4B5D20746F20636C
:1012C0006F6E74696E7565005B46696E6973685D03
:1012D000005B4E6578745D00290028004E2F4100A8
:1012E00025003A0041646A75737420646561647A0C
:1012F0006F6E65005B4E6578745D004D6F7665209E
:10130000737469636B732066756C6C792C0A7468EE
:10131000656E2063656E746572207468656D2E0A53
:10132000005B4E6578745D004E6F6E2063656E7471
:101330006572696E670053656C662063656E7465DF
:1013400072696E67003A0054797065206F6620619B
:10135000786973004154524500524541540041455B
:1013600052540052544145004465666C74206D6FC0
:1013700064653A005B53746172745D0043616C692B
:1013800062726174696F6E3A00537469636B7300C3
:10139000000000000000000000000000005377691A
:1013A0007463686573000000000000000000000026
:1013B0000042617474657279000000000000000052
:1013C00000000000005365637572697479000000C5
:1013D0000000000000000000004D697363656C6C44
:1013E000616E656F75730000000000000044656267
:1013F0007567000000000000000000000000000011
:10140000004175746F68696465207472696D733A20
:1014100000416E696D6174696F6E733A00526F7549
:101420006E6420636F726E6572733A0044656E730A
:101430006572206D656E75733A004B656570206D41
:10144000656E75207073746E3A004D656E75206917
:10145000636F6E733A004B65792066696C746572D0
:101460003A004B6579730000000000004163747618
:1014700074790000000057616B652075703A003583
:101480007300000000000000003135730000000010
:1014900000000033307300000000000000316D696F
:1014A0006E000000000000356D696E000000000055
:1014B0000031356D696E00000000004E6576657282
:1014C000000000000054696D656F75743A002500D6
:1014D0004272696768746E6573733A00456E616243
:1014E0006C653A004B6579733A004B6E6F62733AE4
:1014F000005472696D733A00537769746368657359
:101500003A006D696E004F666600496E61637476DD
:1015100074793A00456E61626C653A004C6F7700F1
:101520000000000000004D656469756D000000005A
:101530004D617800000000000000524620706F7777
:1015400065723A005246206F75747075743A005295
:1015500046207365747570000000000000000000F4
:10156000000000536F756E64000000000000000072
:10157000000000000000004261636B6C69676874E2
:101580000000000000000000000000417070656174
:1015900072616E6365000000000000000000004101
:1015A0006476616E63656400000000000000000066
:1015B00000000044656C6574652073656E736F721E
:1015C0003F0A0A596573205B55705D200A4E6F20F3
:1015D0005B446F776E5D005265636F72644D696E38
:1015E0003A005265636F72644D61783A004F6E2025
:1015F000686F6D653A005468726573683A00004F11
:10160000666600000000000000000000000000000E
:1016100000000000013E546872657368000000001D
:1016200000000000000000000000023C54687265E9
:1016300073680000000000000000000000000000CF
:10164000000000000000000000000000000000009A
:10165000000000000000416C657274733A004F6630
:10166000667365743A00466163746F7231303A0094
:1016700030002E004D756C74706C723A0030004969
:10168000443A002D2D00556E6974733A002D2D00DB
:101690004E616D653A0053656E736F7200537065ED
:1016A0006369667920756E6974730053656E736F34
:1016B00072206E616D65005B52657365745D00201C
:1016C00061676F0073006D696E006872004E6F2075
:1016D000646174610054696D6520726376643A00D8
:1016E0004C6173742056616C3A005B52657365748B
:1016F0005D004D696E696D756D3A005B526573658D
:10170000745D004D6178696D756D3A005374617454
:10171000730044656C6574652073656E736F720049
:10172000456469742073656E736F720056696577DE
:1017300020737461747300525353490054656D7083
:10174000657261747572650052504D203420426C90
:10175000616465730052504D203320426C616465B2
:10176000730052504D203220426C61646573004515
:101770007874566F6C747320345300457874566FC8
:101780006C747320335300457874566F6C747320F7
:1017900032530053656E736F72206E616D65005435
:1017A000656D706C61746573004E65772073656E4E
:1017B000736F72003A00466164652D696E3A004E9F
:1017C0002F41005377697463683A002D2D004E61F4
:1017D0006D653A00464D4400466C676874206D6F35
:1017E0006465206E616D65000044697361626C65BB
:1017F0006400000000000000000000000000014341
:101800006F6D6D6F6E0000000000000000000000B2
:101810000000000002466C696768744D6F646500E3
:1018200000000000000000000000000000000000B8
:1018300000000000000000000000000000000000A8
:10184000207472696D3A00005570000000000000BD
:101850000000000000000000000000000001446FD4
:10186000776E000000000000000000000000000093
:10187000000000024D69640000000000000000004C
:10188000000000000000000000FF4E6F6E650000C9
:101890000000000000000000000000000000000048
:1018A0000000000000000000000000000000000038
:1018B00000000000003A0053776974636820005408
:1018C00068726F74746C653A005265736574207346
:1018D000657474696E67730052657365742074690A
:1018E0006D65720053746172742074696D65720065
:1018F00053746F702074696D6572005065727369FE
:1019000073743A00206D696E00496E697469616C88
:101910003A0052657365743A005377697463683AA4
:10192000002D2D004E616D653A0054696D657200A1
:1019300054696D6572206E616D6500436C656172FE
:1019400020616C6C20636F756E7465720A726567D6
:101950006973746572733F0A0A596573205B557029
:101960005D200A4E6F205B446F776E5D00436F759C
:101970006E74657200436F756E746572206E616D72
:101980006500436C65617220616C6C00436C65613D
:101990007220636F756E7465720052657365742092
:1019A00073657474696E67730052656E616D65204E
:1019B000636F756E74657200436F707920746F0089
:1019C000506572736973743A00436C6561723A00D2
:1019D0000055700000000000000000000000000042
:1019E00000000000000001446F776E00000000005E
:1019F00000000000000000000000000000000000E7
:101A000000000000000000000000000000000000D6
:101A10000000446972656374696F6E3A004D6F64CB
:101A2000756C75733A00456467653A00436C6F6383
:101A30006B3A00436F756E746572003A0046756EBE
:101A40006367656E206F75747075747300466765A3
:101A50006E0052657365742073657474696E677384
:101A600000436F707920746F0056696577206F7539
:101A700074707574730053796E636564005B537999
:101A80006E635D0050686173653A00004175746F64
:101A90000000000000000000000000000000000046
:101AA0000001466978656400000000000000000045
:101AB0000000000000000000000000000000000026
:101AC00000000000000000000000000000506861FD
:101AD0007365206D6F64653A005265766572736553
:101AE0003A00436F6E74726F6C3A004D61782070EB
:101AF0006572696F643A004D617820696E74727620
:101B00006C3A004D696E20706572696F64005065B3
:101B100072696F643A004D696E20696E7472766CFA
:101B20003A00496E74657276616C3A0000566172D3
:101B30006961626C650000000000000000000000A8
:101B400000000146697865640000000000000000A4
:101B50000000000000000000000000000000000085
:101B600000000000000000000000000000005065C0
:101B700072696F64206D6F64653A00496E747276A5
:101B80006C206D6F64653A000053696E650000005B
:101B900000000000000000000000000000000153F1
:101BA0007175617265000000000000000000000017
:101BB0000000000002547269616E676C65000000ED
:101BC0000000000000000000000003536177746F04
:101BD0006F746800000000000000000000000000BA
:101BE0000452616E646F6D00000000000000000090
:101BF00000000000000000000000000000000000E5
:101C00000000000000000000000000005761766541
:101C1000666F726D3A004C0052657365742073658F
:101C20007474696E677300436F707920746F00FF7E
:101C3000F88208BA48AA48BA488208FFF83800FF74
:101C4000F88208BA48AA48BA488208FFF800E02D8E
:101C50002D0044757261746E3A002D2D0044656C40
:101C600061793A00436C6561723A000052697369A8
:101C70006E6700000000000000000000000000008F
:101C8000000146616C6C696E670000000000000096
:101C900000000000000000024475616C00000000BC
:101CA0000000000000000000000000000000000034
:101CB0000000000000000000000000000000000024
:101CC0000000002D2D002D2D0056616C7565323AF7
:101CD00000456467653A0052657365743A00506563
:101CE00072696F643A002D2D0056616C7565313A4A
:101CF00000436C6F636B3A005365743A0057696434
:101D000074683A00004E6F6E65000000000000002D
:101D10000000000000000000000001613E780000AB
:101D200000000000000000000000000000000000B3
:101D300002613C780000000000000000000000008C
:101D400000000000000003613D3D7800000000003D
:101D500000000000000000000000000004613E3DA3
:101D600078000000000000000000000000000000FB
:101D7000000005613C3D780000000000000000000C
:101D80000000000000000000067C617C3E7800003E
:101D90000000000000000000000000000000077CC0
:101DA000617C3C78000000000000000000000000A2
:101DB00000000000087C617C3D3D780000000000D0
:101DC00000000000000000000000097C617C3E3D36
:101DD000780000000000000000000000000000008B
:101DE0000A7C617C3C3D780000000000000000009F
:101DF0000000000000000B613E62000000000000D7
:101E00000000000000000000000000000C613C62C7
:101E100000000000000000000000000000000000C2
:101E200000000D613D3D6200000000000000000068
:101E300000000000000000000E613E3D6200000056
:101E400000000000000000000000000000000F6122
:101E50003C3D6200000000000000000000000000A7
:101E60000000000010414E4400000000000000008F
:101E700000000000000000000000114F52000000B0
:101E80000000000000000000000000000000000052
:101E900012584F5200000000000000000000000037
:101EA000000000000000134C617463680000000033
:101EB00000000000000000000000000014546F67E4
:101EC000676C6500000000000000000000000000DA
:101ED00000001550756C73650000000000000000E4
:101EE00000000000000000000000000000000000F2
:101EF0000000000000000000000000000000467527
:101F00006E63746E3A00506F696E743A20004465D7
:101F10006C65746520706F696E74006265666F72BF
:101F2000653A00496E7365727420706F696E740053
:101F30004375727665004375727665206E616D65D6
:101F4000004D696E696D756D2070747320726561E6
:101F500063686564004D6178696D756D2070747398
:101F600020726561636865640044656C6574652012
:101F7000706F696E7400496E7365727420706F695A
:101F80006E7400466C697020766572746963616C6A
:101F900000466C697020686F72697A6F6E74616C4C
:101FA0000052657365742063757276650052656EC4
:101FB000616D6520637572766500436F707920638B
:101FC0007572766520746F00536D74683A005976A7
:101FD000616C3A005876616C3A0050743A00707443
:101FE0007300547970653A004372760043757374D8
:101FF0006F6D20637572766573000000000000004D
:1020000046756E63746E2067656E657261746F727B
:10201000730000004C6F676963616C2073776974AB
:102020006368657300000000436F756E74657273BA
:1020300000000000000000000000000054696D6511
:1020400072730000000000000000000000000000AB
:1020500053616665747920636865636B7300000083
:10206000000000005472696D207365747570000083
:102070000000000000000000466C69676874206D75
:102080006F64657300000000000000004368616E2B
:102090006E656C206E616D650052656E616D6520C8
:1020A0006368616E6E656C0056696577206F757444
:1020B0007075747300456E647074733A009A486F5B
:1020C0006C64000000000000000000000000000040
:1020D0000000009B4E6F50756C736500000000009F
:1020E00000000000000000000000000000000000F0
:1020F000000000000000000000000000000000469A
:1021000061696C736166653A002D2D004F766572CA
:10211000726964653A005375627472696D3A00526F
:102120006576657273653A0043727600FF4E6F6E96
:10213000650000000000000000000000000000003A
:10214000000000000000000000000000000000008F
:10215000000000000000000043757276653A0043FD
:1021600068004368616E6E656C3A00486F6C64008D
:102170003D002A3D002B3D004E6F206D6978657350
:1021800020646566696E656420796574004F7665C4
:102190007276696577004D6978230056697274001C
:1021A0004368004D69786572206F757470757400AE
:1021B000526573657420616C6C206D697865733F3E
:1021C0000A0A596573205B55705D200A4E6F205BCB
:1021D000446F776E5D004D6978206E616D65004FCC
:1021E0006E65206F72206D6F72650A646573746925
:1021F0006E6174696F6E20736C6F74730A616C72B8
:1022000065616479206F636375706965642E0A4344
:102210006F6E74696E75653F0A0A596573205B5568
:10222000705D200A4E6F205B446F776E5D004469DD
:1022300066662074687275737400567461696C0008
:10224000456C65766F6E00426173696300496E7319
:10225000657274206661696C65640054656D706CAC
:10226000617465730053686F77206F766572766965
:10227000657700436F6D70616374206D6978657375
:1022800000526573657420616C6C206D69786573AC
:10229000005265736574206D69780052656E616DDA
:1022A00065206D697800496E736572742066726589
:1022B00065004D6F7665206D697820746F00436FFF
:1022C0007079206D697820746F0056696577206F8A
:1022D0007574707574730053656C656374206174F4
:1022E000206C65617374206F6E65002000464D445C
:1022F00000536C6F77446E3A00536C6F7755703AA9
:1023000000446C7920446E3A00446C792055703A50
:10231000002C00416C6C00462D4D6F64653A004EF8
:102320002F41005472696D20203A004372760000FC
:102330004E6F6E650000000000000000000000000D
:10234000000000000001783E3000000000000000A6
:10235000000000000000000000000002783C300097
:10236000000000000000000000000000000000006D
:1023700000037C787C0000000000000000000000EA
:10238000000000000000000000000000000000004D
:102390000000000000000000000000000043727612
:1023A00056616C3A00004469666600000000000057
:1023B0000000000000000000000000014578706F80
:1023C000000000000000000000000000000000000D
:1023D000000246756E63000000000000000000006F
:1023E0000000000000000003437573746F6D00006F
:1023F00000000000000000000000000000000000DD
:1024000000000000000000000000000000000000CC
:102410000000004375727665203A004F666673656A
:10242000743A005765696768743A00496E7075744C
:10243000203A000041646400000000000000000039
:10244000000000000000000000014D6C74706C7909
:10245000000000000000000000000000000000017B
:102460004D756C7469706C7900000000000000000C
:1024700000000000000252706C6357000000000072
:102480000000000000000000000000025265706CB7
:102490006163650000000000000000000000000013
:1024A0000003486F6C6400000000000000000000A2
:1024B000000000000000000000000000000000001C
:1024C000000000000000000000000000004F7065E8
:1024D00072746E3A005377697463683A004F75748A
:1024E0007075743A0023004D6978206E6F3A0030A1
:1024F00000313030002D313030003A200053776900
:102500007463686573003A004B6E6F6273003A0043
:10251000537469636B7300FE8282828282FEFA8644
:102520008CDAF2A2FE536D74683A005976616C3A07
:10253000005876616C3A0050743A0070747300432E
:102540007572763A005372633A00285261746531AD
:10255000290028526174653229005372633A002DB4
:102560002D00442F523A0025004578706F3A00251F
:1025700000526174653A0044656C657465206D6F46
:1025800064656C3F0A0A596573205B55705D200ACB
:102590004E6F205B446F776E5D004D6F64656C20FD
:1025A000646174612077696C6C0A6265207265737E
:1025B00065742E0A436F6E74696E75653F0A0A5919
:1025C0006573205B55705D200A4E6F205B446F770A
:1025D0006E5D004D6F64656C206461746120776985
:1025E0006C6C2062650A6F766572777269747465C7
:1025F0006E2E0A436F6E74696E75653F0A0A5965DF
:1026000073205B55705D200A4E6F205B446F776EC0
:102610005D004261636B7570206661696C65640082
:1026200041206261636B757020776974680A61206C
:1026300073696D696C6172206E616D650A65786998
:102640007374732E0A4F76657277726974652069A8
:10265000743F0A0A596573205B55705D200A4E6FFE
:10266000205B446F776E5D004D4F44454C005265D2
:1026700073746F7265206661696C6564004D6F6488
:10268000656C20646174612077696C6C2062650AF6
:102690006F7665727772697474656E2E0A436F6E19
:1026A00074696E75653F0A0A596573205B55705DE4
:1026B000200A4E6F205B446F776E5D005265737425
:1026C0006F72652066726F6D205344004E6F206DEF
:1026D0006F64656C73206F6E20534400436F707994
:1026E0002066726F6D004D6F64656C206E616D6564
:1026F0000000416972706C616E65000000000000AE
:1027000000000000000000014D756C7469636F707B
:1027100074657200000000000000000000024F74A9
:10272000686572000000000000000000000000006A
:102730000000000000000000000000000000000099
:102740000000000000000000004D6F64656C207404
:1027500079706500526573746F72652066726F6D73
:10276000205344004E6577206D6F64656C004261B4
:10277000636B757020746F2053440044656C6574FE
:1027800065206D6F64656C004C6F6164206D6F64D3
:10279000656C004E6F206672656520736C6F747394
:1027A00000526573746F72652066726F6D205344BA
:1027B000004261636B757020746F20534400526552
:1027C000736574206D6F64656C00436F707920666B
:1027D000726F6D004475706C696361746500526559
:1027E0006E616D65206D6F64656C00020488502019
:1027F00090067A0664064E06380622060C06F60592
:10280000E0054D6F64656C000000000000000000F2
:10281000000000000000496E707574730000000035
:10282000000000000000000000004D6978657200A3
:1028300000000000000000000000000000004F75D4
:102840007470757473000000000000000000000048
:102850000000457874726173000000000000000001
:1028600000000000000054656C656D6574727900AD
:102870000000000000000000000053797374656DD3
:102880000000000000000000000000000000526591
:1028900063656976657200000000000000000000BA
:1028A000000041626F75740000000000000000002D
:1028B0000000000000004D61696E206D656E7500BE
:1028C000576964676574005265736574207769643D
:1028D000676574004D6F766520746F00436F707983
:1028E00020746F00005E005E005E00FFA1FFA1FF8C
:1028F000A1FF4D61783A0052696768743A004D69EA
:102900006E3A004C6566743A00004E756D657269EA
:1029100063616C0000000000000000000000000186
:1029200047617567650000000000000000000000BE
:1029300000000000000243656E74657247617567B0
:102940006500000000000000000000000000000022
:102950000000000000000000000000000000000077
:1029600000446973703A00200054696D6572004339
:102970006F756E7465720020004368000A417574BB
:102980006F000000000000000000000000000000D8
:102990000000000000000000000000000000000037
:1029A00000000000000000005372633A000054650C
:1029B0006C656D6574727900000000000000000015
:1029C000000000014D6978536F75726365730000F4
:1029D000000000000000000000024F757470757464
:1029E0007300000000000000000000000000000371
:1029F00054696D6572730000000000000000000063
:102A0000000000000004436F756E7465727300006F
:102A100000000000000000000000000000000000B6
:102A200000000000000000000000000000000000A6
:102A300000547970653A0057696467657400576996
:102A40006467657473005365747570207769646793
:102A50006574730052657365742074696D657220C6
:102A60003100000000000000526573657420746935
:102A70006D65722032000000000000005265736531
:102A8000742074696D65722033000000000000003E
:102A900053746172742074696D6572203100000096
:102AA0000000000053746172742074696D657220B7
:102AB00032000000000000005374617274207469D9
:102AC0006D657220330000000000000053746F70C9
:102AD0002074696D65722031000000000000000064
:102AE00053746F702074696D6572203200000000AD
:102AF0000000000053746F702074696D657220339C
:102B0000000000000000000020003A004368004F71
:102B10007574707574730054656C656D6574727945
:102B200020756E6D757465640054656C656D6574B3
:102B30007279206D75746564003A00436F756E7428
:102B40006572003A00206F7574004368003A003ADD
:102B50000040D4C8D44029002800464D44002050ED
:102B60005050F8D8F81030D592D530104482BA922F
:102B70005410107C3C3E5E2B3D3F2F5B5D3B2C2A6E
:102B8000225C00000020002300260029002C002FDA
:102B900000320000010000030106010901020000EB
:102BA0002200250028002B002E00310034000201F5
:102BB0000000050108010B01507265706172696EB9
:102BC000672073746F72616765004D6F64656C2078
:102BD0006461746120696E0A45787465726E616C17
:102BE00020454550524F4D0A706F737369626C797E
:102BF00020636F72727570742E0A5265736574204B
:102C000069743F0A0A596573205B55705D200A4E4E
:102C10006F205B446F776E5D0045787465726E61FE
:102C20006C20454550524F4D0A6E6F7420666F728E
:102C30006D61747465642E0A507265737320616EE1
:102C400079206B657900507265706172696E6720DA
:102C500073746F7261676500507265706172696E3E
:102C6000672073746F72616765004D6F64656C20D7
:102C70006461746120696E0A496E7465726E616C7C
:102C800020454550524F4D0A706F737369626C79DD
:102C900020636F72727570742E0A526573657420AA
:102CA00069743F0A0A596573205B55705D200A4EAE
:102CB0006F205B446F776E5D0053797374656D2090
:102CC000646174610A706F737369626C7920636FF9
:102CD00072727570742E0A52657365742069743F40
:102CE0000A0A596573205B55705D200A4E6F205BA0
:102CF000446F776E5D00496E7465726E616C20453D
:102D00004550524F4D0A6E6F7420666F726D61743C
:102D10007465642E0A507265737320616E79206B3E
:102D200065790000002100240027002A002D0030D2
:102D300000330001010000040107010A0101021033
:102D400020200808102040102040800201020108C5
:102D50000402010102040810204080804020100875
:102D600004020180040201804020100804020108CE
:102D7000040201010204081020408001020408102E
:102D8000204080050505050705080808080202021D
:102D9000020A0A08080404040401010101010101F6
:102DA000010303030303030303040707070C0C0CCD
:102DB0000C0C0C0C0C0202020206060606060606A5
:102DC000060B0B0B0B0B0B0B0B57656C636F6D65D9
:102DD0000000060D13191F252B30363B4044494D8A
:102DE0005154585A5D5F6162636464646362615FF9
:102DF0005D5A5854514D4944403B36302B251F19DC
:102E0000130D0600FAF3EDE7E1DBD5D0CAC5C0BC6F
:102E1000B7B3AFACA8A6A3A19F9E9D9C9C9C9D9E72
:102E20009FA1A3A6A8ACAFB3B7BCC0C5CAD0D5DB21
:102E3000E1E7EDF3FA05000F001E003C002C0184D1
:102E400003000066616C73650074727565003A205A
:102E50000020200073002E0001020702070B070B61
:102E60000E0B0E0D0E0D080D0804080401040102DE
:102E700000000A0B02090C0D0E08070304010000F4
:102E80000000000000000000000000000000000042
:102E900000000000000000000000000012111000FF
:102EA0000000000000000000000000000000000022
:102EB0000000000000005F446F776E005F4D6964A2
:102EC000005F5570004E6F6E65007FFFFF808000D1
:102ED00000408000004080000060800000608000B2
:102EE0000060800000608000006080000040800082
:102EF00000407FFFFF807FFFFF80F8000040F80068
:102F00000040F0000060F0000060F0000060E000B1
:102F10000060E0000060C0000040C00000407FFF93
:102F2000FF807FFFFF80C0000040C0000040E00045
:102F30000060E0000060F0000060F0000060F00061
:102F40000060F8000040F80000407FFFFF80436F02
:102F5000756E7465720056697274004368004C00A7
:102F60004667656E005377005275640059617700BB
:102F7000456C650050697463680041696C00526F6C
:102F80006C6C00546872004D6178004B6E6F624249
:102F9000004B6E6F624100593400583400593300C1
:102FA0005833005932005832005931005831004E20
:102FB0006F6E650021464D4400464D4400214C0093
:102FC0004C00537700215377002D2D00005EBCE2AA
:102FD000613FDD83C29C7E20A3FD1F419DC3217FF5
:102FE000FCA2401E5F01E3BD3E6082DC237D9FC1E9
:102FF000421CFEA0E1BF5D0380DE3C62BEE0025CDD
:10300000DF81633D7C22C09E1D43A1FF4618FAA4C8
:1030100027799BC584DA3866E5BB5907DB856739B4
:10302000BAE406581947A5FB7826C49A653BD987A8
:10303000045AB8E6A7F91B45C6987A24F8A6441A9C
:1030400099C7257B3A6486D85B05E7B98CD2306E88
:10305000EDB3510F4E10F2AC2F7193CD114FADF374
:10306000702ECC92D38D6F31B2EC0E50AFF1134D68
:10307000CE90722C6D33D18F0C52B0EE326C8ED05C
:10308000530DEFB1F0AE4C1291CF2D73CA94762848
:10309000ABF517490856B4EA6937D58B5709EBB534
:1030A00036688AD495CB2977F4AA4816E9B7550B28
:1030B00088D6346A2B7597C94A14F6A8742AC8961C
:1030C000154BA9F7B6E80A54D7896B3542616420DD
:1030D00073797374656D20646174612E0A4C6F613D
:1030E00064696E672064656661756C747300426123
:1030F00064206D6F64656C20646174612E0A4C6F8E
:103100006164696E672064656661756C7473000044
:10311000000000003E5B4F5B3E3E6B4F6B3E1C3E33
:103120007C3E1C183C7E3C181C577D571C1C5E7F47
:103130005E1C00183C1800FFE7C3E7FF00182418C6
:1031400000FFE7DBE7FF30483A060E2629792926FB
:10315000407F050507407F05253F5A3CE73C5A7FE5
:103160003E1C1C08081C1C3E7F14227F22145F5F3B
:10317000005F5F06097F017F006689956A60606075
:10318000606094A2FFA29404027F020410207F20BA
:103190001008082A1C08081C2A08081E1010101005
:1031A0000C1E0C1E0C30383E3830060E3E0E06004B
:1031B0000000000000005F00000007000700147F0F
:1031C000147F14242A6B2A1223130864623649558B
:1031D00022500000070000001C2241000041221C78
:1031E0000014083E081408083E080800005030008B
:1031F0000808080808000060600020100804023E6B
:103200005149453E44427F40404261514946214137
:10321000454B311814127F1027454545393C4A4922
:10322000493001017905033649494936064949299A
:103230001E00002400000040340000000814224159
:103240001414141414412214080002015109063EFA
:103250004149550E7E1111117E7F494949363E4143
:103260004141227F4141221C7F494949417F09094F
:1032700009013E415151727F0808087F00417F419A
:10328000002040413F017F081422417F40404040E0
:103290007F020C027F7F0408107F3E4141413E7F48
:1032A000090909063E4151215E7F0919294626492F
:1032B00049493201017F01013F4040403F1F20400A
:1032C000201F7F2018207F631408146307087008EC
:1032D000076151494543007F414100020408102025
:1032E0000041417F000402010204808080808080D0
:1032F0000305000020545454787F4844443838442F
:10330000444420384444487F3854545458087E0973
:10331000090298A4A4A87C7F0804047800447D4096
:10332000004080847D007F20102844003F404020E2
:103330007C041804787C080404783844444438FC3D
:103340002824241818242428FC7C08040408485441
:10335000545424043F4444203C4040207C1C2040E2
:10336000201C3C4030403C44281028449CA0A0A095
:103370007C4464544C4400083E414100007F0000FE
:1033800041413E080002010302013C2623263C1E67
:10339000A1A161123A4040207A3854545559215520
:1033A000557941225454784221555478402054553F
:1033B00079400C1E5272123955555559395454548E
:1033C0005939555454580000457C410002457D420E
:1033D0000001457C407D1211127DF0282528F07CEB
:1033E000545545002054547C547C0A097F49324985
:1033F0004949323A4444443A324A4848303A4141D1
:10340000217A3A42402078009DA0A07D3D42424270
:103410003D3D4040403D3C24FF2424487E494366D6
:103420002B2FFC2F2BFF0929F620C0887E090320B3
:10343000545479410000447D413048484A32384074
:1034400040227A007A0A0A727D0D19317D262929D7
:103450002F28262929292630484D402038080808D9
:103460000808080808382F10C8ACBA2F102834FAFA
:1034700000007B000008142A142222142A14085584
:1034800000550055AA55AA55AAFF55FF55FF000043
:1034900000FF00101010FF00141414FF001010FFA4
:1034A00000FF1010F010F0141414FC001414F700B6
:1034B000FF0000FF00FF1414F404FC141417101F85
:1034C00010101F101F1414141F00101010F0000013
:1034D00000001F101010101F10101010F01000002E
:1034E00000FF101010101010101010FF100000003E
:1034F000FF140000FF00FF00001F10170000FC0475
:10350000F414141710171414F404F40000FF00F757
:1035100014141414141414F700F7141414171410BA
:10352000101F101F141414F4141010F010F00000E9
:103530001F101F0000001F14000000FC140000F00A
:1035400010F01010FF10FF08081408081010101FCA
:1035500000000000F010FFFFFFFFFFF0F0F0F0F0C0
:10356000FFFFFF0000000000FFFF0F0F0F0F0F38DD
:1035700044443844FC4A4A4A347E02020606027E2B
:10358000027E0263554941633844443C04407E2036
:103590001E2006027E020299A5E7A5991C2A492A47
:1035A0001C4C7201724C304A4D4D303048784830D6
:1035B000BC625A463D3E494949007E0101017E2ACE
:1035C0002A2A2A2A44445F444440514A4440404401
:1035D0004A51400000FF0103E080FF000008086B33
:1035E0006B0836123624360006090600000018184B
:1035F0000000001010003040FF0101001F01011EFB
:1036000000191D1712003C3C3C3C00000000005318
:1036100068757474696E6720646F776E003A200075
:1036200066616C7365007472756500FA00910E1026
:10363000004B006E02200010032000A4032000971E
:10364000041000A000000008000B021000930210FC
:1036500000780000000800D20104005A00000008B1
:10366000000B022000880120000B022000FA004B12
:10367000021000D20000001000B807100000001077
:1036800000B807080022011704040000002000A46D
:103690000304000000200010030400780000001064
:1036A0000093020800506C6561736520776169744E
:1036B000000A42617474657279206C6F7700222F62
:1036C000F62E222FF62E222FCA2ECA2E4D6F64659B
:1036D0006C0030003A0030003A002D0056003000F7
:1036E0002E002D0073002E002030F8FCF8302074DE
:1036F0006F3A004D6F76652000436F707920004E61
:103700006F20646174610030002E002D0043616EF3
:10371000277420626520656D70747900496E636F4F
:1037200072726563742070617373776F72640045A1
:103730006E7465722070617373776F726400436199
:103740006E2774206C6F61642068657265005B4F42
:103750004B5D20746F20736B697000436865636B09
:103760002073776974636865733A0007004368657E
:10377000636B207468726F74746C653A000700574D
:1037800041524E494E470004000A00110015002422
:10379000802480404044408020FFE000CE0011247F
:1037A0001FBECFEFD1E2DEBFCDBF00E00CBF13E004
:1037B000A0E0B2E0E4E5F2EB02E00BBF02C007904C
:1037C0000D92A832B107D9F72EE1A8E2B3E001C00B
:1037D0001D92A735B207E1F71BE1CFECDBE100E07A
:1037E00006C021970109802FFE010F947958CE3C25
:1037F000D10780E00807A9F70F9454310D94285998
:103800000C9400002F923F924F925F926F927F92A2
:103810008F929F92AF92BF92CF92DF92EF92FF92E0
:103820000F931F93CF93DF93CDB7DEB7CC5AD10957
:103830000FB6F894DEBF0FBECDBF8091D0078111C7
:1038400004C08091251581112BC29DE0E92E9DE1D8
:10385000F92E07E614E0C057DF4F19830883C059DB
:10386000D04021E0A22E2DE1B22E35EFC32E3CE157
:10387000D32E42EF842E4CE1942E5AE6252E54E0AE
:10388000352E05EB18E0CE56DF4F1882C259D040D6
:10389000D80155968C91882309F4AFC1F1011082AB
:1038A0000E9431FC8111AEC1F70180819181A2811A
:1038B000B381F50180839183A283B3830E941FE4C7
:1038C000D6016D937D938D939C931397F401108291
:1038D000D80156968C918111BCC1F8012789222309
:1038E00049F130E0A0E6BAEE0F94C556D7012D910C
:1038F0003D914D915C91621773078407950770F4B1
:103900002B013C01B4EF4B0EB1E05B1E611C711C3E
:10391000241535054605570508F4ADC126173707A8
:103920004807590738F4C057DF4FA881B981C059FB
:10393000D0401C92F801808D882309F497C1F701CB
:1039400080819181A281B381F801818F928FA38FB1
:10395000B48FCE56DF4FB881C259D040BF5FCE562C
:10396000DF4FB883C259D040015F1F4FE4E0EE0E35
:10397000F11CC057DF4F28813981C059D0402F5FDB
:103980003F4FC057DF4F39832883C059D04034E0C0
:10399000A30EB11C44E0C40ED11C5FEF851A950A3A
:1039A0006FEF261A360AB33009F072CF0F949925BB
:1039B0000F947006F090831DF11005C180911215CF
:1039C0008111EEC11092400281E080930F16909118
:1039D000241D9D3508F47FC19093231D1092241D52
:1039E000809344021092611D8093420280934302AF
:1039F0008FEF809341020F946606809145028823E1
:103A000009F4EFC2809130158111E7C18091321520
:103A10008111E0C10E9424D70E9464D8A9E1CA2E76
:103A2000ADE1DA2EB1EAAB2EB8E0BB2E07E611E12C
:103A300085EB682E88E0782E760194E6292E312CCD
:103A4000412C512C8824839419C022E092120EC07C
:103A5000F80147815085052E000C660B770B841703
:103A60009507A607B70714F4D7018C92BFEFEB1A9E
:103A7000FB0A045E1F4F6A147B04E9F1D7011C9214
:103A8000F501219131915F012F3FFFE73F0771F36E
:103A9000D80116969C901697992041F30D90BC91F1
:103AA000A02D0F948158A20191010F947156F80135
:103AB00083819481092E000CAA0BBB0B820F931FEC
:103AC000A41FB51FF1E09F12C0CFF80147815085B8
:103AD000052E000C660B770B481759076A077B0702
:103AE0002CF6D7019C92BFEFEB1AFB0A045E1F4F26
:103AF0006A147B0419F628E733E0EEE6F3E091E080
:103B0000A9010DC080818111D9C0DA011C924F5FDB
:103B10005F4F3196B3E2CB16BDE1DB06C1F0D601B3
:103B20008D916D01813071F7DA018C918111EFCFA8
:103B300080818F5F8083873950F3DA019C934F5FD8
:103B40005F4F3196B3E2CB16BDE1DB0641F742E8A9
:103B500053E005C04E175F0711F40C94BA4CF901FD
:103B600081919F018823B1F380916D03882309F42B
:103B700020C16091391570913A1580913B15909153
:103B80003C1521E020936D030091690310916A03B5
:103B900020916B0330916C03601B710B820B930BB4
:103BA0002AEF30E040E050E00F94A356672B682BDB
:103BB000692B39F480916204811103C085E0809300
:103BC000C1140E945DF1C455DF4F0FB6F894DEBFFB
:103BD0000FBECDBFDF91CF911F910F91FF90EF905E
:103BE000DF90CF90BF90AF909F908F907F906F901D
:103BF0005F904F903F902F900895D1018C91882332
:103C000009F452CED5014D905D906D907C900E944C
:103C10001FE4AB01BC01D6018D919D910D90BC912B
:103C2000A02D481A590A6A0A7B0AD301C201840FDF
:103C3000951FA61FB71FF70180839183A283B383CB
:103C4000E1E0D401EC93D80156968C91882309F4D5
:103C500044CE0E9431FC882309F43FCECE56DF4F7C
:103C60008881C259D0400F94933037CE118E128E76
:103C7000138E148E6ECEC057DF4FA881B981C05904
:103C8000D040EC91E1114ACEB3E0B093C11421E0F1
:103C9000C057DF4FE881F981C059D04020834ACE18
:103CA00080912115882309F4D0CD8091CF078150D0
:103CB000833008F0CACD0F946606C7CD815080834B
:103CC000882309F422CF873908F421CFDA018C91B7
:103CD00081111DCF32CFE92FF0E08827ED58F14E4A
:103CE0008F4F0D947958F547963A523BC2498D4B08
:103CF000C744C744874B5846914622373D479746AD
:103D0000E646BD431E444E4470447733EC4AC847F0
:103D10005E4B993FC23FC1200B1F4D210022F82965
:103D2000F829372ACA24BC33BC33652AA72A0121C3
:103D300050287D26BD26BA254F26E2351C36B222F4
:103D40003A233D249024A031AA360F333D33F32487
:103D50001C2536253D3FFF3B393C9B4234434E34C6
:103D6000A93EAB3D4C3E6834B435A43447357D2C78
:103D70006D3AA22CDC2CCA37C338B039673A5E2DB5
:103D80007930982D142EDD2EEF2ECC2F11301130DE
:103D90007E280E2969297145E63C5C3D06453F4277
:103DA00065E084E195E10F940E0E882309F40CCEB2
:103DB00009CE6091391570913A1580913B1590911B
:103DC0003C156093690370936A0380936B0390932F
:103DD0006C03D7CE10920F161DCEE12C09E02DE01A
:103DE00047E362E78EEF95E10E94CBEF83E7809394
:103DF000061688E38093071640918C1250918D121D
:103E000060918E1270918F122AE030E08EEF95E172
:103E10000E941BDEFBCD8091611D811103C085E0F6
:103E20000F9479222091440280911E02281718F4E1
:103E300020931E02822F30E0482F50E04D5F5F4FED
:103E40008F5F4217530714F00CC0892F91E0980F31
:103E5000482F50E04D5F5F4F42175307B4F38093F4
:103E60001E022091051630E0C901849797FD019646
:103E700095958795B82EAA24A394A80E68E282503F
:103E80000E94F1DA1A2DF12CB9E17B2E03E2802E8B
:103E90008DE0982ED0901E02DF0C809144028D158B
:103EA00011F40C94AC51DA944D2C512CE091F103A7
:103EB0007E9EF0011124EA58F64F808190E00D2C8F
:103EC00002C0959587950A94E2F74EE155E280FD90
:103ED00002C047E155E2EE24E39407E027E0612FBA
:103EE00089E10E9498D980920616109307166DEE0C
:103EF00072E28EEF95E10E9441DEB2016F5F7F4F6B
:103F00008EEF95E10E94EBDA6BEE72E28EEF95E1B7
:103F10000E9441DED99CB00111246E51704F8EEF8A
:103F200095E10E942CDEF394175FF4E0CF2EFC1095
:103F3000B1CF80912A15882311F40C94935DBA2C8B
:103F400082E290E020911E0230E07C0104E010E06B
:103F500045E050E06B2D80E70F949B1F8091621D20
:103F6000813011F40C9478828091611D882339F09E
:103F7000809133158250823010F40C9461948091BA
:103F80003415813009F039CDE091F10359E1E59F15
:103F9000F0011124EA58F64F90819F7111F00C94B2
:103FA00004840F94660687ED92E29093601D8093DF
:103FB0005F1D0E941FE460935B1D70935C1D8093E6
:103FC0005D1D90935E1D6053784F8F4F9F4F6093A0
:103FD000571D7093581D8093591D90935A1D109230
:103FE00045020E941FE4AB01BC0100915B1D1091D2
:103FF0005C1D20915D1D30915E1D8091571D90913B
:10400000581DA091591DB0915A1D805E9C4FAF4F15
:10401000BF4F401751076207730708F4A8C048173D
:1040200059076A077B0708F0A2C0E0912B15EE2321
:1040300011F40C94C94C68017901E0E9CE0EE1E07D
:10404000DE1EE11CF11C4C155D056E057F0510F0B0
:104050000C946D4D401B510B620B730BDB01CA01BD
:10406000880F991FAA1FBB1F880F991FAA1FBB1F6C
:10407000880F991FAA1FBB1F880F991FAA1FBB1F5C
:104080005C016D01A41AB50AC60AD70AC601B501BA
:1040900020E931E040E050E00F94A356E22FF0E039
:1040A000E353F34FE4918FE3F82EFE1A80915F1DE6
:1040B0009091601D0F94EA55982F990F890F182F32
:1040C000110F80910416811B990B97FD0196959510
:1040D0008795D82E25E0821710F435E0D32E8091F5
:1040E0002A1581110C94BE4C49E0410F8BEF8D0DC8
:1040F00000E0E12C2BE06F2D0E94FDD880912A1565
:10410000882311F40C94D67147E0410FCE56DF4F4F
:10411000A880C259D0408A2D90E0880F991F481777
:10412000190649F044F00A2D29E061E06F0D8CEF8B
:104130008D0D0E945ED910920816D0920616F39447
:10414000F394F092071660915F1D7091601D40E23C
:1041500050E083E69DE10F94D65563E67DE18EEF56
:1041600095E10E942CDE81E0809308164BCC8417E9
:104170009507A607B70708F045CC81E08093450274
:1041800041CC8AE298E20F942C2D1091F103612E1C
:10419000712C8091F00381110EC089E1869DF001A0
:1041A000879DF00D1124E359F64F80818093EF0332
:1041B00081E08093F00389E1869DF001879DF00DF9
:1041C0001124E259F64F20813091BE0880E091E041
:1041D000F12C12C08A3011F40C94284DE1E0F0E08B
:1041E000EC0FFD1FEF0DF11D8083F3949F3011F450
:1041F0000C94EE4D9F5F8F5F233061F7843070F336
:10420000F5CF88EA90E29093371D8093361D109287
:10421000261D89E990E29093391D8093381D81E035
:104220008093271D82E08093561D0F948B2210915E
:104230004102113011F40C9453C7111114C0809134
:10424000241D8093231D81E08093241D80934402CC
:104250001092611D80934202809343028FEF8093FE
:1042600041020F94660680913415813009F0C5CB68
:104270009091241D9093231D93E29093241D80938D
:1042800044021092611D80934202809343028FEF9B
:10429000809341020F946606B0CB8AEC92E2909331
:1042A000371D8093361D1092261D8EEB92E290935F
:1042B000391D8093381D81E08093271D82EB92E2A7
:1042C00090933B1D80933A1D82E08093281D86EADF
:1042D00092E290933D1D80933C1D83E08093291DC5
:1042E0008BE992E290933F1D80933E1D84E0809382
:1042F0002A1D81E992E29093411D8093401D85E043
:1043000080932B1D81E892E29093431D8093421D80
:1043100086E080932C1D83E792E29093451D809365
:10432000441D87E080932D1D85E692E29093471D02
:104330008093461D89E080932E1D8093561D8091A9
:10434000BE08823010F40C94975D0F948B2210916C
:104350004102111117C08091241D8093231D8BE110
:104360008093241D81E0809344021092611D80930C
:104370004202809343028FEF809341020F946606BE
:1043800010914102113011F40C94A4BB123011F4BD
:104390000C9487BB133011F40C94C66B143011F4D9
:1043A0000C94697D153011F40C94437D163011F492
:1043B0000C942A7D173011F40C94846B183011F48E
:1043C0000C94C0BB193011F40C946BC78091341558
:1043D000813009F012CB9091241D9093231D98E118
:1043E0009093241D809344021092611D8093420299
:1043F000809343028FEF809341020F946606FDCABB
:1044000010920F1683EA91E20F942C2D8091EA030B
:1044100081111CC0E091F10309E1E09FF00111243A
:10442000E359F64F80819FEC980F943110F00C9473
:104430002E7E8952990B959587959595879595959B
:10444000879580931D0281E08093EA0381E0809349
:10445000611D80911D0202E021E041E050E064E036
:1044600070E090E00F94AF2080931D02109206162A
:1044700097E090930716843010F00C944369815EA6
:10448000182F110F110F110F60EA71E28EEF95E1F5
:104490000E9441DE20E083E1682E812F90E05C01E4
:1044A00037E0A30EB11C611610F40C94B251FF2436
:1044B000F394F10ECF2CD12CF21AE7E07E2E322E9F
:1044C000311AF9E18F2E912CA4E24A2EB9E35B2E2A
:1044D0001FEF120F2EC061110C94C97147E260E109
:1044E000872D0E94FCDB69E06F1510F40C94204DC1
:1044F0008EEF870D80930616509207164AE050E023
:104500006F2D8EEF95E10E9425DE232D2F0DC60124
:10451000AC14BD0414F40C94B3514FEFC41AD40A74
:10452000F39450E1750E312F3F0D631610F40C9487
:10453000B351880F991FFC01E55AF74F8081918193
:10454000B4010F946558062F16162CF6442D461B01
:10455000EE24E39423E06FEF670D8EEF95E10E9468
:10456000CBEFBCCF1091E903E12EF12C8091DF035A
:10457000811118C081E08093DF038091E8038823D4
:1045800071F098E29E9DF0019F9DF00D1124EC5A70
:10459000F24F20812150330B821713060CF081E07B
:1045A0008093180263E28EE00E94F1DA01E1009349
:1045B000061682E1809307166EE07FE18EEF95E1AB
:1045C0000E9441DE009306160CE10093071666E098
:1045D0007FE18EEF95E10E9441DE87E4809306162D
:1045E00000930716609118026F598EEF95E10E94B3
:1045F00050EF6CE18FE30F94AC2D81E08093611D4F
:1046000048E2D42EDE9CF001DF9CF00D1124EC5A20
:10461000F24F40814250550B8091180202E021E098
:1046200061E070E090E00F94AF20982F8093180223
:104630002091621D213011F40C94F1768091341593
:10464000813009F0DAC91092DF039091241D909314
:10465000231D97E29093241D809344021092611DC4
:1046600080934202809343028FEF809341020F9424
:104670006606C3C910920F1684E190E20F942C2DA8
:104680009090DE03C92CD12C5601AA0CBB1CAA0C9D
:10469000BB1CAA0CBB1CF501EC0DFD1DE252F14F39
:1046A00080818351833010F40C9466698091611D80
:1046B000882311F40C947FC880914402873011F450
:1046C0000C946269863011F40C9454698091621DD7
:1046D000813011F40C94F38488E08093061689E00D
:1046E000809307166091DE03635E40E283E69DE1FE
:1046F0000F943D0C63E67DE18EEF95E10E942CDE88
:1047000020910616295001E041E168E08EEF95E125
:104710000E9454F01092061614E1109307166EEFE3
:104720007EE18EEF95E10E9441DE86E380930616DE
:104730001093071685010C0D1D1D0252114FF80133
:10474000608184E09DE10E940BF9BC018EEF95E150
:104750000E942CDE109206168DE180930716D80178
:104760008C91853111F40C94EB84833111F40C9409
:1047700099C8843111F40C9491C869EE7CE18EEFF4
:1047800095E10E9441DE86E3809306168DE18093D9
:104790000716C5018C0D9D1D8B54974FFC01E75DDD
:1047A000F94F2081222311F40C947069253110F007
:1047B0000C9484C8203110F00C947F9A213078F04A
:1047C000865D994F40E2FC01608183E69DE10F9494
:1047D0003D0C63E67DE18EEF95E10E942CDE1092A8
:1047E000061686E280930716F501EC0DFD1DE252D8
:1047F000F14F8081853111F40C945994833111F477
:104800000C945194843111F40C94949069EC7CE1F3
:104810008EEF95E10E9441DE86E38093061686E2E4
:1048200080930716F501EC0DFD1DE252F14FE0817A
:10483000EE2311F40C940E74E150E53110F00C9459
:104840000452F0E08827E85DFB4D8F4F0D947958B6
:10485000E951E951E951E951E951E951E951E95188
:10486000E951E9517B847B847B847B847B84CE8487
:10487000CE84CE84CE84BA843C7E87E29CE1909341
:10488000371D8093361D1092261D88E19CE1909380
:10489000391D8093381D01E00093271D82E080932D
:1048A000561D0F948B221091410211111AC0809154
:1048B000DE038093DD038091241D8093231D8FE20E
:1048C0008093241D009344021092611D00934202C4
:1048D000009343028FEF809341020F94660610917C
:1048E0004102113011F40C94909A8091341581306A
:1048F00009F083C89091241D9093231D9DE290930D
:10490000241D809344021092611D80934202809383
:1049100043028FEF809341020F9466060C94FD1CB6
:1049200081E08093611D8091DD0302E021E043E19D
:1049300050E070E060E090E00F94AF208093DD03E2
:1049400021E0482F6091DE0386E19CE10F94F62D73
:104950008091621D813011F40C94A1C880913415AE
:10496000813011F00C94FD1C9091241D9093231D17
:104970009DE29093241D809344021092611D8093C8
:104980004202809343028FEF809341020F946606A8
:104990000C94FD1C80EB91E20F94962F8091621D88
:1049A000823011F40C9437AF833031F0809134159C
:1049B000813011F00C94FD1C8091241D8093231DE7
:1049C00088E18093241D81E0809344021092611D50
:1049D00080934202809343028FEF809341020F94B1
:1049E00066060C94FD1C8BE399E10F94962F809141
:1049F000621D823011F40C94DD71833031F08091AE
:104A00003415813011F00C94FD1C8091241D80938D
:104A1000231D80E38093241D81E080934402109243
:104A2000611D80934202809343028FEF8093410285
:104A30000F9466060C94FD1C1091D603E12EF12C08
:104A40008091251D882311F40C947F69FDE01F9F40
:104A5000B00111246E51704FE12C01E021E047E0DC
:104A600088ED97E10F9476230C94FD1C80E090E292
:104A70000F942C2D6091DC03E62EF12CBBE06B9F94
:104A8000C00111248B54974FFC01E558FF4F208142
:104A9000211125C031962081318182589F4FDC0140
:104AA0008D919C9128173907D0F02835324020F09D
:104AB00087E592E0918380832BE02E9DC0012F9D9E
:104AC000900D11248B54974FFC01E258FF4F8458EE
:104AD0009F4FDC018D919C9101969183808388E0AA
:104AE0008093061689E080930716605F40E283E6B4
:104AF0009DE10F943D0C63E67DE18EEF95E10E9410
:104B00002CDE20910616295001E041E168E08EEF8D
:104B100095E10E9454F02BE02E9DC0012F9D900D39
:104B200011248B54974FFC01E558FF4F308120E052
:104B3000712C86589F4F13C0311117C04AEF420F96
:104B4000423040F0E1E0F0E0EC0FFD1FE70DF11D19
:104B5000208373942F5F283011F40C94C5543130A6
:104B600059F74DEF420F4330A8F3FC014081443028
:104B700049F7E4CF8AEB9FE19093371D8093361D70
:104B80001092261D8DEA9FE19093391D8093381D68
:104B900001E00093271D81EA9FE190933B1D8093E4
:104BA0003A1D82E08093281D81E99FE190933D1D8D
:104BB00080933C1D83E08093291D83E89FE19093BF
:104BC0003F1D80933E1D84E080932A1D86E79FE170
:104BD0009093411D8093401D85E080932B1D89E6B5
:104BE0009FE19093431D8093421D86E080932C1D8E
:104BF00087E08093561D0F948B2210914102111172
:104C00001AC08091E9038093E1038091241D809371
:104C1000231D8AE28093241D009344021092611D9B
:104C200000934202009343028FEF809341020F945E
:104C3000660610914102113011F40C94388A12303A
:104C400011F40C94178A133011F40C94A7731430D8
:104C500011F40C947373153011F40C94EB5D163051
:104C600011F40C94C75D80913415813011F00C94CF
:104C7000FD1C9091241D9093231D97E29093241D79
:104C8000809344021092611D8093420280934302FC
:104C90008FEF809341020F9466060C94FD1C11E087
:104CA0001093251D6091E90328E2629FB001112451
:104CB000625B724FE12C01E021E046E086E39FE178
:104CC0000F9476238091251D81110C94FD1C8091F9
:104CD000241D8093231D87E28093241D109344029A
:104CE0001092611D10934202109343028FEF809344
:104CF00041020F9466060C94FD1C82E598E20F9425
:104D0000722D8091BE080AE112E02BE132E050E002
:104D100040E0823011F40C94786968E08CEE9FE1F9
:104D20000F94FB2B8091621D813011F40C94EF6580
:104D300080913415813011F00C94FD1C9091281550
:104D4000911104C080931B0280931A028091241D4C
:104D50008093231D88E08093241D81E0809344028A
:104D60001092611D80934202809343028FEF8093E3
:104D700041020F9466060C94FD1C8CEE9FE10F948B
:104D80002C2D8091E903C82ED12CE8E28E9FC00122
:104D900011248C01025B124F580188E080930616A3
:104DA00019E01093071668EE7FE18EEF95E10E94FF
:104DB00041DE6091E90370E06F5F7F4F8EEF95E118
:104DC0000E94EBDA66E0C5010F940E0E81110CC053
:104DD000809106168A5F8093061610930716B50118
:104DE0008EEF95E10E942CDE20910616295001E0FD
:104DF00041E168E08EEF95E10E9454F010920616B2
:104E000014E11093071662EE7FE18EEF95E10E94A8
:104E100041DE0AE2F02EF09206161093071688E2A1
:104E20008C9D80018D9D100D11240B54174FF8019E
:104E3000E156FB4F4AE050E060818EEF95E10E9421
:104E400025DE6EED7FE18EEF95E10E9441DE10924E
:104E500006168DE1E82EE09207166AED7FE18EEFEF
:104E600095E10E9441DEF0920616E09207166091ED
:104E7000E8036F598EEF95E10E9450EF10920616ED
:104E800096E2E92EE092071664ED7FE18EEF95E160
:104E90000E9441DEF0920616E0920716E091E803C8
:104EA000E00FF12FF11DE056FB4F6081062E000C44
:104EB000770B8EEF95E10E94EBDA109206162FE247
:104EC000E22EE09207166EEC7FE18EEF95E10E94F4
:104ED00041DEF0920616E0920716E091E803E00F3B
:104EE000F12FF11DE055FB4F6081062E000C770B72
:104EF0008EEF95E10E94EBDA1092061688E380931C
:104F0000071668EC7FE18EEF95E10E9441DEF80123
:104F1000E054FB4F80814EE155E2811102C047E130
:104F200055E2EE24E39407E027E068E38AE20E947A
:104F300098D980914402813011F40C94A582873075
:104F400048F4682F660F660F660F680F6E5F82E287
:104F50000F94AC2DE12C07E028E040E068E78EEFED
:104F600095E10E94CBEF809144024BEE58E28730EE
:104F700011F044EE58E2EE24E39407E028E060E00C
:104F800088E70E9498D98091440283506091E80399
:104F9000833008F06FEFC5010F945B2980912D15C8
:104FA00081110C9447658091E703882381F1E82FF4
:104FB000F0E0EE0FFF1FE750F84F8081918165E030
:104FC00070E00F9465588091E6039B01281B31091E
:104FD00087FD3395C9010496099710F00C9429AF09
:104FE0000E941FE40091E2031091E3032091E40387
:104FF0003091E503601B710B820B930B683B7B4088
:105000008105910510F40C9412AF1092E703809182
:10501000611D811103C087E00F9479228091621D88
:10502000813011F40C941EB380914402813011F44C
:105030000C94DC65823011F40C949EC7833011F41B
:105040000C9482C7843011F40C943AC8853011F462
:105050000C940AC8863011F40C94E5C7873011F41B
:105060000C94C8C780913415813011F00C94FD1C4C
:105070009091241D9093231D96E29093241D80937C
:1050800044021092611D80934202809343028FEF8D
:10509000809341020F9466061092E8030C94FD1C65
:1050A00011E01093251D60916004BFE06B9FB0017B
:1050B0001124645D7F4EE12C01E021E047E08CE8A3
:1050C00090E20F9476238091251D81110C94FD1C94
:1050D0008091241D8093231D83E28093241D1093CF
:1050E00044021092611D10934202109343028FEF0D
:1050F000809341020F9466060C94FD1C01E020E4AD
:1051000040E069E08EEF95E10F94180120E849E056
:1051100060E08EEF95E10E9454F00CE010E0FF2477
:10512000F39400930616F092071640E150E0612FC9
:105130008EEF95E10E9425DE1F5F095F103189F730
:10514000F092611D80910A0202E021E041E050E00E
:1051500063E070E090E00F94AF2080930A028150EA
:10516000990B20E6289F7001299FF00C112457010C
:1051700010E6A10EB11CEA14FB0410F00C94995433
:105180002FEFE216F10419F010F00C949954D12C81
:10519000C12CA2E09A2E11C05FEFE51AF50AEA14BD
:1051A000FB0410F00C9499543FEFC31AD30AE11496
:1051B00041E0F40611F40C9499548C2D8F70082F53
:1051C000000F000F000F081BC601929582958F708B
:1051D00089279F708927182F110F110F110F180F92
:1051E000155F8CE0800F80930616109307166E2DC6
:1051F0008EEF95E10E9450EF0111CECF90920616EE
:105200001093071660E170E0C701929582958F7048
:1052100089279F7089270E941DDEBECF81E990E11A
:105220000F94962F80913315823011F40C945165B0
:105230008091BF038A3010F40C9464650E9439F1A8
:105240000E9451F168EE73E080E090E00E9411E26C
:105250008FEF9FEF9A83898390E080E00F945B56F5
:105260008F3F29F06FEF90E080E00F9463561A8132
:1052700081E090E00F945B56181729F0612F81E0D0
:1052800090E00F9463568091450781110C948CAE89
:105290006AE070E080E090E00E9411E20F94030861
:1052A0000F9449070F94420A0E941CFB0F9470064A
:1052B0008091831D8111ECCF0F9499250E945DF19F
:1052C0000E9464D88CE590E10F94962F0E9424D719
:1052D000DFCF8EE898E20F942C2D8091440281302C
:1052E00011F40C9458658091BE0391E0811190E017
:1052F00090932F0298E09093061699E090930716EA
:105300006FE370E1882311F060E370E140E250E068
:1053100083E69DE10F94D65563E67DE18EEF95E13E
:105320000E942CDE20910616295001E041E168E040
:105330008EEF95E10E9454F018E01093061684E178
:105340008093071665E570E18EEF95E10E9441DEDE
:10535000109306168DE18093071669E470E18EEFD5
:1053600095E10E9441DE80914402813011F40C9459
:105370005574682F660F660F660F680F6E5F80E0CA
:105380000F94AC2D8091611D811103C083E00F94B7
:1053900079228091621D813011F40C94798A809178
:1053A0004402823011F40C943674833029F48091D5
:1053B000611D81110C947D8A80913415813011F02A
:1053C0000C94FD1C9091241D9093231D98E09093C4
:1053D000241D809344021092611D809342028093A9
:1053E00043028FEF809341020F9466060C94FD1CDC
:1053F00081E08093611D8091EB0302E021E047E2B0
:1054000050E070E060E090E00F94AF208093EB03F9
:1054100021E09091241D9C3109F020E0482F6091FB
:10542000F10386E991E20F94F62D8091621D81309F
:1054300011F40C945B7480913415813011F00C944C
:10544000FD1C9091241D9093231D98E19093241DA1
:10545000809344021092611D809342028093430224
:105460008FEF809341020F9466060C94FD1C11E0AF
:105470001093251D6091F103B9E16B9FB0011124D8
:105480006A59764FE12C01E021E047E086ED91E298
:105490000F9476238091251D81110C94FD1C809121
:1054A000241D8093231D88E18093241D10934402C2
:1054B0001092611D10934202109343028FEF80936C
:1054C00041020F9466060C94FD1C8DE891E20F9446
:1054D0002C2DEDE6F9E080E0212C9081992371F0EC
:1054E0009381911103C09181933041F4A1E0B0E028
:1054F000AC0FBD1FA20DB11D8C9323948F5F7996C5
:10550000883259F721100C948F7488E791E20F9438
:10551000962F80913415813011F00C94FD1C8093EE
:105520001C029091241D9093231D98E19093241DBB
:10553000809344021092611D809342028093430243
:105540008FEF809341020F9466060C94FD1C00912E
:105550006004C02ED12C8EE398E20F942C2D109273
:10556000061618E01093071662E671E28EEF95E1D9
:105570000E9441DE8EE380930616109307166FE5B6
:1055800071E28EEF95E10E9441DE6091600470E06F
:105590006F5F7F4F8EEF95E10E94EBDA80910616E8
:1055A0008A5F8093061610930716BFE00B9F800159
:1055B0001124045D1F4E67E0C8010F940E0E811187
:1055C00005C0B8018EEF95E10E942CDE1092061600
:1055D00010E11093071668E571E28EEF95E10E94E5
:1055E00041DE8EE380930616109307162FE02C9D64
:1055F000C0012D9D900D1124FC01ED5CFF4E7F013B
:1056000000810F3F11F40C94D065F8E20F02800185
:105610001124025B124F66E0C8010F940E0E88231E
:1056200011F40C94C96568E271E28EEF95E10E9475
:1056300041DED7016C91062E000C770B6F5F7F4F18
:105640008EEF95E10E94EBDA1092061688E18093C6
:1056500007166FE171E28EEF95E10E9441DE8FE067
:105660008C9DF0018D9DF00D1124EC5CFF4E80812E
:105670004EE155E2811102C047E155E2EE24E39488
:1056800007E027E068E18EE30E9498D910920616A1
:1056900010E21093071666E171E28EEF95E10E9429
:1056A00041DE0EE300930616109307168FE08C9DE3
:1056B000F0018D9DF00D11249F012B54374F79017E
:1056C000F901E058F84F6081062E000C770B8EEF41
:1056D00095E10E94EBDA1092061618E21093071675
:1056E0006CE071E28EEF95E10E9441DE00930616B8
:1056F0001093071657013FE7A31A38EFB30A40E2A9
:10570000D5016C9183E69DE10F949A0B63E67DE1F0
:105710008EEF95E10E942CDE82E6809306161093B0
:105720000716F501808181110C94BC6569E071E276
:105730008EEF95E10E9441DE1092061610E3109361
:1057400007166FEF70E28EEF95E10E9441DE8EE367
:1057500080930616109307168FE08C9DF0018D9DA7
:10576000F00D1124E85CFF4E60816C3914F00C944C
:10577000B3658DEB90E20E940BF9BC018EEF95E1D1
:105780000E942CDE1092061618E31093071665EBA4
:1057900070E28EEF95E10E9441DE8EE38093061663
:1057A000109307168FE08C9DF0018D9DF00D112454
:1057B0009F012B54374F7901F901EC57F84F608165
:1057C000062E000C770B8EEF95E10E94EBDA82E655
:1057D0008093061610930716F701EB57F84F608178
:1057E000062E000C770B8EEF95E10E94EBDAE12C90
:1057F00007E028E040E068E78EEF95E10E94CBEFFC
:10580000809144024BEE58E28A3011F044EE58E2A7
:10581000EE24E39407E028E060E088E70E9498D94E
:1058200060914402653010F40C94AB65653011F45E
:105830000C946D84663011F40C94C385673011F4B8
:105840000C94BD85683011F40C94B785693011F45F
:105850000C94B1858091611D811103C08AE00F9481
:1058600079228091621D813011F40C94969B809175
:105870004402813011F40C94686B823011F40C9462
:10588000739B833011F40C944E9B843011F40C9470
:105890002B9B853011F40C94149B863011F40C94DE
:1058A000E69A873011F40C94C39A883011F40C9462
:1058B00029BB893011F40C9406BB8A3011F40C9486
:1058C0007FAF80913415813011F00C94FD1C9091C4
:1058D000241D9093231D98E09093241D80934402EF
:1058E0001092611D80934202809343028FEF809358
:1058F00041020F9466060C94FD1C1091D403A12E56
:10590000B12C8091251D882311F40C944C62809158
:10591000D10381110C94D6858091D003882311F492
:105920000C94FD1CFCE11F9FB00111246F597E4EA9
:10593000E12C01E021E045E08DE996E10F9476232A
:105940000C94FD1C8AE798E20F94722D0FE012E090
:1059500020E132E050E040E065E08FE495E10F9413
:10596000FB2B1091621D113011F40C941862809180
:105970003415813011F00C94FD1C90912815911173
:1059800004C08093100280930F028091241D8093A5
:10599000231D88E08093241D81E0809344021092AF
:1059A000611D80934202809343028FEF80934102F6
:1059B0000F9466060C94FD1C8FE495E10F942C2D3A
:1059C0001092061689E08093071664E475E18EEF65
:1059D00095E10E9441DE809119154EE155E2811159
:1059E00002C047E155E2EE24E39407E027E069E0D6
:1059F00088E40E9498D91092061612E110930716B7
:105A00006AE375E18EEF95E10E9441DE88E48093C0
:105A100006161093071660911A15EAE06E9FB00102
:105A20001124645E7A4E40E250E083E69DE10F94DB
:105A3000D65563E67DE18EEF95E10E942CDE8091E4
:105A4000611D811103C082E00F9479228091621D53
:105A5000813011F40C94A98580914402682F660F5F
:105A6000660F660F680F80E40F94AC2D809144029E
:105A7000813011F40C94C861823011F40C94968535
:105A800010913415113011F00C94FD1C0F941A0A6A
:105A90008091241D8093231D86E48093241D109300
:105AA00044021092611D10934202109343028FEF43
:105AB000809341020F9466060C94FD1C8FE995E1DA
:105AC0000F94722D0DE012E02EE032E050E040E045
:105AD00066E089E893E10F94FB2B8091621D813091
