:100000000C94D41B0C94051C0C94051C0C94051C1E
:100010000C94051C0C94051C0C94051C0C94051CDC
:100020000C94051C0C94051C0C94051C0C94051CCC
:100030000C94051C0C94A6A70C94051C0C94051C90
:100040000C94051C0C94051C0C94051C0C94051CAC
:100050000C94051C0C94051C0C94051C0C94CFAB43
:100060000C94051C0C94A8A60C947EA60C94051C5C
:100070000C94051C0C94051C0C94051C0C94051C7C
:100080000C94051C0C94051C0C94051C0C94051C6C
:100090000C9448A60C941EA60C94051C0C9490DF9E
:1000A0000C94051C0C94051C0C94051C0C94051C4C
:1000B0000C94051C0C94051C0C94051C0C94051C3C
:1000C0000C94051C0C94051C0C94051C0C94051C2C
:1000D0000C94051C0C94051C0C94051C0C94051C1C
:1000E0000C94051C0C94D5880C94FC990D94750106
:1000F0000C941C250C9483680C9429D40C94559171
:100100000C948F980C94ED980C94C2500C9414B4E9
:100110000C949D2A0C94FC7A0C941E580C944ED48A
:100120000D9405020C94BAA80C94844F0C94F99980
:100130000C9496A80C948D7B0C945C8C0C94F59983
:100140000C9465790C9437CD0C949F290C94FC6A1F
:100150000C94EC6D0C9482A80C942CDC0C94916B98
:100160000C94C1520C94A91D0C940C2D0D94A90152
:100170000C9413CD0C94069A0C94CB980C940A8E84
:100180000C94A8A80C9492730C942FCD0C947CB36F
:100190000D9411020C94DD800C9491240C94F2DAED
:1001A0000C946F520C944A6E0C94C88B0C94777C10
:1001B0000C94996E0C940FA90C94DCD30C94E1B5BB
:1001C0000C94E7A80C9452530C949E860C941A9AA3
:1001D0000C9472690C94703B0C94ABC30C949174A6
:1001E0000C949BB40C94B27E0C947D8F0C94972A43
:1001F0000C947DA80C94938E0C944E610C9403691E
:100200000C94772C0C94968B0C942A7B0C94B0A8AD
:100210000C949DB30C94AA7F0C942C5C0C94DD8AF6
:100220000C94CE5F0C94229D0C9450670C94EBB20E
:100230000C94BE470C94202A0C94628B0C94CE5ED6
:100240000C9405A90C94A6910C940FCD0C94498C98
:100250000C94DE960C94CC7A0C94FC560C94F1A879
:100260000C942B2D0C94229A0C94308C0C94F471D9
:100270000C94DF980C942BCD0C945E510C94EE5B97
:100280000C94279A0C94C3B50C94E75F0C942A2C19
:100290000C9423530C948CA80C941F600C94E79935
:1002A0000C9464B50C942AD40C94ED990C948C6A3B
:1002B0000C94AF2B0C9460DB0C947B7A0C943BCDAC
:1002C0000C944D480C9417CD0C94B88B0C942D8B3A
:1002D0000C94F4CC0C94F0760C94ECD30C9476A89B
:1002E0000C946A590C94BCB40C94AC780C946029AE
:1002F0000C94BC980C94EBB50C9495660C9400513E
:100300000C94C2870C941E9A0C949A530C947C996A
:100310000C94D4780C943BD40C9410660C94867294
:100320000C940C9A0C94DB690C94D88B0D94F70107
:100330000C94458A0C94624E0C9423CD0C94324854
:100340000C94F5B50C94109A0C9433DB0C942C9A05
:100350000C94E6B50C942BD40C94F0B50C94AE74BC
:100360000C94A67C0C94D8570C9404B60C942F993A
:100370000C9482D40C9445CD0C94677B0D94DD01D4
:100380000C946F890C94EB610C94E2FE0C947D78D4
:100390000C94C1230D94C3010C94AC6E0C94BCD38B
:1003A0000C940BCD0C944ECD0C9459DE0C94187714
:1003B0000C941FCD0C94E8560C94C5780C941C81B9
:1003C0000C94AC7D0C94018C0D9436020C941D7829
:1003D0000C9405480C94188F0C943BB40C94F19930
:1003E0000D941D020D9480020C9419520C949A5194
:1003F0000C9463660C94D7800C94F07C0C94295177
:100400000C94DDA80C94FBA80C94785C0C94975089
:100410000C9465B50C94A88B0C94CB560C94982C2A
:100420000C94CEA80C94BD2D0C946A540C941BCD46
:100430000C94177C0C949D690C94262A0C94738D53
:100440000C94125C0C942CD40C9478700C9422DCD8
:100450000C94792E0C9433CD0C9427CD0C9415EE7E
:100460000C946D550C94C49C0C944C790C94029A89
:100470000C94F2520C942F690C9470500C94B07B35
:100480000C949D780C94149A0C94A0A80C94316A46
:100490000C9462740D948F010C94289A0C94C4A847
:1004A0000C9455D40C94D4D60C9436500C94C96A40
:1004B0000C94E08B0C94636E0C94E57B0C94FAB571
:1004C0000C94108C0C940B6A0C94477C0C94347D27
:1004D0000C94E8700C94FFB503F0000C48001084F5
:1004E00000208A00408A004042007C3F0082408019
:1004F00084BF00884100783E0007C00003F0000C74
:100500004800108400208A00408A007C4200823F1C
:10051000008240807CBF00204100183E0007C000E0
:1005200003F0000C4800108400788A00848A00825E
:100530004200823F0044408038BF00204100183E06
:100540000007C000000003800EE00FE01CF01EF06A
:100550001EF00C600FE003800000000000003FF080
:10056000201C38102010385020103FF000000000F0
:1005700000000000200850141FF01FF05014200845
:100580000000000000000000001000200210022007
:100590000300018004E00E001F00000000001E4068
:1005A000124012701E0000001EF0129012901EF0F9
:1005B000000000001FF02008218822482228212066
:1005C00020901E50003000000000600C139004408A
:1005D00009200920092004401390600C000000004D
:1005E0000FE01010121001103C90011012101010AA
:1005F0000FE0000000001FF0101017D0101017D0EF
:100600001050105010101FF00000416C6C00536F20
:100610006D65206461746120736B6970706564003E
:10062000426164206D6F64656C20646174612E0AA0
:100630004C6F6164696E672064656661756C747384
:1006400000436800436F756E7465720054696D6590
:10065000720047617567654D617800476175676530
:100660004D696E0044697370005372630054797071
:1006700065005769646765740023202D2D2D2D2D8D
:100680002D2057696467657473202D2D2D2D2D2D18
:1006900000456E64706F696E745200456E64706FD1
:1006A000696E744C004661696C73616665004F76D3
:1006B00065727269646556616C004F766572726925
:1006C0006465537769746368005375627472696D09
:1006D00000526576657273650043727600437572E9
:1006E0007665004368616E6E656C0023202D2D2DAC
:1006F0002D2D2D204F7574707574206368616E6E9A
:10070000656C73202D2D2D2D2D2D005472616E736F
:100710006974696F6E54696D650023202D2D2D2D30
:100720002D2D20466C69676874206D6F6465732099
:100730002D2D2D2D2D2D00446972656374696F6E0A
:10074000004D6F64756C757300436C656172004594
:1007500064676500436C6F636B00436F756E74650F
:10076000720023202D2D2D2D2D2D20436F756E749D
:10077000657273202D2D2D2D2D2D0056616C3400AA
:1007800056616C330056616C320056616C31004624
:10079000756E63004C6F676963616C53776974634E
:1007A000680023202D2D2D2D2D2D204C6F67696382
:1007B000616C207377697463686573202D2D2D2D0E
:1007C0002D2D00437573746F6D437572766500232C
:1007D000202D2D2D2D2D2D20437573746F6D2063CD
:1007E0007572766573202D2D2D2D2D2D00536C6F78
:1007F00077446F776E00536C6F7755700044656C6B
:100800006179446F776E0044656C61795570002C96
:1008100000416C6C00466C696768744D6F646500DC
:100820005472696D456E61626C6564004372760056
:10083000437572766556616C0043757276655479BE
:1008400070650057656967687400496E707574005B
:100850004F7065726174696F6E004F757470757456
:10086000004D697865720023202D2D2D2D2D2D2012
:100870004D69786572202D2D2D2D2D2D005068612C
:100880007365416E676C650050686173654D6F6498
:100890006500526576657273654D6F64756C617441
:1008A0006F72004D6F64756C61746F725372630088
:1008B000506572696F643200506572696F6431000F
:1008C000506572696F644D6F646500576176656647
:1008D0006F726D0046756E6367656E0023202D2D67
:1008E0002D2D2D2D2046756E6374696F6E20676502
:1008F0006E657261746F7273202D2D2D2D2D2D005C
:10090000536D6F6F7468005956616C005856616C76
:10091000004E756D506F696E7473005468726F7419
:10092000746C6543757276650023202D2D2D2D2D59
:100930002D205468726F74746C65206375727665CF
:10094000202D2D2D2D2D2D00506974636844756167
:100950006C5261746500456C654475616C526174DC
:100960006500526F6C6C4475616C52617465004136
:10097000696C4475616C52617465005961774475A6
:10098000616C52617465005275644475616C5261AA
:100990007465004578706F32004578706F31005291
:1009A000617465320052617465310023202D2D2D54
:1009B0002D2D2D20526174657320616E6420657841
:1009C000706F202D2D2D2D2D2D0059325472696DF3
:1009D0000058325472696D0059315472696D004388
:1009E0006F6D6D6F6E5472696D005472696D5374E2
:1009F0006174650058315472696D0023202D2D2DCE
:100A00002D2D2D205472696D73202D2D2D2D2D2D02
:100A1000005065727369737456616C00506572732F
:100A2000697374656E7400496E69744D696E005225
:100A300065736574005377697463680054696D6504
:100A4000720023202D2D2D2D2D2D2054696D6572C2
:100A500073202D2D2D2D2D2D005265636F72644D49
:100A6000696E696D756D005265636F72644D617872
:100A7000696D756D0053686F774F6E486F6D6500D7
:100A8000416C61726D5468726573686F6C6400418B
:100A90006C61726D436F6E646974696F6E004F664E
:100AA00066736574004D756C7469706C696572006D
:100AB000466163746F723130004964656E746966B3
:100AC00069657200556E6974734E616D65004E61A3
:100AD0006D65004E6F2E0054656C656D657472799E
:100AE0000023202D2D2D2D2D2D2054656C656D6539
:100AF000747279202D2D2D2D2D2D003A2000537745
:100B0000697463685761726E00436865636B54680B
:100B1000726F74746C650023202D2D2D2D2D2D20CA
:100B20005761726E696E6773202D2D2D2D2D2D004E
:100B3000506974636853726300456C655372630057
:100B400054687253726300526F6C6C53726300414D
:100B5000696C537263005961775372630052756414
:100B6000537263004D6F64656C54797065004D6F0E
:100B700064656C4E616D65002323232323204D6F34
:100B800064656C20636F6E66696775726174696F06
:100B90006E2066696C6520232323232300456C7631
:100BA0006F6E5200456C766F6E5200456C766F6EBC
:100BB0004C00456C766F6E4C00567461696C520047
:100BC000567461696C5200567461696C4C005674BD
:100BD00061696C4C004D6F746F7252004D6F746F91
:100BE0007252004D6F746F724C004D6F746F724C87
:100BF000005600457874566F6C7473005600457843
:100C000074566F6C7473005600457874566F6C742C
:100C1000730052504D0052504D0052504D00F84359
:100C20000054656D700052535349001B1E392D3618
:100C3000274B4EC98DC687D89C786CB4E493D2B14B
:100C4000E1726300020406070809090A0A0A0A0A8F
:100C50000A0A0A2070F8486953636F72653A2000E7
:100C600053636F72653A2020200047616D65206FE5
:100C7000766572002005FC04D804040C0602030605
:100C8000040C080808080C040C08080C06040C0CDA
:100C900004040C08080E030302020604040C080CEA
:100CA00008080808080C04070103020202020206F1
:100CB000040406020603070404040C080C0C0808CC
:100CC0000808080C0603070404040C060206040CBA
:100CD00008080C04040404040404060301010302CC
:100CE00002030202020303060602020604040E08BF
:100CF00008080C060604060206044765742072659F
:100D000061647900446973636C61696D65723A0A64
:100D10002D2D2D2D2D2D2D2D2D2D2D0A5468697342
:100D2000206669726D776172652069732070726FD9
:100D30007669646564202261732069732220776973
:100D400074686F75742077617272616E7479206F48
:100D50006620616E79206B696E642C2065787072F4
:100D6000657373206F7220696D706C6965642E20E5
:100D7000496E206E6F206576656E74207368616CB5
:100D80006C2074686520617574686F7273206F726F
:100D900020636F7079726967687420686F6C64652E
:100DA0007273206265206C6961626C6520666F7287
:100DB00020616E79206469726563742C20696E64A9
:100DC00069726563742C20696E636964656E746111
:100DD0006C2C207370656369616C2C206578656D7F
:100DE000706C617279206F7220636F6E73657175BC
:100DF000656E7469616C2064616D6167657320283C
:100E0000696E636C7564696E6720627574206E6FBD
:100E100074206C696D6974656420746F20706572EC
:100E2000736F6E616C20616E642F6F722070726FD1
:100E300070657274792064616D61676529206F72D5
:100E4000206F74686572206C696162696C6974797D
:100E50002061726973696E672066726F6D207468B5
:100E60006520757365206F662074686973206669F4
:100E7000726D776172652E0A496D70726F7065725E
:100E80006C79206F7065726174696E6720524320BF
:100E90006D6F64656C732063616E2063617573654B
:100EA00020736572696F757320696E6A7572792037
:100EB0006F722064656174682E00F870200A4657CE
:100EC000207665723A312E300A2863293230323268
:100ED0002D323032330A42756B373435360A0A67A1
:100EE00069746875622E636F6D2F62756B37343568
:100EF00036004E6F20726573706F6E7365005772A7
:100F0000697465206661696C65640057726974650F
:100F100020737563636573730057726974696E67D4
:100F20002073657474696E6773005B5772697465CA
:100F30005D0050574D00536572766F004467746CC6
:100F4000003A0020004368616E6E656C004F757456
:100F500070757420636F6E666967004E6F207265EE
:100F600073706F6E73650052656164696E6720739C
:100F7000657474696E67730042696E642074696D8C
:100F8000656F75740042696E64206661696C6564A2
:100F90000042696E64207375636365737300426910
:100FA0006E64696E67005365636F6E646172792069
:100FB00072637672004D61696E2072637672005BB7
:100FC000436F6E6669677572655D005B42696E644A
:100FD0005D00466163746F72792072657365742079
:100FE0006861730A6265656E20696E69746961740F
:100FF00065642E0A5265626F6F7420746F20636F90
:101000006E74696E756500466163746F72792072E3
:10101000657365742077696C6C0A64656C657465CA
:1010200020616C6C20646174612C0A696E636C755C
:1010300064696E67206D6F64656C732E0A0A507266
:10104000657373205B55505D0A72657065617465E8
:10105000646C7900300030006D7300467864206C59
:101060006F6F703A004C6F6F7020233A0062797492
:10107000657300467265652072616D3A0055702097
:1010800074696D653A002C2000506B742072617495
:10109000653A005B466163746F72792052657365CF
:1010A000745D005B566965772063686172207365C3
:1010B000745D005B44756D70206578746E6C2045BE
:1010C0004550524F4D5D005B44756D7020696E74E4
:1010D0006E6C20454550524F4D5D004D6179207238
:1010E000656475636520706572666F726D6E63000E
:1010F0004E6F204C434420696E7465726C61636965
:101100006E670049443A307833302C205372633A8A
:1011100056697274310053696D756C617465207421
:10112000656C656D657472790053686F77206C6FBC
:101130006F702074696D65004E2F410044666C74B9
:10114000204368206F726465723A004D6978657259
:101150002074656D706C74733A004175746F736CB4
:10116000637420696E7075743A005B4368616E67E2
:10117000652070617373776F72645D005B53657493
:101180002070617373776F72645D004C6F636B20C6
:101190006D6F64656C73004C6F636B207374617268
:1011A0007475700050617373776F7264005B4E6585
:1011B00078745D00290028004D756C74706C723A6B
:1011C000004761756765206D61783A004761756712
:1011D00065206D696E3A005B4E6578745D00335032
:1011E0004F530032504F5300416273656E74003AA2
:1011F0000053776974636820000A5468657365203A
:1012000073657474696E6773206D696768740A61C9
:10121000666665637420796F75722065786973748A
:10122000696E670A6D6F64656C732E0A0A5B4F4BBB
:101230005D20746F20636F6E74696E7565005B4628
:10124000696E6973685D005B4E6578745D002900A6
:1012500028004E2F410025003A0041646A757374DE
:1012600020646561647A6F6E65005B4E6578745DBD
:10127000004D6F766520737469636B732066756CBF
:101280006C792C0A7468656E2063656E74657220D3
:101290007468656D2E0A005B4E6578745D004E6F54
:1012A0006E2063656E746572696E670053656C6667
:1012B0002063656E746572696E67003A00547970D8
:1012C00065206F6620617869730041545245005271
:1012D0004541540041455254005254414500446533
:1012E000666C74206D6F64653A005B537461727450
:1012F0005D0043616C6962726174696F6E3A00539C
:101300007469636B730000000000000000000000BF
:101310000000005377697463686573000000000083
:1013200000000000000000426174746572790000E2
:1013300000000000000000000000005365637572AB
:101340006974790000000000000000000000004DFA
:10135000697363656C6C616E656F75730000000086
:101360000000004465627567000000000000000096
:10137000000000000000004175746F68696465201A
:101380007472696D733A00416E696D6174696F6E54
:10139000733A00526F756E6420636F726E6572737C
:1013A0003A004B656570206D656E75207073746EC4
:1013B0003A004D656E752069636F6E733A004B6538
:1013C000792066696C7465723A004B657973000028
:1013D00000000000416374767479000000005761DA
:1013E0006B652075703A0035730000000000000046
:1013F000003135730000000000000033307300003E
:101400000000000000316D696E0000000000003532
:101410006D696E00000000000031356D696E0000DE
:101420000000004E65766572000000000054696D92
:10143000656F75743A0025004272696768746E655D
:1014400073733A00456E61626C653A004B6579735F
:101450003A004B6E6F62733A005472696D733A00D2
:1014600053776974636865733A006D696E004F66FF
:101470006600496E6163747674793A00456E616204
:101480006C653A004C6F77000000000000004D656D
:101490006469756D000000004D6178000000000077
:1014A0000000524620706F7765723A005246206FF6
:1014B00075747075743A00524620736574757000C7
:1014C0000000000000000000000000536F756E6413
:1014D00000000000000000000000000000000042CA
:1014E00061636B6C696768740000000000000000B5
:1014F000000000417070656172616E6365000000FC
:1015000000000000000000416476616E63656400C5
:10151000000000000000000000000044656C6574DD
:10152000652073656E736F723F0A0A596573205B9D
:1015300055705D200A4E6F205B446F776E5D0052E0
:1015400065636F72644D696E3A005265636F7264D1
:101550004D61783A004F6E20686F6D653A005468AF
:10156000726573683A00004F666600000000000074
:10157000000000000000000000000000013E546870
:1015800072657368000000000000000000000000A9
:101590000000023C5468726573680000000000009F
:1015A000000000000000000000000000000000003B
:1015B0000000000000000000000000000000416C7E
:1015C000657274733A004F66667365743A004661DB
:1015D00063746F7231303A0030002E004D756C74B8
:1015E000706C723A00300049443A002D2D00556E5F
:1015F0006974733A002D2D004E616D653A00536594
:101600006E736F72005370656369667920756E69D9
:1016100074730053656E736F72206E616D65005B4D
:1016200052657365745D002061676F0073006D69BA
:101630006E006872004E6F20646174610054696DC1
:101640006520726376643A004C6173742056616C55
:101650003A005B52657365745D004D696E696D7526
:101660006D3A005B52657365745D004D6178696D1C
:10167000756D3A0053746174730044656C657465EC
:101680002073656E736F7200456469742073656EB4
:10169000736F7200566965772073746174730052BA
:1016A0005353490054656D706572617475726500BD
:1016B00052504D203420426C616465730052504D8D
:1016C000203320426C616465730052504D203220FB
:1016D000426C6164657300457874566F6C74732056
:1016E000345300457874566F6C747320335300453F
:1016F0007874566F6C74732032530053656E736F39
:1017000072206E616D650054656D706C61746573F7
:10171000004E65772073656E736F72003A00466104
:1017200064652D696E3A004E2F41005377697463EA
:10173000683A002D2D004E616D653A00464D44001B
:10174000466C676874206D6F6465206E616D65001E
:101750000044697361626C65640000000000000071
:1017600000000000000001436F6D6D6F6E0000000F
:1017700000000000000000000000000002466C694C
:101780006768744D6F646500000000000000000091
:101790000000000000000000000000000000000049
:1017A0000000000000000000207472696D3A000023
:1017B0005570000000000000000000000000000064
:1017C000000000000001446F776E00000000000080
:1017D0000000000000000000000000024D696400ED
:1017E00000000000000000000000000000000000F9
:1017F00000FF4E6F6E65000000000000000000005A
:1018000000000000000000000000000000000000D8
:10181000000000000000000000000000003A00533B
:10182000776974636820005468726F74746C653AE9
:101830000052657365742073657474696E67730014
:1018400052657365742074696D65720053746172BA
:10185000742074696D65720053746F702074696DC3
:10186000657200506572736973743A00206D696E19
:1018700000496E697469616C3A0052657365743A27
:10188000005377697463683A002D2D004E616D65D1
:101890003A0054696D65720054696D6572206E611D
:1018A0006D6500436C65617220616C6C20636F75BF
:1018B0006E7465720A7265676973746572733F0A44
:1018C0000A596573205B55705D200A4E6F205B449A
:1018D0006F776E5D00436F756E74657200436F7550
:1018E0006E746572206E616D6500436C6561722077
:1018F000616C6C00436C65617220636F756E74651A
:10190000720052657365742073657474696E6773D1
:101910000052656E616D6520636F756E746572004F
:10192000436F707920746F00506572736973743AF5
:1019300000436C6561723A000055700000000000C1
:101940000000000000000000000000000000014452
:101950006F776E0000000000000000000000000033
:101960000000000000000000000000000000000077
:10197000000000000000000000004469726563740C
:10198000696F6E3A004D6F64756C75733A0045640B
:1019900067653A00436C6F636B3A00436F756E7412
:1019A0006572003A0046756E6367656E206F7574E8
:1019B00070757473004667656E00526573657420B8
:1019C00073657474696E677300436F707920746F08
:1019D0000056696577206F7574707574730053795C
:1019E0006E636564005B53796E635D00506861737C
:1019F000653A00004175746F0000000000000000AF
:101A000000000000000000000001466978656400E5
:101A100000000000000000000000000000000000C6
:101A200000000000000000000000000000000000B6
:101A300000000000005068617365206D6F64653AB6
:101A400000526576657273653A00436F6E74726F0B
:101A50006C3A004D617820706572696F643A004D90
:101A6000617820696E7472766C3A004D696E2070F0
:101A70006572696F6400506572696F643A004D6900
:101A80006E20696E7472766C3A00496E7465727677
:101A9000616C3A00005661726961626C6500000019
:101AA0000000000000000000000001466978656445
:101AB0000000000000000000000000000000000026
:101AC0000000000000000000000000000000000016
:101AD000000000000000506572696F64206D6F6443
:101AE000653A00496E7472766C206D6F64653A00D9
:101AF0000053696E65000000000000000000000057
:101B00000000000000000153717561726500000063
:101B10000000000000000000000000000254726994
:101B2000616E676C650000000000000000000000AE
:101B3000000003536177746F6F7468000000000049
:101B400000000000000000000452616E646F6D0030
:101B50000000000000000000000000000000000085
:101B60000000000000000000000000000000000075
:101B70000000000057617665666F726D3A002000C4
:101B80003A004C004C6F676963616C207377206F7B
:101B9000757470757473004C0052657365742073AE
:101BA000657474696E677300436F707920746F0099
:101BB00056696577206F757470757473002D2D00EC
:101BC00044757261746E3A002D2D0044656C617924
:101BD0003A0000506F736974697665000000000078
:101BE0000000000000000000014E65676174697626
:101BF000650000000000000000000000000002423C
:101C00006F74680000000000000000000000000089
:101C100000000000000000000000000000000000C4
:101C20000000000000000000000044697263746E50
:101C30003A00436C6561723A0000526973696E67DD
:101C40000000000000000000000000000000000193
:101C500046616C6C696E67000000000000000000C7
:101C60000000000000024475616C000000000000EC
:101C70000000000000000000000000000000000064
:101C80000000000000000000000000000000000054
:101C9000002D2D002D2D0056616C7565323A0045E2
:101CA0006467653A0052657365743A0050657269FD
:101CB0006F643A002D2D0056616C7565313A004312
:101CC0006C6F636B3A005365743A005769647468CB
:101CD0003A00004E6F6E650000000000000000003A
:101CE000000000000000000001613E7800000000DC
:101CF0000000000000000000000000000000026181
:101D00003C7800000000000000000000000000001F
:101D10000000000003613D3D78000000000000006D
:101D20000000000000000000000004613E3D78005B
:101D300000000000000000000000000000000000A3
:101D400005613C3D7800000000000000000000003C
:101D5000000000000000067C617C3E78000000006E
:101D6000000000000000000000000000077C617C13
:101D70003C780000000000000000000000000000AF
:101D80000000087C617C3D3D780000000000000000
:101D90000000000000000000097C617C3E3D7800EE
:101DA00000000000000000000000000000000A7CAD
:101DB000617C3C3D78000000000000000000000055
:101DC000000000000B7C64656C74617C3E78000050
:101DD000000000000000000000000C613E620000F6
:101DE00000000000000000000000000000000000F3
:101DF0000D613C62000000000000000000000000D7
:101E00000000000000000E613D3D62000000000087
:101E10000000000000000000000000000F613E3DD7
:101E20006200000000000000000000000000000050
:101E3000000010613C3D6200000000000000000056
:101E4000000000000000000011414E4400000000AE
:101E50000000000000000000000000000000124F21
:101E60005200000000000000000000000000000020
:101E70000000000013584F52000000000000000056
:101E800000000000000000000000144C6174636852
:101E90000000000000000000000000000000000042
:101EA00015546F67676C65000000000000000000BB
:101EB0000000000000001650756C73650000000003
:101EC0000000000000000000000000000000000012
:101ED0000000000000000000000000000000000002
:101EE00000007CEB7C3E780046756E63746E3A00B1
:101EF000FFF88208BA48AA48BA488208FFF83800B2
:101F0000FFF88208BA48AA48BA488208FFF800E0F9
:101F1000506F696E743A200044656C65746520707A
:101F20006F696E74006265666F72653A00496E7320
:101F300065727420706F696E740043757276650007
:101F40004375727665206E616D65004D696E696DD1
:101F5000756D207074732072656163686564004DEF
:101F60006178696D756D2070747320726561636846
:101F700065640044656C65746520706F696E7400FB
:101F8000496E7365727420706F696E7400466C6977
:101F90007020766572746963616C00466C697020AC
:101FA000686F72697A6F6E74616C005265736574E4
:101FB0002063757276650052656E616D652063758C
:101FC00072766500436F7079206375727665207450
:101FD0006F00536D74683A005976616C3A00587618
:101FE000616C3A0050743A007074730054797065F3
:101FF0003A0043727600437573746F6D2063757297
:102000007665730000000000000046756E63746E14
:102010002067656E657261746F72730000004C6FAB
:10202000676963616C207377697463686573000026
:102030000000436F756E746572730000000000004D
:1020400000000000000054696D657273000000001C
:102050000000000000000000000053616665747914
:1020600020636865636B7300000000000000547219
:10207000696D207365747570000000000000000039
:102080000000466C69676874206D6F6465730000BA
:102090000000000000004368616E6E656C206E6198
:1020A0006D650052656E616D65206368616E6E6579
:1020B0006C0056696577206F757470757473004590
:1020C0006E647074733A009A486F6C64000000008C
:1020D000000000000000000000000000009B4E6FA8
:1020E00050756C73650000000000000000000000E7
:1020F00000000000000000000000000000000000E0
:102100000000000000000000004661696C73616619
:10211000653A002D2D004F766572726964653A004C
:102120005375627472696D3A0052657665727365B3
:102130003A0043727600FF4E6F6E650000000000AB
:10214000000000000000000000000000000000008F
:10215000000000000000000000000000000000007F
:10216000000043757276653A004368004368616E0B
:102170006E656C3A00486F6C64003D002A3D002B90
:102180003D004E6F206D6978657320646566696EE9
:10219000656420796574004F7665727669657700AD
:1021A0004D6978230056697274004368004D697860
:1021B0006572206F75747075740052657365742054
:1021C000616C6C206D697865733F0A0A59657320EC
:1021D0005B55705D200A4E6F205B446F776E5D002B
:1021E0004D6978206E616D65004F6E65206F7220BD
:1021F0006D6F72650A64657374696E6174696F6E80
:1022000020736C6F74730A616C7265616479206FFE
:10221000636375706965642E0A436F6E74696E75C9
:10222000653F0A0A596573205B55705D200A4E6F41
:10223000205B446F776E5D00446966662074687247
:1022400075737400567461696C00456C65766F6EC9
:1022500000426173696300496E7365727420666140
:10226000696C65640054656D706C617465730053CE
:10227000686F77206F7665727669657700436F6D5A
:1022800070616374206D697865730052657365745D
:1022900020616C6C206D697865730052657365749C
:1022A000206D69780052656E616D65206D697800FA
:1022B000496E736572742066726565004D6F766550
:1022C000206D697820746F00436F7079206D697894
:1022D00020746F0056696577206F7574707574731C
:1022E0000053656C656374206174206C6561737460
:1022F000206F6E65002000464D4400536C6F77449C
:102300006E3A00536C6F7755703A00446C792044F4
:102310006E3A00446C792055703A002C00416C6C88
:1023200000462D4D6F64653A004E2F41005472698E
:102330006D20203A0043727600004E6F6E650000FB
:10234000000000000000000000000000000000018C
:10235000783E300000000000000000000000000097
:10236000000000000002783C300000000000000087
:102370000000000000000000000000037C787C00EA
:10238000000000000000000000000000000000004D
:10239000000000000000000000000000000000003D
:1023A0000000000000000043727656616C3A0000A5
:1023B00044696666000000000000000000000000A4
:1023C0000000000000014578706F00000000000070
:1023D00000000000000000000000000246756E636F
:1023E00000000000000000000000000000000000ED
:1023F0000003437573746F6D00000000000000005F
:1024000000000000000000000000000000000000CC
:102410000000000000000000000000000043757292
:102420007665203A004F66667365743A00576569B1
:102430006768743A00496E707574203A0000416410
:102440006400000000000000000000000000000028
:10245000000000014D6C74706C79000000000000F9
:10246000000000000000000000014D756C746970F0
:102470006C79000000000000000000000000000275
:1024800052706C6357000000000000000000000064
:102490000000000000025265706C6163650000007E
:1024A000000000000000000000000003486F6C64A2
:1024B000000000000000000000000000000000001C
:1024C000000000000000000000000000000000000C
:1024D000000000000000004F706572746E3A0053F7
:1024E00077697463683A004F75747075743A0023A5
:1024F000004D6978206E6F3A003000313030002D89
:10250000313030003A200053776974636865730096
:102510003A004B6E6F6273003A00537469636B73D9
:1025200000536D74683A005976616C3A00587661D0
:102530006C3A0050743A0070747300437572763AC6
:10254000005372633A0028526174653129002852A1
:102550006174653229005372633A002D2D00442FB7
:10256000523A0025004578706F3A00250052617498
:10257000653A0044656C657465206D6F64656C3FF9
:102580000A0A596573205B55705D200A4E6F205B07
:10259000446F776E5D004D6F64656C20646174619B
:1025A0002077696C6C0A62652072657365742E0A07
:1025B000436F6E74696E75653F0A0A596573205BD7
:1025C00055705D200A4E6F205B446F776E5D004D45
:1025D0006F64656C20646174612077696C6C206243
:1025E000650A6F7665727772697474656E2E0A4338
:1025F0006F6E74696E75653F0A0A596573205B5585
:10260000705D200A4E6F205B446F776E5D00426103
:10261000636B7570206661696C656400412062615E
:10262000636B757020776974680A612073696D69DE
:102630006C6172206E616D650A6578697374732EC2
:102640000A4F76657277726974652069743F0A0A69
:10265000596573205B55705D200A4E6F205B446F97
:10266000776E5D004D4F44454C00526573746F7238
:1026700065206661696C6564004D6F64656C2064FB
:102680006174612077696C6C2062650A6F7665728F
:102690007772697474656E2E0A436F6E74696E7515
:1026A000653F0A0A596573205B55705D200A4E6FBD
:1026B000205B446F776E5D00526573746F726520A6
:1026C00066726F6D205344004E6F206D6F64656CB1
:1026D00073206F6E20534400436F70792066726FD1
:1026E0006D004D6F64656C206E616D650000416921
:1026F00072706C616E650000000000000000000058
:10270000000000014D756C7469636F707465720030
:10271000000000000000000000024F7468657200B5
:1027200000000000000000000000000000000000A9
:102730000000000000000000000000000000000099
:1027400000000000004D6F64656C207479706500B6
:10275000526573746F72652066726F6D205344000A
:102760004E6577206D6F64656C004261636B7570B8
:1027700020746F2053440044656C657465206D6F50
:1027800064656C004C6F6164206D6F64656C004E15
:102790006F206672656520736C6F74730052657389
:1027A000746F72652066726F6D20534400426163DE
:1027B0006B757020746F20534400526573657420EC
:1027C0006D6F64656C00436F70792066726F6D0089
:1027D0004475706C69636174650052656E616D6506
:1027E000206D6F64656C000204885020F405DE05DE
:1027F000C805B2059C05860570055A0544054D6F50
:1028000064656C0000000000000000000000000093
:102810000000496E70757473000000000000000035
:102820000000000000004D697865720000000000A3
:10283000000000000000000000004F757470757407
:102840007300000000000000000000000000457858
:1028500074726173000000000000000000000000BE
:10286000000054656C656D657472790000000000AD
:1028700000000000000053797374656D00000000D3
:1028800000000000000000000000526563656976EA
:1028900065720000000000000000000000004162BE
:1028A0006F757400000000000000000000000000D0
:1028B00000004D61696E206D656E75005769646733
:1028C0006574005265736574207769646765740088
:1028D0004D6F766520746F00436F707920746F00C0
:1028E000005E005E005E00FFA1FFA1FFA1FF4D6141
:1028F000783A0052696768743A004D696E3A004C44
:102900006566743A00004E756D65726963616C00AE
:102910000000000000000000000000014761756732
:102920006500000000000000000000000000000042
:10293000000243656E74657247617567650000004B
:102940000000000000000000000000000000000087
:102950000000000000000000000000000044697357
:10296000703A00200054696D657200436F756E7493
:1029700065720020004368000A4175746F00000012
:102980000000000000000000000000000000000047
:102990000000000000000000000000000000000037
:1029A000000000005372633A000054656C656D6569
:1029B00074727900000000000000000000000001B7
:1029C0004D6978536F7572636573000000000000F5
:1029D0000000000000024F757470757473000000F1
:1029E00000000000000000000000000354696D6555
:1029F00072730000000000000000000000000000F2
:102A00000004436F756E746572730000000000006F
:102A100000000000000000000000000000000000B6
:102A20000000000000000000000000000054797069
:102A3000653A00576964676574005769646765742F
:102A400073005365747570207769646765747300EB
:102A500052657365742074696D65722031000000E1
:102A60000000000052657365742074696D65722002
:102A70003200000000000000526573657420746924
:102A80006D65722033000000000000005374617215
:102A9000742074696D657220310000000000000030
:102AA00053746172742074696D6572203200000085
:102AB0000000000053746172742074696D657220A7
:102AC000330000000000000053746F702074696DC3
:102AD00065722031000000000000000053746F7028
:102AE0002074696D65722032000000000000000053
:102AF00053746F702074696D65722033000000009C
:102B00000000000020003A004368004F75747075A3
:102B100074730054656C656D6574727920756E6DA3
:102B2000757465640054656C656D65747279206DAB
:102B300075746564003A00436F756E746572003A8F
:102B400000206F7574004368003A003A0040D4C812
:102B5000D44029002800464D440020505050F8D859
:102B6000F81030D592D530104482BA92541010002B
:102B70000020002300260029002C002F0032000036
:102B800001000003010601090102000022002500E6
:102B900028002B002E003100340002010000050146
:102BA00008010B01507265706172696E6720737461
:102BB0006F72616765004D6F64656C20646174615C
:102BC00020696E0A45787465726E616C20454550C7
:102BD000524F4D0A706F737369626C7920636F7224
:102BE000727570742E0A52657365742069743F0A99
:102BF0000A596573205B55705D200A4E6F205B4457
:102C00006F776E5D0045787465726E616C20454526
:102C100050524F4D0A6E6F7420666F726D617474FE
:102C200065642E0A507265737320616E79206B653E
:102C30007900507265706172696E672073746F728B
:102C400061676500507265706172696E67207374A8
:102C50006F72616765004D6F64656C2064617461BB
:102C600020696E0A496E7465726E616C204545502C
:102C7000524F4D0A706F737369626C7920636F7283
:102C8000727570742E0A52657365742069743F0AF8
:102C90000A596573205B55705D200A4E6F205B44B6
:102CA0006F776E5D0053797374656D206461746134
:102CB0000A706F737369626C7920636F72727570DA
:102CC000742E0A52657365742069743F0A0A596547
:102CD00073205B55705D200A4E6F205B446F776EEA
:102CE0005D00496E7465726E616C20454550524FAF
:102CF0004D0A6E6F7420666F726D61747465642E18
:102D00000A507265737320616E79206B65790000DB
:102D1000002100240027002A002D0030003300018C
:102D2000010000040107010A010102102020080827
:102D3000102040102040800201020108040201011D
:102D40000204081020408080402010080402018006
:102D5000040201804020100804020108040201015D
:102D60000204081020408001020408102040800561
:102D7000050505070508080808020202020A0A08F4
:102D8000080404040401010101010101010303031A
:102D90000303030303040707070C0C0C0C0C0C0CB7
:102DA0000C0202020206060606060606060B0B0BBE
:102DB0000B0B0B0B0B57656C636F6D650000060DFD
:102DC00013191F252B30363B4044494D5154585A56
:102DD0005D5F6162636464646362615F5D5A5854FD
:102DE000514D4944403B36302B251F19130D060029
:102DF000FAF3EDE7E1DBD5D0CAC5C0BCB7B3AFACE1
:102E0000A8A6A3A19F9E9D9C9C9C9D9E9FA1A3A6BE
:102E1000A8ACAFB3B7BCC0C5CAD0D5DBE1E7EDF312
:102E2000FA05000F001E003C002C01840300006620
:102E3000616C73650074727565002020003A200093
:102E400073002E0043616E2774206C6F61642068EC
:102E50006572650001020702070B070B0E0B0E0DD2
:102E60000E0D080D080408040104010200000A0BFD
:102E700002090C0D0E080703040100000000000009
:102E80000000000000000000000000000000000042
:102E900000000000000000001211100000000000FF
:102EA0000000000000000000000000000000000022
:102EB00000005F446F776E005F4D6964005F55707E
:102EC000004E6F6E65007FFFFF8080000040800035
:102ED0000040800000608000006080000060800092
:102EE00000608000006080000040800000407FFFA4
:102EF000FF807FFFFF80F8000040F8000040F000F6
:102F00000060F0000060F0000060E0000060E000A1
:102F10000060C0000040C00000407FFFFF807FFFD6
:102F2000FF80C0000040C0000040E0000060E00002
:102F30000060F0000060F0000060F0000060F80049
:102F40000040F80000407FFFFF80436F756E74659E
:102F5000720056697274004368004C004667656EE3
:102F6000005377005275640059617700456C650025
:102F700050697463680041696C00526F6C6C005456
:102F80006872004D6178004B6E6F6242004B6E6F4D
:102F90006241005934005834005933005833005905
:102FA00032005832005931005831004E6F6E6500C2
:102FB00021464D4400464D4400214C004C005377BF
:102FC00000215377002D2D00005EBCE2613FDD83C0
:102FD000C29C7E20A3FD1F419DC3217FFCA2401EF9
:102FE0005F01E3BD3E6082DC237D9FC1421CFEA0E9
:102FF000E1BF5D0380DE3C62BEE0025CDF81633DD9
:103000007C22C09E1D43A1FF4618FAA427799BC5C8
:1030100084DA3866E5BB5907DB856739BAE40658B8
:103020001947A5FB7826C49A653BD987045AB8E6A8
:10303000A7F91B45C6987A24F8A6441A99C7257B98
:103040003A6486D85B05E7B98CD2306EEDB3510F88
:103050004E10F2AC2F7193CD114FADF3702ECC9278
:10306000D38D6F31B2EC0E50AFF1134DCE90722C68
:103070006D33D18F0C52B0EE326C8ED0530DEFB158
:10308000F0AE4C1291CF2D73CA947628ABF5174948
:103090000856B4EA6937D58B5709EBB536688AD438
:1030A00095CB2977F4AA4816E9B7550B88D6346A28
:1030B0002B7597C94A14F6A8742AC896154BA9F718
:1030C000B6E80A54D7896B3542616420737973740A
:1030D000656D20646174612E0A4C6F6164696E676E
:1030E0002064656661756C747300426164206D6F65
:1030F00064656C20646174612E0A4C6F6164696E52
:10310000672064656661756C7473000000000000E0
:103110003E5B4F5B3E3E6B4F6B3E1C3E7C3E1C1845
:103120003C7E3C181C577D571C1C5E7F5E1C0018A3
:103130003C1800FFE7C3E7FF0018241800FFE7DB97
:10314000E7FF30483A060E2629792926407F0505F3
:1031500007407F05253F5A3CE73C5A7F3E1C1C0830
:10316000081C1C3E7F14227F22145F5F005F5F06F5
:10317000097F017F006689956A606060606094A243
:10318000FFA29404027F020410207F201008082A66
:103190001C08081C2A08081E101010100C1E0C1EFB
:1031A0000C30383E3830060E3E0E0600000000009F
:1031B00000005F00000007000700147F147F142444
:1031C0002A6B2A12231308646236495522500000E4
:1031D000070000001C2241000041221C0014083E90
:1031E000081408083E0808000050300008080808C5
:1031F00008000060600020100804023E5149453E6E
:1032000044427F404042615149462141454B31187B
:1032100014127F1027454545393C4A494930010180
:103220007905033649494936064949291E000024D3
:10323000000000403400000008142241141414144B
:1032400014412214080002015109063E4149550E5D
:103250007E1111117E7F494949363E414141227F0D
:103260004141221C7F494949417F090909013E41E9
:103270005151727F0808087F00417F410020404182
:103280003F017F081422417F404040407F020C02F2
:103290007F7F0408107F3E4141413E7F09090906B6
:1032A0003E4151215E7F091929462649494932018B
:1032B000017F01013F4040403F1F2040201F7F20F1
:1032C00018207F63140814630708700807615149C8
:1032D0004543007F41410002040810200041417F26
:1032E00000040201020480808080808003050000C9
:1032F00020545454787F4844443838444444203857
:103300004444487F3854545458087E09090298A40C
:10331000A4A87C7F0804047800447D400040808499
:103320007D007F20102844003F4040207C0418048A
:10333000787C080404783844444438FC2824241851
:1033400018242428FC7C08040408485454542404F9
:103350003F4444203C4040207C1C2040201C3C40FA
:1033600030403C44281028449CA0A0A07C446454D5
:103370004C4400083E414100007F000041413E08AE
:103380000002010302013C2623263C1EA1A161127A
:103390003A4040207A3854545559215555794122A4
:1033A00054547842215554784020545579400C1E8D
:1033B0005272123955555559395454545939555436
:1033C00054580000457C410002457D420001457C87
:1033D000407D1211127DF0282528F07C54554500BF
:1033E0002054547C547C0A097F4932494949323A75
:1033F0004444443A324A4848303A4141217A3A42B8
:10340000402078009DA0A07D3D4242423D3D40408D
:10341000403D3C24FF2424487E4943662B2FFC2F4B
:103420002BFF0929F620C0887E09032054547941D6
:103430000000447D413048484A32384040227A00FA
:103440007A0A0A727D0D19317D2629292F2826290D
:1034500029292630484D402038080808080808085F
:1034600008382F10C8ACBA2F102834FA00007B009F
:103470000008142A142222142A1408550055005555
:10348000AA55AA55AAFF55FF55FF000000FF0010DE
:103490001010FF00141414FF001010FF00FF101094
:1034A000F010F0141414FC001414F700FF0000FFD7
:1034B00000FF1414F404FC141417101F10101F1034
:1034C0001F1414141F00101010F0000000001F1033
:1034D0001010101F10101010F010000000FF10103E
:1034E00010101010101010FF10000000FF1400004A
:1034F000FF00FF00001F10170000FC04F414141755
:1035000010171414F404F40000FF00F7141414143A
:10351000141414F700F7141414171410101F101FAC
:10352000141414F4141010F010F000001F101F00F9
:1035300000001F14000000FC140000F010F0101038
:10354000FF10FF08081408081010101F00000000EA
:10355000F010FFFFFFFFFFF0F0F0F0F0FFFFFF00C3
:1035600000000000FFFF0F0F0F0F0F3844443844D6
:10357000FC4A4A4A347E02020606027E027E02634A
:10358000554941633844443C04407E201E200602D5
:103590007E020299A5E7A5991C2A492A1C4C7201B2
:1035A000724C60584658603048784830BC625A4681
:1035B0003D3E494949007E0101017E2A2A2A2A2AE4
:1035C00044445F444440514A444040444A514000CE
:1035D00000FF0103E080FF000008086B6B08361253
:1035E00036243600060906000000181800000010F6
:1035F00010003040FF0101001F01011E00191D17BE
:1036000012003C3C3C3C00000000005368757474A0
:10361000696E6720646F776E003A200066616C7394
:1036200065007472756500FA00910E10004B006E13
:1036300002200010032000A403200097041000A023
:1036400000000008000B0210009302100078000038
:10365000000800D20104005A00000008000B0220FC
:1036600000880120000B022000FA004B021000D25B
:103670000000001000B807100000001000B8070894
:103680000022011704040000002000A4030400002D
:1036900000200010030400780000001000930208CE
:1036A00000506C656173652077616974000A42613E
:1036B0007474657279206C6F77001E2FF22E1E2FA6
:1036C000F22E1E2FC62EC62E5B4F4B5D20746F2030
:1036D000736B697000436865636B2073776974630B
:1036E0006865733A000700436865636B207468720D
:1036F0006F74746C653A0007005741524E494E474B
:103700000004000A00110015002480248040404479
:10371000408020FFE04D6F64656C0030003A00305F
:10372000003A002D00560030002E002D0073002EB0
:10373000002030F8FCF83020FE8282828282FEFA7D
:10374000868CDAF2A2FE746F3A004D6F7665200027
:10375000436F707920004E6F206461746100300007
:103760002E002D0043616E277420626520656D7008
:10377000747900496E636F7272656374207061734F
:1037800073776F726400456E746572207061737335
:10379000776F7264007C3C3E5E2B3D3F2F5B5D3B50
:1037A0002C2A225C000015EE11241FBECFEFD1E2BF
:1037B000DEBFCDBF00E00CBF13E0A0E0B2E0EAE066
:1037C000F1E202E00BBF02C007900D92A033B107F7
:1037D000D9F72EE1A0E3B3E001C01D92A33BB207ED
:1037E000E1F71BE1C4EDDBE100E006C02197010930
:1037F000802FFE010F94E00FC33DD10780E0080742
:10380000A9F70E94ACEE0D9483100C9400002F9247
:103810003F924F925F926F927F928F929F92AF9260
:10382000BF92CF92DF92EF92FF920F931F93CF93AD
:10383000DF93CDB7DEB7C45AD1090FB6F894DEBF17
:103840000FBECDBF8091D40781110FC080915E0B58
:10385000882359F080915A0B882339F08091D3073F
:103860008150833010F40E9473C715E7E12E1DE1EB
:10387000F12E03E7C02E04E0D02E89E6A82E8DE1BC
:10388000B82E9DE5892E9DE1992E2AE5222E2DE167
:10389000322E27E53DE1C057DF4F39832883C059D9
:1038A000D04009E71BE0CA56DF4F1882C659D04006
:1038B000D80155968C9181111EC0C057DF4FE88109
:1038C000F981C059D0408081811120C0F7018081E9
:1038D0009181A281B381F50180839183A283B38317
:1038E0000E94D6AAD4016D937D938D939C931397D8
:1038F000F101108227C0C057DF4FA881B981C0599C
:10390000D0401C920E9441BE8823B9F2F50140804C
:103910005180628073800E94D6AAD4012D913D917E
:103920004D915C91421A530A640A750A460E571E5D
:10393000681E791EF7014082518262827382E1E043
:10394000D101EC93D80156968C91882359F00E94AE
:1039500041BE882339F0CA56DF4F8881C659D0400E
:103960000E94A3E8F8012789222331F130E0A0E684
:10397000BAEE0F94200ED7014D905D906D907C9023
:10398000641575058605970508F0D5C09B01AC0147
:103990002C503E4F4F4F5F4F42165306640675063C
:1039A00008F0C9C0F60120812111C5C0F3E0F093F1
:1039B000FA0AE1E0D601EC93F801808D882309F43E
:1039C000C3C0F70180819181A281B381F801818F09
:1039D000928FA38FB48FCA56DF4FB881C659D0409B
:1039E000BF5FCA56DF4FB883C659D040015F1F4F33
:1039F000E4E0EE0EF11CFFEFCF1ADF0A24E0A20E86
:103A0000B11C34E0830E911C4FEF241A340AC057C6
:103A1000DF4F68817981C059D0406F5F7F4FC057B9
:103A2000DF4F79836883C059D040B33009F040CF6D
:103A30000E9438E10E947DC7D0906F03D11038C238
:103A400080914B0B882331F065E08DE49BE00E9470
:103A500019D081111092430281E080931D1690913C
:103A6000561D9E3510F00C949497E92FF0E08827AE
:103A7000E35CF24E8F4F0D94E00FA91DC1239124FA
:103A80001C2560299F299F29202A262A972A9D2ABA
:103A9000AF2B2A2C772C982C0C2D2B2D703BBD2D69
:103AA000792EBE47324805484D48624E9A536A54B3
:103AB000FC56D857D857CB56E8566D556D551E58FD
:103AC0006A59EE5B125C2C5C785CCE5ECE5FE75F81
:103AD0001F604E61EB61106663669566916BEC6DDD
:103AE0004A6E636E996E867250678C6AC96AFC6A08
:103AF000F471E870AC6E78709273F07662749174C1
:103B0000AE7418776579A67CF07C347DAC7DB27E8E
:103B1000AA7FD780DD801C819E86C287D5886F8969
:103B2000458A5C8C5C8C738D0A8E938E7D8F188F8A
:103B30005591A691DE96461657066806790608F056
:103B40003BCFD6011C9238CF118E128E138E148E5D
:103B500042CF80918304882309F4C4C18EE40E947B
:103B60009FED809132028111BDC00E94D6AAC09003
:103B7000E608D090E708E090E808F090E9080091A6
:103B8000E2081091E3082091E4083091E508005E16
:103B90001C4F2F4F3F4F6C157D058E059F0510F470
:103BA0000C94B497601771078207930710F00C9478
:103BB000B497E091630BEE2311F40C94B197460196
:103BC0005701B0E98B0EB1E09B1EA11CB11C68151A
:103BD00079058A059B0510F00C9499979B01AC011F
:103BE0002C193D094E095F09AFE0B0E00F94EB0DD1
:103BF00020E931E040E050E00F94FE0DE22FF0E0CC
:103C0000ED5BF34FE4911FE31E1B8091EA08909156
:103C1000EB080F94450D482F440F480FD42EDD0CB0
:103C2000209112162D19330B37FF02C02F5F3F4F23
:103C300035952795F22EF5E02F1710F475E0F72E45
:103C40008091620B04E0811101C000E049E04D0D5C
:103C5000202F30E0220F331F4217130641F03CF0B3
:103C6000E12C2BE0612F8BEF8F0D0E94E0A0809163
:103C7000620B811105C0CA56DF4F1882C659D04069
:103C800047E04D0DCA56DF4F2881C659D040822FDC
:103C900090E0880F991F4817190649F044F0022F49
:103CA00029E061E0610F8CEF8F0D0E9441A110921D
:103CB0001616F092141662E0610F6093151660916B
:103CC000EA087091EB0840E250E08DE89DE10F9426
:103CD000310D6DE87DE18CE096E10E946AA581E0FE
:103CE000809316168091680B8823E9F0E12C09E097
:103CF0002DE047E362E78CE096E10E9414B483E78D
:103D00008093141688E3809315164091B90850915A
:103D1000BA086091BB087091BC082AE030E08CE0E2
:103D200096E10E9459A580916A0B811110921D168F
:103D30000E942B9F0E94D69F81E8A82E8DE1B82E6D
:103D400095EA892E98E0992E0BE214E129EB622E78
:103D500028E0722E750134E6232E312C412C512C93
:103D6000CC24C394D7011C92F401219131914F01CD
:103D70002F3FFFE73F0731F1D8011696DC901697E9
:103D8000DD2001F10D90BC91A02D0F94E80FA20150
:103D900091010F94CC0DF80183819481092E000CC0
:103DA000AA0BBB0BBA01A901480F591F6A1F7B1F41
:103DB000F1E0DF1611F40C94C09722E0D21611F452
:103DC0000C94D397FFEFEF1AFF0A045E1F4F68149D
:103DD000790441F621E833E0E7E7F3E04BE85DE101
:103DE000B90191E0D5018D915D01813011F00C9404
:103DF000E697DB018C91811103C080818F5F808306
:103E00008081873928F0DB018C91811101C09C935E
:103E10006F5F7F4F31964A155B0521F790917603CE
:103E200080E0F90141919F01442311F40C94F39730
:103E3000911110C08091710B9091720BA091730B36
:103E4000B091740B8093720390937303A0937403E7
:103E5000B093750381E08093760380917603882385
:103E600029F16091710B7091720B8091730B90919D
:103E7000740B0091720310917303209174033091BD
:103E80007503601B710B820B930B2AEF30E040E04F
:103E900050E00F94FE0D672B682B692B39F480914D
:103EA0006E04811103C085E08093FA0A0E948BB5ED
:103EB000CC55DF4F0FB6F894DEBF0FBECDBFDF91FC
:103EC000CF911F910F91FF90EF90DF90CF90BF9017
:103ED000AF909F908F907F906F905F904F903F90AA
:103EE0002F90089580918204882321F08FE40E940E
:103EF0009FED37CE80912D02811104C080E50E9494
:103F00009FED2FCE8091520B882309F1EE24E3948C
:103F100007E027E048E65BE260E08FE50E947BA1D6
:103F20001091530B1F5F110F60E0B7E0EB2E61178C
:103F300071F0FF24F394F60E4E2D4F196B5901E0EA
:103F40002F2D8CE096E10E94ABC36F2DF0CF8091B6
:103F5000540B81110AC0EE24E39407E028E041E607
:103F60005BE260E08AE40E947BA1809143028823A7
:103F700051F0EE24E39407E025E04AE55BE260E0DF
:103F800086E50E947BA1EE24E39407E02FE040E069
:103F900060E78CE096E10E943BB401E023E042E060
:103FA0006FE78CE096E10E94DCC2809127028130AD
:103FB00009F047C04091450B5091460BA0918504F4
:103FC000B0918604A41BB50B24E130E00F94F00FF0
:103FD0002091470B3091480B241B350B032E000C0E
:103FE000440B550B0F94CC0D122F24310CF013E120
:103FF00080912602811764F4212F012E000C330BCF
:10400000281B310987FD3395223031050CF4182F18
:10401000812F65E00F94AA0FC82EA2E7FA2ED12CAB
:10402000CD146CF0EE24E39403E022E042E06F2D27
:104030008CE096E10E9414B4D394F00EF1CF10936B
:1040400026028091D3078450883070F40E94D6AA4B
:104050006854744F8F4F9F4F60936F047093700438
:1040600080937104909372048091640B811147C016
:104070008091B40B8111C7C18091B60B882391F058
:104080004091B70B823049F4E0912D078DE0E89F15
:10409000F0011124E155FD4E408120E06FE083E006
:1040A0000F9472088091B80B882391F04091B90B5E
:1040B000823049F4E0912D079DE0E99FF001112441
:1040C000E055FD4E408121E06CE389E40F947208D5
:1040D0008091BA0B882319F14091BB0B823049F4CF
:1040E000E0912D07ADE0EA9FF0011124EF54FD4E61
:1040F000408120E06FE08CE70F94720810C00E94AE
:10410000D6AA00916F04109170042091710430912F
:104110007204601771078207930708F4A9CF8EE035
:104120008093141689E0809315166091FB0A89E745
:104130009BE00E942EE800912D07002309F453C054
:10414000BDE00B9F800111240A551D4E67E0C80198
:104150000E9419D040E250E0882309F467C166E567
:104160007BE28DE89DE10F94310D8E010F5F1F4FB3
:1041700085E0F80111928A95E9F780912D0790E08A
:104180004AE0B80101960F94810D40E250E0B80179
:104190008DE89DE10F944E0D8DE89DE1DC010D90C1
:1041A0000020E9F7CD018E589D418E5F982F990F21
:1041B000990F891B880F8D588093141689E080937E
:1041C000151664E57BE28CE096E10E9472A56DE82D
:1041D0007DE18CE096E10E946AA562E57BE28CE0DD
:1041E00096E10E9472A501E024E642E16EE08CE0D7
:1041F00096E10E949BB47CE1C72E74E1D72EE5EADC
:10420000AE2EE8E0BE2E10E0F12CF0E58F2EF5E1A9
:104210009F2E69E0C6010E9419D0811124C0F601C9
:10422000918D992301F1D5012D913C912F3F3F476D
:10423000D1F0E4E3F5E12081211104C021812113B3
:1042400001C0892F37968E169F06A9F781110BC0E2
:10425000E1E0F0E0EC0FFD1FEF0DF11D1083F39492
:10426000E4E0FE1649F01F5FFCE1CF0ED11C22E016
:10427000A20EB11C1A3069F624E3C22E25E1D22E1B
:10428000812C412C15E13EE0532E49E4342E55E0BB
:10429000A52EB12C6CE1262ED6018C91811130C156
:1042A00011969C90BAE09B120EC0FF2009F467C0E3
:1042B0008F1408F064C0E1E0F0E0EC0FFD1FE80DA2
:1042C000F11D9080839480916E04692C712C882359
:1042D00009F4B2C0269CF001279CF00D1124EF5C7C
:1042E000FB4E8081882309F4A7C0EE24E39405E007
:1042F00026E04DE45BE261E0610F8CE00E947BA16F
:1043000084E18093141610931516929CB001112429
:10431000645E7B4E8CE096E10E946AA56BE47BE2D2
:104320008CE096E10E9472A5F60182819301220F32
:10433000331FC057DF4F39832883C059D0408823AB
:1043400049F0F901EB55F74F208131812F3F3F476D
:1043500009F074C0C057DF4FE881F981C059D040DF
:10436000EB55F74F2081318101E0492D612F89E420
:104370000E9441E24394175FB4E04B1649F0E7E036
:10438000CE0ED11C20E535E12C153D0509F084CF7A
:1043900080918C1D813009F0E8C18091430288230F
:1043A00009F4E1C187E00E949FED80916C0B83309E
:1043B00009F0D7CB0E94D6AA0091750B1091760B0D
:1043C0002091770B3091780B601B710B820B930B54
:1043D000693E73408105910508F4C3CB0E9473C701
:1043E00080916E0491E0892780936E0496E090930B
:1043F000FA0A882309F4C2C185E29BE270E060E01A
:104400000E9466ABAECB4091B50B823049F4E0918F
:104410002D077DE0E79FF0011124E255FD4E40811C
:1044200021E06CE38EE00F94720826CEB8018DE88F
:104430009DE10F946D0DB0CE8EE063CF813009F019
:1044400099CFF301EF57F24E808181114AC0C057D6
:10445000DF4FA881B981C059D040AB55B74F269CDA
:10446000C001279C900D1124BC016758744F3B017B
:10447000FB01EE54F74F2D913C91A081B1810F9437
:10448000E80F24E630E040E050E00F94CC0DD60178
:1044900015960D90BC91A02DC057DF4FB983A8830E
:1044A000C059D040D6011396ED91FC91D301AB5485
:1044B000B74F8D919C91092E000CAA0BBB0BBC0130
:1044C000CD01620F731F841F951FC057DF4F2881D6
:1044D0003981C059D040AF0181E0810F0F940908A4
:1044E00049CF0E94D6AA28EE33E040E050E00F9476
:1044F000FE0D6D3B72408105910508F03BCFA7CFC3
:10450000813009F067C0F6016181662309F437CF75
:10451000509214161093151640E28DE89DE10E940A
:10452000C4CC6DE87DE18CE096E10E946AA569E467
:104530007BE28CE096E10E9472A5309214161093F3
:104540001516D60112968C911297811111C01196F1
:10455000EC91F0E0EE0FFF1FE350F84F8081918166
:10456000B5010F94CC0F8CE096E10E94B1A202CF6E
:104570008130A1F4F601258136810380F481E02D9C
:1045800011968C91A82FB0E0AA0FBB1FA350B84F73
:104590008D919C91B5010F94CC0F9DCF823009F085
:1045A000E9CEF6012581368183819481281B390B60
:1045B000E181F0E0EE0FFF1FE350F84F8081918121
:1045C000B5010F94CC0FAB0162E0610F8AE40E9449
:1045D00046A3D0CE823009F066C0509214161093D4
:1045E000151611966C90BFE06B9E30011124F301FB
:1045F000E051FD4E3F0167E0CF010E9419D08111CB
:104600001AC0B3018CE096E10E946AA56FE37BE2D9
:104610008CE096E10E9472A5309214161093151644
:10462000F601828181111EC0E181F0E0EE0FFF1FD3
:10463000ED59F84F93CF66E47BE28CE096E10E945F
:1046400072A5D60111966C9170E06F5F7F4F8CE080
:1046500096E10E94B1A261E47BE28CE096E10E94C7
:1046600072A5D4CF813079F4D601258136810380BB
:10467000F481E02D11968C91A82FB0E0AA0FBB1FFA
:10468000AD59B84F85CF823009F074CE258136817F
:1046900083819481281B390BE181F0E0EE0FFF1F2D
:1046A000ED59F84F8BCF8330E1F4509214161093EC
:1046B000151611968C910E9482E7809114168A5FDC
:1046C0008093141610931516F6016181FFE06F9F19
:1046D000B00111246957744F8CE096E10E946AA5DD
:1046E00049CE843009F048CE509214161093151616
:1046F00011966C90B0E16B9E30011124F301EA5ADF
:10470000FD4E3F0167E0CF010E9419D081111AC010
:10471000B3018CE096E10E946AA565E37BE28CE040
:1047200096E10E9472A53092141610931516D601C8
:104730001196EC91F0E0EE0FFF1FE957FB4F6081FF
:10474000718111CF67E37BE28CE096E10E9472A554
:10475000D60111966C9170E06F5F7F4F8CE096E10F
:104760000E94B1A2DACF88E01ECE823011F481E03F
:104770001ACE833009F019CE82E015CE83E19BE298
:104780003DCE10921D168BE09BE20E94C2E5809107
:104790006D04811111C08091551D843251F48091B6
:1047A0006C0490E00A966AE070E00F94CC0F60937E
:1047B000250281E080936D0481E08093AD1D80919E
:1047C000250202E021E041E050E062E070E090E08C
:1047D0000E94E0E8809325029AE0899F702C1124C2
:1047E00016EF170DC12ED12C4601880C991C0AE03A
:1047F000F12CE12C87E4682E91E4592E2BE0422E17
:1048000036E0332E4FEFC41AD40A45E0A42EB12C63
:10481000711609F468C0143108F065C08091551D07
:1048200055E0E516F10408F044C0843269F4809143
:104830006C04811309C0109214160093151661EBD5
:104840008CE096E10E949DB33092141600931516E9
:1048500068E07BE28CE096E10E9472A5B6016E0DE5
:104860007F1D8CE096E10E94B1A266E07BE28CE0C5
:1048700096E10E9472A5193030F464E07BE28CE08E
:1048800096E10E9472A5F701EE0FFF1FE80DF91DDA
:10489000ED59F84F80819181B5010F94CC0F8CE0D8
:1048A00096E10E94B1A21F5F6FEFE61AF60A055F5C
:1048B000AFCF843289F480916C0481130DC0509283
:1048C0001416E49C802D11248D528093151661EBF3
:1048D0008CE096E10E949DB36092141689EC800FE3
:1048E00080931516B5CF2091250230E0F6E3EF2E28
:1048F000F12C01E010E042E050E069E08FE70E9417
:10490000B4E080916C0B813009F02BC910926D04DA
:104910008091551D843209F07DC083E20E949FED95
:1049200020C91092AE1D10E000E060E5C62E65E1E2
:10493000D62E7FE0B72EE4E1EE2EF02EE4E3F5E193
:104940008081833009F072C081818F116FC0B09E69
:10495000F001B19EF00D1124E758F44F85898111C3
:1049600012C0F801E65AF24E808161E06F0D882393
:1049700009F454C0E09EC001E19E900D11248853BB
:10498000954D0E9422E164E06F0DE09EC001E19E22
:10499000900D1124805B954D0E9422E10F5F1F4F07
:1049A0000330110551F680914302811105C060E08A
:1049B00082E49AE20E9422E10E94F2E9809144029C
:1049C0008150833070F490E0FC01E95AF24E865A2F
:1049D000924EDC018C9191E08927808380E00E94D7
:1049E0009FED809144028450833028F40E94A3E814
:1049F00080E00E949FED80914402811103C083E01A
:104A00000E949FED80916C0B813021F08091AE1D52
:104A10008111A7C880E00E949FEDA3C8E09EC0015D
:104A2000E19E900D11248457954DABCF3796CE164D
:104A3000DF0609F085CFB2CF8AE39AE20E94C2E591
:104A4000C0906B04D12C88E08093141689E0809389
:104A5000151663E37AE28CE096E10E9472A56091FC
:104A60006B0470E06F5F7F4F8CE096E10E94B1A213
:104A700020911416295001E041E168E08CE096E1B4
:104A80000E949BB41092141614E1109315166DE257
:104A90007AE28CE096E10E9472A540E3A42EA092F7
:104AA00014161093151687E08C9D80018D9D100DB6
:104AB00011240758144F7801B5E4EB1AB6EFFB0A3E
:104AC000F701608189EA99E20E9439BCBC018CE05F
:104AD00096E10E946AA5109214165DE1B52EB0927F
:104AE000151664EA79E28CE096E10E9472A5A09224
:104AF0001416B0921516D7018C91811117C0F801C8
:104B0000E454F64F60816A3051F488E799E20E94DC
:104B100039BCBC018CE096E10E946AA56BC0BCE187
:104B20006B9FB0011124645E7B4EF4CF823069F537
:104B300065E779E28CE096E10E9472A50454164F75
:104B4000F801608170E06F5F7F4F8CE096E10E941A
:104B5000B1A2D8018C913FE0F32E8F9DC0011124AA
:104B600067E080519D4E0E9419D0811143C063E7D8
:104B700079E28CE096E10E9472A5F80160816F9D58
:104B8000B001112460517D4EC5CF813061F4F80130
:104B9000E454F64F40E260818DE89DE10E94C4CC70
:104BA0006DE87DE1B7CF843009F088C07801F4E486
:104BB000EF1AF6EFFF0AD7010C91B0E10B9F8001CD
:104BC00011240A5A1D4E67E0C8010E9419D0B8018D
:104BD000882309F49FCF6BE679E28CE096E10E948E
:104BE00072A5F701608170E06F5F7F4F8CE096E106
:104BF0000E94B1A287E08C9D90018D9D300D112403
:104C00002758344FF901E554F64F8081811185C052
:104C10002454364FF90180818A3009F082C083E044
:104C2000BB24B394B80EE12C07E028E040E068E72D
:104C30008CE096E10E9414B48091420247EE58E263
:104C40008B1511F040EE58E2EE24E39407E028E0E3
:104C500060E088E70E947BA160914202613009F028
:104C600034C169E080E00E9408E68B2D0E94F2EDDD
:104C70000E940BEE80914202813009F030C1809198
:104C80006B0402E021E043E050E070E060E090E07F
:104C90000E94E0E880936B04809142028B1107C070
:104CA00080918C1D813019F484E00E949FED8091E9
:104CB0006C0B813011F00C94B11DACCE833069F5D2
:104CC00065E679E28CE096E10E9472A50454164FE5
:104CD000D8016C9170E06F5F7F4F8CE096E10E948D
:104CE000B1A2F80180812FE0F22E8F9DC001112426
:104CF00067E08957944F0E9419D081117BCF63E6FA
:104D000079E28CE096E10E9472A5D8016C916F9DCA
:104D1000B00111246957744FFDCE8150823008F0E4
:104D20007ECF1092141616E2109315166DE579E2F7
:104D30008CE096E10E9472A580E380931416109394
:104D4000151687E08C9D80018D9D100D11240A5C45
:104D50001A4ED8016C9185E099E20E9439BCBC01E1
:104D60008CE096E10E946AA5F80180819FEF980F80
:104D7000923008F0A8C0109214169FE29093151676
:104D80006FEF78E2823011F06AEF78E28CE096E122
:104D90000E9472A580E3809314168FE2809315160B
:104DA00027E02C9DC0012D9D900D11248758944F14
:104DB000FC01E554F64F208121116AC03396008131
:104DC0001181012E000C220B330B7C01F4E4EF1A4D
:104DD000F6EFFF0AD7014C916FE280E30E9488E171
:104DE000F7016081FCE16F9FB00111246B5D7B4E88
:104DF0008CE096E10E946AA51092141688E38093D5
:104E0000151687E08C9DF0018D9DF00D1124EA5C54
:104E1000FA4E808163EF78E2823011F06EEE78E234
:104E20008CE096E10E9472A580E38093141688E3DB
:104E30008093151627E02C9DC0012D9D900D112407
:104E40008758944FFC01E554F64F208121112EC064
:104E5000359600811181012E000C220B330B7C0151
:104E6000B4E4EB1AB6EFFB0AF701408168E380E394
:104E70000E9488E1D7016C91BCE16B9FB0011124C5
:104E80006B5D7B4E8CE096E10E946AA586E0C8CE01
:104E90002150223008F0B0CF8254964FDC016D9142
:104EA0007C918CE096E10E94B1A2A6CF21502230E5
:104EB00068F78054964FFC01608171818CE096E127
:104EC0000E94B1A2E3CF84E0ABCE6B1509F4CDCE46
:104ED00089E0689F602D11246E5F88E2C4CE823025
:104EE00009F04CC087E08C9DF0018D9DF00D1124E0
:104EF0009F012758344F7901490135E4831A36EF71
:104F0000930AD4011C9102E021E044E050E070E0FB
:104F100060E0812F90E00E94E0E8F4018083811737
:104F200009F4BACE32961082D701A254B64F2CE9BA
:104F30003FEF11963C932E9324E630E03396318375
:104F4000208381110AC034979AE090831D921C92AD
:104F50008350823008F0A0CE07C0F701E454F64F2A
:104F6000813051F08230A1F787E08C9DF0018D9D5A
:104F7000F00D1124EB5CFA4E10828ECE833009F0D6
:104F8000BDC087E08C9D80018D9D100D112498017E
:104F90002758344F7901F901E554F64F808181118A
:104FA00063C09CE1E92E94E1F92E00E010E069E095
:104FB000C7010E9419D0811108C0E1E0F0E0EC0FB8
:104FC000FD1FE10FF11D00831F5F0F5F3CE1E30E4A
:104FD000F11C0A3061F7E1E0F0E0EC0FFD1FE10F9A
:104FE000F11D008341E0410FDE01119680E097E062
:104FF0009C9DF0019D9DF00D1124EB5CFA4E8417F1
:1050000030F42D919081291719F08F5FF8CF80E04F
:105010004150550B02E021E070E060E090E00E941A
:10502000E0E897E09C9D90019D9D300D112427584C
:10503000344FF901E454F64F408161E070E06C0FA9
:105040007D1F680F711DDB018C918083841709F42B
:1050500023CE3296118210822054364F84E690E09F
:10506000F9019183808318CE8130D1F40E9402E54A
:105070000F943F0A882321F0F701E454F64F808310
:1050800087E08C9D80018D9D100D11240B5C1A4EC4
:1050900062E0D8018C910E940BEDF8018083FCCD79
:1050A000823089F4F4E4EF1AF6EFFF0AD7018C910D
:1050B00002E020E043E150E070E060E090E00E9418
:1050C000E0E8F701EBCF843059F4F4E4EF1AF6EF9F
:1050D000FF0AD7018C9102E020E044E050E0ECCFE1
:1050E000833009F0D9CDF4E4EF1AF6EFFF0AD701C7
:1050F0008C9102E020E042E050E0DECF843009F005
:105100004FC087E08C9D70018D9DF00C112497019C
:105110002758344F7901F901E354F64F10814F01BC
:10512000390135E4631A36EF730AD4018C9102E039
:1051300021E042E050E070E060E090E00E94E0E8B2
:10514000F4018083D3019C91911103C0823069F3F3
:10515000A3CD811709F4A0CD823009F09DCDF701D0
:10516000E254F64F80819181181619062CF491951E
:10517000819591099183808327E02C9DC0012D9D0D
:10518000900D11248758944FFC01E054F64F82543F
:10519000964FDC018D919C9191958195910961CFFC
:1051A000853009F044C027E02C9DC0012D9D900D55
:1051B00011248758944FFC01E554F64F20812111AA
:1051C00024C03596408151817C01B2E4EB1AB6EFE0
:1051D000FB0A05E060ED7AE8F701808191810E9489
:1051E000E0E8D7018D939C9327E02C9DC0012D9D75
:1051F000900D11248758944FFC01E354F64F208101
:10520000223009F049CD3396C2CF2150223060F7C9
:10521000FC01E054F64F408151817C01B2E4EB1A6D
:10522000B6EFFB0A04E020E06CE97FEFD5CF8630D3
:1052300009F032CD27E02C9DC0012D9D900D112449
:105240008758944FFC01E554F64F2081211126C068
:105250003396608171817C01B0E4EB1AB6EFFB0AF2
:1052600005E040E355E7F701808191810E94E0E885
:10527000D7018D939C9327E02C9DC0012D9D900D0F
:1052800011248758944FFC01E354F64F20812230BB
:1052900009F002CD31968054964F7BCF21502230B9
:1052A00050F7FC01E254F64F608171817C01B0E45B
:1052B000EB1AB6EFFB0A04E020E044E650E0D3CF5F
:1052C0001092AE1D60E088ED98E20E9422E161E05C
:1052D00080ED98E20E9422E162E083EC98E20E9475
:1052E00022E10E94F2E980914402823039F48091F7
:1052F0006B040E947ED083E00E949FED8091440267
:10530000811107C080916B0480936A0485E00E943C
:105310009FED80914402813039F480916B04809339
:105320006A0486E00E949FED80916C0B813011F041
:105330000C94B11D83E00E949FED0C94B11D81E09F
:105340008093AD1D80916A0402E021E043E050E0CB
:1053500070E060E090E00E94E0E880936A0421E061
:105360009091561D953009F020E0482F60916B0414
:105370008CEB98E20E944DE680918C1D8130A1F665
:105380002091561D80916B0490916A042530A9F4F8
:1053900027E0299FD0011124AC5CBA4E289FF00170
:1053A0001124EC5CFA4E01900D922A95E1F7809160
:1053B0006A0480936B0483E0B5CF27E0289FF00157
:1053C0001124EC5CFA4EDE011196322F01900D9201
:1053D0003A95E1F79817F8F4829F90011124235D24
:1053E0003A4E47E0F901D901179601900D924A957E
:1053F000E1F78150275031099813F3CF87E0899F57
:10540000D0011124AC5CBA4EFE01319601900D9290
:105410008A95E1F7CCCF891788F7829F90011124F4
:105420002C5C3A4E47E0F9013796D90101900D9274
:105430004A95E1F78F5F295F3F4F9813F3CFDECF97
:1054400060E088E00E94B3ED0C94B11D82EB98E21D
:105450000E94C2E503E212E024E232E04CEE57E2A1
:1054600069E08EEF97E20E9438EC80918C1D8130CC
:1054700009F04EC0809123028150A9F480914C0B19
:10548000882339F065E08DE49BE00E9419D08823E1
:1054900029F08AE00E949FED0C94B11D89E00E94E2
:1054A0009FED0C94B11D813029F487E10E949FED9E
:1054B0000C94B11D823011F00C94349888E10E9454
:1054C0009FED0C94B11D843029F486E20E949FED7B
:1054D0000C94B11D853029F48FE30E949FED0C944C
:1054E000B11D863029F487E40E949FED0C94B11D14
:1054F000873029F488E50E949FED0C94B11D883017
:1055000011F00C94B11D8BE50E949FED0C94B11D20
:1055100080916C0B813011F00C94B11D9091610B56
:10552000911178CA809324028093230273CA68E0A1
:105530008AE00E94B3ED0C94B11D8EEF97E20E94B9
:10554000C2E580916904811109C081E080936904FA
:10555000809322028091FB0A809368048091680402
:105560008F5F80934202809184040E94F2ED9091BB
:10557000210220914202291710F4209321028091E8
:10558000210230E061E0680F482F50E04B5F5F4F31
:10559000421753070CF4C5C080932102981719F0E5
:1055A00081E080932202809122028823F9F01092F8
:1055B000220282E3E82E84E0F82E00E0DD24DA9473
:1055C00080918404081790F4109121021150100F5B
:1055D000812F0E9430CA882309F4A5C0F701D08228
:1055E0000F5FF9E0EF0EF11C063051F7B2E3AB2E7E
:1055F000B4E0BB2E1AE0F12ED12CC12C00E1902E8C
:1056000080918404C81608F055C080912102182F9B
:105610001C0D209142028C0D9D2D911D28171906FD
:1056200081F427E01A3008F02DE0EE24E39409E03D
:105630004FEF4F0D60E08CE096E10E9414B41092A1
:10564000161601E000931416F09215164AE050E089
:10565000612F8CE096E10E9463A50093161611500D
:1056600090921416F0921516D5018C918F3F21F06F
:10567000612FC5010E942EE88091FB0A81130DC0A5
:1056800080911416EE24E39405E027E047EE57E2FC
:1056900061E06F0D8C5F0E947BA1BFEFCB1ADB0A2C
:1056A000E9E0FE0EF9E0AF0EB11C26E0C216D1040F
:1056B00009F0A6CF2091210230E04091840450E00F
:1056C000A6E3EA2EF12C06E010E069E08FE70E94E5
:1056D000A2E58091420290918404981718F08150BD
:1056E0008093680480918C1D813061F480916804FE
:1056F0009091FB0A981325C08BE00E949FED81E0FA
:105700008093220280916C0B813011F00C94B11DBA
:10571000109269040E940BCB88E00E949FED0C94CC
:10572000B11D862F2FCF40E2612F8DE89DE10E94B1
:10573000BDC949E050E06DE87DE1C7010F946D0DF2
:105740004FCF0E9430CA811102C08CE0D6CF809129
:1057500068040E9430CA882391F28DE0CECF109267
:10576000AE1D60E08AED97E20E9422E18091840400
:10577000823050F061E080ED97E20E9422E162E029
:1057800086EC97E20E9422E163E08AEB97E20E94B6
:1057900022E18091CA08882351F064E08DEA97E203
:1057A0000E9422E165E08DE997E20E9422E10E94D9
:1057B000F2E980914402811103C08FE00E949FEDC5
:1057C00080914402813011F00C940D98109168047E
:1057D0001F5F809184041817D8F5812F0E9430CA6A
:1057E0008823B1F3F0906804FA94F7FE02C00C9499
:1057F000FF970F2D8F2D0E9430CA8823A9F38FEFBA
:105800001F3F49F080916804312F381B832FFF24FC
:10581000FA940F3F29F090916804F02E901B092F05
:105820008F3F29F00F3F11F0081708F0F12E0E946A
:1058300068B50E9480B58091FB0A0E94BFCA8F2D77
:105840000E94BFCAF092FB0AF09268040C940A9876
:105850001FEFC8CF1092AE1D60E084E897E20E946F
:1058600022E161E087E797E20E9422E18091CA0885
:10587000882329F062E08AE697E20E9422E10E94F2
:10588000F2E980914402811122C00E9468B50E9411
:1058900080B58091FB0A0E94BFCA809168040E9473
:1058A0003FD2809168048093FB0A0E94CDE80E9459
:1058B00064E81092520B81E0809347070E94D1CD9B
:1058C0000E9471E80E9451E88AE00E949FED809159
:1058D0004402813019F485E10E949FED80914402D9
:1058E000823011F00C94299881E10C942798109241
:1058F000AE1D60E080E697E20E9422E18091CA0836
:10590000882329F061E080E597E20E9422E10E946D
:10591000F2E980914402811103C08EE00E949FED64
:1059200080914402813011F00C9429980C942698AF
:1059300081E08093AD1D90913104911106C0809358
:1059400031048091820B809330048091300402E016
:1059500021E042E050E070E060E090E00E94E0E88A
:105960008093300463E28EE00E94B7A26CE185E18F
:105970000E9408E681E18093141682E18093151657
:1059800065E477E28CE096E10E9472A58DE1809358
:1059900014168CE180931516609130048DEE96E21A
:1059A0000E9439BCBC018CE096E10E946AA58091FE
:1059B0008C1D813011F00C9429980E9468B50E94CA
:1059C00080B58091FB0A0E94BFCA0E94CDE80E9468
:1059D00064E81092520B109168041092790B0E94A7
:1059E0000FD1812F0E94BFCA809168048093FB0A67
:1059F000809130048093820B823038F48091660B62
:105A0000882319F080E00E94ADB98091FB0A0E94C2
:105A1000BFCA8FE00C94279881E080938B1DE12C06
:105A200001E021E049E069E77BE082EE96E20E9436
:105A3000C1EA80918B1D81110C94B11D0E9468B543
:105A40000E9480B58091FB0A0E94BFCA8AE00E9432
:105A50009FED0C94B11D81E08093AD1DF7EDEF2E0D
:105A6000F9E0FF2E409184044150550B8091680469
:105A700002E021E070E060E090E00E94E0E88093C6
:105A800068040E9430CA8111EDCF1091820B809181
:105A9000680490912E02891708F044C08E9D9001F1
:105AA0008F9D300D1124C901835F9B4F0E94BBC99C
:105AB0001813D8CF63E28EE00E94B7A281E18093F1
:105AC000141682E18093151668ED76E28CE096E17B
:105AD0000E9472A58DE1809314168CE180931516B7
