:100000000C94041C0C94351C0C94351C0C94351C5D
:100010000C94351C0C94351C0C94351C0C94351C1C
:100020000C94351C0C94351C0C94351C0C94351C0C
:100030000C94351C0C9498DC0C94351C0C94351CD9
:100040000C94351C0C94351C0C94351C0C94351CEC
:100050000C94351C0C94351C0C94351C0C9449E400
:100060000C94351C0C9484DB0C945ADB0C94351CDA
:100070000C94351C0C94351C0C94351C0C94351CBC
:100080000C94351C0C94351C0C94351C0C94351CAC
:100090000C9424DB0C94FADA0C94351C0D94D924BE
:1000A0000C94351C0C94351C0C94351C0C94351C8C
:1000B0000C94351C0C94351C0C94351C0C94351C7C
:1000C0000C94351C0C94351C0C94351C0C94351C6C
:1000D0000C94351C0C94351C0C94351C0C94351C5C
:1000E0000C94351C0D94CB160C945BD10D941D26ED
:1000F0000C94654A0C9494DD0C94B2D20C94C339E0
:100100000C9447D10C94A82A0D949D260D94BF21E0
:100110000C9494D20C9440FB0C941E480C94A6D2E0
:100120000C9475760C946D3D0D94ED250C94F83D72
:100130000D9437480C949A240D945D1F0C9407D1AC
:100140000C942D790C94F7590D94F5160D9497266F
:100150000C9419500C9409760C94A0D20C94D735B9
:100160000C9403260D94AB160C9479340C94CB6C40
:100170000D94DA250C94B8590C9410EE0C947CD2A2
:100180000C94FDD10C949E3E0C9473980C9483F7C0
:100190000D94E0160D9415470C94B8D20C94C42518
:1001A0000C942A230D94D9460C9442960C94E96041
:1001B0000C9471490D94BB200C94ABD10C942BFB87
:1001C0000D94C4160C946ED20C949F270C9488D274
:1001D0000C9455310C94DBDD0C9421240C941761A4
:1001E0000C94AD3F0C9455760C944EFB0C949A797C
:1001F0000C94473E0D9469470C9474600C9436D16E
:100200000C941D2D0C947E390C9447F80C94679730
:100210000C9482D20C948C640D94CD1F0C942747BF
:100220000D94CE1F0C94083B0C9480DD0D94D216D7
:100230000C948A970C94FD360C9462210C94882BB4
:100240000C94A6DD0C94C2DD0C942B350C9447FB6A
:100250000D9447370C94C4460D944D470C949B2E37
:100260000D9442260C942B330C94C4790D943F4684
:100270000D94D9160C94411F0C943F3A0C945F2EA8
:100280000D946F0B0C94B7600C942C310C941225C8
:100290000C94B3580C94CE960C94385A0C9413D0FA
:1002A0000D94DE210C9406960C94F5470C94664749
:1002B0000D942C200C9492610C94BED20C94C22B01
:1002C0000C947C790C94293C0C943E4A0C94653532
:1002D0000C9456260C94892C0C94AEDD0C9474DD91
:1002E0000D9403170C94913C0C9425300C94F6203B
:1002F0000D9456260C949AD20D94CC460C94EA3860
:100300000D94E7160C948A6B0C94CCDD0C947C5AFB
:100310000C948AF90C94F9DD0D9414260D94FC16B6
:100320000C94AE5A0C9423400C94F9490C94D5309B
:100330000C9483720C9473D20C9447480C94B62D91
:100340000C9403DE0D94AE200C94FE300C94BE7120
:100350000C941D560C940D4B0C9439FB0D94FA1F04
:100360000C94F6590C94B0380C94B8DD0C94F54507
:100370000C94FF3E0C94AF5A0C940B270D948016EE
:100380000C94BB330C94BD230D9402260C94D862BC
:100390000D948E1F0C949D570C9495620C94BF4540
:1003A0000D94CF1F0C946C390C94B3340C944A61A7
:1003B0000C94A0210D9453480C94EF450C94845850
:1003C0000C9464580C94AA380C948E2A0C945E6297
:1003D0000C9444460C9436210C94B7590D947B260A
:1003E0000D9415220C9474D20C9436430D947526FA
:1003F0000D941D460C94E5DD0C94DA420C9455FBEB
:100400000D949E160D94EE160C945F4A0C947C96F7
:100410000C9470530D94BB160C94EA370C948B59C2
:100420000C94684B0C9444970C9432FB0C948ED231
:100430000C94B4790C944CDD0D947E1F0D943926E8
:100440000D9431470C94A4F70C9418720C94E92382
:100450000C9478D20D9429260D9463200C94FD5AA7
:100460000C945CFB0D94E8200C941C560C94E679DB
:100470000D9433260C948ADD0C940E290D941A26C3
:100480000D94F31F0C9455580C94172F0C940436AC
:100490000C948C590C942C2B0C94CAF80C947D5A07
:1004A0000D949C460D94B2160D94C2250C9493584D
:1004B0000C94395A0C945FEB0C949EDD0C943F58CD
:1004C0000D9497160C9406600C946F2C0C945C4061
:1004D0000C9403450C9479330C94842F0C941FF8DE
:1004E0000C940A970D94DF1F0C944B340C94ACD2EF
:1004F0000C9448290C94EFDD0C94B3980C94FDF601
:100500000C94C4D20D94D01F0D945E260D94854793
:100510000D9418260C944C760C94A8F80C9469D180
:100520000C947BDD0C94A5290C9442600C9424FB64
:100530000C9489F90C94652A0C94B0300C945330C7
:1005400003F0000C4800108400208A00408A00401C
:1005500042007C3F0082408084BF00884100783E9A
:100560000007C00003F0000C4800108400208A003F
:10057000408A007C4200823F008240807CBF002095
:100580004100183E0007C00003F0000C4800108432
:1005900000788A00848A00824200823F00444080C2
:1005A00038BF00204100183E0007C0000000038053
:1005B0000EE00FE01CF01EF01EF00C600FE0038058
:1005C0000000000000003FF0201C381020103850C0
:1005D00020103FF000000000000000002008501430
:1005E0001FF01FF050142008000000000000000061
:1005F00000100020021002200300018004E00E0021
:100600001F00000000001E40124012701E0000007B
:100610001EF0129012901EF0000000001FF0200843
:10062000218822482228212020901E5000300000DE
:100630000000600C139004400920092009200440A8
:100640001390600C000000000FE010101210011059
:100650003C900110121010100FE0000000001FF07D
:10066000101017D0101017D01050105010101FF08D
:100670000000416C6C00536F6D65206461746120F3
:10068000736B697070656400426164206D6F6465AE
:100690006C20646174612E0A4C6F6164696E67201E
:1006A00064656661756C747300436800436F756EB2
:1006B0007465720054696D65720047617567654DB8
:1006C00061780047617567654D696E0044697370B4
:1006D00000537263005479706500576964676574EC
:1006E0000023202D2D2D2D2D2D2057696467657435
:1006F00073202D2D2D2D2D2D00456E64706F696E8C
:10070000745200456E64706F696E744C0046616986
:100710006C73616665004F766572726964655661D7
:100720006C004F76657272696465537769746368AB
:10073000005375627472696D0052657665727365F7
:1007400000437276004375727665004368616E6E91
:10075000656C0023202D2D2D2D2D2D204F757470AF
:100760007574206368616E6E656C73202D2D2D2D60
:100770002D2D005472616E736974696F6E54696DCA
:10078000650023202D2D2D2D2D2D20466C696768A9
:1007900074206D6F646573202D2D2D2D2D2D00443B
:1007A0006972656374696F6E004D6F64756C757303
:1007B00000436C656172004564676500436C6F635C
:1007C0006B00436F756E7465720023202D2D2D2DE7
:1007D0002D2D20436F756E74657273202D2D2D2D78
:1007E0002D2D0056616C340056616C330056616CDF
:1007F000320056616C310046756E63004C6F67695C
:1008000063616C5377697463680023202D2D2D2D4F
:100810002D2D204C6F676963616C20737769746359
:10082000686573202D2D2D2D2D2D00437573746F4C
:100830006D43757276650023202D2D2D2D2D2D20D5
:10084000437573746F6D20637572766573202D2DFB
:100850002D2D2D2D00536C6F77446F776E00536CE8
:100860006F7755700044656C6179446F776E004412
:10087000656C61795570002C00416C6C00466C69A8
:100880006768744D6F6465005472696D456E61628E
:100890006C65640043727600437572766556616CD0
:1008A00000437572766554797065005765696768AD
:1008B0007400496E707574004F7065726174696F71
:1008C0006E004F7574707574004D69786572002301
:1008D000202D2D2D2D2D2D204D69786572202D2D4B
:1008E0002D2D2D2D005068617365416E676C65007C
:1008F00050686173654D6F6465005265766572730B
:10090000654D6F64756C61746F72004D6F64756CCA
:1009100061746F7253726300506572696F64320064
:10092000506572696F643100506572696F644D6F14
:1009300064650057617665666F726D0046756E631B
:1009400067656E0023202D2D2D2D2D2D2046756ED3
:100950006374696F6E2067656E657261746F727320
:10096000202D2D2D2D2D2D00506974636844756147
:100970006C5261746500456C654475616C526174BC
:100980006500536D6F6F7468005956616C0058565E
:10099000616C004E756D506F696E747300546872AF
:1009A0006F74746C6543757276650023202D2D2D50
:1009B0002D2D2D205468726F74746C6520637572D0
:1009C0007665202D2D2D2D2D2D00526F6C6C4475CC
:1009D000616C526174650041696C4475616C52616F
:1009E0007465005961774475616C52617465005299
:1009F00075644475616C52617465004578706F323E
:100A0000004578706F310052617465320052617434
:100A100065310023202D2D2D2D2D2D205261746543
:100A20007320616E64206578706F202D2D2D2D2D23
:100A30002D0059325472696D0058325472696D003C
:100A400059315472696D00436F6D6D6F6E547269E8
:100A50006D005472696D537461746500583154723D
:100A6000696D0023202D2D2D2D2D2D205472696DA3
:100A700073202D2D2D2D2D2D0050657273697374EB
:100A800056616C0050657273697374656E740049C9
:100A90006E69744D696E00526573657400537769B1
:100AA0007463680054696D65720023202D2D2D2D0F
:100AB0002D2D2054696D657273202D2D2D2D2D2D1A
:100AC000005265636F72644D696E696D756D005299
:100AD00065636F72644D6178696D756D0053686F01
:100AE000774F6E486F6D6500416C61726D5468722E
:100AF0006573686F6C6400416C61726D436F6E6406
:100B00006974696F6E004F6666736574004D756C2D
:100B10007469706C69657200466163746F7231301C
:100B2000004964656E74696669657200556E697422
:100B3000734E616D65004E616D65004E6F2E005401
:100B4000656C656D657472790023202D2D2D2D2D1A
:100B50002D2054656C656D65747279202D2D2D2DB9
:100B60002D2D003A20005377697463685761726EC7
:100B700000436865636B5468726F74746C6500231E
:100B8000202D2D2D2D2D2D205761726E696E6773CE
:100B9000202D2D2D2D2D2D00506974636853726307
:100BA00000456C655372630054687253726300525F
:100BB0006F6C6C5372630041696C537263005961CE
:100BC0007753726300527564537263004D6F6465AE
:100BD0006C54797065004D6F64656C4E616D650095
:100BE0002323232323204D6F64656C20636F6E667F
:100BF000696775726174696F6E2066696C65202320
:100C00002323232300456C766F6E5200456C766F6C
:100C10006E5200456C766F6E4C00456C766F6E4C74
:100C200000567461696C5200567461696C520056CA
:100C30007461696C4C00567461696C4C004D6F7442
:100C40006F7252004D6F746F7252004D6F746F72FD
:100C50004C004D6F746F724C005600457874566F9F
:100C60006C7473005600457874566F6C747300563C
:100C700000457874566F6C74730064426D00525373
:100C800053490025004C696E6B516C7479001B1E32
:100C9000392D36274B4EC98DC687D89C786CB4E465
:100CA00093D2B1E1726300020406070809090A0A37
:100CB0000A0A0A0A0A0A2070F8486953636F7265C3
:100CC0003A200053636F72653A2020200047616D1F
:100CD00065206F76657200880564054005040C0682
:100CE000020306040C080808080C040C08080C068B
:100CF000040C0C04040C08080E030302020604048E
:100D00000C080C08080808080C040701030202027A
:100D1000020206040406020603070404040C080C7D
:100D20000C08080808080C0603070404040C060253
:100D300006040C08080C040404040404040603015B
:100D40000103020203020202030306060202060472
:100D5000040E0808080C060604060206044765741B
:100D6000207265616479004661696C656420746F06
:100D700020616C6C6F636174650A6D656D6F72796B
:100D800020666F722067616D65002D2D2D2D2D441D
:100D90006973636C61696D65722D2D2D2D2D0A545B
:100DA00068697320736F6674776172652069732058
:100DB00070726F76696465642022617320697322A2
:100DC00020776974686F75742077617272616E74D0
:100DD00079206F6620616E79206B696E642C2065C6
:100DE000787072657373206F7220696D706C6965BD
:100DF000642E20496E206E6F206576656E742073B8
:100E000068616C6C2074686520617574686F7273BA
:100E1000206F7220636F7079726967687420686FE1
:100E20006C64657273206265206C6961626C652018
:100E3000666F7220616E79206469726563742C201C
:100E4000696E6469726563742C20696E6369646598
:100E50006E74616C2C207370656369616C2C206505
:100E600078656D706C617279206F7220636F6E733C
:100E7000657175656E7469616C2064616D6167652B
:100E8000732028696E636C7564696E67206275747F
:100E9000206E6F74206C696D6974656420746F20B6
:100EA000706572736F6E616C20616E642F6F72205B
:100EB00070726F70657274792064616D6167652905
:100EC000206F72206F74686572206C696162696C52
:100ED0006974792061726973696E672066726F6DDB
:100EE0002074686520757365206F66207468697367
:100EF00020736F6674776172652E0A0A496D70728D
:100F00006F7065726C79206F7065726174696E675D
:100F1000205243206D6F64656C732063616E2063A3
:100F20006175736520736572696F757320696E6A88
:100F3000757279206F722064656174682E00F87094
:100F4000200A4657207665723A312E300A286329E6
:100F5000323032322D323032330A42756B3734350B
:100F6000360A0A6769746875622E636F6D2F627541
:100F70006B37343536004E6F20726573706F6E7349
:100F800065005772697465206661696C6564005715
:100F90007269746520737563636573730057726952
:100FA00074696E672073657474696E6773005B574C
:100FB000726974655D0050574D00536572766F001D
:100FC0004467746C003A0020004368616E6E656C83
:100FD000004F757470757420636F6E666967004E9C
:100FE0006F20726573706F6E73650052656164691E
:100FF0006E672073657474696E67730042696E640E
:101000002074696D656F75740042696E6420666155
:10101000696C65640042696E64207375636365730F
:10102000730042696E64696E67005365636F6E6436
:101030006172792072637672004D61696E2072630D
:101040007672005B436F6E6669677572655D005B03
:1010500042696E645D00466163746F7279207265E7
:10106000736574206861730A6265656E20696E69D4
:101070007469617465642E0A5265626F6F742074BE
:101080006F20636F6E74696E756500466163746F7F
:1010900072792072657365742077696C6C0A646577
:1010A0006C65746520616C6C20646174612C0A69E4
:1010B0006E636C7564696E67206D6F64656C732E0A
:1010C0000A0A5072657373205B55505D0A72657031
:1010D00065617465646C7900300030006D730046A2
:1010E0007864206C6F6F703A004C6F6F7020233AF9
:1010F00000627974657300467265652072616D3AAD
:101100000055702074696D653A002C2000506B7496
:1011100020726174653A005B466163746F72792076
:1011200052657365745D005B56696577206368611D
:1011300072207365745D005B44756D702065787412
:101140006E6C20454550524F4D5D005B44756D708F
:1011500020696E746E6C20454550524F4D5D004DB8
:1011600061792072656475636520706572666F725F
:101170006D6E63004E6F204C434420696E7465723F
:101180006C6163696E670049443A307833302C20D3
:101190005372633A56697274310053696D756C61AC
:1011A00074652074656C656D657472790053686F41
:1011B00077206C6F6F702074696D65004E2F410051
:1011C00044666C74204368206F726465723A004D07
:1011D000697865722074656D706C74733A0041753E
:1011E000746F736C637420696E7075743A005B433E
:1011F00068616E67652070617373776F72645D00FC
:101200005B5365742070617373776F72645D004C1B
:101210006F636B206D6F64656C73004C6F636B2044
:10122000737461727475700050617373776F726458
:10123000005B4E6578745D00290028004D756C7464
:10124000706C723A004761756765206D61783A008D
:101250004761756765206D696E3A005B4E6578740D
:101260005D0033504F530032504F5300416273655D
:101270006E74003A0053776974636820000A5468FA
:101280006573652073657474696E6773206D696733
:1012900068740A61666665637420796F757220658B
:1012A00078697374696E670A6D6F64656C732E0A72
:1012B0000A5B4F4B5D20746F20636F6E74696E75AF
:1012C00065005B46696E6973685D005B4E657874A6
:1012D0005D00290028004E2F410025003A0041649E
:1012E0006A75737420646561647A6F6E65005B4E25
:1012F0006578745D004D6F766520737469636B73F8
:101300002066756C6C792C0A7468656E2063656E56
:10131000746572207468656D2E0A005B4E65787482
:101320005D004E6F6E2063656E746572696E670056
:1013300053656C662063656E746572696E67003A0A
:101340000054797065206F6620617869730041549C
:1013500052450052454154004145525400525441B7
:1013600045004465666C74206D6F64653A005B539C
:10137000746172745D0043616C6962726174696F5B
:101380006E3A00537469636B730000000000000044
:101390000000000000000053776974636865730003
:1013A000000000000000000000000042617474654D
:1013B00072790000000000000000000000000053EF
:1013C0006563757269747900000000000000000018
:1013D0000000004D697363656C6C616E656F7573B9
:1013E0000000000000000044656275670000000016
:1013F00000000000000000000000004175746F68EC
:10140000696465207472696D733A00416E696D613B
:1014100074696F6E733A00526F756E6420636F72F9
:101420006E6572733A004B656570206D656E752050
:101430007073746E3A004D656E752069636F6E73DC
:101440003A004B65792066696C7465723A004B65A9
:101450007973000000000000416374767479000025
:10146000000057616B652075703A0035730000000D
:101470000000000000313573000000000000003360
:10148000307300000000000000316D696E00000044
:10149000000000356D696E00000000000031356D00
:1014A000696E00000000004E657665720000000065
:1014B0000054696D656F75743A0025004272696762
:1014C00068746E6573733A00456E61626C653A00CC
:1014D0004B6579733A004B6E6F62733A00547269D0
:1014E0006D733A0053776974636865733A006D6988
:1014F0006E004F666600496E6163747674793A00D7
:10150000456E61626C653A004C6F77000000000028
:1015100000004D656469756D000000004D61780044
:10152000000000000000524620706F7765723A009C
:101530005246206F75747075743A00524620736578
:1015400074757000000000000000000000000053EF
:101550006F756E64000000000000000000000000D5
:101560000000004261636B6C6967687400000000F2
:1015700000000000000000417070656172616E63E0
:101580006500000000000000000000416476616E0C
:1015900063656400000000000000000000000044DB
:1015A000656C6574652073656E736F723F0A0A59C6
:1015B0006573205B55705D200A4E6F205B446F772A
:1015C0006E5D005265636F72644D696E3A005265DC
:1015D000636F72644D61783A004F6E20686F6D657D
:1015E0003A005468726573683A00004F66660000FE
:1015F00000000000000000000000000000000000EB
:10160000013E54687265736800000000000000002D
:10161000000000000000023C54687265736800001E
:1016200000000000000000000000000000000000BA
:1016300000000000000000000000000000000000AA
:101640000000416C657274733A004F66667365748E
:101650003A00466163746F7231303A0030002E00F8
:101660004D756C74706C723A0030003078004944EB
:101670003A002D2D00556E6974733A002D2D004EE1
:10168000616D653A0053656E736F720053706563E8
:1016900069667920756E6974730053656E736F7235
:1016A000206E616D65005B52657365745D0020613D
:1016B000676F0073006D696E006872004E6F206482
:1016C0006174610054696D6520726376643A004C00
:1016D0006173742056616C3A005B52657365745D8A
:1016E000004D696E696D756D3A005B526573657486
:1016F0005D004D6178696D756D3A00537461747366
:101700000044656C6574652073656E736F72004587
:101710006469742073656E736F7200566965772013
:1017200073746174730052535349004C696E6B209B
:101730007175616C69747900457874566F6C747357
:1017400020345300457874566F6C74732033530003
:10175000457874566F6C74732032530053656E7302
:101760006F72206E616D650054656D706C6174659B
:1017700073004E65772073656E736F72003A004692
:101780006164652D696E3A004E2F4100537769748C
:1017900063683A002D2D004E616D653A00464D4458
:1017A00000466C676874206D6F6465206E616D65BE
:1017B000000044697361626C656400000000000011
:1017C0000000000000000001436F6D6D6F6E0000AF
:1017D0000000000000000000000000000002466C55
:1017E000696768744D6F64650000000000000000C8
:1017F00000000000000000000000000000000000E9
:10180000000000000000000000207472696D3A00C2
:101810000055700000000000000000000000000003
:1018200000000000000001446F776E00000000001F
:10183000000000000000000000000000024D69648C
:101840000000000000000000000000000000000098
:101850000000FF4E6F6E65000000000000000000F9
:101860000000000000000000000000000000000078
:1018700000000000000000000000000000003A002E
:1018800053776974636820005468726F74746C6570
:101890003A0052657365742073657474696E67737A
:1018A0000052657365742074696D657200537461CC
:1018B00072742074696D65720053746F702074695E
:1018C0006D657200506572736973743A00206D69BA
:1018D0006E00496E697469616C3A00526573657493
:1018E0003A005377697463683A002D2D004E616D9C
:1018F000653A0054696D65720054696D6572206EB9
:10190000616D6500436C65617220616C6C20636F72
:10191000756E7465720A7265676973746572733F78
:101920000A0A596573205B55705D200A4E6F205B73
:10193000446F776E5D00436F756E74657200436F20
:10194000756E746572206E616D6500436C656172C1
:1019500020616C6C00436C65617220636F756E74FE
:1019600065720052657365742073657474696E677F
:10197000730052656E616D6520636F756E7465727C
:1019800000436F707920746F0050657273697374CF
:101990003A00436C6561723A000055700000000027
:1019A0000000000000000000000000000000000136
:1019B000446F776E0000000000000000000000008F
:1019C0000000000000000000000000000000000017
:1019D0000000000000000000000000446972656320
:1019E00074696F6E3A004D6F64756C75733A00459B
:1019F0006467653A00436C6F636B3A00436F756EC2
:101A0000746572003A0046756E6367656E206F7587
:101A10007470757473004667656E00526573657403
:101A20002073657474696E677300436F70792074F6
:101A30006F0056696577206F757470757473005305
:101A4000796E636564005B53796E635D0050686115
:101A500073653A00004175746F00000000000000DB
:101A60000000000000000000000001466978656485
:101A70000000000000000000000000000000000066
:101A80000000000000000000000000000000000056
:101A90000000000000005068617365206D6F646590
:101AA0003A00526576657273653A00436F6E7472E0
:101AB0006F6C3A004D617820706572696F643A000E
:101AC0004D617820696E7472766C3A004D696E20B3
:101AD000706572696F6400506572696F643A004D99
:101AE000696E20696E7472766C3A00496E74657224
:101AF00076616C3A00005661726961626C65000043
:101B00000000000000000000000000014669786548
:101B10006400000000000000000000000000000061
:101B200000000000000000000000000000000000B5
:101B300000000000000000506572696F64206D6F46
:101B400064653A00496E7472766C206D6F64653A14
:101B5000000053696E6500000000000000000000F6
:101B60000000000000000001537175617265000003
:101B7000000000000000000000000000000254729D
:101B800069616E676C6500000000000000000000E5
:101B900000000003536177746F6F746800000000E9
:101BA0000000000000000000000452616E646F6DD0
:101BB0000000000000000000000000000000000025
:101BC0000000000000000000000000000000000015
:101BD000000000000057617665666F726D3A002064
:101BE000003A004C004C6F676963616C207377208A
:101BF0006F757470757473004C0052657365742052
:101C000073657474696E677300436F707920746FC5
:101C10000056696577206F757470757473002D2D8B
:101C20000044757261746E3A002D2D0044656C613C
:101C3000793A0000506F736974697665000000009E
:101C4000000000000000000000014E65676174693B
:101C500076650000000000000000000000000002A7
:101C6000426F7468000000000000000000000000E7
:101C70000000000000000000000000000000000064
:101C8000000000000000000000000044697263745E
:101C90006E3A00436C6561723A0000526973696E76
:101CA00067000000000000000000000000000000CD
:101CB0000146616C6C696E67000000000000000066
:101CC000000000000000024475616C00000000008C
:101CD0000000000000000000000000000000000004
:101CE00000000000000000000000000000000000F4
:101CF00000002D2D002D2D0056616C7565323A00C7
:101D0000456467653A0052657365743A00506572C0
:101D1000696F643A002D2D0056616C7565313A008B
:101D2000436C6F636B3A005365743A00576964748F
:101D3000683A00004E6F6E65000000000000000071
:101D400000000000000000000001613E780000007B
:101D50000000000000000000000000000000000281
:101D6000613C78000000000000000000000000005E
:101D7000000000000003613D3D780000000000000D
:101D8000000000000000000000000004613E3D78FB
:101D90000000000000000000000000000000000043
:101DA0000005613C3D7800000000000000000000DC
:101DB00000000000000000067C617C3E780000000E
:101DC00000000000000000000000000000077C612F
:101DD0007C3C7800000000000000000000000000D3
:101DE000000000087C617C3D3D78000000000000A0
:101DF000000000000000000000097C617C3E3D788E
:101E00000000000000000000000000000000000AC8
:101E10007C617C3C3D780000000000000000000078
:101E200000000000000B7C64656C74617C3E7800EF
:101E300000000000000000000000000C613E620095
:101E40000000000000000000000000000000000092
:101E5000000D613C62000000000000000000000076
:101E6000000000000000000E613D3D620000000027
:101E7000000000000000000000000000000F613EB4
:101E80003D620000000000000000000000000000B3
:101E900000000010613C3D620000000000000000F6
:101EA00000000000000000000011414E440000004E
:101EB0000000000000000000000000000000001210
:101EC0004F52000000000000000000000000000071
:101ED000000000000013584F5200000000000000F6
:101EE0000000000000000000000000144C6174635A
:101EF000680000000000000000000000000000007A
:101F00000015546F67676C6500000000000000005A
:101F1000000000000000001650756C7365000000A2
:101F200000000000000000000000000000000000B1
:101F300000000000000000000000000000000000A1
:101F40000000007CEB7C3E780046756E63746E3A50
:101F500000FFF88208BA48AA48BA488208FFF83851
:101F600000FFF88208BA48AA48BA488208FFF80079
:101F7000E0506F696E743A200044656C65746520AA
:101F8000706F696E74006265666F72653A00496EC3
:101F90007365727420706F696E7400437572766534
:101FA000004375727665206E616D65004D696E69DE
:101FB0006D756D207074732072656163686564006F
:101FC0004D6178696D756D20707473207265616301
:101FD0006865640044656C65746520706F696E7433
:101FE00000496E7365727420706F696E7400466C80
:101FF000697020766572746963616C00466C697003
:1020000020686F72697A6F6E74616C0052657365D7
:10201000742063757276650052656E616D6520632C
:102020007572766500436F707920637572766520EE
:10203000746F00536D74683A005976616C3A0058B9
:1020400076616C3A0050743A007074730054797081
:10205000653A0043727600437573746F6D20637543
:10206000727665730000000000000046756E6374B0
:102070006E2067656E657261746F72730000004C4C
:102080006F676963616C2073776974636865730057
:10209000000000436F756E746572730000000000ED
:1020A0000000000000000054696D657273000000BC
:1020B000000000000000000000000053616665742D
:1020C0007920636865636B730000000000000054B2
:1020D00072696D2073657475700000000000000067
:1020E000000000466C69676874206D6F646573005A
:1020F000000000000000004368616E6E656C206E99
:10210000616D650052656E616D65206368616E6E1C
:10211000656C0056696577206F757470757473000F
:10212000456E647074733A009A486F6C64000000E6
:1021300000000000000000000000000000009B4EB6
:102140006F50756C73650000000000000000000017
:10215000000000000000000000000000000000007F
:10216000000000000000000000004661696C73611F
:1021700066653A002D2D004F766572726964653A86
:10218000005375627472696D3A00526576657273B8
:10219000653A0043727600FF4E6F6E6500000000E6
:1021A000000000000000000000000000000000002F
:1021B000000000000000000000000000000000001F
:1021C00000000043757276653A0043680043686119
:1021D0006E6E656C3A00486F6C64003D002A3D00ED
:1021E0002B3D004E6F206D697865732064656669CC
:1021F0006E656420796574004F76657276696577DF
:10220000004D6978230056697274004368004D6977
:10221000786572206F75747075740052657365749B
:1022200020616C6C206D697865733F0A0A5965738B
:10223000205B55705D200A4E6F205B446F776E5DAA
:10224000004D6978206E616D65004F6E65206F727C
:10225000206D6F72650A64657374696E6174696F6D
:102260006E20736C6F74730A616C7265616479209F
:102270006F636375706965642E0A436F6E74696E6F
:1022800075653F0A0A596573205B55705D200A4EDB
:102290006F205B446F776E5D0044696666207468EA
:1022A0007275737400567461696C00456C65766F65
:1022B0006E00426173696300496E736572742066D3
:1022C00061696C65640054656D706C617465730060
:1022D00053686F77206F7665727669657700436F14
:1022E0006D70616374206D69786573005265736504
:1022F0007420616C6C206D6978657300526573653C
:1023000074206D69780052656E616D65206D697825
:1023100000496E736572742066726565004D6F7654
:1023200065206D697820746F00436F7079206D6946
:102330007820746F0056696577206F7574707574B6
:10234000730053656C656374206174206C65617300
:1023500074206F6E65002000464D4400536C6F770B
:10236000446E3A00536C6F7755703A00446C792094
:10237000446E3A00446C792055703A002C00416C50
:102380006C00462D4D6F64653A004E2F410054722B
:10239000696D20203A0043727600004E6F6E650032
:1023A000000000000000000000000000000000002D
:1023B00001783E3000000000000000000000000036
:1023C00000000000000002783C3000000000000027
:1023D000000000000000000000000000037C787C8A
:1023E00000000000000000000000000000000000ED
:1023F00000000000000000000000000000000000DD
:10240000000000000000000043727656616C3A0044
:102410000044696666000000000000000000000043
:10242000000000000000014578706F00000000000F
:102430000000000000000000000000000246756E71
:102440006300000000000000000000000000000029
:10245000000003437573746F6D00000000000000FE
:10246000000000000000000000000000000000006C
:1024700000000000000000000000000000004375A4
:10248000727665203A004F66667365743A00576548
:10249000696768743A00496E707574203A000041AB
:1024A0006464000000000000000000000000000064
:1024B00000000000014D6C74706C79000000000099
:1024C00000000000000000000000014D756C746900
:1024D000706C7900000000000000000000000000A7
:1024E0000252706C63570000000000000000000002
:1024F000000000000000025265706C61636500001E
:1025000000000000000000000000000003486F6CA5
:102510006400000000000000000000000000000057
:1025200000000000000000000000000000000000AB
:1025300000000000000000004F706572746E3A00E9
:102540005377697463683A004F75747075743A0014
:1025500023004D6978206E6F3A0030003130300032
:102560002D313030003A2000537769746368657309
:10257000003A004B6E6F6273003A00537469636BEC
:102580007300FE8282828282FEFA868CDAF2A2FEDA
:10259000536D74683A005976616C3A005876616CF4
:1025A0003A0050743A0070747300437572763A00C2
:1025B0005372633A002852617465312900285261D0
:1025C00074653229005372633A002D2D00442F5256
:1025D0003A0025004578706F3A0025005261746515
:1025E0003A0044656C657465206D6F64656C3F0AE4
:1025F0000A596573205B55705D200A4E6F205B445D
:102600006F776E5D004D6F64656C2064617461204E
:1026100077696C6C0A62652072657365742E0A4373
:102620006F6E74696E75653F0A0A596573205B5554
:10263000705D200A4E6F205B446F776E5D004D6FBA
:1026400064656C20646174612077696C6C206265DC
:102650000A6F7665727772697474656E2E0A436FBD
:102660006E74696E75653F0A0A596573205B557013
:102670005D200A4E6F205B446F776E5D00426163A0
:102680006B7570206661696C6564004120626163EE
:102690006B757020776974680A612073696D696C65
:1026A0006172206E616D650A6578697374732E0AB4
:1026B0004F76657277726974652069743F0A0A59AA
:1026C0006573205B55705D200A4E6F205B446F7709
:1026D0006E5D004D4F44454C00526573746F7265DA
:1026E000206661696C6564004D6F64656C2064618F
:1026F00074612077696C6C2062650A6F7665727709
:1027000072697474656E2E0A436F6E74696E7565B6
:102710003F0A0A596573205B55705D200A4E6F2091
:102720005B446F776E5D00526573746F72652066EF
:10273000726F6D205344004E6F206D6F64656C7333
:10274000206F6E20534400436F70792066726F6D66
:10275000004D6F64656C206E616D650000416972AB
:10276000706C616E65000000000000000000000059
:102770000000014D756C7469636F707465720000C0
:102780000000000000000000024F74686572000045
:102790000000000000000000000000000000000039
:1027A0000000000000000000000000000000000029
:1027B000000000004D6F64656C20747970650052F4
:1027C0006573746F72652066726F6D205344004E9E
:1027D0006577206D6F64656C004261636B75702076
:1027E000746F2053440044656C657465206D6F649C
:1027F000656C004C6F6164206D6F64656C004E6F9A
:10280000206672656520736C6F7473005265737413
:102810006F72652066726F6D205344004261636B76
:10282000757020746F205344005265736574206D79
:102830006F64656C00436F70792066726F6D004441
:1028400075706C69636174650052656E616D6520B9
:102850006D6F64656C0002048850205C064606308B
:10286000061A060406EE05D805C205AC054D6F64D0
:10287000656C000000000000000000000000000087
:1028800000496E70757473000000000000000000C5
:1028900000000000004D6978657200000000000033
:1028A0000000000000000000004F75747075747324
:1028B00000000000000000000000000000457874E7
:1028C00072617300000000000000000000000000C2
:1028D0000054656C656D657472790000000000003D
:1028E000000000000053797374656D000000000063
:1028F0000000000000000000005265636569766515
:102900007200000000000000000000000041626F43
:1029100075740000000000000000000000000000CE
:10292000004D61696E206D656E750057696467655D
:102930007400526573657420776964676574004D2F
:102940006F766520746F00436F707920746F00009C
:102950005E005E005E00FFA1FFA1FFA1FF4D617858
:102960003A0052696768743A004D696E3A004C65E6
:1029700066743A00004E756D65726963616C0000A3
:10298000000000000000000000000147617567655D
:102990000000000000000000000000000000000037
:1029A0000243656E746572476175676500000000DB
:1029B0000000000000000000000000000000000017
:1029C0000000000000000000000000004469737077
:1029D0003A00200054696D657200436F756E74652E
:1029E000720020004368000A4175746F0000000007
:1029F00000000000000000000000000000000000D7
:102A000000000000000000000000000000000000C6
:102A10000000005372633A000054656C656D657484
:102A20007279000000000000000000000000014D6D
:102A30006978536F757263657300000000000000D1
:102A400000000000024F7574707574730000000080
:102A5000000000000000000000000354696D657272
:102A600073000000000000000000000000000000F3
:102A700004436F756E7465727300000000000000FF
:102A80000000000000000000000000000000000046
:102A90000000000000000000000000005479706594
:102AA0003A005769646765740057696467657473B1
:102AB000005365747570207769646765747300529C
:102AC000657365742074696D6572203100000000C3
:102AD00000000052657365742074696D6572203260
:102AE0000000000000000052657365742074696D79
:102AF000657220330000000000000053746172749E
:102B00002074696D657220310000000000000053E0
:102B1000746172742074696D657220320000000067
:102B200000000053746172742074696D6572203303
:102B30000000000000000053746F702074696D6520
:102B4000722031000000000000000053746F7020FC
:102B500074696D65722032000000000000000053AF
:102B6000746F702074696D6572203300000000007E
:102B700000000020003A004368004F7574707574BF
:102B8000730054656C656D6574727920756E6D7532
:102B90007465640054656C656D65747279206D753B
:102BA000746564003A00436F756E746572003A0094
:102BB000206F7574004368003A003A0040D4C8D4CE
:102BC0004029002800464D440020505050F8D8F8C5
:102BD0001030D592D530104482BA925410107C3CFB
:102BE0003E5E2B3D3F2F5B5D3B2C2A225C000000AC
:102BF0002100240027002A002D00300033000101AD
:102C00000000040107010A0100002200250028003D
:102C10002B002E00310034000201000005010801E4
:102C20000B01000020002300260029002C002F00AB
:102C30003200000100000301060109010505050538
:102C4000070508080808020202020A0A0808040424
:102C50000404010101010101010103030303030352
:102C60000303040707070C0C0C0C0C0C0C0C0202E1
:102C7000020206060606060606060B0B0B0B0B0BDE
:102C80000B0B01021020200808102040102040806B
:102C90000201020108040201010204081020408020
:102CA00080402010080402018004020180402010AE
:102CB00008040201080402010102040810204080F7
:102CC00001020408102040800200060D13191F2580
:102CD0002B30363B4044494D5154585A5D5F616238
:102CE000636464646362615F5D5A5854514D494442
:102CF000403B36302B251F19130D0600FAF3EDE784
:102D0000E1DBD5D0CAC5C0BCB7B3AFACA8A6A3A100
:102D10009F9E9D9C9C9C9D9E9FA1A3A6A8ACAFB38B
:102D2000B7BCC0C5CAD0D5DBE1E7EDF3FA05000FAB
:102D3000001E003C002C018403000066616C73657A
:102D40000074727565003A200020200073002E0088
:102D500001020702070B070B0E0B0E0D0E0D080DDF
:102D6000080408040104010200000A0B02090C0D0A
:102D70000E0807030401000000000000000000002E
:102D80000000000000000000000000000000000043
:102D90000000000012111000000000000000000000
:102DA00000000000000000000000000000005F4480
:102DB0006F776E005F4D6964005F5570004E6F6EF7
:102DC00065007FFFFF8080000040800000408000A1
:102DD0000060800000608000006080000060800073
:102DE000006080000040800000407FFFFF807FFF88
:102DF000FF80F8000040F8000040F0000060F000A4
:102E00000060F0000060E0000060E0000060C000D2
:102E10000040C00000407FFFFF807FFFFF80C000B8
:102E20000040C0000040E0000060E0000060F000F2
:102E30000060F0000060F0000060F8000040F80062
:102E400000407FFFFF80436F756E746572005669A6
:102E50007274004368004C004667656E005377004B
:102E60005275640059617700456C65005069746360
:102E7000680041696C00526F6C6C00546872004DC0
:102E80006178004B6E6F6242004B6E6F6241005979
:102E90003400583400593300583300593200583246
:102EA000005931005831004E6F6E650021464D4487
:102EB00000464D4400214C004C00537700215377CD
:102EC000002D2D00005EBCE2613FDD83C29C7E20B0
:102ED000A3FD1F419DC3217FFCA2401E5F01E3BDF6
:102EE0003E6082DC237D9FC1421CFEA0E1BF5D03EA
:102EF00080DE3C62BEE0025CDF81633D7C22C09EDE
:102F00001D43A1FF4618FAA427799BC584DA3866C9
:102F1000E5BB5907DB856739BAE406581947A5FBB5
:102F20007826C49A653BD987045AB8E6A7F91B45A9
:102F3000C6987A24F8A6441A99C7257B3A6486D89D
:102F40005B05E7B98CD2306EEDB3510F4E10F2AC89
:102F50002F7193CD114FADF3702ECC92D38D6F3175
:102F6000B2EC0E50AFF1134DCE90722C6D33D18F69
:102F70000C52B0EE326C8ED0530DEFB1F0AE4C125D
:102F800091CF2D73CA947628ABF517490856B4EA49
:102F90006937D58B5709EBB536688AD495CB297735
:102FA000F4AA4816E9B7550B88D6346A2B7597C929
:102FB0004A14F6A8742AC896154BA9F7B6E80A541D
:102FC000D7896B354261642073797374656D2064B1
:102FD0006174612E0A4C6F6164696E672064656676
:102FE00061756C747300426164206D6F64656C2060
:102FF000646174612E0A4C6F6164696E6720646558
:103000006661756C74730000000000003E5B4F5BEE
:103010003E3E6B4F6B3E1C3E7C3E1C183C7E3C187B
:103020001C577D571C1C5E7F5E1C00183C1800FF5F
:10303000E7C3E7FF0018241800FFE7DBE7FF30488D
:103040003A060E2629792926407F050507407F0587
:10305000253F5A3CE73C5A7F3E1C1C08081C1C3E7E
:103060007F14227F22145F5F005F5F06097F017F6C
:10307000006689956A606060606094A2FFA2940413
:10308000027F020410207F201008082A1C08081C58
:103090002A08081E101010100C1E0C1E0C30383E92
:1030A0003830060E3E0E06000000000000005F00F3
:1030B000000007000700147F147F14242A6B2A12D3
:1030C00023130864623649552250000007000000AF
:1030D0001C2241000041221C0014083E081408086C
:1030E0003E0808000050300008080808080000608A
:1030F000600020100804023E5149453E44427F4092
:103100004042615149462141454B311814127F100C
:1031100027454545393C4A4949300101790503367F
:1031200049494936064949291E000024000000404B
:103130003400000008142241141414141441221401
:10314000080002015109063E4149550E7E11111138
:103150007E7F494949363E414141227F4141221CFF
:103160007F494949417F090909013E415151727F17
:103170000808087F00417F41002040413F017F084F
:103180001422417F404040407F020C027F7F0408B0
:10319000107F3E4141413E7F090909063E415121D0
:1031A0005E7F09192946264949493201017F0101FB
:1031B0003F4040403F1F2040201F7F2018207F635A
:1031C0001408146307087008076151494543007FDC
:1031D00041410002040810200041417F0004020127
:1031E00002048080808080800305000020545454B5
:1031F000787F484444383844444420384444487F25
:103200003854545458087E09090298A4A4A87C7F15
:103210000804047800447D40004080847D007F20C5
:10322000102844003F4040207C041804787C0804A7
:1032300004783844444438FC2824241818242428CA
:10324000FC7C080404084854545424043F4444209B
:103250003C4040207C1C2040201C3C4030403C44F2
:10326000281028449CA0A0A07C4464544C4400082E
:103270003E414100007F000041413E080002010341
:1032800002013C2623263C1EA1A161123A404020A7
:103290007A3854545559215555794122545478421D
:1032A000215554784020545579400C1E52721239E1
:1032B000555555593954545459395554545800009A
:1032C000457C410002457D420001457C407D121154
:1032D000127DF0282528F07C545545002054547C5C
:1032E000547C0A097F4932494949323A4444443AB4
:1032F000324A4848303A4141217A3A4240207800E7
:103300009DA0A07D3D4242423D3D4040403D3C2489
:10331000FF2424487E4943662B2FFC2F2BFF0929CD
:10332000F620C0887E090320545479410000447D72
:10333000413048484A32384040227A007A0A0A72BC
:103340007D0D19317D2629292F2826292929263066
:10335000484D4020380808080808080808382F1089
:10336000C8ACBA2F102834FA00007B000008142AD9
:10337000142222142A14085500550055AA55AA559E
:10338000AAFF55FF55FF000000FF00101010FF00BE
:10339000141414FF001010FF00FF1010F010F014B0
:1033A0001414FC001414F700FF0000FF00FF1414B5
:1033B000F404FC141417101F10101F101F14141401
:1033C0001F00101010F0000000001F101010101F40
:1033D00010101010F010000000FF1010101010104E
:1033E000101010FF10000000FF140000FF00FF008D
:1033F000001F10170000FC04F41414171017141405
:10340000F404F40000FF00F714141414141414F757
:1034100000F7141414171410101F101F141414F4B0
:10342000141010F010F000001F101F0000001F14F7
:10343000000000FC140000F010F01010FF10FF0856
:10344000081408081010101F00000000F010FFFF03
:10345000FFFFFFF0F0F0F0F0FFFFFF0000000000C2
:10346000FFFF0F0F0F0F0F3844443844FC4A4A4AFD
:10347000347E02020606027E027E026355494163E3
:103480003844443C04407E201E2006027E020299FD
:10349000A5E7A5991C2A492A1C4C7201724C605858
:1034A0004658603048784830BC625A463D3E4949EB
:1034B00049007E0101017E2A2A2A2A2A44445F44C7
:1034C0004440514A444040444A51400000FF0103F7
:1034D000E080FF000008086B6B08361236243600C7
:1034E0000609060000001818000000101000304007
:1034F000FF0101001F01011E00191D1712003C3CB5
:103500003C3C0000000000507265706172696E679B
:103510002073746F72616765004D6F64656C206421
:1035200061746120696E0A45787465726E616C2001
:10353000454550524F4D0A706F737369626C792024
:10354000636F72727570742E0A52657365742069A8
:10355000743F0A0A596573205B55705D200A4E6FEF
:10356000205B446F776E5D0045787465726E616CA8
:1035700020454550524F4D0A6E6F7420666F726D34
:1035800061747465642E0A507265737320616E797C
:10359000206B657900507265706172696E67207387
:1035A000746F7261676500507265706172696E67F1
:1035B0002073746F72616765004D6F64656C206481
:1035C00061746120696E0A496E7465726E616C2067
:1035D000454550524F4D0A706F737369626C792084
:1035E000636F72727570742E0A5265736574206908
:1035F000743F0A0A596573205B55705D200A4E6F4F
:10360000205B446F776E5D0053797374656D206441
:103610006174610A706F737369626C7920636F7291
:10362000727570742E0A52657365742069743F0A4E
:103630000A596573205B55705D200A4E6F205B440C
:103640006F776E5D00496E7465726E616C204545E2
:1036500050524F4D0A6E6F7420666F726D617474B4
:1036600065642E0A507265737320616E79206B65F4
:10367000790057656C636F6D650053687574746984
:103680006E6720646F776E003A200066616C736528
:10369000007472756500FA00910E10004B006E0206
:1036A000200010032000A403200097041000A000B5
:1036B000000008000B0210009302100078000000C8
:1036C0000800D20104005A00000008000B0220008C
:1036D000880120000B022000FA004B021000D200EB
:1036E00000001000B807100000001000B807080024
:1036F00022011704040000002000A40304000000BD
:10370000200010030400780000001000930208005D
:10371000506C656173652077616974000A42617459
:1037200074657279206C6F77001A2EEE2D1A2EEECA
:103730002D1A2EC22DC22D4D6F64656C0030003ADB
:103740000030003A002D00560030002E002D00738E
:10375000002E002030F8FCF83020746F3A004D6FD6
:1037600076652000436F707920004E6F206461748D
:10377000610030002E002D0043616E2774206265C9
:1037800020656D70747900496E636F727265637441
:103790002070617373776F726400456E7465722078
:1037A00070617373776F72640043616E2774206C6D
:1037B0006F61642068657265005B4F4B5D20746FBC
:1037C00020736B697000436865636B20737769745D
:1037D000636865733A000700436865636B2074682B
:1037E000726F74746C653A0007005741524E494E2F
:1037F000470004000A001100150024802480404086
:1038000044408020FFE0280111241FBECFEFD1E209
:10381000DEBFCDBF00E00CBF13E0A0E0B2E0E2E10C
:10382000F8EB02E00BBF02C007900D92A432B10783
:10383000D9F72EE1A4E2B3E001C01D92AB34B20788
:10384000E1F71CE1C4E0DCE100E006C021970109DA
:10385000802FFE010F94585BC330D10780E008072A
:10386000A9F70F94ED370D94075C0C9400002F928C
:103870003F924F925F926F927F928F929F92AF9200
:10388000BF92CF92DF92EF92FF920F931F93CF934D
:10389000DF93CDB7DEB7CC5AD1090FB6F894DEBFAF
:1038A0000FBECDBF8091A107811104C08091A314E8
:1038B00081112BC29CEFE92E9CE1F92E07E414E064
:1038C000C257DF4F19830883CE58D04020EFA22E75
:1038D0002CE1B22E34EE832E3CE1932E41EE242EC9
:1038E0004CE1342E5AE4C52E54E0D52E06E818E0FB
:1038F000CE56DF4F1882C259D040D80155968C91D0
:10390000882309F4AFC1F60110820F94720581116A
:10391000AEC1F70180819181A281B381F5018083DD
:103920009183A283B3830E945DE3D4016D937D9361
:103930008D939C931397F1011082D80156968C9128
:103940008111BCC1F8012789222349F130E0A0E6AA
:10395000BAEE0F94A459D7012D913D914D915C91F0
:10396000621773078407950770F42B013C01B4EFCD
:103970004B0EB1E05B1E611C711C2415350546051C
:10398000570508F4ADC1261737074807590738F41B
:10399000C257DF4FA881B981CE58D0401C92F801A0
:1039A000808D882309F497C1F70180819181A281DC
:1039B000B381F801818F928FA38FB48FCE56DF4FE2
:1039C000B881C259D040BF5FCE56DF4FB883C259CD
:1039D000D040015F1F4FE4E0EE0EF11CC257DF4FF5
:1039E00028813981CE58D0402F5F3F4FC257DF4FDB
:1039F00039832883CE58D04034E0A30EB11C44E074
:103A0000840E911C5FEF251A350A6FEFC61AD60A8D
:103A1000B33009F072CF0F94892C0F940A100091E3
:103A2000721D011105C1809190148111EFC1109296
:103A3000410281E0809335169091131D9E3508F464
:103A40007FC19093121D1092131D80934502109216
:103A5000501D80934302809344028FEF8093420273
:103A60000F94001080914602882309F4EFC28091E0
:103A7000AD148111E8C18091AF148111E1C10E94A0
:103A8000EFD40E942FD6F8E0CF2EFDE1DF2EA2E783
:103A9000AA2EA8E0BA2E00EE10E1B6E86B2EB8E030
:103AA0007B2E760184E6282E312C412C512C882443
:103AB000839419C022E092120EC0F801478150850C
:103AC000052E000C660B770B84179507A607B70722
:103AD00014F4D7018C92BFEFEB1AFB0A045E1F4F60
:103AE0006A147B04E9F1D7011C92F501219131910F
:103AF0005F012F3FFFE73F0771F3D80116969C90B7
:103B00001697992041F30D90BC91A02D0F94605B06
:103B1000A20191010F945059F80183819481092EDB
:103B2000000CAA0BBB0B820F931FA41FB51FF1E063
:103B30009F12C0CFF80147815085052E000C660BFF
:103B4000770B481759076A077B072CF6D7019C9219
:103B5000BFEFEB1AFB0A045E1F4F6A147B0419F6D1
:103B600029E733E0EFE6F3E091E0A9010DC08081A1
:103B70008111D9C0DA011C924F5F5F4F3196B2E1DB
:103B8000CB16BDE1DB06C1F0D6018D916D01813010
:103B900071F7DA018C918111EFCF80818F5F808383
:103BA000873950F3DA019C934F5F5F4F3196B2E152
:103BB000CB16BDE1DB0641F743E853E005C04E17E5
:103BC0005F0711F40C94D74CF90181919F01882370
:103BD000B1F380916E03882309F421C16091B6147A
:103BE0007091B7148091B8149091B91421E020938A
:103BF0006E0300916A0310916B0320916C03309166
:103C00006D03601B710B820B930B2AEF30E040E0D9
:103C100050E00F948259672B682B692B39F48091FF
:103C20004204811103C085E080933F140E94A6FAEC
:103C3000C455DF4F0FB6F894DEBF0FBECDBFDF9186
:103C4000CF911F910F91FF90EF90DF90CF90BF9099
:103C5000AF909F908F907F906F905F904F903F902C
:103C60002F900895D6018C91882309F452CED50166
:103C70004D905D906D907C900E945DE3AB01BC0126
:103C8000D4018D919D910D90BC91A02D481A590A97
:103C90006A0A7B0AD301C201840F951FA61FB71FB2
:103CA000F70180839183A283B383E1E0D101EC9398
:103CB000D80156968C91882309F444CE0F9472054E
:103CC000882309F43FCECE56DF4F8881C259D040B9
:103CD0000F941D3737CE118E128E138E148E6ECE2A
:103CE000C257DF4FA881B981CE58D040EC91E11185
:103CF0004ACEB3E0B0933F1421E0C257DF4FE881D2
:103D0000F981CE58D04020834ACE80919F148823D9
:103D100009F4D0CD8091A0078150833008F0CACD3E
:103D20000F940010C7CD81508083882309F422CFDF
:103D3000873908F421CFDA018C9181111DCF32CF60
:103D4000E92FF0E08827E855F14E8F4F0D94585B2E
:103D500036430345FF3E4748C44627472747EF45BC
:103D600023405F4A654A6D3DF83D473E9E3EBF4554
:103D70003E4A7149F9496535D735F5471E485C40DB
:103D8000F620411F56261225C425C425FE302C31AD
:103D90000B270B27793355312B3336216221A02194
:103DA0002A23BD23E92321249A24032648290E2906
:103DB000A5299F27B3344B347934652A8E2AA82A43
:103DC0002C2B882BC22B1D2DB62D6F2C892C842FCC
:103DD00053305F2E25309B2E172FB030D530B038A2
:103DE000EA380436FD36EA37AA382B35083BC339A2
:103DF0003F3A6C39913C7E39293C293CBB330D4B11
:103E00006647684BAD3FF5454446DA4265E082E9D6
:103E100094E10F94EC17882309F40BCE08CE60913F
:103E2000B6147091B7148091B8149091B91460933E
:103E30006A0370936B0380936C0390936D03D6CEEB
:103E4000109235161CCEE12C09E02DE047E362E725
:103E500084E296E10E941FF883E780932C1688E3A2
:103E600080932D1640910512509106126091071211
:103E7000709108122AE030E084E296E10E9432DA82
:103E8000FACD8091501D811103C085E00F946929FE
:103E90002091450280911F02281718F420931F02D9
:103EA000822F30E0482F50E04D5F5F4F8F5F421709
:103EB000530714F00CC0892F91E0980F482F50E061
:103EC0004D5F5F4F42175307B4F380931F02209159
:103ED0002B1630E0C901849797FD0196959587953B
:103EE000B82EAA24A394A80E68E282500E94F3D7A9
:103EF0001A2DF12C39E1732E43E2842E5DE0952ECC
:103F0000D0901F02DF0C809145028D1511F40C94A6
:103F10006751DA944D2C512CE091D1037E9EF00133
:103F20001124E15CF64F808190E00D2C02C0959544
:103F300087950A94E2F749E855E280FD02C042E81D
:103F400055E2EE24E39407E027E0612F89E10E9427
:103F500063D780922C1610932D1668E573E284E2E5
:103F600096E10E9458DAB2016F5F7F4F84E296E1DA
:103F70000E94EDD766E573E284E296E10E9458DA8A
:103F8000D99CB0011124655A704F84E296E10E94D9
:103F900043DAF394175F04E0F012B2CF8091A714D4
:103FA000882311F40C94D462BA2C82E290E0209120
:103FB0001F0230E07C0104E010E045E050E06B2D92
:103FC00080E70F94A6268091511D813011F40C9446
:103FD000BC9A8091501D882339F08091B014825092
:103FE000823010F40C9433838091B114813009F045
:103FF00039CDE091D10359E1E59FF0011124E15C55
:10400000F64F90819F7111F00C94FE820F94001076
:1040100082E493E290934F1D80934E1D0E945DE3D6
:1040200060934A1D70934B1D80934C1D90934D1DC2
:104030006053784F8F4F9F4F6093461D7093471D7D
:104040008093481D9093491D109246020E945DE3A3
:10405000AB01BC0100914A1D10914B1D20914C1DDC
:1040600030914D1D8091461D9091471DA091481D96
:10407000B091491D805E9C4FAF4FBF4F4017510715
:104080006207730708F4A8C0481759076A077B0737
:1040900008F0A2C0E091A814EE2311F40C94E64CB1
:1040A00068017901E0E9CE0EE1E0DE1EE11CF11CC1
:1040B0004C155D056E057F0510F00C948C4D401B72
:1040C000510B620B730BDB01CA01880F991FAA1FEA
:1040D000BB1F880F991FAA1FBB1F880F991FAA1FFC
:1040E000BB1F880F991FAA1FBB1F8C019D01041BBA
:1040F000150B260B370BC901B80120E931E040E070
:1041000050E00F948259E22FF0E0EA55F34FE4912A
:104110008FE3F82EFE1A80914E1D90914F1D0F9443
:10412000C958982F990F890F182F110F80912A16AF
:10413000811B990B97FD019695958795D82E25E0C3
:10414000821710F435E0D32E8091A71481110C94BE
:10415000DB4C49E0410F8BEF8D0D00E0E12C2BE0B3
:104160006F2D0E94C8D68091A714882311F40C9457
:104170003A5D47E0410FCE56DF4F3881C259D040FB
:10418000832F90E0880F991F4817190649F044F0D3
:10419000032F29E061E06F0D8CEF8D0D0E9429D770
:1041A00010922E16D0922C16F394F394F0922D16B2
:1041B00060914E1D70914F1D40E250E082E59DE1FF
:1041C0000F94B55862E57DE184E296E10E9443DAFE
:1041D00081E080932E164BCC84179507A607B7076E
:1041E00008F045CC81E08093460241CC85E998E215
:1041F0000F94F0331091D103612E712C8091D00374
:1042000081110EC089E1869DF001879DF00D11247A
:10421000EA5CF64F80818093CF0381E08093D003E6
:1042200089E1869DF001879DF00D1124E95CF64F30
:10423000208130918F0880E091E0F12C12C08A300B
:1042400011F40C944C4DE1E0F0E0EC0FFD1FEF0D8C
:10425000F11D8083F3949F3011F40C941D4F9F5FE8
:104260008F5F233061F7843070F3F5CF11E0109346
:10427000141D60914004BFE06B9FB00111246B5589
:10428000704FE12C01E021E047E087EF90E20F94CE
:10429000662A8091141D8111E5CB8091131D8093B6
:1042A000121D83E28093131D109345021092501D3E
:1042B00010934302109344028FEF809342020F94B5
:1042C0000010D0CB8DEB98E20F94F03380918F08E3
:1042D0000BE112E02CE132E050E040E0823011F4DA
:1042E0000C945A6C68E087E590E20F940333809158
:1042F000511D813011F40C94226C8091B1148130E5
:1043000009F0B0CB9091A614911104C080931C02C7
:1043100080931B028091131D8093121D88E080936F
:10432000131D81E0809345021092501D809343023B
:10433000809344028FEF809342020F94001092CB3F
:1043400087E590E20F94F033C090C903E0E2CE9E7F
:10435000600111248601095E124F580188E08093A4
:104360002C1619E010932D1663E570E284E296E1B5
:104370000E9458DA6091C90370E06F5F7F4F84E25A
:1043800096E10E94EDD766E0C5010F94EC1781110C
:104390000CC080912C168A5F80932C1610932D16DA
:1043A000B50184E296E10E9443DA20912C1629504F
:1043B00001E041E168E084E296E10E94A8F81092F1
:1043C0002C1614E110932D166DE470E284E296E150
:1043D0000E9458DA5AE2F52EF0922C1610932D1600
:1043E00086010A57174FF801E956FB4F4AE050E0A3
:1043F000608184E296E10E943CDA69E470E284E242
:1044000096E10E9458DA10922C166DE1E62EE092A9
:104410002D1665E470E284E296E10E9458DAF0928B
:104420002C16E0922D166091C8036F5984E296E134
:104430000E94A4F710922C1676E2E72EE0922D1639
:104440006FE370E284E296E10E9458DAF0922C1653
:10445000E0922D16E091C803E00FF12FF11DE85610
:10446000FB4F6081062E000C770B84E296E10E94E0
:10447000EDD710922C16EFE2EE2EE0922D1669E3A6
:1044800070E284E296E10E9458DAF0922C16E092F3
:104490002D16E091C803E00FF12FF11DEC55FB4FF5
:1044A0006081062E000C770B84E296E10E94EDD726
:1044B00010922C1688E380932D1663E370E284E259
:1044C00096E10E9458DAF801E055FB4F808149E8F7
:1044D00055E2811102C042E855E2EE24E39407E080
:1044E00027E068E38AE20E9463D780914502813029
:1044F00011F40C9447B5873048F4682F660F660FA7
:10450000660F680F6E5F82E20F943634E12C07E08D
:1045100028E040E068E784E296E10E941FF880917D
:10452000450246E559E2873011F04FE459E2EE24A6
:10453000E39407E028E060E088E70E9463D7809179
:10454000450283506091C803833008F06FEFC501C6
:104550000F9450308091AA1481110C94186C8091A2
:10456000C703882381F1E82FF0E0EE0FFF1FE65329
:10457000F84F8081918165E070E00F94445B8091F9
:10458000C6039B01281B310987FD3395C901049699
:10459000099710F00C944EB40E945DE30091C203A1
:1045A0001091C3032091C4033091C503601B710BAC
:1045B000820B930B683B7B408105910510F40C94B2
:1045C00037B41092C7038091501D811103C087E05A
:1045D0000F9469298091511D813011F40C948194BC
:1045E00080914502813011F40C94D96A823011F423
:1045F0000C94A694833011F40C948F94843011F4AD
:104600000C943498853011F40C940E98863011F483
:104610000C94F397873011F40C94D6978091B114D1
:10462000813009F01FCA9091131D9093121D96E2DC
:104630009093131D809345021092501D8093430266
:10464000809344028FEF809342020F9400101092E7
:10465000C80308CA85E290E29093261D8093251D29
:104660001092151D88E190E29093281D8093271DDC
:1046700001E00093161D8CE090E290932A1D809338
:10468000291D82E08093171D8CEF9FE190932C1DD4
:1046900080932B1D83E08093181D8EEE9FE19093F5
:1046A0002E1D80932D1D84E08093191D81EE9FE1C6
:1046B0009093301D80932F1D85E080931A1D84ED0B
:1046C0009FE19093321D8093311D86E080931B1DE6
:1046D00087E08093451D0F947B29109142021111B0
:1046E0001AC08091C9038093C1038091131D8093E8
:1046F000121D8AE28093131D009345021092501DF3
:1047000000934302009344028FEF809342020F9480
:10471000001010914202113011F40C942FB5123098
:1047200011F40C940EB5133011F40C94086A143083
:1047300011F40C94D669153011F40C944A6A1630B1
:1047400011F40C94266A8091B114813009F08AC961
:104750009091131D9093121D97E29093131D8093D7
:1047600045021092501D80934302809344028FEFC4
:10477000809342020F94001075C911E01093141D2C
:104780006091C90330E2639FB0011124695E724FEA
:10479000E12C01E021E046E081EA9FE10F94662AE6
:1047A0008091141D81115EC98091131D8093121D8B
:1047B00087E28093131D109345021092501D1093B1
:1047C0004302109344028FEF809342020F94001033
:1047D00049C981E08093501D8091C10302E021E02E
:1047E00049E050E070E060E090E00F94A1278093F2
:1047F000C10321E0482F6091C9038BE99FE10F9429
:1048000080348091511D813011F40C94708380911B
:10481000B114813009F026C99091131D9093121D97
:1048200097E29093131D809345021092501D809340
:104830004302809344028FEF809342020F94001052
:1048400011C9C090C903D12C8091C003882311F4F1
:104850000C94CE6D5601AA0CBB1CA294B29420EF0E
:10486000B222BA24A222BA2463E28EE00E94F3D7D5
:1048700011E110932C1682E180932D166EE87FE1F2
:1048800084E296E10E9458DA10932C161CE11093F2
:104890002D1666E87FE184E296E10E9458DA87E40B
:1048A00080932C1610932D1660911A026F5984E292
:1048B00096E10E94A4F76CE18FE30F94363481E017
:1048C0008093501DB5016A57774F7B01FB01E95674
:1048D000FB4F40814150550B80911A0202E021E0CC
:1048E00061E070E090E00F94A127582E80931A02A7
:1048F0002091511D213011F40C94E96C8091B11478
:10490000813009F0AFC81092C0039091131D9093AD
:10491000121D97E29093131D809345021092501D33
:1049200080934302809344028FEF809342020F945E
:10493000001098C8E091C903CE2ED12C8091BF03FE
:10494000882311F40C94AD6A7601EE0CFF1CE294FE
:10495000F29440EFF422FE24E422FE2463E28EE08F
:104960000E94F3D711E110932C1682E180932D164B
:1049700069E77FE184E296E10E9458DA10932C16F1
:104980001CE110932D1661E77FE184E296E10E941D
:1049900058DA87E480932C1610932D166091190233
:1049A0006F5984E296E10E94A4F76CE18FE30F94C3
:1049B000363481E08093501DF701E35EF24F408171
:1049C0004250550B8091190202E021E061E070E055
:1049D00090E00F94A127982F809319022091511DE8
:1049E000213011F40C94746A8091B114813011F06B
:1049F0000C94321D1092BF039091131D9093121DC1
:104A000097E29093131D809345021092501D80935E
:104A10004302809344028FEF809342020F94001070
:104A20000C94321D109235168EE092E20F94F03302
:104A30008091CA0381111CC0E091D10309E1E09F7C
:104A4000F0011124EA5CF64F80819FEC980F9431BD
:104A500010F00C9414838952990B95958795959530
:104A600087959595879580931E0281E08093CA0370
:104A700081E08093501D80911E0202E021E041E020
:104A800050E064E070E090E00F94A12780931E0254
:104A900010922C1697E090932D16843010F00C9401
:104AA0005463815E182F110F110F110F6BE072E22A
:104AB00084E296E10E9458DA20E0E3E16E2E812F35
:104AC00090E05C0137E0A30EB11C611610F40C9469
:104AD000BE52FF24F394F10ECF2CD12CF21A37E002
:104AE000732E322E311A49E1842E912C54E2452E38
:104AF00069E3562E1FEF120F2EC061110C947E59E0
:104B000047E260E1872D0E94FED869E06F1510F43E
:104B10000C94444D8EEF870D80932C1650922D16D9
:104B20004AE050E06F2D84E296E10E943CDA232DAA
:104B30002F0DC601AC14BD0414F40C94BF524FEFFA
:104B4000C41AD40AF39450E1750E312F3F0D631649
:104B500010F40C94BF52880F991FFC01E45DF74FCD
:104B600080819181B4010F94445B062F16162CF6B8
:104B7000442D461BEE24E39423E06FEF670D84E29F
:104B800096E10E941FF8BCCF81E08093501D809178
:104B9000CB0302E021E047E250E070E060E090E00B
:104BA0000F94A1278093CB0321E09091131D9C319A
:104BB00009F020E0482F6091D10381E092E20F9448
:104BC00080348091511D813011F40C94CC5F809120
:104BD000B114813011F00C94321D9091131D9093FB
:104BE000121D98E19093131D809345021092501D61
:104BF00080934302809344028FEF809342020F948C
:104C000000100C94321D109235168FE790E20F942D
:104C1000F0336091BE03C62ED12C98E090932C16F1
:104C200099E090932D16635E40E282E59DE10F943A
:104C3000181662E57DE184E296E10E9443DA209154
:104C40002C16295001E041E168E084E296E10E94DF
:104C5000A8F88091BE038F5C0F947205EE24E39454
:104C600008E02DE0882311F40C94CC6241E65FE16A
:104C700069E083E70E9463D7FE0131961F01DF01DF
:104C800080E099E09C9DF0019D9DF00D1124E95A72
:104C9000F14F91E0980F8D93953011F40C946D5174
:104CA000943011F40C94C2AE892FF3CF85E393E2D4
:104CB0009093261D8093251D1092151D89E293E285
:104CC0009093281D8093271D81E08093161D8DE110
:104CD00093E290932A1D8093291D82E08093171DF3
:104CE00081E193E290932C1D80932B1D83E08093B0
:104CF000181D86E093E290932E1D80932D1D84E075
:104D00008093191D8CEF92E29093301D80932F1D9C
:104D100085E080931A1D8CEE92E29093321D809371
:104D2000311D86E080931B1D8EED92E29093341D21
:104D30008093331D87E080931C1D80ED92E2909359
:104D4000361D8093351D89E080931D1D8093451D80
:104D500080918F08823010F40C9419620F947B2993
:104D600010914202111117C08091131D8093121DE2
:104D70008BE18093131D81E0809345021092501DBA
:104D800080934302809344028FEF809342020F94FA
:104D9000001010914202113011F40C94F6B312304D
:104DA00011F40C94D9B3133011F40C94DF6E143059
:104DB00011F40C94127A153011F40C94559C1630A1
:104DC00011F40C943C9C173011F40C949D6E183027
:104DD00011F40C9412B4193011F40C948C9C809141
:104DE000B114813011F00C94321D9091131D9093E9
:104DF000121D98E19093131D809345021092501D4F
:104E000080934302809344028FEF809342020F9479
:104E100000100C94321D903211F40C9464651091C2
:104E2000420211115AC0F090D103F4E2FF1510F4C0
:104E30000C94C79D6F2D70E09B012C5F3F4F17E2D4
:104E40001F1588F149E1469FC001479F900D11242D
:104E50008A57974FFC01E055FF4F508151110C9438
:104E6000219F8D549F4FDC018C9181110C94219FC7
:104E7000E1E0EF0D8E2F90E0E49FF0011124EA5C59
:104E8000F64F0EC0883278F4DF01408141110C9456
:104E9000219F0196799613964C9141110C94219F74
:104EA000821793077CF38F2D0E94D8FF8091131DEA
:104EB0008093121D88E18093131D81E08093450249
:104EC0001092501D80934302809344028FEF809391
:104ED00042020F94001010914202113011F40C9410
:104EE000569F123011F40C94A69DF090D10313300C
:104EF00011F40C94879D01110C94779D8091511DA4
:104F0000833031F08091B114813011F00C94321D56
:104F10008091131D8093121D88E18093131D81E001
:104F2000809345021092501D809343028093440267
:104F30008FEF809342020F9400100C94321D83E98E
:104F400090E20F94F033C090B803D12C88E08093A6
:104F50002C1699E0F92EF0922D166CEF79E184E28F
:104F600096E10E9458DA6091B80370E06F5F7F4F5E
:104F700084E296E10E94EDD7C294D29420EFD2222F
:104F8000DC24C222DC248601055F104F67E0C801E3
:104F90000F94EC1781110CC080912C168A5F8093BE
:104FA0002C16F0922D16B80184E296E10E9443DAA5
:104FB00020912C16295001E041E168E084E296E15D
:104FC0000E94A8F8E091B803F0E0EE0FFF1FEC5A42
:104FD000FB4F2081318111E02A30310564F0C90195
:104FE00011E0EAE0F0E0BF010F94445BCB011F5FEA
:104FF0006A307105C4F7812F880F880F012F081BB5
:10500000000F8FE7800F80932C1689E080932D1678
:10501000B90184E296E10E94EDD7212F220F210FE2
:10502000220F2D5F6DE7600FEE24E3940BE047E065
:1050300084E296E10E9447F8198281E08A8382E047
:105040008B8383E08C8384E08D8385E08E838091E5
:10505000501D811103C088E00F9469298091511D72
:10506000813011F40C94D2B600914502013011F454
:105070000C940060083011F40C940060209114022C
:105080000230D8F0201720F02FEF200F20931402C9
:10509000402F50E0822F90E00596841795076CF41E
:1050A0002F5F01C0232F31E0320F822F90E0059651
:1050B00084179507BCF32093140214E1B12CA12CA2
:1050C000AE014F5F5F4F1A01BE0161507109C257B7
:1050D000DF4F79836883CE58D040C6018A57974FF7
:1050E0006C013C019EE6691A99EF790A4601A2E734
:1050F0008A1AA9EF9A0A2601BFE64B1AB9EF5B0A92
:10510000F601E157F94FCD56DF4FF983E883C359D4
:10511000D040A6014357594FCB56DF4F59834883A0
:10512000C559D04054E7C51A59EFD50A8EEF800F04
:10513000863088F4A501420F511D602F6150770B16
:105140006417750741F4612F8AE30F943634009198
:10515000450220911402F101EA0DFB1DE20FF11D41
:1051600031979081C257DF4FE881F981CE58D04006
:10517000E00FF11D8081891711F40C949D4E10925F
:105180002C1610932D16923011F40C94055D10F42A
:105190000C945D4E943011F40C94615F10F40C94F7
:1051A000305FF12C953041F569E879E184E296E1D0
:1051B0000E9458DAD3018C9149E855E2811102C06E
:1051C00042E855E2EE24E39407E027E0612F82E411
:1051D0000E9463D7FF2071F0F301808190E020915D
:1051E000501D21110C947AB621E0892B09F420E09E
:1051F000D3012C9320911402BFEFAB1ABB0A175FA7
:10520000E5E0AE16B10411F40C94D24E00914502C3
:105210008EEF800F863008F48DCF9DCF81E0809394
:10522000501D8091BD0302E021E043E150E070E0B9
:1052300060E090E00F94A1278093BD0321E0482F08
:105240006091BE0388EF9BE10F9480348091511DE3
:10525000813011F40C949EB58091B114813011F01D
:105260000C94321D9091131D9093121D9DE290930A
:10527000131D809345021092501D8093430280932A
:1052800044028FEF809342020F9400100C94321D61
:1052900081E19CE19093261D8093251D1092151DA0
:1052A00089E09CE19093281D8093271D01E00093E5
:1052B000161D8AEF9BE190932A1D8093291D82E0A1
:1052C0008093171D83E08093451D0F947B291091D7
:1052D0004202111116C08091131D8093121D80E3AC
:1052E0008093131D009345021092501D00934302BA
:1052F000009344028FEF809342020F9400101091AC
:105300004202113011F40C9447B6123011F40C948F
:1053100014B68091B114813011F00C94321D90912B
:10532000131D9093121D9DE29093131D80934502CF
:105330001092501D80934302809344028FEF80931C
:1053400042020F9400100C94321D1092351685EE17
:105350009BE10F94F0338091BC0381110DC08091CB
:10536000BE0390E00A966AE070E00F94445B60939D
:10537000170281E08093BC0381E08093501D8091EF
:10538000170202E021E041E050E062E070E090E0CE
:105390000F94A127982F80931702880F880F890FE9
:1053A000880F56EFF52EF80ECF2CD12C3601B9E030
:1053B0006B0E711CE3E1EF1508F45BC08601BAE0E7
:1053C0003B2EB12CA12C89509BE0292E460145E0B3
:1053D000840E911C482E512CC8018C199D090597EB
:1053E00014F00C94644D8091BE038F1511F40C944D
:1053F0005A6F56E050932C1630922D1663EE7BE1D7
:1054000084E296E10E9458DAB8016F5F7F4F84E230
:1054100096E10E94EDD761EE7BE184E296E10E9485
:1054200058DA88E08F1510F00C94E14D81E38F0D70
:105430000F947205EE24E39408E02DE0882311F424
:105440000C945A4D41E65FE160912D1680912C1627
:105450000E9463D7F39482010A0D1B1D601671062A
:1054600044F0FFEFAF1ABF0A2BE0320E34E1F31223
:10547000B3CF2091170230E046E3E42EF12C01E097
:1054800010E042E050E069E08FE70F94A62680919B
:10549000B114813011F00C94321D1092BC03909124
:1054A000131D9093121D9DE29093131D809345024E
:1054B0001092501D80934302809344028FEF80939B
:1054C00042020F9400100C94321D84E099E10F9475
:1054D00020368091511D823011F40C947673833004
:1054E00031F08091B114813011F00C94321D809113
:1054F000131D8093121D81E38093131D81E080931F
:1055000045021092501D80934302809344028FEF16
:10551000809342020F9400100C94321D1091B3033B
:10552000E12EF12C8091141D882311F40C94A173A9
:10553000FDE01F9FB0011124655A704FE12C01E07E
:1055400021E047E081EA97E10F94662A0C94321D2E
:105550008BE690E20F94F0336091BB03E62EF12CC2
:10556000ABE06A9FC00111248A57974FFC01ED58A8
:10557000FF4F2081211125C03196208131818A5829
:105580009F4FDC018D919C9128173907D0F0283569
:10559000324020F087E592E0918380832BE02E9DBE
:1055A000C0012F9D900D11248A57974FFC01EA5896
:1055B000FF4F8C589F4FDC018D919C9101969183F8
:1055C000808388E080932C1689E080932D16605F9D
:1055D00040E282E59DE10F94181662E57DE184E2E8
:1055E00096E10E9443DA20912C16295001E041E116
:1055F00068E084E296E10E94A8F82BE02E9DC001AD
:105600002F9D900D11248A57974FFC01ED58FF4FA5
:10561000308120E0712C8E589F4F13C0311117C07C
:105620004AEF420F423040F0E1E0F0E0EC0FFD1FA6
:10563000E70DF11D208373942F5F283011F40C9433
:105640005355313059F74DEF420F4330A8F3FC0169
:105650004081443049F7E4CF82E39AE19093261DDC
:105660008093251D1092151D8AE29AE19093281DC2
:105670008093271D81E08093161D8BE19AE1909322
:105680002A1D8093291D82E08093171D83E080935B
:10569000451D0F947B2910914202123011F40C9495
:1056A00045A3113011F40C949AA2111115C08091E8
:1056B000131D8093121D8AE38093131D81E0809354
:1056C00045021092501D80934302809344028FEF55
:1056D000809342020F9400108091B114813011F038
:1056E0000C94321D9091131D9093121D97E390938B
:1056F000131D809345021092501D809343028093A6
:1057000044028FEF809342020F9400100C94321DDC
:1057100081E08093501D8091BA0302E021E044E0D3
:1057200050E070E060E090E00F94A1278093BA030E
:1057300021E0482F6091BB0386E19AE10F94803409
:105740008091511D813011F40C94B6A28091B11456
:10575000813011F00C94321D9091131D9093121D05
:1057600097E39093131D809345021092501D8093F0
:105770004302809344028FEF809342020F94001003
:105780000C94321D1092351686E09AE10F94F03396
:105790008091B90381110DC08091BB0390E0059603
:1057A00065E070E00F94445B6093150281E08093A4
:1057B000B90381E08093501D8091150202E021E041
:1057C00041E050E061E070E090E00F94A127809309
:1057D0001502982F990F990F890FEBEF9E2E980EB7
:1057E000C92CD12C760104E0E00EF11C14E019154F
:1057F00008F457C08450082F10E04AE0842E57E088
:10580000652E65E0A62EB12C7EE5772E8091BB0338
:10581000891511F40C94DC6460922C1680922D167C
:1058200060E1690D40E282E59DE10F94181662E5A2
:105830007DE184E296E10E9443DA64E07AE184E269
:1058400096E10E9458DACC0CDD1CA6014651584F57
:105850006A01DA018D919C91B5010F94445BAB0113
:1058600028EC30E062E0680D8DE20E9493D87092DF
:105870002C1680922D16F60180819181B5010F942E
:10588000445B84E296E10E94EDD793946801E016B0
:10589000F1063CF00F5F1F4F2BE0820E35E09312B4
:1058A000B5CF8091B114813011F00C94321D10925B
:1058B000B9039091131D9093121D97E39093131DBC
:1058C000809345021092501D8093430280934402BE
:1058D0008FEF809342020F9400100C94321D1091B0
:1058E000B603C12ED12C8091141D882311F40C9481
:1058F0005B5B2FE0129FB00111246C56774FE12CB7
:1059000001E021E047E089EF98E10F94662A0C94CA
:10591000321D1092451DE091B6038E2F90E00FE0EE
:10592000E09FF0011124EA57F74F2589211113C098
:10593000FC01EF51F34E8081882311F40C9466CF63
:1059400089EB98E19093261D8093251D1092151DDB
:1059500081E08093451D2091451D822F90E0FC0140
:10596000EE0FFF1FEB5DF24E41EA58E15183408399
:105970008B5E924E01E0DC010C9381E0820F90E09F
:10598000FC01EE0FFF1FEB5DF24E42E958E151833F
:1059900040838B5E924E32E0FC0130832E5F209379
:1059A000451D0F947B2910914202111122C0809154
:1059B000B60390E0FC01E65BFB4F8F51934EDC0198
:1059C0008C91802780838091131D8093121D8DE31D
:1059D0008093131D009345021092501D00934302C3
:1059E000009344028FEF809342020F9400101091B5
:1059F0004202113011F40C940DA3123011F40C94E6
:105A0000E1A28091B114813011F00C94321D90917B
:105A1000131D9093121D9DE39093131D80934502D7
:105A20001092501D80934302809344028FEF809325
:105A300042020F9400100C94321D8FEC90E20F94F0
:105A4000F03385E021968FAF219786E022968FAFC5
:105A5000229787E023968FAF239788E024968FAF15
:105A60002497E1E5F2E08E010F5F1F4F1801D80186
:105A700001900D928A95E1F79E01205C3F4F7901DC
:105A8000680119E002E410922C1610932D16D7012C
:105A90006D917D0140E282E59DE10F94181662E56B
:105AA0007DE184E296E10E9443DA69E078E184E2F4
:105AB00096E10E9458DA00932C1610932D16D60109
:105AC000ED91FD916D01608181EB97E10F9454029E
:105AD000BC0184E296E10E9443DA175F1D3299F619
