:100000000C94061C0C94371C0C94371C0C94371C55
:100010000C94371C0C94371C0C94371C0C94371C14
:100020000C94371C0C94371C0C94371C0C94371C04
:100030000C94371C0C943AE00C94371C0C94371C2D
:100040000C94371C0C94371C0C94371C0C94371CE4
:100050000C94371C0C94371C0C94371C0C94EBE755
:100060000C94371C0C9426DF0C94FCDE0C94371C8B
:100070000C94371C0C94371C0C94371C0C94371CB4
:100080000C94371C0C94371C0C94371C0C94371CA4
:100090000C94C6DE0C949CDE0C94371C0D94BF2788
:1000A0000C94371C0C94371C0C94371C0C94371C84
:1000B0000C94371C0C94371C0C94371C0C94371C74
:1000C0000C94371C0C94371C0C94371C0C94371C64
:1000D0000C94371C0C94371C0C94371C0C94371C54
:1000E0000C94371C0C9461720C94C4330C94DCD2C5
:1000F0000C94AC580C9433D40C94455B0C94C8D23B
:100100000C9415D40C9492790C94DDFB0C94B930BA
:100110000C94C45A0D94A2170C9427D40C944B4AF7
:100120000C945E930C9464560C94FC450C94553ED0
:100130000C94D3590C94DE300D9407200C9488D283
:100140000D9471170C94D1460C9421D40D94C028B1
:100150000C944E600C9417290C940D3F0C94754B25
:100160000C9482340C94FDD30C947ED30D94E1490D
:100170000C94A03C0D943C290C9420F80C94C223C0
:100180000D944A170C9439D40C94B8530C94AC3E8B
:100190000C94123B0D94514A0C94064A0C9410276F
:1001A0000D9465210C942CD30C94C8FB0C945076C0
:1001B0000C94EFD30C9409D40C9409910C949D5891
:1001C0000C94EBFB0C9402480C94FF600D94832973
:1001D0000C94FF590D945A170C94B7D20C946721C4
:1001E0000C94E4F80C94FB200C9403D40C94202F72
:1001F0000D9477200C94E0350D9478200C94CC5815
:100200000C94B12A0C942B480C94F75A0C94815AF4
:100210000C941DE10C94E4FB0D942D3A0C94316187
:100220000C949F240C94411F0C9493760C9436E10B
:100230000D94D3280C9431400C945AE10C94A4935F
:100240000C945C300C94805A0C94F0790D947817CF
:100250000C9487390C94D4590C943B210C9424931E
:100260000C94A42E0C94005A0C94E7420C943F5A20
:100270000D9484210C94383C0C9410450C94CB2B99
:100280000D94F7480C94CA720D945B290C94724A31
:100290000D9440240D94D6200D9436170C94082606
:1002A0000C9430EF0C943FD40C94BD760C94DB5836
:1002B0000C949C760D94034B0C9417250C9422E11E
:1002C0000C9454340D940F290C94F3370D94941717
:1002D0000C94BB3F0C9465560C946E2A0C943F7A98
:1002E0000C945F610C94BC600C94F3380C944991AD
:1002F0000C9443430C94922C0C9473470D947D29D9
:100300000C94CC390C947DE10C941BD40C94D16BDF
:100310000D94A5490C9427FA0C947B3D0C9494D130
:100320000C94A5E10C94E5570C942F230C94F4D372
:100330000D94FD490C949BE10D947F170C94D6FB12
:100340000C9420920D94A4200C94DA610C94B33890
:100350000C94C55A0C9416E10C9440E10C946E3543
:100360000C946EE10C9478790D9438200D9400294A
:100370000D9418490C9496920D9479200C94A4270E
:100380000C9434350D9428290C94AE290C94262D08
:100390000C9406370C94C9250C9482330C94344782
:1003A0000C9487E10C94F5D30D94BB210C945C92D2
:1003B0000C94D3640C940D360C941A4B0C948A60F4
:1003C0000C94F2FB0D9475490D941A210C94E8924B
:1003D0000C948D2F0C94682E0C9426500D941F179E
:1003E0000C94A5210C94CFFB0C940FD40D94E82809
:1003F0000D9428200C94352B0C942CE10C9441F88E
:100400000C945B260C94F9D30C94CC450D940D21DF
:100410000C947E490D9451170C94F9FB0D940E0C1D
:100420000C94BF2D0C9448E10D948D170C9420630F
:100430000D94644B0C9451460C94EE230D94442976
:100440000D94A8280D9461290C9491E10D949D20A0
:100450000D94354A0D941F290C94116D0C9467F975
:100460000C946A400D943D170D946A170C9464E146
:100470000C94D2790C94A6620C94912B0C94493A6A
:100480000C9475390C94B9380C943E5A0C94782C11
:100490000C9450E10C94E1F10D945B220D949B17A8
:1004A0000D94194A0D94FA280D9486170C94BCF8F3
:1004B0000C9451290D9419290D9489200D94FE282E
:1004C0000C94972A0C942DD40C945E310C94073123
:1004D0000C94EEE00C9454480C94DD620D94484B5F
:1004E0000C94063E0C9492610C949AF70C9445D4AB
:1004F0000C9402460C94B4790D947A200D9403293F
:100500000C9445F90C94F65A0C94EAD20C94BC3431
:100510000C946C4A0C9434330C942E300C94C1FB24
:100520000C9487580C9407720C9435310C9426FA6D
:100530000C94FB580C9426240D9463170C9481930F
:1005400003F0000C4800108400208A00408A00401C
:1005500042007C3F0082408084BF00884100783E9A
:100560000007C00003F0000C4800108400208A003F
:10057000408A007C4200823F008240807CBF002095
:100580004100183E0007C00003F0000C4800108432
:1005900000788A00848A00824200823F00444080C2
:1005A00038BF00204100183E0007C0000000038053
:1005B0000EE00FE01CF01EF01EF00C600FE0038058
:1005C0000000000000003FF0201C381020103850C0
:1005D00020103FF000000000000000002008501430
:1005E0001FF01FF050142008000000000000000061
:1005F00000100020021002200300018004E00E0021
:100600001F00000000001E40124012701E0000007B
:100610001EF0129012901EF0000000001FF0200843
:10062000218822482228212020901E5000300000DE
:100630000000600C139004400920092009200440A8
:100640001390600C000000000FE010101210011059
:100650003C900110121010100FE0000000001FF07D
:10066000101017D0101017D01050105010101FF08D
:100670000000416C6C00536F6D65206461746120F3
:10068000736B697070656400426164206D6F6465AE
:100690006C20646174612E0A4C6F6164696E67201E
:1006A00064656661756C747300436800436F756EB2
:1006B0007465720054696D65720047617567654DB8
:1006C00061780047617567654D696E0044697370B4
:1006D00000537263005479706500576964676574EC
:1006E0000023202D2D2D2D2D2D2057696467657435
:1006F00073202D2D2D2D2D2D00456E64706F696E8C
:10070000745200456E64706F696E744C0046616986
:100710006C73616665004F766572726964655661D7
:100720006C004F76657272696465537769746368AB
:10073000005375627472696D0052657665727365F7
:1007400000437276004375727665004368616E6E91
:10075000656C0023202D2D2D2D2D2D204F757470AF
:100760007574206368616E6E656C73202D2D2D2D60
:100770002D2D005472616E736974696F6E54696DCA
:10078000650023202D2D2D2D2D2D20466C696768A9
:1007900074206D6F646573202D2D2D2D2D2D00443B
:1007A0006972656374696F6E004D6F64756C757303
:1007B00000436C656172004564676500436C6F635C
:1007C0006B00436F756E7465720023202D2D2D2DE7
:1007D0002D2D20436F756E74657273202D2D2D2D78
:1007E0002D2D0056616C340056616C330056616CDF
:1007F000320056616C310046756E63004C6F67695C
:1008000063616C5377697463680023202D2D2D2D4F
:100810002D2D204C6F676963616C20737769746359
:10082000686573202D2D2D2D2D2D00437573746F4C
:100830006D43757276650023202D2D2D2D2D2D20D5
:10084000437573746F6D20637572766573202D2DFB
:100850002D2D2D2D00536C6F77446F776E00536CE8
:100860006F7755700044656C6179446F776E004412
:10087000656C61795570002C00416C6C00466C69A8
:100880006768744D6F6465005472696D456E61628E
:100890006C65640043727600437572766556616CD0
:1008A00000437572766554797065005765696768AD
:1008B0007400496E707574004F7065726174696F71
:1008C0006E004F7574707574004D69786572002301
:1008D000202D2D2D2D2D2D204D69786572202D2D4B
:1008E0002D2D2D2D005068617365416E676C65007C
:1008F00050686173654D6F6465005265766572730B
:10090000654D6F64756C61746F72004D6F64756CCA
:1009100061746F7253726300506572696F64320064
:10092000506572696F643100506572696F644D6F14
:1009300064650057617665666F726D0046756E631B
:1009400067656E0023202D2D2D2D2D2D2046756ED3
:100950006374696F6E2067656E657261746F727320
:10096000202D2D2D2D2D2D00506974636844756147
:100970006C5261746500456C654475616C526174BC
:100980006500536D6F6F7468005956616C0058565E
:10099000616C004E756D506F696E747300546872AF
:1009A0006F74746C6543757276650023202D2D2D50
:1009B0002D2D2D205468726F74746C6520637572D0
:1009C0007665202D2D2D2D2D2D00526F6C6C4475CC
:1009D000616C526174650041696C4475616C52616F
:1009E0007465005961774475616C52617465005299
:1009F00075644475616C52617465004578706F323E
:100A0000004578706F310052617465320052617434
:100A100065310023202D2D2D2D2D2D205261746543
:100A20007320616E64206578706F202D2D2D2D2D23
:100A30002D0059325472696D0058325472696D003C
:100A400059315472696D00436F6D6D6F6E547269E8
:100A50006D005472696D537461746500583154723D
:100A6000696D0023202D2D2D2D2D2D205472696DA3
:100A700073202D2D2D2D2D2D0050657273697374EB
:100A800056616C0050657273697374656E740049C9
:100A90006E69744D696E00526573657400537769B1
:100AA0007463680054696D65720023202D2D2D2D0F
:100AB0002D2D2054696D657273202D2D2D2D2D2D1A
:100AC000005265636F72644D696E696D756D005299
:100AD00065636F72644D6178696D756D0053686F01
:100AE000774F6E486F6D6500416C61726D5468722E
:100AF0006573686F6C6400416C61726D436F6E6406
:100B00006974696F6E004F6666736574004D756C2D
:100B10007469706C69657200466163746F7231301C
:100B2000004964656E74696669657200556E697422
:100B3000734E616D65004E616D65004E6F2E005401
:100B4000656C656D657472790023202D2D2D2D2D1A
:100B50002D2054656C656D65747279202D2D2D2DB9
:100B60002D2D003A20005377697463685761726EC7
:100B700000436865636B5468726F74746C6500231E
:100B8000202D2D2D2D2D2D205761726E696E6773CE
:100B9000202D2D2D2D2D2D00506974636853726307
:100BA00000456C655372630054687253726300525F
:100BB0006F6C6C5372630041696C537263005961CE
:100BC0007753726300527564537263004D6F6465AE
:100BD0006C54797065004D6F64656C4E616D650095
:100BE0002323232323204D6F64656C20636F6E667F
:100BF000696775726174696F6E2066696C65202320
:100C00002323232300456C766F6E5200456C766F6C
:100C10006E5200456C766F6E4C00456C766F6E4C74
:100C200000567461696C5200567461696C520056CA
:100C30007461696C4C00567461696C4C004D6F7442
:100C40006F7252004D6F746F7252004D6F746F72FD
:100C50004C004D6F746F724C005600457874566F9F
:100C60006C7473005600457874566F6C747300563C
:100C700000457874566F6C74730064426D00525373
:100C800053490025004C696E6B516C7479001B1E32
:100C9000392D36274B4EC98DC687D89C786CB4E465
:100CA00093D2B1E1726300020406070809090A0A37
:100CB0000A0A0A0A0A0A2070F8486953636F7265C3
:100CC0003A200053636F72653A2020200047616D1F
:100CD00065206F76657200880564054005040C0682
:100CE000020306040C080808080C040C08080C068B
:100CF000040C0C04040C08080E030302020604048E
:100D00000C080C08080808080C040701030202027A
:100D1000020206040406020603070404040C080C7D
:100D20000C08080808080C0603070404040C060253
:100D300006040C08080C040404040404040603015B
:100D40000103020203020202030306060202060472
:100D5000040E0808080C060604060206044765741B
:100D6000207265616479004661696C656420746F06
:100D700020616C6C6F636174650A6D656D6F72796B
:100D800020666F722067616D65002D2D2D2D2D441D
:100D90006973636C61696D65722D2D2D2D2D0A545B
:100DA000686520736F66747761726520697320705F
:100DB000726F7669646564202261732069732220F2
:100DC000776974686F75742077617272616E747977
:100DD000206F6620616E79206B696E642C206578C7
:100DE0007072657373206F7220696D706C696564D1
:100DF0002E20496E206E6F206576656E74207368B4
:100E0000616C6C2074686520617574686F72732002
:100E10006F7220636F7079726967687420686F6C95
:100E200064657273206265206C6961626C6520661E
:100E30006F7220616E79206469726563742C206919
:100E40006E6469726563742C20696E636964656E93
:100E500074616C2C207370656369616C2C206578FB
:100E6000656D706C617279206F7220636F6E73654F
:100E70007175656E7469616C2064616D616765731D
:100E80002028696E636C7564696E672062757420D2
:100E90006E6F74206C696D6974656420746F207066
:100EA0006572736F6E616C20616E642F6F7220705B
:100EB000726F70657274792064616D616765292055
:100EC0006F72206F74686572206C696162696C6909
:100ED00074792061726973696E672066726F6D2024
:100EE00074686520757365206F662074686520736B
:100EF0006F6674776172652E0A0A496D70726F7041
:100F000065726C79206F7065726174696E672052CA
:100F100043206D6F64656C732063616E206361753F
:100F2000736520736572696F757320696E6A757277
:100F300079206F722064656174682E00F870200A51
:100F40004657207665723A312E300A2863293230AE
:100F500032322D323032330A42756B373435360A2D
:100F60000A6769746875622E636F6D2F62756B37DF
:100F7000343536004E6F20726573706F6E73650086
:100F80005772697465206661696C6564005772699F
:100F90007465207375636365737300577269746950
:100FA0006E672073657474696E6773005B5772694E
:100FB00074655D0050574D00536572766F0044674D
:100FC000746C003A0020004368616E6E656C004FDF
:100FD000757470757420636F6E666967004E6F205C
:100FE000726573706F6E73650052656164696E67D8
:100FF0002073657474696E67730042696E6420744F
:10100000696D656F75740042696E64206661696C14
:1010100065640042696E6420737563636573730071
:1010200042696E64696E67005365636F6E646172D6
:10103000792072637672004D61696E2072637672F8
:10104000005B436F6E6669677572655D005B426940
:101050006E645D00466163746F72792072657365BA
:1010600074206861730A6265656E20696E697469CF
:10107000617465642E0A5265626F6F7420746F200C
:10108000636F6E74696E756500466163746F727923
:101090002072657365742077696C6C0A64656C6591
:1010A000746520616C6C20646174612C0A696E63E4
:1010B0006C7564696E67206D6F64656C732E0A0AC7
:1010C0005072657373205B55505D0A72657065617F
:1010D0007465646C7900300030006D73004678648C
:1010E000206C6F6F703A004C6F6F7020233A006273
:1010F0007974657300467265652072616D3A0055BA
:10110000702074696D653A002C2000506B74207259
:101110006174653A005B466163746F727920526551
:101120007365745D005B5669657720636861722042
:101130007365745D005B44756D70206578746E6CCA
:1011400020454550524F4D5D005B44756D702069E0
:101150006E746E6C20454550524F4D5D004D617967
:101160002072656475636520706572666F726D6E5E
:1011700063004E6F204C434420696E7465726C614D
:1011800063696E670049443A307833302C205372DB
:10119000633A56697274310053696D756C61746598
:1011A0002074656C656D657472790053686F772083
:1011B0006C6F6F702074696D65004E2F410044663E
:1011C0006C74204368206F726465723A004D6978D0
:1011D00065722074656D706C74733A004175746F3C
:1011E000736C637420696E7075743A005B43686158
:1011F0006E67652070617373776F72645D005B5317
:1012000065742070617373776F72645D004C6F63F7
:101210006B206D6F64656C73004C6F636B2073742F
:1012200061727475700050617373776F7264005BE4
:101230004E6578745D00290028004D756C74706CE3
:10124000723A004761756765206D61783A004761C1
:10125000756765206D696E3A005B4E6578745D0058
:1012600033504F530032504F5300416273656E74D8
:10127000003A0053776974636820000A5468657304
:10128000652073657474696E6773206D696768742F
:101290000A61666665637420796F75722065786986
:1012A0007374696E670A6D6F64656C732E0A0A5BEE
:1012B0004F4B5D20746F20636F6E74696E756500AF
:1012C0005B46696E6973685D005B4E6578745D00AE
:1012D000290028004E2F410025003A0041646A751C
:1012E000737420646561647A6F6E65005B4E657827
:1012F000745D004D6F766520737469636B7320664F
:10130000756C6C792C0A7468656E2063656E746503
:1013100072207468656D2E0A005B4E6578745D00FE
:101320004E6F6E2063656E746572696E67005365FB
:101330006C662063656E746572696E67003A00546E
:10134000797065206F662061786973004154524559
:101350000052454154004145525400525441450009
:101360004465666C74206D6F64653A005B5374610C
:1013700072745D0043616C6962726174696F6E3A88
:1013800000537469636B73000000000000000000EC
:101390000000000000537769746368657300000003
:1013A0000000000000000000004261747465727962
:1013B0000000000000000000000000000053656312
:1013C00075726974790000000000000000000000E0
:1013D000004D697363656C6C616E656F75730000B9
:1013E0000000000000446562756700000000000016
:1013F0000000000000000000004175746F6869641F
:1014000065207472696D733A00416E696D6174692B
:101410006F6E733A00526F756E6420636F726E6503
:1014200072733A004B656570206D656E7520707340
:10143000746E3A004D656E752069636F6E733A0085
:101440004B65792066696C7465723A004B657973F7
:101450000000000000004163747674790000000011
:1014600057616B652075703A00357300000000000D
:1014700000000031357300000000000000333073BD
:1014800000000000000000316D696E0000000000E7
:1014900000356D696E00000000000031356D696E29
:1014A00000000000004E65766572000000000054E8
:1014B000696D656F75743A002500427269676874DA
:1014C0006E6573733A00456E61626C653A004B65F8
:1014D00079733A004B6E6F62733A005472696D73A0
:1014E0003A0053776974636865733A006D696E00FA
:1014F0004F666600496E6163747674793A00456E92
:1015000061626C653A004C6F7700000000000000DB
:101510004D656469756D000000004D617800000044
:1015200000000000524620706F7765723A00524604
:10153000206F75747075743A005246207365747527
:1015400070000000000000000000000000536F75F4
:101550006E640000000000000000000000000000B9
:10156000004261636B6C69676874000000000000F2
:101570000000000000417070656172616E6365007B
:10158000000000000000000000416476616E6365A9
:101590006400000000000000000000000044656CD2
:1015A0006574652073656E736F723F0A0A596573BF
:1015B000205B55705D200A4E6F205B446F776E5D37
:1015C000005265636F72644D696E3A005265636FD5
:1015D00072644D61783A004F6E20686F6D653A0015
:1015E0005468726573683A00004F66660000000038
:1015F0000000000000000000000000000000013EAC
:10160000546872657368000000000000000000006C
:1016100000000000023C546872657368000000001E
:1016200000000000000000000000000000000000BA
:1016300000000000000000000000000000000000AA
:10164000416C657274733A004F66667365743A0054
:10165000466163746F7231303A0030002E004D7570
:101660006C74706C723A00300030780049443A0073
:101670002D2D00556E6974733A002D2D004E616D4D
:10168000653A0053656E736F7200537065636966E7
:101690007920756E6974730053656E736F72206E76
:1016A000616D65005B52657365745D002061676FF5
:1016B0000073006D696E006872004E6F2064617483
:1016C000610054696D6520726376643A004C617301
:1016D000742056616C3A005B52657365745D004D11
:1016E000696E696D756D3A005B52657365745D0076
:1016F0004D6178696D756D3A00537461747300447F
:10170000656C6574652073656E736F7200456469FE
:10171000742073656E736F720056696577207374F9
:101720006174730052535349004C696E6B2071759C
:10173000616C69747900457874566F6C74732034E9
:101740005300457874566F6C74732033530045789A
:1017500074566F6C74732032530053656E736F72DE
:10176000206E616D650054656D706C617465730009
:101770004E65772073656E736F72003A0046616440
:10178000652D696E3A004E2F410053776974636886
:101790003A002D2D004E616D653A00464D440046DD
:1017A0006C676874206D6F6465206E616D65000004
:1017B00044697361626C6564000000000000000011
:1017C000000000000001436F6D6D6F6E00000000AF
:1017D000000000000000000000000002466C696785
:1017E00068744D6F64650000000000000000000098
:1017F00000000000000000000000000000000000E9
:1018000000000000000000207472696D3A0000556D
:101810007000000000000000000000000000000058
:101820000000000001446F776E000000000000001F
:1018300000000000000000000000024D696400008C
:101840000000000000000000000000000000000098
:10185000FF4E6F6E650000000000000000000000F9
:101860000000000000000000000000000000000078
:101870000000000000000000000000003A00537764
:101880006974636820005468726F74746C653A0000
:1018900052657365742073657474696E6773005262
:1018A000657365742074696D657200537461727438
:1018B0002074696D65720053746F702074696D6572
:1018C0007200506572736973743A00206D696E001E
:1018D000496E697469616C3A0052657365743A00C7
:1018E0005377697463683A002D2D004E616D653A37
:1018F0000054696D65720054696D6572206E616D8A
:101900006500436C65617220616C6C20636F756E5D
:101910007465720A7265676973746572733F0A0A47
:10192000596573205B55705D200A4E6F205B446FD4
:10193000776E5D00436F756E74657200436F756EF0
:10194000746572206E616D6500436C656172206123
:101950006C6C00436C65617220636F756E746572A8
:101960000052657365742073657474696E677300E3
:1019700052656E616D6520636F756E7465720043AC
:101980006F707920746F00506572736973743A00D8
:10199000436C6561723A0000557000000000000061
:1019A0000000000000000000000000000001446F83
:1019B000776E000000000000000000000000000042
:1019C0000000000000000000000000000000000017
:1019D0000000000000000000004469726563746943
:1019E0006F6E3A004D6F64756C75733A00456467AD
:1019F000653A00436C6F636B3A00436F756E7465B4
:101A000072003A0046756E6367656E206F7574707C
:101A1000757473004667656E005265736574207354
:101A2000657474696E677300436F707920746F001A
:101A300056696577206F7574707574730053796E8D
:101A4000636564005B53796E635D00506861736524
:101A50003A00004175746F000000000000000000B3
:101A60000000000000000000014669786564000085
:101A70000000000000000000000000000000000066
:101A80000000000000000000000000000000000056
:101A9000000000005068617365206D6F64653A0056
:101AA000526576657273653A00436F6E74726F6C3F
:101AB0003A004D617820706572696F643A004D613B
:101AC0007820696E7472766C3A004D696E2070658C
:101AD00072696F6400506572696F643A004D696E97
:101AE00020696E7472766C3A00496E746572766124
:101AF0006C3A00005661726961626C65000000001A
:101B000000000000000000000001466978656400E4
:101B100000000000000000000000000000000000C5
:101B200000000000000000000000000000000000B5
:101B30000000000000506572696F64206D6F64657D
:101B40003A00496E7472766C206D6F64653A0000DD
:101B500053696E65000000000000000000000000F6
:101B60000000000000015371756172650000000003
:101B700000000000000000000000000254726961D3
:101B80006E676C65000000000000000000000000AF
:101B90000003536177746F6F7468000000000000E9
:101BA000000000000000000452616E646F6D0000D0
:101BB0000000000000000000000000000000000025
:101BC0000000000000000000000000000000000015
:101BD00000000057617665666F726D3A0020003A2A
:101BE000004C004C6F676963616C207377206F75E0
:101BF0007470757473004C0052657365742073655E
:101C00007474696E677300436F707920746F005647
:101C1000696577206F757470757473002D2D00449D
:101C2000757261746E3A002D2D0044656C61793ACD
:101C30000000506F73697469766500000000000051
:101C400000000000000000014E6567617469766560
:101C50000000000000000000000000000002426FD1
:101C60007468000000000000000000000000000098
:101C70000000000000000000000000000000000064
:101C800000000000000000000044697263746E3AB6
:101C900000436C6561723A0000526973696E6700B7
:101CA00000000000000000000000000000000146ED
:101CB000616C6C696E6700000000000000000000AD
:101CC00000000000024475616C000000000000008C
:101CD0000000000000000000000000000000000004
:101CE00000000000000000000000000000000000F4
:101CF0002D2D002D2D0056616C7565323A0045641E
:101D000067653A0052657365743A00506572696F91
:101D1000643A002D2D002D2D0056616C7565313A09
:101D200000436C6F636B3A005365743A0057696403
:101D300074683A00004E6F6E6500000000000000FD
:101D40000000000000000000000001613E7800007B
:101D50000000000000000000000000000000000083
:101D600002613C780000000000000000000000005C
:101D700000000000000003613D3D7800000000000D
:101D800000000000000000000000000004613E3D73
:101D900078000000000000000000000000000000CB
:101DA000000005613C3D78000000000000000000DC
:101DB0000000000000000000067C617C3E7800000E
:101DC0000000000000000000000000000000077C90
:101DD000617C3C7800000000000000000000000072
:101DE00000000000087C617C3D3D780000000000A0
:101DF00000000000000000000000097C617C3E3D06
:101E0000780000000000000000000000000000005A
:101E10000A7C617C3C3D780000000000000000006E
:101E20000000000000000B7C64656C74617C3E78EF
:101E30000000000000000000000000000C613E6295
:101E40000000000000000000000000000000000092
:101E500000000D613C620000000000000000000076
:101E600000000000000000000E613D3D6200000027
:101E700000000000000000000000000000000F61F2
:101E80003E3D620000000000000000000000000075
:101E90000000000010613C3D6200000000000000F6
:101EA0000000000000000000000011414E4400004E
:101EB0000000000000000000000000000000000022
:101EC000124F52000000000000000000000000005F
:101ED00000000000000013584F52000000000000F6
:101EE000000000000000000000000000144C6174BD
:101EF0006368000000000000000000000000000017
:101F0000000015546F67676C65000000000000005A
:101F100000000000000000001650756C73650000A2
:101F200000000000000000000000000000000000B1
:101F300000000000000000000000000000000000A1
:101F4000000000007CEB7C3E78002D2D0046756E75
:101F500063746E3A00FFF88208BA48AA48BA488209
:101F600008FFF83800FFF88208BA48AA48BA488241
:101F700008FFF800E0506F696E743A200044656C09
:101F800065746520706F696E74006265666F726556
:101F90003A00496E7365727420706F696E74004305
:101FA00075727665004375727665206E616D6500A9
:101FB0004D696E696D756D20707473207265616313
:101FC000686564004D6178696D756D20707473206B
:101FD000726561636865640044656C657465207052
:101FE0006F696E7400496E7365727420706F696EEC
:101FF0007400466C697020766572746963616C0068
:10200000466C697020686F72697A6F6E74616C00DB
:1020100052657365742063757276650052656E61F2
:102020006D6520637572766500436F707920637506
:1020300072766520746F00536D74683A005976614A
:102040006C3A005876616C3A0050743A00707473C0
:1020500000547970653A0043727600437573746F6B
:102060006D20637572766573000000000000004605
:10207000756E63746E2067656E657261746F7273DE
:102080000000004C6F676963616C2073776974634B
:1020900068657300000000436F756E7465727300AD
:1020A000000000000000000000000054696D65722F
:1020B000730000000000000000000000000000535A
:1020C000616665747920636865636B730000000066
:1020D0000000005472696D20736574757000000013
:1020E00000000000000000466C69676874206D6F96
:1020F00064657300000000000000004368616E6EBC
:10210000656C206E616D650052656E616D65206362
:1021100068616E6E656C0056696577206F757470C6
:1021200075747300456E647074733A009A486F6CEE
:10213000640000000000000000000000000000003B
:1021400000009B4E6F50756C73650000000000002E
:10215000000000000000000000000000000000007F
:1021600000000000000000000000000000004661C8
:10217000696C736166653A002D2D004F7665727249
:102180006964653A005375627472696D3A0052650C
:1021900076657273653A0043727600FF4E6F6E6526
:1021A000000000000000000000000000000000002F
:1021B000000000000000000000000000000000001F
:1021C0000000000000000043757276653A00436825
:1021D000004368616E6E656C3A00486F6C64003D48
:1021E000002A3D002B3D004E6F206D6978657320FD
:1021F000646566696E656420796574004F76657202
:1022000076696577004D69782300566972740043DA
:1022100068004D69786572206F757470757400522E
:102220006573657420616C6C206D697865733F0A15
:102230000A596573205B55705D200A4E6F205B4420
:102240006F776E5D004D6978206E616D65004F6E31
:1022500065206F72206D6F72650A64657374696EB4
:102260006174696F6E20736C6F74730A616C726550
:10227000616479206F636375706965642E0A436FCA
:102280006E74696E75653F0A0A596573205B5570F7
:102290005D200A4E6F205B446F776E5D0044696677
:1022A000662074687275737400567461696C0045B9
:1022B0006C65766F6E00426173696300496E736589
:1022C0007274206661696C65640054656D706C6140
:1022D0007465730053686F77206F766572766965F1
:1022E0007700436F6D70616374206D69786573006A
:1022F000526573657420616C6C206D69786573003C
:102300005265736574206D69780052656E616D6504
:10231000206D697800496E73657274206672656518
:10232000004D6F7665206D697820746F00436F7083
:1023300079206D697820746F0056696577206F7514
:1023400074707574730053656C65637420617420D8
:102350006C65617374206F6E65002000464D44000B
:10236000536C6F77446E3A00536C6F7755703A0038
:10237000446C7920446E3A00446C792055703A00E0
:102380002C00416C6C00462D4D6F64653A004E2F59
:1023900041005472696D20203A0043727600004E6D
:1023A0006F6E6500000000000000000000000000EB
:1023B0000000000001783E30000000000000000036
:1023C0000000000000000000000002783C30000027
:1023D00000000000000000000000000000000000FD
:1023E000037C787C0000000000000000000000007A
:1023F00000000000000000000000000000000000DD
:10240000000000000000000000000000437276564B
:10241000616C3A000044696666000000000000003C
:1024200000000000000000000000014578706F000F
:10243000000000000000000000000000000000009C
:102440000246756E630000000000000000000000FE
:1024500000000000000003437573746F6D000000FE
:10246000000000000000000000000000000000006C
:10247000000000000000000000000000000000005C
:1024800000004375727665203A004F666673657486
:102490003A005765696768743A00496E7075742030
:1024A0003A000041646400000000000000000000E9
:1024B0000000000000000000014D6C74706C790099
:1024C0000000000000000000000000000000014DBE
:1024D000756C7469706C79000000000000000000E9
:1024E000000000000252706C635700000000000002
:1024F00000000000000000000000025265706C61E6
:102500006365000000000000000000000000000003
:1025100003486F6C64000000000000000000000031
:1025200000000000000000000000000000000000AB
:102530000000000000000000000000004F70657205
:10254000746E3A005377697463683A004F7574701B
:1025500075743A0023004D6978206E6F3A003000A0
:10256000313030002D313030003A2000537769741B
:1025700063686573003A004B6E6F6273003A0053F4
:102580007469636B7300FE8282828282FEFA868C9B
:10259000DAF2A2FE536D74683A005976616C3A0023
:1025A0005876616C3A0050743A0070747300437549
:1025B00072763A005372633A002852617465312989
:1025C0000028526174653229005372633A002D2D40
:1025D00000442F523A0025004578706F3A002500DC
:1025E000526174653A0044656C657465206D6F6472
:1025F000656C3F0A0A596573205B55705D200A4E71
:102600006F205B446F776E5D004D6F64656C206476
:102610006174612077696C6C0A626520726573650C
:10262000742E0A436F6E74696E75653F0A0A5965A8
:1026300073205B55705D200A4E6F205B446F776E90
:102640005D004D6F64656C20646174612077696C16
:102650006C2062650A6F7665727772697474656E54
:102660002E0A436F6E74696E75653F0A0A59657369
:10267000205B55705D200A4E6F205B446F776E5D66
:10268000004261636B7570206661696C656400412E
:10269000206261636B757020776974680A612073CA
:1026A000696D696C6172206E616D650A6578697328
:1026B00074732E0A4F766572777269746520697437
:1026C0003F0A0A596573205B55705D200A4E6F20E2
:1026D0005B446F776E5D004D4F44454C005265730F
:1026E000746F7265206661696C6564004D6F646526
:1026F0006C20646174612077696C6C2062650A6F7C
:102700007665727772697474656E2E0A436F6E74A3
:10271000696E75653F0A0A596573205B55705D20C7
:102720000A4E6F205B446F776E5D00526573746F65
:1027300072652066726F6D205344004E6F206D6F7E
:1027400064656C73206F6E20534400436F70792072
:1027500066726F6D004D6F64656C206E616D650013
:1027600000416972706C616E65000000000000003D
:10277000000000000000014D756C7469636F707497
:10278000657200000000000000000000024F746845
:102790006572000000000000000000000000000062
:1027A0000000000000000000000000000000000029
:1027B00000000000000000004D6F64656C2074791B
:1027C000706500526573746F72652066726F6D205C
:1027D0005344004E6577206D6F64656C0042616301
:1027E0006B757020746F2053440044656C6574658C
:1027F000206D6F64656C004C6F6164206D6F646563
:102800006C004E6F206672656520736C6F74730088
:10281000526573746F72652066726F6D2053440049
:102820004261636B757020746F205344005265736E
:102830006574206D6F64656C00436F7079206672FB
:102840006F6D004475706C69636174650052656EEC
:10285000616D65206D6F64656C0002048850205CBA
:1028600006460630061A060406EE05D805C205AC73
:10287000054D6F64656C0000000000000000000062
:102880000000000000496E707574730000000000C5
:102890000000000000000000004D69786572000033
:1028A000000000000000000000000000004F7574F0
:1028B000707574730000000000000000000000004C
:1028C0000045787472617300000000000000000091
:1028D000000000000054656C656D6574727900003D
:1028E00000000000000000000053797374656D0063
:1028F00000000000000000000000000000526563BE
:1029000065697665720000000000000000000000AC
:102910000041626F757400000000000000000000BC
:1029200000000000004D61696E206D656E750057F6
:1029300069646765740052657365742077696467BC
:102940006574004D6F766520746F00436F70792059
:10295000746F00005E005E005E00FFA1FFA1FFA19A
:10296000FF4D61783A0052696768743A004D696EAC
:102970003A004C6566743A00004E756D6572696385
:10298000616C000000000000000000000000014732
:102990006175676500000000000000000000000095
:1029A000000000000243656E7465724761756765DB
:1029B0000000000000000000000000000000000017
:1029C0000000000000000000000000000000000007
:1029D000446973703A00200054696D657200436F5A
:1029E000756E7465720020004368000A4175746F4B
:1029F00000000000000000000000000000000000D7
:102A000000000000000000000000000000000000C6
:102A1000000000000000005372633A000054656C2F
:102A2000656D657472790000000000000000000010
:102A30000000014D6978536F757263657300000083
:102A40000000000000000000024F75747075747380
:102A5000000000000000000000000000000003541F
:102A6000696D657273000000000000000000000046
:102A70000000000004436F756E74657273000000FF
:102A80000000000000000000000000000000000046
:102A90000000000000000000000000000000000036
:102AA000547970653A0057696467657400576964C2
:102AB0006765747300536574757020776964676522
:102AC00074730052657365742074696D657220318A
:102AD0000000000000000052657365742074696D89
:102AE00065722032000000000000005265736574BA
:102AF0002074696D657220330000000000000053EF
:102B0000746172742074696D657220310000000078
:102B100000000053746172742074696D6572203214
:102B20000000000000000053746172742074696D2D
:102B3000657220330000000000000053746F7020A5
:102B400074696D65722031000000000000000053C0
:102B5000746F702074696D6572203200000000008F
:102B600000000053746F702074696D65722033002B
:102B70000000000000000020003A004368004F758C
:102B800074707574730054656C656D65747279202A
:102B9000756E6D757465640054656C656D657472F1
:102BA00079206D75746564003A00436F756E7465C5
:102BB00072003A00206F7574004368003A003A00D2
:102BC00040D4C8D44029002800464D44002050502D
:102BD00050F8D8F81030D592D530104482BA9254BB
:102BE00010107C3C3E5E2B3D3F2F5B5D3B2C2A2230
:102BF0005C0000002100240027002A002D00300086
:102C0000330001010000040107010A010000220055
:102C1000250028002B002E003100340002010000A6
:102C2000050108010B0100002000230026002900F7
:102C30002C002F00320000010000030106010901F1
:102C400005050505070508080808020202020A0A28
:102C50000808040404040101010101010101030346
:102C6000030303030303040707070C0C0C0C0C0CF1
:102C70000C0C0202020206060606060606060B0BEE
:102C80000B0B0B0B0B0B010210202008081020402F
:102C90001020408002010201080402010102040820
:102CA00010204080804020100804020180040201AE
:102CB00080402010080402010804020101020408F7
:102CC0001020408001020408102040800200060D00
:102CD00013191F252B30363B4044494D5154585A47
:102CE0005D5F6162636464646362615F5D5A5854EE
:102CF000514D4944403B36302B251F19130D06001A
:102D0000FAF3EDE7E1DBD5D0CAC5C0BCB7B3AFACD1
:102D1000A8A6A3A19F9E9D9C9C9C9D9E9FA1A3A6AF
:102D2000A8ACAFB3B7BCC0C5CAD0D5DBE1E7EDF303
:102D3000FA05000F001E003C002C01840300006611
:102D4000616C73650074727565003A200020200084
:102D500073002E0001020702070B070B0E0B0E0D6E
:102D60000E0D080D080408040104010200000A0BFE
:102D700002090C0D0E08070304010000000000000A
:102D80000000000000000000000000000000000043
:102D90000000000000000000121110000000000000
:102DA0000000000000000000000000000000000023
:102DB00000005F446F776E005F4D6964005F55707F
:102DC000004E6F6E65007FFFFF8080000040800036
:102DD0000040800000608000006080000060800093
:102DE00000608000006080000040800000407FFFA5
:102DF000FF807FFFFF80F8000040F8000040F000F7
:102E00000060F0000060F0000060E0000060E000A2
:102E10000060C0000040C00000407FFFFF807FFFD7
:102E2000FF80C0000040C0000040E0000060E00003
:102E30000060F0000060F0000060F0000060F8004A
:102E40000040F80000407FFFFF80436F756E74659F
:102E5000720056697274004368004C004667656EE4
:102E6000005377005275640059617700456C650026
:102E700050697463680041696C00526F6C6C005457
:102E80006872004D6178004B6E6F6242004B6E6F4E
:102E90006241005934005834005933005833005906
:102EA00032005832005931005831004E6F6E6500C3
:102EB00021464D4400464D4400214C004C005377C0
:102EC00000215377002D2D00005EBCE2613FDD83C1
:102ED000C29C7E20A3FD1F419DC3217FFCA2401EFA
:102EE0005F01E3BD3E6082DC237D9FC1421CFEA0EA
:102EF000E1BF5D0380DE3C62BEE0025CDF81633DDA
:102F00007C22C09E1D43A1FF4618FAA427799BC5C9
:102F100084DA3866E5BB5907DB856739BAE40658B9
:102F20001947A5FB7826C49A653BD987045AB8E6A9
:102F3000A7F91B45C6987A24F8A6441A99C7257B99
:102F40003A6486D85B05E7B98CD2306EEDB3510F89
:102F50004E10F2AC2F7193CD114FADF3702ECC9279
:102F6000D38D6F31B2EC0E50AFF1134DCE90722C69
:102F70006D33D18F0C52B0EE326C8ED0530DEFB159
:102F8000F0AE4C1291CF2D73CA947628ABF5174949
:102F90000856B4EA6937D58B5709EBB536688AD439
:102FA00095CB2977F4AA4816E9B7550B88D6346A29
:102FB0002B7597C94A14F6A8742AC896154BA9F719
:102FC000B6E80A54D7896B3542616420737973740B
:102FD000656D20646174612E0A4C6F6164696E676F
:102FE0002064656661756C747300426164206D6F66
:102FF00064656C20646174612E0A4C6F6164696E53
:10300000672064656661756C7473000000000000E1
:103010003E5B4F5B3E3E6B4F6B3E1C3E7C3E1C1846
:103020003C7E3C181C577D571C1C5E7F5E1C0018A4
:103030003C1800FFE7C3E7FF0018241800FFE7DB98
:10304000E7FF30483A060E2629792926407F0505F4
:1030500007407F05253F5A3CE73C5A7F3E1C1C0831
:10306000081C1C3E7F14227F22145F5F005F5F06F6
:10307000097F017F006689956A606060606094A244
:10308000FFA29404027F020410207F201008082A67
:103090001C08081C2A08081E101010100C1E0C1EFC
:1030A0000C30383E3830060E3E0E060000000000A0
:1030B00000005F00000007000700147F147F142445
:1030C0002A6B2A12231308646236495522500000E5
:1030D000070000001C2241000041221C0014083E91
:1030E000081408083E0808000050300008080808C6
:1030F00008000060600020100804023E5149453E6F
:1031000044427F404042615149462141454B31187C
:1031100014127F1027454545393C4A494930010181
:103120007905033649494936064949291E000024D4
:10313000000000403400000008142241141414144C
:1031400014412214080002015109063E4149550E5E
:103150007E1111117E7F494949363E414141227F0E
:103160004141221C7F494949417F090909013E41EA
:103170005151727F0808087F00417F410020404183
:103180003F017F081422417F404040407F020C02F3
:103190007F7F0408107F3E4141413E7F09090906B7
:1031A0003E4151215E7F091929462649494932018C
:1031B000017F01013F4040403F1F2040201F7F20F2
:1031C00018207F63140814630708700807615149C9
:1031D0004543007F41410002040810200041417F27
:1031E00000040201020480808080808003050000CA
:1031F00020545454787F4844443838444444203858
:103200004444487F3854545458087E09090298A40D
:10321000A4A87C7F0804047800447D40004080849A
:103220007D007F20102844003F4040207C0418048B
:10323000787C080404783844444438FC2824241852
:1032400018242428FC7C08040408485454542404FA
:103250003F4444203C4040207C1C2040201C3C40FB
:1032600030403C44281028449CA0A0A07C446454D6
:103270004C4400083E414100007F000041413E08AF
:103280000002010302013C2623263C1EA1A161127B
:103290003A4040207A3854545559215555794122A5
:1032A00054547842215554784020545579400C1E8E
:1032B0005272123955555559395454545939555437
:1032C00054580000457C410002457D420001457C88
:1032D000407D1211127DF0282528F07C54554500C0
:1032E0002054547C547C0A097F4932494949323A76
:1032F0004444443A324A4848303A4141217A3A42B9
:10330000402078009DA0A07D3D4242423D3D40408E
:10331000403D3C24FF2424487E4943662B2FFC2F4C
:103320002BFF0929F620C0887E09032054547941D7
:103330000000447D413048484A32384040227A00FB
:103340007A0A0A727D0D19317D2629292F2826290E
:1033500029292630484D4020380808080808080860
:1033600008382F10C8ACBA2F102834FA00007B00A0
:103370000008142A142222142A1408550055005556
:10338000AA55AA55AAFF55FF55FF000000FF0010DF
:103390001010FF00141414FF001010FF00FF101095
:1033A000F010F0141414FC001414F700FF0000FFD8
:1033B00000FF1414F404FC141417101F10101F1035
:1033C0001F1414141F00101010F0000000001F1034
:1033D0001010101F10101010F010000000FF10103F
:1033E00010101010101010FF10000000FF1400004B
:1033F000FF00FF00001F10170000FC04F414141756
:1034000010171414F404F40000FF00F7141414143B
:10341000141414F700F7141414171410101F101FAD
:10342000141414F4141010F010F000001F101F00FA
:1034300000001F14000000FC140000F010F0101039
:10344000FF10FF08081408081010101F00000000EB
:10345000F010FFFFFFFFFFF0F0F0F0F0FFFFFF00C4
:1034600000000000FFFF0F0F0F0F0F3844443844D7
:10347000FC4A4A4A347E02020606027E027E02634B
:10348000554941633844443C04407E201E200602D6
:103490007E020299A5E7A5991C2A492A1C4C7201B3
:1034A000724C60584658603048784830BC625A4682
:1034B0003D3E494949007E0101017E2A2A2A2A2AE5
:1034C00044445F444440514A444040444A514000CF
:1034D00000FF0103E080FF000008086B6B08361254
:1034E00036243600060906000000181800000010F7
:1034F00010003040FF0101001F01011E00191D17BF
:1035000012003C3C3C3C00000000005072657061C1
:1035100072696E672073746F72616765004D6F64C6
:10352000656C206461746120696E0A457874657207
:103530006E616C20454550524F4D0A706F73736930
:10354000626C7920636F72727570742E0A526573A3
:1035500065742069743F0A0A596573205B55705D74
:10356000200A4E6F205B446F776E5D00457874656E
:10357000726E616C20454550524F4D0A6E6F74203B
:10358000666F726D61747465642E0A507265737330
:1035900020616E79206B6579005072657061726987
:1035A0006E672073746F7261676500507265706139
:1035B00072696E672073746F72616765004D6F6426
:1035C000656C206461746120696E0A496E7465726D
:1035D0006E616C20454550524F4D0A706F73736990
:1035E000626C7920636F72727570742E0A52657303
:1035F00065742069743F0A0A596573205B55705DD4
:10360000200A4E6F205B446F776E5D0053797374B0
:10361000656D20646174610A706F737369626C799F
:1036200020636F72727570742E0A52657365742010
:1036300069743F0A0A596573205B55705D200A4E14
:103640006F205B446F776E5D00496E7465726E61CA
:103650006C20454550524F4D0A6E6F7420666F7254
:103660006D61747465642E0A507265737320616EA7
:1036700079206B65790057656C636F6D65005368E1
:10368000757474696E6720646F776E003A20006607
:10369000616C7365007472756500FA00910E10001C
:1036A0004B006E02200010032000A40320009704AA
:1036B0001000A000000008000B0210009302100090
:1036C000780000000800D20104005A000000080041
:1036D0000B022000880120000B022000FA004B02A0
:1036E0001000D20000001000B80710000000100009
:1036F000B807080022011704040000002000A403FA
:1037000004000000200010030400780000001000F6
:1037100093020800506C65617365207761697400DD
:103720000A42617474657279206C6F77001E2EF204
:103730002D1E2EF22D1E2EC62DC62D4D6F64656CCE
:103740000030003A0030003A002D00560030002EC4
:10375000002D0073002E002030F8FCF83020746F2C
:103760003A004D6F76652000436F707920004E6FF0
:1037700020646174610030002E002D0043616E27CB
:103780007420626520656D70747900496E636F7294
:10379000726563742070617373776F726400456E35
:1037A0007465722070617373776F72640043616E29
:1037B0002774206C6F61642068657265005B4F4BF5
:1037C0005D20746F20736B697000436865636B20C4
:1037D00073776974636865733A00070043686563CB
:1037E0006B207468726F74746C653A0007005741FF
:1037F000524E494E470004000A0011001500248073
:103800002480404044408020FFE00C0111241FBE72
:10381000CFEFD1E2DEBFCDBF00E00CBF13E0A0E0F0
:10382000B2E0E0EDFDEB02E00BBF02C007900D92AD
:10383000A432B107D9F72EE1A4E2B3E001C01D9292
:10384000AB34B207E1F71CE1C6E0DCE100E006C002
:1038500021970109802FFE010F94375EC530D107F3
:1038600080E00807A9F70F94D33A0D94E65E0C9414
:1038700000002F923F924F925F926F927F928F92B1
:103880009F92AF92BF92CF92DF92EF92FF920F93EF
:103890001F93CF93DF93CDB7DEB7CA5AD1090FB6C6
:1038A000F894DEBF0FBECDBF8091A207811104C086
:1038B0008091A414811129C29CEFE92E9CE1F92E7C
:1038C00007E414E0C257DF4F19830883CE58D04075
:1038D00020EFA22E2CE1B22E34EE832E3CE1932E6B
:1038E00041EE242E4CE1342E5AE4C52E54E0D52E60
:1038F00007E818E0C057DF4F1882C059D040D80100
:1039000055968C91882309F4ADC1F60110820F946D
:1039100011068111ACC1F70180819181A281B3812F
:10392000F50180839183A283B3830E94FFE6D401D3
:103930006D937D938D939C931397F1011082D80121
:1039400056968C918111BAC1F8012789222349F139
:1039500030E0A0E6BAEE0F94835CD7012D913D9143
:103960004D915C91621773078407950770F42B01E2
:103970003C01B4EF4B0EB1E05B1E611C711C2415C1
:1039800035054605570508F4ABC126173707480724
:10399000590738F4C257DF4FA881B981CE58D040BB
:1039A0001C92F801808D882309F495C1F70180816C
:1039B0009181A281B381F801818F928FA38FB48FFF
:1039C000C057DF4FB881C059D040BF5FC057DF4FED
:1039D000B883C059D040015F1F4FE4E0EE0EF11CE8
:1039E000C257DF4F28813981CE58D0402F5F3F4FDB
:1039F000C257DF4F39832883CE58D04034E0A30E1E
:103A0000B11C44E0840E911C5FEF251A350A6FEF5C
:103A1000C61AD60AB33009F072CF0F946F2F0F94E5
:103A2000A9100091721D011103C18091911481119F
:103A3000EDC11092410281E0809336169091131DE2
:103A40009E3508F47DC19093121D1092131D809332
:103A500045021092501D80934302809344028FEFE1
:103A6000809342020F949F1080914602882309F4AC
:103A7000F2C28091AE148111E6C18091B01481111F
:103A8000DFC10E9470D60E9408D9F8E0CF2EFDE178
:103A9000DF2EA3E7AA2EA8E0BA2E01EE10E1B7E8C8
:103AA0006B2EB8E07B2E760184E6282E312C412C3B
:103AB000512C8824839419C022E092120EC0F80180
:103AC00047815085052E000C660B770B84179507F0
:103AD000A607B70714F4D7018C92BFEFEB1AFB0AC5
:103AE000045E1F4F6A147B04E9F1D7011C92F501B3
:103AF000219131915F012F3FFFE73F0771F3D8011B
:103B000016969C901697992041F30D90BC91A02D8C
:103B10000F943F5EA20191010F942F5CF801838105
:103B20009481092E000CAA0BBB0B820F931FA41FBC
:103B3000B51FF1E09F12C0CFF80147815085052ED7
:103B4000000C660B770B481759076A077B072CF6A2
:103B5000D7019C92BFEFEB1AFB0A045E1F4F6A1459
:103B60007B0419F629E733E0EFE6F3E042E15DE19B
:103B700091E0B9010BC080818111D5C0DB011C929D
:103B80006F5F7F4F31964C155D05B1F0D6018D9179
:103B90006D01813081F7DB018C918111F1CF808142
:103BA0008F5F8083873960F3DB019C936F5F7F4F6A
:103BB00031964C155D0551F743E853E005C04E17AB
:103BC0005F0711F40C94E44CF90181919F01882363
:103BD000B1F380916E03882309F421C16091B71479
:103BE0007091B8148091B9149091BA1421E0209387
:103BF0006E0300916A0310916B0320916C03309166
:103C00006D03601B710B820B930B2AEF30E040E0D9
:103C100050E00F94615C672B682B692B39F480911D
:103C20004204811103C085E0809340140E9443FB4D
:103C3000C655DF4F0FB6F894DEBF0FBECDBFDF9184
:103C4000CF911F910F91FF90EF90DF90CF90BF9099
:103C5000AF909F908F907F906F905F904F903F902C
:103C60002F900895D6018C91882309F454CED50164
:103C70004D905D906D907C900E94FFE6AB01BC0181
:103C8000D4018D919D910D90BC91A02D481A590A97
:103C90006A0A7B0AD301C201840F951FA61FB71FB2
:103CA000F70180839183A283B383E1E0D101EC9398
:103CB000D80156968C91882309F446CE0F941106AC
:103CC000882309F441CEC057DF4F8881C059D040C6
:103CD0000F94033A39CE118E128E138E148E70CE3D
:103CE000C257DF4FA881B981CE58D040EC91E11185
:103CF0004CCEB3E0B093401421E0C257DF4FE881CF
:103D0000F981CE58D04020834CCE8091A0148823D6
:103D100009F4D2CD8091A1078150833008F0CCCD39
:103D20000F949F10C9CD81508083882309F426CF3A
:103D3000873908F425CFDB018C91811121CF34CF55
:103D4000E92FF0E08827E855F14E8F4F0D94375E4C
:103D5000434310450D3F5448D14634473447FC4552
:103D600031406C4A724A7B3D063E553EAC3ECC45E6
:103D70004B4A7E49064A6E35E03502482B486A4078
:103D8000FB20411F5B261725C925C9250731353181
:103D90001027102782335E3134333B216721A52160
:103DA0002F23C223EE2326249F24082651291729D6
:103DB000AE29A427BC34543482346E2A972AB12AFF
:103DC000352B912BCB2B262DBF2D782C922C8D2F84
:103DD0005C30682E2E30A42E202FB930DE30B9385A
:103DE000F3380D360637F337B3383435123BCC3958
:103DF000493A7539A03C8739383C383CC4331A4BB2
:103E00007347754BBB3F02465146E74265E083E985
:103E100094E10F948B18882309F40DCE0ACE60919B
:103E2000B7147091B8148091B9149091BA1460933A
:103E30006A0370936B0380936C0390936D03D6CEEB
:103E4000109236161ECEE12C09E02DE047E362E722
:103E500085E296E10E94BCF883E780932D1688E303
:103E600080932E164091061250910712609108120D
:103E7000709109122AE030E085E296E10E94D4DDDB
:103E8000FCCD8091501D811103C085E00F944F2C13
:103E90002091450280911F02281718F420931F02D9
:103EA000822F30E0482F50E04D5F5F4F8F5F421709
:103EB000530714F00CC0892F91E0980F482F50E061
:103EC0004D5F5F4F42175307B4F380931F028091F9
:103ED0002C1690E06C0104E2C01AD108D7FE04C091
:103EE0006C0113E2C11AD108D594C794BB24B394D2
:103EF000BC0C68E28EEF8C0D0E9495DB1B2DF12C23
:103F000029E1622E33E2732E4DE0A42E90901F0221
:103F10009F0C80914502891511F40C9474519A9468
:103F2000492C512CE091D1036E9EF0011124E05CEC
:103F3000F64F808190E0092C02C0959587950A94F0
:103F4000E2F74DE855E280FD02C046E855E2EE2476
:103F5000E39407E027E0612F89E10E943CDA709248
:103F60002D1610932E166CE573E285E296E10E9401
:103F7000FADDB2016F5F7F4F85E296E10E948FDB31
:103F80006AE573E285E296E10E94FADD9A9CB0014F
:103F90001124645A704F85E296E10E94E5DDF394A6
:103FA000175F24E0F212B2CF8091A81481110C9413
:103FB0001C63BC2C84E290E020911F0230E07C0165
:103FC00004E010E045E050E06B2D80E70F948C2971
:103FD0008091511D813011F40C945D9B8091501D96
:103FE000882339F08091B1148250823010F40C94FF
:103FF00035998091B214813009F036CDE091D1032A
:1040000059E1E59FF0011124E05CF64F90819F712A
:1040100011F00C9400990F949F1086E493E2909312
:104020004F1D80934E1D0E94FFE660934A1D7093C2
:104030004B1D80934C1D90934D1D6053784F8F4FB7
:104040009F4F6093461D7093471D8093481D90932A
:10405000491D109246020E94FFE6AB01BC0100918F
:104060004A1D10914B1D20914C1D30914D1D80918A
:10407000461D9091471DA091481DB091491D805E3D
:104080009C4FAF4FBF4F401751076207730708F4AB
:10409000A8C0481759076A077B0708F0A2C0E0913B
:1040A000A914EE2311F40C94F34C68017901E0E9B2
:1040B000CE0EE1E0DE1EE11CF11C4C155D056E0527
:1040C0007F0510F00C94994D401B510B620B730B44
:1040D000DB01CA01880F991FAA1FBB1F880F991FF8
:1040E000AA1FBB1F880F991FAA1FBB1F880F991FEC
:1040F000AA1FBB1F8C019D01041B150B260B370B40
:10410000C901B80120E931E040E050E00F94615C62
:10411000E22FF0E0EA55F34FE4918FE3F82EFE1A18
:1041200080914E1D90914F1D0F94A85B982F990F71
:10413000890F182F110F80912B16811B990B97FD5A
:10414000019695958795D82E25E0821710F435E0D5
:10415000D32E8091A81481110C94E84C49E0410FB2
:104160008BEF8D0D00E0E12C2BE06F2D0E94A1D98B
:104170008091A814882311F40C94825D47E0410FCC
:10418000C057DF4F3881C059D040832F90E0880F4F
:10419000991F4817190649F044F0032F29E061E000
:1041A0006F0D8CEF8D0D0E9402DA10922F16D092B7
:1041B0002D16F394F394F0922E1660914E1D70918B
:1041C0004F1D40E250E082E59DE10F94945B62E573
:1041D0007DE185E296E10E94E5DD81E080932F1686
:1041E00048CC84179507A607B70708F042CC81E0B2
:1041F000809346023ECC89E998E20F94D63610911E
:10420000D103612E712C8091D00381110EC089E100
:10421000869DF001879DF00D1124E95CF64F8081A9
:104220008093CF0381E08093D00389E1869DF001E4
:10423000879DF00D1124E85CF64F208130919008A5
:1042400080E091E0F12C12C08A3011F40C94594DA9
:10425000E1E0F0E0EC0FFD1FEF0DF11D8083F39422
:104260009F3011F40C942A4F9F5F8F5F233061F7CA
:10427000843070F3F5CF11E01093141D6091400469
:10428000BFE06B9FB00111246A55704FE12C01E033
:1042900021E047E08BEF90E20F944C2D8091141DAC
:1042A0008111E2CB8091131D8093121D83E28093D4
:1042B000131D109345021092501D1093430210934A
:1042C00044028FEF809342020F949F10CDCB81EC7C
:1042D00098E20F94D636809190080BE112E02CE121
:1042E00032E050E040E0823011F40C94A16C68E0C0
:1042F0008BE590E20F94E9358091511D813011F4E6
:104300000C94696C8091B214813009F0ADCB90911E
:10431000A714911104C080931C0280931B0280910A
:10432000131D8093121D88E08093131D81E08093FC
:1043300045021092501D80934302809344028FEFF8
:10434000809342020F949F108FCB8BE590E20F94E5
:10435000D636C090C903E0E2CE9E600111248601EA
:10436000085E124F580188E080932D1619E01093D3
:104370002E1667E570E285E296E10E94FADD609113
:10438000C90370E06F5F7F4F85E296E10E948FDB8B
:1043900066E0C5010F948B1881110CC080912D1619
:1043A0008A5F80932D1610932E16B50185E296E153
:1043B0000E94E5DD20912D16295001E041E168E0E1
:1043C00085E296E10E9445F910922D1614E11093B2
:1043D0002E1661E570E285E296E10E94FADD5AE26E
:1043E000F52EF0922D1610932E1686010957174FB1
:1043F000F801E956FB4F4AE050E0608185E296E122
:104400000E94DEDD6DE470E285E296E10E94FADD55
:1044100010922D166DE1E62EE0922E1669E470E200
:1044200085E296E10E94FADDF0922D16E0922E16BA
:104430006091C8036F5985E296E10E9441F810929D
:104440002D1676E2E72EE0922E1663E470E285E206
:1044500096E10E94FADDF0922D16E0922E16E09180
:10446000C803E00FF12FF11DE856FB4F6081062EC7
:10447000000C770B85E296E10E948FDB10922D16DF
:10448000EFE2EE2EE0922E166DE370E285E296E109
:104490000E94FADDF0922D16E0922E16E091C803EC
:1044A000E00FF12FF11DEC55FB4F6081062E000C43
:1044B000770B85E296E10E948FDB10922D1688E340
:1044C00080932E1667E370E285E296E10E94FADDA2
:1044D000F801E055FB4F80814DE855E2811102C0A3
:1044E00046E855E2EE24E39407E027E068E38AE239
:1044F0000E943CDA80914502813011F40C9446B759
:10450000873048F4682F660F660F660F680F6E5F7E
:1045100082E20F941C37E12C07E028E040E068E7D6
:1045200085E296E10E94BCF8809145024AE559E295
:10453000873011F043E559E2EE24E39407E028E0E8
:1045400060E088E70E943CDA8091450283506091E8
:10455000C803833008F06FEFC5010F9436338091A4
:10456000AB1481110C945F6C8091C703882381F197
:10457000E82FF0E0EE0FFF1FE553F84F80819181A7
:1045800065E070E00F94235E8091C6039B01281BB9
:10459000310987FD3395C9010496099710F00C94F1
:1045A0004DB60E94FFE60091C2031091C303209113
:1045B000C4033091C503601B710B820B930B683BE6
:1045C0007B408105910510F40C9436B61092C70318
:1045D0008091501D811103C087E00F944F2C809172
:1045E000511D813011F40C94F0938091450281307B
:1045F00011F40C94206B823011F40C9415948330D8
:1046000011F40C94FE93843011F40C94E1918530F4
:1046100011F40C94BB91863011F40C94A091873066
:1046200011F40C9483918091B214813009F01CCA6A
:104630009091131D9093121D96E29093131D8093F9
:1046400045021092501D80934302809344028FEFE5
:10465000809342020F949F101092C80305CA89E20A
:1046600090E29093261D8093251D1092151D8CE1DC
:1046700090E29093281D8093271D01E00093161D62
:1046800080E190E290932A1D8093291D82E080931F
:10469000171D80E090E290932C1D80932B1D83E0EA
:1046A0008093181D82EF9FE190932E1D80932D1D06
:1046B00084E08093191D85EE9FE19093301D8093D7
:1046C0002F1D85E080931A1D88ED9FE19093321D88
:1046D0008093311D86E080931B1D87E08093451DEC
:1046E0000F94612C1091420211111AC08091C903DC
:1046F0008093C1038091131D8093121D8AE28093E1
:10470000131D009345021092501D00934302009325
:1047100044028FEF809342020F949F101091420247
:10472000113011F40C942EB7123011F40C940DB713
:10473000133011F40C944F6A143011F40C941D6A68
:10474000153011F40C94916A163011F40C946D6AC2
:104750008091B214813009F087C99091131D909314
:10476000121D97E29093131D809345021092501DE5
:1047700080934302809344028FEF809342020F9410
:104780009F1072C911E01093141D6091C90330E2AB
:10479000639FB0011124685E724FE12C01E021E0BB
:1047A00046E085EA9FE10F944C2D8091141D811104
:1047B0005BC98091131D8093121D87E28093131DA6
:1047C000109345021092501D10934302109344021F
:1047D0008FEF809342020F949F1046C981E080932F
:1047E000501D8091C10302E021E049E050E070E0FB
:1047F00060E090E00F94872A8093C10321E0482F66
:104800006091C9038FE99FE10F9466378091511D34
:10481000813011F40C9472998091B214813009F0B6
:1048200023C99091131D9093121D97E29093131D2D
:10483000809345021092501D80934302809344025E
:104840008FEF809342020F949F100EC9C090C9034E
:10485000D12C8091C003882311F40C94146E56015E
:10486000AA0CBB1CA294B29420EFB222BA24A222BA
:10487000BA2463E28EE00E9495DB11E110932D16BD
:1048800082E180932E1662E97FE185E296E10E9443
:10489000FADD10932D161CE110932E166AE87FE1C5
:1048A00085E296E10E94FADD87E480932D1610934D
:1048B0002E1660911A026F5985E296E10E9441F826
:1048C0006CE18FE30F941C3781E08093501DB5019C
:1048D0006957774F7B01FB01E956FB4F40814150FF
:1048E000550B80911A0202E021E061E070E090E057
:1048F0000F94872A582E80931A022091511D21303F
:1049000011F40C942F6D8091B214813009F0ACC871
:104910001092C0039091131D9093121D97E29093F3
:10492000131D809345021092501D80934302809383
:1049300044028FEF809342020F949F1095C8E0913C
:10494000C903CE2ED12C8091BF03882311F40C947F
:10495000F46A7601EE0CFF1CE294F29440EFF4222C
:10496000FE24E422FE2463E28EE00E9495DB11E146
:1049700010932D1682E180932E166DE77FE185E27C
:1049800096E10E94FADD10932D161CE110932E166D
:1049900065E77FE185E296E10E94FADD87E4809396
:1049A0002D1610932E16609119026F5985E296E12B
:1049B0000E9441F86CE18FE30F941C3781E08093F3
:1049C000501DF701E25EF24F40814250550B80913D
:1049D000190202E021E061E070E090E00F94872A84
:1049E000982F809319022091511D213011F40C94BD
:1049F000BB6A8091B214813011F00C94341D109276
:104A0000BF039091131D9093121D97E29093131D75
:104A1000809345021092501D80934302809344027C
:104A20008FEF809342020F949F100C94341D1092CC
:104A3000361682E192E20F94D6368091CA03811134
:104A40001CC0E091D10399E1E99FF0011124E95CD8
:104A5000F64F80819FEC980F943110F00C941699CA
:104A60008952990B959587959595879595958795F5
:104A700080931E0281E08093CA0381E08093501DE1
:104A800080911E0202E021E041E050E064E070E02D
:104A900090E00F94872A80931E0210922D1697E0C3
:104AA00090932E16843010F00C949B63815E182F27
:104AB000110F110F110F6FE072E285E296E10E9473
:104AC000FADD20E0E3E16E2E812F90E05C01A7E0AB
:104AD000AA0EB11C611610F40C940653FF24F39433
:104AE000F10ECF2CD12CF21A37E0732E322E311A60
:104AF00049E1842E912C54E2452E69E3562E1FEF96
:104B0000120F2EC061110C94C65947E260E1872D47
:104B10000E94A0DCF9E0FF1510F40C94514D8EEFCB
:104B2000870D80932D1650922E164AE050E06F2D7F
:104B300085E296E10E94DEDD232D2F0DC601AC1427
:104B4000BD0414F40C940753BFEFCB1ADB0AF394A3
:104B5000E0E17E0E312F3F0D631610F40C940753E5
:104B6000880F991FFC01E35DF74F80819181B401AB
:104B70000F94235E062F16162CF6442D461BEE24AA
:104B8000E39423E06FEF670D85E296E10E94BCF8A5
:104B9000BCCF81E08093501D8091CB0302E021E0E7
:104BA00047E250E070E060E090E00F94872A809345
:104BB000CB0321E09091131D9C3109F020E0482F98
:104BC0006091D10385E092E20F9466378091511D88
:104BD000813011F40C9414608091B214813011F082
:104BE0000C94341D9091131D9093121D98E1909395
:104BF000131D809345021092501D809343028093B1
:104C000044028FEF809342020F949F100C94341D46
:104C10001092361683E890E20F94D6366091BE0368
:104C2000C62ED12C98E090932D1699E090932E16D5
:104C3000635E40E282E59DE10F94B71662E57DE197
:104C400085E296E10E94E5DD20912D16295001E0D4
:104C500041E168E085E296E10E9445F98091BE035A
:104C60008F5C0F941106EE24E39408E02DE0882376
:104C700011F40C94146345E65FE169E083E70E9458
:104C80003CDAFE0131961F01DF0180E099E09C9D36
:104C9000F0019D9DF00D1124E85AF14F91E0980F1D
:104CA0008D93953011F40C947A51943011F40C9446
:104CB000C1B0892FF3CF89E393E29093261D8093AF
:104CC000251D1092151D8DE293E29093281D80936F
:104CD000271D81E08093161D81E293E290932A1DA7
:104CE0008093291D82E08093171D85E193E29093C4
:104CF0002C1D80932B1D83E08093181D8AE093E286
:104D000090932E1D80932D1D84E08093191D80E0CB
:104D100093E29093301D80932F1D85E080931A1DA0
:104D200080EF92E29093321D8093311D86E0809354
:104D30001B1D82EE92E29093341D8093331D87E019
:104D400080931C1D84ED92E29093361D8093351D57
:104D500089E080931D1D8093451D809190088230CD
:104D600010F40C9461620F94612C109142021111A5
:104D700017C08091131D8093121D8BE18093131D2A
:104D800081E0809345021092501D809343028093EE
:104D900044028FEF809342020F949F1010914202C1
:104DA000113011F40C94F5B5123011F40C94D8B5FF
:104DB000133011F40C94246F143011F40C94DD9A18
:104DC000153011F40C949DA4163011F40C9484A4A5
:104DD000173011F40C94E26E183011F40C9411B6E3
:104DE000193011F40C943D9D8091B214813011F072
:104DF0000C94341D9091131D9093121D98E1909383
:104E0000131D809345021092501D8093430280939E
:104E100044028FEF809342020F949F100C94341D34
:104E2000903211F40C94AB651091420211115AC0EA
:104E3000F090D103F4E2FF1510F40C94789E6F2DDE
:104E400070E09B012C5F3F4F17E21F1588F149E18D
:104E5000469FC001479F900D11248957974FFC0131
:104E6000E055FF4F508151110C94D59F8D549F4FA9
:104E7000DC018C9181110C94D59FE1E0EF0D8E2F18
:104E800090E0E49FF0011124E95CF64F0EC08832F7
:104E900078F4DF01408141110C94D59F01967996F9
:104EA00013964C9141110C94D59F821793077CF374
:104EB0008F2D0F9475008091131D8093121D88E132
:104EC0008093131D81E0809345021092501D8093C2
:104ED0004302809344028FEF809342020F949F100D
:104EE00010914202113011F40C940AA0123011F406
:104EF0000C94579EF090D103133011F40C94389E0B
:104F000001110C94289E8091511D833031F08091C5
:104F1000B214813011F00C94341D8091131D8093D4
:104F2000121D88E18093131D81E080934502109249
:104F3000501D80934302809344028FEF809342027E
:104F40000F949F100C94341D87E990E20F94D6368D
:104F5000C090B803D12C88E080932D1699E0F92EEB
:104F6000F0922E166AEF79E185E296E10E94FADD71
:104F70006091B80370E06F5F7F4F85E296E10E9419
:104F80008FDBC294D29420EFD222DC24C222DC2414
:104F90008601045F104F67E0C8010F948B188111E0
:104FA0000CC080912D168A5F80932D16F0922E16DC
:104FB000B80185E296E10E94E5DD20912D16295089
:104FC00001E041E168E085E296E10E9445F9E09167
:104FD000B803F0E0EE0FFF1FEB5AFB4F2081318149
:104FE00011E02A30310564F0C90111E0EAE0F0E097
:104FF000BF010F94235ECB011F5F6A307105C4F7B8
:10500000812F880F880F012F081B000F8FE7800F5B
:1050100080932D1689E080932E16B90185E296E1E2
:105020000E948FDB212F220F210F220F2D5F6DE7B2
:10503000600FEE24E3940BE047E085E296E10E94E6
:10504000E4F8198281E08A8382E08B8383E08C8399
:1050500084E08D8385E08E838091501D811103C093
:1050600088E00F944F2C8091511D813011F40C94E5
:10507000D1B800914502013011F40C944860083019
:1050800011F40C944860209114020230F8F02017BB
:1050900028F08FEF800F80931402282F402F50E0CC
:1050A000822F90E005968417950784F481E0820FA3
:1050B00001C0892F91E0980F282F30E02B5F3F4FE0
:1050C00024173507B4F380931402282F14E1B12C70
:1050D000A12CAE014F5F5F4F1A01BE0161507109F3
:1050E000C257DF4F79836883CE58D040C6018957B5
:1050F000974F6C013C019EE6691A99EF790A4601C7
:10510000A2E78A1AA9EF9A0A2601BFE64B1AB9EF5D
:105110005B0AF601E157F94FCF56DF4FF983E88379
:10512000C159D040A6014357594FCD56DF4F59833F
:105130004883C359D04054E7C51A59EFD50A8EEFBA
:10514000800F863088F4A501420F511D602F6150F9
:10515000770B6417750741F4612F8AE30F941C37AE
:105160000091450220911402F101EA0DFB1DE20FAE
:10517000F11D31979081C257DF4FE881F981CE58F8
:10518000D040E00FF11D8081891711F40C94AA4ED4
:1051900010922D1610932E16923011F40C944D5D32
:1051A00010F40C946A4E943011F40C94A95F10F42E
:1051B0000C94785FF12C953041F567E879E185E250
:1051C00096E10E94FADDD3018C914DE855E2811100
:1051D00002C046E855E2EE24E39407E027E0612FA1
:1051E00082E40E943CDAFF2071F0F301808190E0BC
:1051F0002091501D21110C9479B821E0892B09F4DC
:1052000020E0D3012C9320911402BFEFAB1ABB0A0C
:10521000175FE5E0AE16B10411F40C94DF4E009177
:1052200045028EEF800F863008F48DCF9DCF81E050
:105230008093501D8091BD0302E021E043E150E0E6
:1052400070E060E090E00F94872A8093BD0321E036
:10525000482F6091BE0386EF9BE10F9466378091E3
:10526000511D813011F40C949DB78091B21481309E
:1052700011F00C94341D9091131D9093121D9DE21A
:105280009093131D809345021092501D809343020A
:10529000809344028FEF809342020F949F100C94EE
:1052A000341D8FE09CE19093261D8093251D109264
:1052B000151D87E09CE19093281D8093271D01E038
:1052C0000093161D88EF9BE190932A1D8093291D62
:1052D00082E08093171D83E08093451D0F94612C1D
:1052E00010914202111116C08091131D8093121D5E
:1052F00080E38093131D009345021092501D00938C
:105300004302009344028FEF809342020F949F1058
:1053100010914202113011F40C9446B8123011F47D
:105320000C9413B88091B214813011F00C94341D98
:105330009091131D9093121D9DE29093131D8093E5
:1053400045021092501D80934302809344028FEFD8
:10535000809342020F949F100C94341D10923616C5
:1053600083EE9BE10F94D6368091BC0381110DC072
:105370008091BE0390E00A966AE070E00F94235E8D
:105380006093170281E08093BC0381E08093501DFD
:105390008091170202E021E041E050E062E070E01D
:1053A00090E00F94872A982F80931702880F880F18
:1053B000890F880F56EFF52EF80ECF2CD12C360121
:1053C000B9E06B0E711CE3E1EF1508F45BC08601D8
:1053D000BAE03B2EB12CA12C89509BE0292E46012E
:1053E00045E0840E911C482E512CC8018C199D0952
:1053F000059714F00C94714D8091BE038F1511F434
:105400000C949F6F56E050932D1630922E1661EE3D
:105410007BE185E296E10E94FADDB8016F5F7F4F84
:1054200085E296E10E948FDB6FED7BE185E296E1FC
:105430000E94FADD88E08F1510F00C94EE4D81E3A8
:105440008F0D0F941106EE24E39408E02DE08823DD
:1054500011F40C94674D45E65FE160912E16809142
:105460002D160E943CDAF39482010A0D1B1D601672
:10547000710644F0FFEFAF1ABF0A2BE0320E34E1A1
:10548000F312B3CF2091170230E046E3E42EF12C63
:1054900001E010E042E050E069E08FE70F948C29D2
:1054A0008091B214813011F00C94341D1092BC0321
:1054B0009091131D9093121D9DE29093131D809364
:1054C00045021092501D80934302809344028FEF57
:1054D000809342020F949F100C94341D82E099E156
:1054E0000F9406398091511D823011F40C94BD73D4
:1054F000833031F08091B214813011F00C94341D5E
:105500008091131D8093121D81E38093131D81E010
:10551000809345021092501D809343028093440271
:105520008FEF809342020F949F100C94341DD09003
:10553000B303ED2CF12C8091141D882311F40C94ED
:10554000E873FDE0DF9EB0011124645A704FE12C36
:1055500001E021E047E08FE997E10F944C2D0C9496
:10556000341D8FE690E20F94D6366091BB03E62E91
:10557000F12CABE06A9FC00111248957974FFC01C1
:10558000ED58FF4F2081211125C0319620813181B6
:105590008A589F4FDC018D919C9128173907D0F0D4
:1055A0002835324020F087E592E0918380832BE01C
:1055B0002E9DC0012F9D900D11248957974FFC01FE
:1055C000EA58FF4F8C589F4FDC018D919C910196BA
:1055D0009183808388E080932D1689E080932E1636
:1055E000605F40E282E59DE10F94B71662E57DE1E0
:1055F00085E296E10E94E5DD20912D16295001E01B
:1056000041E168E085E296E10E9445F92BE02E9D9C
:10561000C0012F9D900D11248957974FFC01ED5823
:10562000FF4F308120E0712C8E589F4F13C03111F5
:1056300017C04AEF420F423040F0E1E0F0E0EC0FDB
:10564000FD1FE70DF11D208373942F5F283011F4A7
:105650000C949B55313059F74DEF420F4330A8F36E
:10566000FC014081443049F7E4CF80E39AE1909314
:10567000261D8093251D1092151D88E29AE19093B6
:10568000281D8093271D81E08093161D89E19AE1F2
:1056900090932A1D8093291D82E08093171D83E03B
:1056A0008093451D0F94612C10914202123011F429
:1056B0000C94D29C113011F40C94E3A4111115C078
:1056C0008091131D8093121D8AE38093131D81E046
:1056D000809345021092501D8093430280934402B0
:1056E0008FEF809342020F949F108091B21481300B
:1056F00011F00C94341D9091131D9093121D97E39B
:105700009093131D809345021092501D8093430285
:10571000809344028FEF809342020F949F100C9469
:10572000341D81E08093501D8091BA0302E021E096
:1057300044E050E070E060E090E00F94872A8093AE
:10574000BA0321E0482F6091BB0384E19AE10F94F2
:1057500066378091511D813011F40C94FFA4809123
:10576000B214813011F00C94341D9091131D90935C
:10577000121D97E39093131D809345021092501DC4
:1057800080934302809344028FEF809342020F94F0
:105790009F100C94341D1092361684E09AE10F94F9
:1057A000D6368091B90381110DC08091BB0390E082
:1057B000059665E070E00F94235E6093150281E02A
:1057C0008093B90381E08093501D8091150202E01F
:1057D00021E041E050E061E070E090E00F94872A22
:1057E00080931502982F990F990F890FEBEF9E2E3A
:1057F000980EC92CD12C760104E0E00EF11C14E0C7
:10580000191508F457C08450082F10E04AE0842E80
:1058100057E0652E65E0A62EB12C7EE5772E8091AF
:10582000BB03891511F40C94236560922D168092A8
:105830002E1660E1690D40E282E59DE10F94B716F6
:1058400062E57DE185E296E10E94E5DD62E07AE1D4
:1058500085E296E10E94FADDCC0CDD1CA6014551E3
:10586000584F6A01DA018D919C91B5010F94235E26
:10587000AB0128EC30E062E0680D8DE20E9435DC7F
:1058800070922D1680922E16F60180819181B501BD
:105890000F94235E85E296E10E948FDB939468016A
:1058A000E016F1063CF00F5F1F4F2BE0820E35E053
:1058B0009312B5CF8091B214813011F00C94341D45
:1058C0001092B9039091131D9093121D97E390933A
:1058D000131D809345021092501D809343028093C4
:1058E00044028FEF809342020F949F100C94341D5A
:1058F000F090B603CF2CD12C8091141D882311F485
:105900000C94A35B2FE0F29EB00111246B56774FED
:10591000E12C01E021E047E087EF98E10F944C2D66
:105920000C94341D1092451DE091B6038E2F90E02B
:105930000FE0E09FF0011124E957F74F258921116D
:1059400013C0FC01EF51F34E8081882311F40C94B5
:10595000E7D087EB98E19093261D8093251D109248
:10596000151D81E08093451D2091451D822F90E0FB
:10597000FC01EE0FFF1FEB5DF24E4FE958E1518342
:1059800040838B5E924E01E0DC010C9381E0820F3C
:1059900090E0FC01EE0FFF1FEB5DF24E40E958E195
:1059A000518340838B5E924E32E0FC0130832E5F48
:1059B0002093451D0F94612C10914202111122C0B9
:1059C0008091B60390E0FC01E65BFB4F8F51934E54
:1059D000DC018C91802780838091131D8093121DA0
:1059E0008DE38093131D009345021092501D009388
:1059F0004302009344028FEF809342020F949F1062
:105A000010914202113011F40C9456A5123011F489
:105A10000C942AA58091B214813011F00C94341D9D
:105A20009091131D9093121D9DE39093131D8093ED
:105A300045021092501D80934302809344028FEFE1
:105A4000809342020F949F100C94341D83ED90E2DA
:105A50000F94D63685E021968FAF219786E0229667
:105A60008FAF229787E023968FAF239788E0249605
:105A70008FAF2497E1E5F2E08E010F5F1F4F180111
:105A8000D80101900D928A95E1F79E01205C3F4F6D
:105A90007901680119E002E410922D1610932E1678
:105AA000D7016D917D0140E282E59DE10F94B7162B
:105AB00062E57DE185E296E10E94E5DD67E078E15F
:105AC00085E296E10E94FADD00932D1610932E16C2
:105AD000D601ED91FD916D0160818FEA97E10F9400
