:100000000C94DF240C9410250C9410250C941025CE
:100010000C9410250C9410250C9410250C9410258C
:100020000C9410250C9410250C9410250C9410257C
:100030000C9410250C94B7E90C9410250C94102501
:100040000C9410250C9410250C9410250C9410255C
:100050000C9410250C9410250C9410250C9441EE52
:100060000C9410250C94A3E80C9479E80C941025BA
:100070000C9410250C9410250C9410250C9410252C
:100080000C9410250C9410250C9410250C9410251C
:100090000C9443E80C9419E80C9410250D94F62662
:1000A0000C9410250C9410250C9410250C941025FC
:1000B0000C9410250C9410250C9410250C941025EC
:1000C0000C9410250C9410250C9410250C941025DC
:1000D0000C9410250C9410250C9410250C941025CC
:1000E0000C9410250C946A4E0C94BF300C94B54AB5
:1000F0000C94B3EA0C9493EA0C948F3F0C94262E44
:100100000D94E5480D941F280C94162A0C941C6934
:100110000C940B6E0C9418DA0C94C92A0C947BDBAB
:100120000C94DFF70C94A96C0C94452F0C9449693E
:100130000D94E5390C94476E0C94C76E0C948AF9B3
:100140000C94343A0C94914F0D94051B0C94043884
:100150000C942BDB0C94B66F0C940D6F0C947B51AC
:100160000C94096C0C94546D0D945A1E0C9419281F
:100170000C940A950C941D400D947B280D94E11A63
:100180000C94BF3B0C9465F80D94901A0C94FC3DB4
:100190000C94D52F0D94F8150C94726C0C942DFBC7
:1001A0000D9456280D94751B0C94173B0C94BD3A76
:1001B0000D9450160C94BF6D0C9449430D94AB48AC
:1001C0000D9407200C9422EB0C94974D0D948248CB
:1001D0000D9450280C94D85D0D9492280C94846B47
:1001E0000C946E6F0D94E01A0C9497420C94586A1C
:1001F0000D94184A0D9460490C944C8D0C94176D15
:100200000C94FAEA0C942E320C94C9520C94344299
:100210000C949D2B0C94236A0C9435DB0C9481DB9D
:100220000C941B690C94332D0C94DA530C94652EAA
:100230000D94F7270D946F1A0D9449160C9469DBF1
:100240000C94FD570C94796E0C945A3D0C94CA375B
:100250000D94E4150D94CA220D9498280C943848F6
:100260000C9435390C94D6290C94F0BB0C94CC36F4
:100270000C94812D0C94D3330C9404EB0D94341610
:100280000C9401F90C9475460C9439DB0D943A28C2
:100290000C94CF520C94C38B0C944BDB0C94F68BC8
:1002A0000D94F1250C9498430D943E1B0C94A95188
:1002B0000C9463DB0D9446280C946FDB0C9486F849
:1002C0000C94FB6A0C946BFA0D9435280C94E1EABB
:1002D0000C948EBC0C941FFB0C9460BB0D94131FEC
:1002E0000C94C5EA0C94AB6A0D942C490D94081635
:1002F0000C94FF520D94A01A0C94D95D0C94EBEA67
:100300000C9428530D94DF270C94D0880C9432471A
:100310000C94172F0C9461BA0D94E9220C94354675
:100320000D94504A0D9473280C9418FB0C94C4D966
:100330000C94D73A0C945DDB0C949FEA0D941F1635
:100340000D94E0490D9411160C9426FB0C948A69C7
:100350000C94F7460C9460330C94556C0C94A3BA2F
:100360000C9457DB0C9445DB0D942E1D0D94E21A72
:100370000C943BFB0C94138C0C94356B0D940B0B71
:100380000D940A280C9430DB0C94DD690D94022640
:100390000D943B160C94F16B0C94BADA0C9404DABD
:1003A0000C94A98B0C949CBB0C94CE3D0C94D45310
:1003B0000D940C1B0C94BDEA0D94F11A0C9411FBD6
:1003C0000C9448690C942E8D0D94CD150D94421605
:1003D0000C943B460D9437280C940D8D0C949DB6CF
:1003E0000D94B4280C9489690D94EB150D94344A3E
:1003F0000C94D16A0C94BF8D0C94236C0C94DE5039
:100400000C947E450C945A2D0C948E330C942047FA
:100410000C94CB320C94D04F0C94D06B0C943B6F5B
:100420000C94F03C0C9483540C949AEA0C944A3C3F
:100430000C9451DB0C94754D0D9431280D94DF1AFA
:100440000C9429F90C946CFA0C943B500C94DE69D2
:100450000D94BA280C94E06C0C94D7EA0C94152BEC
:100460000C9445340C94A9EA0C9475DB0C94B3BC41
:100470000C941E540C94EE4D0C94E14C0D94F048E9
:100480000C94D3420C9442FB0C946D370C946BEAA1
:100490000C9418EB0C94DB5F0C9431DB0C94FB2C6C
:1004A0000D947C490D9418160C9491440D945F287A
:1004B0000C94A0340C94114B0C94F3D90C943FDBA6
:1004C0000C9415CB0C94F08D0C9464BC0C9434FB00
:1004D0000C942EBC0C94A6320C94336C0D942616FE
:1004E0000C94B2B60C94943D0C94E42D0D94FF152D
:1004F0000C94993C0C940EEB0C94A92C0C94186B56
:100500000C94ACF90C94B1380C94B2360C94246A67
:100510000C94DA340C9426DA0D942D160C941FB634
:100520000C94CDEA0C9472340C9484590C94D940F8
:100530000C94596A0D94FC490C94C76B0C943030A0
:100540000C9490520C94007E0C9468DA0C949139BF
:100550000C940F480C9449FB03F0000C48001084E5
:1005600000208A00408A004042007C3F0082408098
:1005700084BF00884100783E0007C00003F0000CF3
:100580004800108400208A00408A007C4200823F9C
:10059000008240807CBF00204100183E0007C00060
:1005A00003F0000C4800108400788A00848A0082DE
:1005B0004200823F0044408038BF00204100183E86
:1005C0000007C000000003800EE00FE01CF01EF0EA
:1005D0001EF00C600FE003800000000000003FF000
:1005E000201C38102010385020103FF00000000070
:1005F00000000000200850141FF01FF050142008C5
:100600000000000000000000001000200210022086
:100610000300018004E00E001F00000000001E40E7
:10062000124012701E0000001EF0129012901EF078
:10063000000000001FF020082188224822282120E5
:1006400020901E50003000000000600C1390044009
:1006500009200920092004401390600C00000000CC
:100660000FE01010121001103C9001101210101029
:100670000FE0000000001FF0101017D0101017D06E
:100680001050105010101FF00000005570000000B6
:10069000000000000000000000000000000000005A
:1006A00001446F776E0000000000000000000000B1
:1006B000000000000000024D69640000000000001E
:1006C000000000000000000000000000FF4E6F6E00
:1006D00065000000000000000000000000000000B5
:1006E000000000000000000000000000000000000A
:1006F00000000000000000005265636F72644D69E5
:100700006E696D756D005265636F72644D617869D5
:100710006D756D0053686F774F6E486F6D65004162
:100720006C61726D5468726573686F6C6400004E22
:100730006F6E650000000000000000000000000077
:1007400000000000013E54687265736800000000FC
:1007500000000000000000000000023C54687265C8
:1007600073680000000000000000000000000000AE
:100770000000000000000000000000000000000079
:10078000000000000000416C61726D436F6E64698F
:1007900074696F6E004D756C7469706C6965720078
:1007A000466163746F723130004964656E746966C6
:1007B00069657200556E6974734E616D6500496EAE
:1007C00069744D696E005265736574000044697305
:1007D00061626C6564000000000000000000000021
:1007E000000001436F6D6D6F6E000000000000009F
:1007F000000000000000000002466C696768744D4C
:100800006F646500000000000000000000000000B0
:1008100000000000000000000000000000000000D8
:1008200000000000436F6D6D6F6E5472696D00546F
:1008300072696D5374617465005068617365416ECF
:10084000676C6500004175746F00000000000000D7
:1008500000000000000000000000014669786564A7
:100860000000000000000000000000000000000088
:100870000000000000000000000000000000000078
:1008800000000000000050686173654D6F646500F2
:10089000526576657273654D6F64756C61746F72C5
:1008A000004D6F64756C61746F72537263005065B4
:1008B00072696F643200506572696F64310000566E
:1008C00061726961626C6500000000000000000058
:1008D0000000000001466978656400000000000027
:1008E0000000000000000000000000000000000008
:1008F00000000000000000000000000000000000F8
:10090000506572696F644D6F6465000053696E6570
:1009100000000000000000000000000000000000D7
:100920000001537175617265000000000000000055
:100930000000000000000002547269616E676C657F
:1009400000000000000000000000000000035361F0
:1009500077746F6F746800000000000000000000F2
:100960000000000452616E646F6D00000000000022
:100970000000000000000000000000000000000077
:100980000000000000000000000000000000005710
:10099000617665666F726D00536C6F77446F776E2A
:1009A00000536C6F7755700044656C6179446F77C4
:1009B0006E0044656C6179557000416C6C00547236
:1009C000696D456E61626C656400004E6F6E650016
:1009D0000000000000000000000000000000000017
:1009E00001583E3000000000000000000000000040
:1009F00000000000000002583C3000000000000031
:100A0000000000000000000000000000037C587C93
:100A100000000000000000000000000000000000D6
:100A200000000000000000000000000000000000C6
:100A30000000000000000000437572766556616C8E
:100A4000000044696666000000000000000000002D
:100A500000000000000000014578706F00000000F9
:100A600000000000000000000000000000024675C9
:100A70006E630000000000000000000000000000A5
:100A800000000003437573746F6D000000000000E8
:100A90000000000000000000000000000000000056
:100AA0000000000000000000000000000000004303
:100AB0007572766554797065004F6666736574006B
:100AC00057656967687400496E7075740000416409
:100AD00064000000000000000000000000000000B2
:100AE000000000014D756C7469706C7900000000A5
:100AF000000000000000000000014D6C74706C7973
:100B000000000000000000000000000000000002E3
:100B10005265706C61636500000000000000000019
:100B200000000000000252706C63570000000000DB
:100B3000000000000000000000000003486F6C642B
:100B400000000000000000000000000000000000A5
:100B50000000000000000000000000000000000095
:100B6000000000000000004F7065726174696F6ED4
:100B7000004F757470757400536D6F6F7468005911
:100B800056616C005856616C004E756D506F696E01
:100B900074730056616C340056616C330056616C9E
:100BA000320056616C3100004E6F6E65000000002F
:100BB0000000000000000000000000000001413EB5
:100BC00058000000000000000000000000000000CD
:100BD00000000002413C580000000000000000003E
:100BE00000000000000000000003413D3D580000EF
:100BF00000000000000000000000000000000004F1
:100C0000413E3D58000000000000000000000000D0
:100C1000000000000005413C3D58000000000000BD
:100C20000000000000000000000000067C417C3E47
:100C3000580000000000000000000000000000005C
:100C400000077C417C3C58000000000000000000D0
:100C500000000000000000087C417C3D3D58000081
:100C600000000000000000000000000000097C41BE
:100C70007C3E3D5800000000000000000000000025
:100C80000000000A7C417C3C3D5800000000000050
:100C90000000000000000000000B413E4200000088
:100CA0000000000000000000000000000000000C38
:100CB000413C420000000000000000000000000075
:100CC00000000000000D413D3D420000000000001A
:100CD00000000000000000000000000E413E3D4208
:100CE0000000000000000000000000000000000004
:100CF000000F413C3D4200000000000000000000E9
:100D00000000000000000010414E44000000000000
:100D100000000000000000000000000000114F5221
:100D200000000000000000000000000000000000C3
:100D300000000012584F52000000000000000000A8
:100D4000000000000000000000134C6174636800A4
:100D5000000000000000000000000000000000147F
:100D6000546F67676C650000000000000000000021
:100D700000000000001550756C7365000000000055
:100D80000000000000000000000000000000000063
:100D90000000000000000000000000000000000053
:100DA0000046756E63005065727369737456616CAA
:100DB0000050657273697374656E7400446F776E6A
:100DC00000557000446972656374696F6E004D6F01
:100DD00064756C757300436C6561720000526973D1
:100DE000696E6700000000000000000000000000C5
:100DF00000000146616C6C696E6700000000000035
:100E00000000000000000000024475616C0000005A
:100E100000000000000000000000000000000000D2
:100E200000000000000000000000000000000000C2
:100E3000000000004564676500436C6F636B0054FD
:100E400072616E736974696F6E54696D6500537772
:100E50006974636800456E64706F696E7452004512
:100E60006E64706F696E744C009A486F6C64000019
:100E70000000000000000000000000000000009BD7
:100E80004E6F50756C73650000000000000000009C
:100E90000000000000000000000000000000000052
:100EA00000000000000000000000004661696C7353
:100EB000616665004F7665727269646556616C00A3
:100EC0004F7665727269646553776974636800531D
:100ED00075627472696D005265766572736500FFA4
:100EE0004E6F6E6500000000000000000000000072
:100EF00000000000000000000000000000000000F2
:100F000000000000000000000000004375727665DC
:100F1000004E616D650047617567654D61780047FA
:100F2000617567654D696E00004E756D6572696328
:100F3000616C00000000000000000000000001479C
:100F400061756765000000000000000000000000FF
:100F5000000000000247617567655A65726F43655E
:100F60006E746572000000000000000000000000C8
:100F70000000000000000000000000000000000071
:100F800044697370000A4175746F0000000000002E
:100F90000000000000000000000000000000000051
:100FA0000000000000000000000000000000000041
:100FB00000537263000054656C656D65747279004E
:100FC0000000000000000000000000014D6978539F
:100FD0006F75726365730000000000000000000080
:100FE00000024F75747075747300000000000000FB
:100FF000000000000000000354696D65727300007A
:101000000000000000000000000000000004436F2A
:10101000756E74657273000000000000000000002F
:1010200000000000000000000000000000000000C0
:1010300000000000000000000054797065004E6F51
:101040002E00576964676574004368616E6E656C55
:1010500000466C696768744D6F646500436F756E18
:10106000746572004C6F676963616C537769746370
:101070006800437573746F6D4375727665004D69D2
:101080007865720046756E6367656E005468726FAE
:1010900074746C6543757276650050697463684456
:1010A00075616C5261746500456C654475616C5284
:1010B00061746500526F6C6C4475616C526174654B
:1010C0000041696C4475616C5261746500596177C7
:1010D0004475616C52617465005275644475616C4D
:1010E000526174650059325472696D0058325472FD
:1010F000696D0059315472696D0058315472696DCF
:101100000054696D65720054656C656D6574727923
:10111000005377697463685761726E004368656352
:101120006B5468726F74746C6500546872537263A8
:1011300000506974636853726300456C6553726351
:1011400000526F6C6C5372630041696C53726300A0
:1011500059617753726300527564537263000041A2
:101160006972706C616E6500000000000000000094
:1011700000000000014D756C7469636F70746572D6
:1011800000000000000000000000024F746865725B
:10119000000000000000000000000000000000004F
:1011A000000000000000000000000000000000003F
:1011B0000000000000004D6F64656C54797065009C
:1011C0004D6F64656C4E616D6500426164206D6FAA
:1011D00064656C20646174612E0A4C6F6164696E91
:1011E000672064656661756C747300436800436FC3
:1011F000756E7465720054696D657200476175673C
:10120000654D61780047617567654D696E00446999
:10121000737000004E756D65726963616C0000004B
:1012200000000000000000000001476175676500D4
:1012300000000000000000000000000000000002AC
:1012400047617567655A65726F43656E74657200B4
:10125000000000000000000000000000000000008E
:101260000000000000000000000000537263000A4C
:101270004175746F000000000000000000000000D5
:10128000000000000000000000000000000000005E
:1012900000000000000000000000005479706500AC
:1012A0000054656C656D6574727900000000000083
:1012B000000000000000014D6978536F757263658E
:1012C000730000000000000000000000024F757471
:1012D0007075747300000000000000000000000042
:1012E00000000354696D6572730000000000000087
:1012F000000000000000000004436F756E7465720A
:10130000730000000000000000000000000000006A
:1013100000000000000000000000000000000000CD
:10132000000000005769646765740023202D2D2D8F
:101330002D2D2D2057696467657473202D2D2D2D5B
:101340002D2D00456E64706F696E745200456E6499
:10135000706F696E744C004661696C7361666500FC
:101360009A486F6C6400000000000000000000005C
:101370000000000000009B4E6F50756C736500000C
:10138000000000000000000000000000000000005D
:10139000000000000000000000000000000000004D
:1013A00000004F7665727269646556616C004F7615
:1013B0006572726964655377697463680053756216
:1013C0007472696D0052657665727365004372765A
:1013D00000437572766500FF4E6F6E650000000079
:1013E00000000000000000000000000000000000FD
:1013F00000000000000000000000000000000000ED
:101400000000004368616E6E656C0023202D2D2D59
:101410002D2D2D204F7574707574206368616E6E6C
:10142000656C73202D2D2D2D2D2D005472616E7342
:101430006974696F6E54696D650023202D2D2D2D03
:101440002D2D20466C69676874206D6F646573206C
:101450002D2D2D2D2D2D00446F776E0055700044DD
:101460006972656374696F6E004D6F64756C757336
:1014700000436C656172004564676500436C6F638F
:101480006B00436F756E7465720023202D2D2D2D1A
:101490002D2D20436F756E74657273202D2D2D2DAB
:1014A0002D2D0000526973696E6700000000000076
:1014B0000000000000000000000146616C6C696ED5
:1014C00067000000000000000000000000000002B3
:1014D0004475616C00000000000000000000000086
:1014E00000000000000000000000000000000000FC
:1014F000000000000000000000000056616C340095
:1015000056616C330056616C320056616C31004696
:10151000756E6300004E6F6E6500000000000000F5
:101520000000000000000000000001413E580000E3
:1015300000000000000000000000000000000000AB
:1015400002413C58000000000000000000000000C4
:1015500000000000000003413D3D58000000000075
:1015600000000000000000000000000004413E3DBB
:101570005800000000000000000000000000000013
:10158000000005413C3D5800000000000000000044
:101590000000000000000000067C417C3E58000076
:1015A0000000000000000000000000000000077CB8
:1015B000417C3C58000000000000000000000000DA
:1015C00000000000087C417C3D3D58000000000008
:1015D00000000000000000000000097C417C3E3D4E
:1015E00058000000000000000000000000000000A3
:1015F0000A7C417C3C3D58000000000000000000D7
:101600000000000000000B413E420000000000000E
:101610000000000000000000000000000C413C42FF
:1016200000000000000000000000000000000000BA
:1016300000000D413D3D42000000000000000000A0
:1016400000000000000000000E413E3D420000008E
:1016500000000000000000000000000000000F413A
:101660003C3D4200000000000000000000000000BF
:101670000000000010414E44000000000000000087
:1016800000000000000000000000114F52000000A8
:10169000000000000000000000000000000000004A
:1016A00012584F520000000000000000000000002F
:1016B000000000000000134C61746368000000002B
:1016C00000000000000000000000000014546F67DC
:1016D000676C6500000000000000000000000000D2
:1016E00000001550756C73650000000000000000DC
:1016F00000000000000000000000000000000000EA
:1017000000000000000000000000000000004C6F1E
:10171000676963616C5377697463680023202D2DBA
:101720002D2D2D2D204C6F676963616C20737769B7
:101730007463686573202D2D2D2D2D2D0043757339
:10174000746F6D43757276650023202D2D2D2D2D20
:101750002D20437573746F6D2063757276657320E9
:101760002D2D2D2D2D2D00536C6F77446F776E002E
:10177000536C6F7755700044656C6179446F776E78
:101780000044656C61795570002C00416C6C00461A
:101790006C696768744D6F6465005472696D456E5D
:1017A00061626C65640043727600437572766556BB
:1017B000616C00004E6F6E650000000000000000CC
:1017C00000000000000000000001583E3000000052
:1017D0000000000000000000000000000000000207
:1017E000583C300000000000000000000000000035
:1017F0000000000000037C587C0000000000000096
:1018000000000000000000000000000000000000D8
:1018100000000000000000000000000000000000C8
:101820000043757276655479706500004469666698
:1018300000000000000000000000000000000000A8
:1018400000014578706F00000000000000000000FB
:10185000000000000000000246756E6300000000FA
:1018600000000000000000000000000000034375BD
:1018700073746F6D000000000000000000000000A5
:101880000000000000000000000000000000000058
:1018900000000000000000000057656967687400E0
:1018A000496E707574004F7065726174696F6E0077
:1018B000004164640000000000000000000000001F
:1018C000000000000000014D756C7469706C7900B7
:1018D000000000000000000000000000014D6C74DA
:1018E000706C7900000000000000000000000000A3
:1018F0000000025265706C6163650000000000002A
:1019000000000000000000000252706C63570000ED
:10191000000000000000000000000000000003487C
:101920006F6C640000000000000000000000000078
:1019300000000000000000000000000000000000A7
:10194000000000000000000000004F757470757406
:10195000004D697865720023202D2D2D2D2D2D2011
:101960004D69786572202D2D2D2D2D2D005068612B
:101970007365416E676C650050686173654D6F6497
:101980006500004175746F00000000000000000059
:101990000000000000000000014669786564000056
:1019A0000000000000000000000000000000000037
:1019B0000000000000000000000000000000000027
:1019C00000000000526576657273654D6F64756C3A
:1019D00061746F72004D6F64756C61746F725372D5
:1019E0006300506572696F643200506572696F649C
:1019F0003100506572696F644D6F64650000566117
:101A0000726961626C650000000000000000000067
:101A100000000001466978656400000000000000D5
:101A200000000000000000000000000000000000B6
:101A3000000000000000000000000000000000574F
:101A4000617665666F726D000053696E6500000017
:101A50000000000000000000000000000000015332
:101A60007175617265000000000000000000000058
:101A70000000000002547269616E676C650000002E
:101A80000000000000000000000003536177746F45
:101A90006F746800000000000000000000000000FB
:101AA0000452616E646F6D000000000000000000D1
:101AB0000000000000000000000000000000000026
:101AC00000000000000000000000000046756E638A
:101AD00067656E0023202D2D2D2D2D2D2046756E32
:101AE0006374696F6E2067656E657261746F72737F
:101AF000202D2D2D2D2D2D00536D6F6F74680059E5
:101B000056616C005856616C004E756D506F696E71
:101B10007473005468726F74746C65437572766583
:101B20000023202D2D2D2D2D2D205468726F7474BF
:101B30006C65206375727665202D2D2D2D2D2D0061
:101B400050697463684475616C5261746500456CDA
:101B5000654475616C5261746500526F6C6C4475BC
:101B6000616C526174650041696C4475616C5261CD
:101B70007465005961774475616C526174650052F7
:101B800075644475616C52617465004578706F329C
:101B9000004578706F310052617465320052617493
:101BA00065310023202D2D2D2D2D2D2052617465A2
:101BB0007320616E64206578706F202D2D2D2D2D82
:101BC0002D0059325472696D0058325472696D009B
:101BD00059315472696D00436F6D6D6F6E54726947
:101BE0006D005472696D53746174650000446973CB
:101BF00061626C65640000000000000000000000ED
:101C0000000001436F6D6D6F6E000000000000006A
:101C1000000000000000000002466C696768744D17
:101C20006F6465000000000000000000000000007C
:101C300000000000000000000000000000000000A4
:101C40000000000058315472696D0023202D2D2DA5
:101C50002D2D2D205472696D73202D2D2D2D2D2DA0
:101C6000005065727369737456616C0050657273CD
:101C7000697374656E7400496E69744D696E0052C3
:101C800065736574005377697463680054696D65A2
:101C9000720023202D2D2D2D2D2D2054696D657260
:101CA00073202D2D2D2D2D2D005265636F72644DE7
:101CB000696E696D756D005265636F72644D617810
:101CC000696D756D0053686F774F6E486F6D650075
:101CD000416C61726D5468726573686F6C64004129
:101CE0006C61726D436F6E646974696F6E00004E53
:101CF0006F6E6500000000000000000000000000A2
:101D000000000000013E5468726573680000000026
:101D100000000000000000000000023C54687265F2
:101D200073680000000000000000000000000000D8
:101D300000000000000000000000000000000000A3
:101D40000000000000004F6666736574004D756CFE
:101D50007469706C69657200466163746F723130CA
:101D6000004964656E74696669657200556E6974D0
:101D7000734E616D65004E616D65004E6F2E0054AF
:101D8000656C656D657472790023202D2D2D2D2DC8
:101D90002D2054656C656D65747279202D2D2D2D67
:101DA0002D2D000055700000000000000000000014
:101DB00000000000000000000001446F776E00008A
:101DC0000000000000000000000000000000000211
:101DD0004D696400000000000000000000000000E9
:101DE0000000000000FF4E6F6E6500000000000064
:101DF00000000000000000000000000000000000E3
:101E000000000000000000000000000000000000D2
:101E1000003A20005377697463685761726E00431B
:101E20006865636B5468726F74746C650023202D51
:101E30002D2D2D2D2D205761726E696E6773202D0B
:101E40002D2D2D2D2D00546872537263005069742E
:101E5000636853726300456C6553726300526F6C24
:101E60006C5372630041696C53726300596177531C
:101E7000726300527564537263004D6F64656C54F5
:101E80007970650000416972706C616E65000000D8
:101E900000000000000000000000014D756C746936
:101EA000636F7074657200000000000000000000A5
:101EB000024F74686572000000000000000000001E
:101EC0000000000000000000000000000000000012
:101ED0000000000000000000000000004D6F64657D
:101EE0006C4E616D65002323232323204D6F6465B1
:101EF0006C20636F6E66696775726174696F6E20BE
:101F000066696C6520232323232300456C766F6E5E
:101F10005200456C766F6E5200456C766F6E4C00C9
:101F2000456C766F6E4C00567461696C5200567445
:101F300061696C5200567461696C4C005674616939
:101F40006C4C004D6F746F7252004D6F746F725213
:101F5000004D6F746F724C004D6F746F724C005671
:101F600000457874566F6C7473005600457874564B
:101F70006F6C7473005600457874566F6C74730000
:101F800052504D0052504D0052504D00F8430054F5
:101F9000656D700052535349001B1E392D36274B77
:101FA0004EC98DC687D89C786CB4E493D2B1E172E7
:101FB0006300020406070809090A0A0A0A0A0A0A4B
:101FC0000A2070F8486953636F72653A20005363C2
:101FD0006F72653A2020200047616D65206F76653D
:101FE0007200A0057C055805040C06020306040CCB
:101FF000080808080C040C08080C06040C0C04045F
:102000000C08080E030302020604040C080C08085E
:102010000808080C04070103020202020206040475
:1020200006020603070404040C080C0C0808080840
:10203000080C0603070404040C060206040C080836
:102040000C04040404040404060301010302020353
:102050000202020303060602020604040E08080830
:102060000C06060406020604476574207265616466
:102070007900446973636C61696D65723A0A2D2D4C
:102080002D2D2D2D2D2D2D2D2D0A54686973206693
:1020900069726D776172652069732070726F7669FD
:1020A00064656420226173206973222077697468F3
:1020B0006F75742077617272616E7479206F66201B
:1020C000616E79206B696E642C206578707265731F
:1020D00073206F7220696D706C6965642E20496E83
:1020E000206E6F206576656E74207368616C6C205D
:1020F00074686520617574686F7273206F722063F5
:102100006F7079726967687420686F6C6465727348
:10211000206265206C6961626C6520666F72206167
:102120006E79206469726563742C20696E646972CB
:102130006563742C20696E636964656E74616C2CD0
:10214000207370656369616C2C206578656D706CB7
:10215000617279206F7220636F6E73657175656E41
:102160007469616C2064616D616765732028696EB4
:10217000636C7564696E6720627574206E6F74207D
:102180006C696D6974656420746F20706572736F1B
:102190006E616C20616E642F6F722070726F70655B
:1021A0007274792064616D61676529206F72206F98
:1021B00074686572206C696162696C697479206108
:1021C000726973696E672066726F6D20746865202E
:1021D000757365206F662074686973206669726D17
:1021E000776172652E0A496D70726F7065726C79D5
:1021F000206F7065726174696E67205243206D6F45
:1022000064656C732063616E206361757365207310
:102210006572696F757320696E6A757279206F7265
:102220002064656174682E00F870200A4657207695
:1022300065723A312E300A286329323032322D321B
:102240003032330A42756B373435360A0A6769749F
:102250006875622E636F6D2F62756B37343536008B
:102260004E6F20726573706F6E736500577269747C
:1022700065206661696C65640057726974652073D6
:102280007563636573730057726974696E67207351
:10229000657474696E6773005B57726974655D007D
:1022A00050574D00536572766F004467746C003A66
:1022B0000020004368616E6E656C004F7574707528
:1022C0007420636F6E666967004E6F20726573706D
:1022D0006F6E73650052656164696E672073657423
:1022E00074696E67730042696E642074696D656F0E
:1022F00075740042696E64206661696C65640042B1
:10230000696E6420737563636573730042696E64FC
:10231000696E67005365636F6E64617279207263E2
:102320007672004D61696E2072637672005B436F56
:102330006E6669677572655D005B42696E645D001B
:10234000466163746F727920726573657420686189
:10235000730A6265656E20696E697469617465648B
:102360002E0A5265626F6F7420746F20636F6E74F3
:10237000696E756500466163746F7279207265736A
:1023800065742077696C6C0A64656C65746520619E
:102390006C6C20646174612C0A696E636C7564698D
:1023A0006E67206D6F64656C732E0A0A50726573D8
:1023B00073205B55505D0A72657065617465646C6D
:1023C0007900300030006D7300467864206C6F6FC8
:1023D000703A004C6F6F7020233A00627974657315
:1023E00000467265652072616D3A0055702074690F
:1023F0006D653A002C2000506B7420726174653A50
:10240000005B466163746F72792052657365745D19
:10241000005B566965772063686172207365745D3F
:10242000005B44756D70206578746E6C2045455076
:10243000524F4D5D005B44756D7020696E746E6C1B
:1024400020454550524F4D5D004D617920726564C5
:1024500075636520706572666F726D6E63004E6F96
:10246000204C434420696E7465726C6163696E67C9
:102470000049443A307833302C205372633A56691D
:102480007274310053696D756C6174652074656C8C
:10249000656D657472790053686F77206C6F6F702B
:1024A0002074696D65004E2F410044666C742043B2
:1024B00068206F726465723A004D697865722074A5
:1024C000656D706C74733A004175746F736C6374EE
:1024D00020696E7075743A005B4368616E676520B1
:1024E00070617373776F72645D005B536574207005
:1024F000617373776F72645D004C6F636B206D6FF7
:1025000064656C73004C6F636B20737461727475D7
:10251000700050617373776F7264005B4E657874FE
:102520005D00290028004D756C74706C723A00478C
:1025300061756765206D61783A0047617567652050
:102540006D696E3A005B4E6578745D0033504F5391
:102550000032504F5300416273656E74003A00536D
:10256000776974636820000A546865736520736531
:102570007474696E6773206D696768740A61666652
:1025800065637420796F7572206578697374696EFC
:10259000670A6D6F64656C732E0A0A5B4F4B5D2092
:1025A000746F20636F6E74696E7565005B46696E4B
:1025B0006973685D005B4E6578745D0029002800D2
:1025C0004E2F410025003A0041646A7573742064FF
:1025D0006561647A6F6E65005B4E6578745D004D71
:1025E0006F766520737469636B732066756C6C79A4
:1025F0002C0A7468656E2063656E74657220746859
:10260000656D2E0A005B4E6578745D004E6F6E201E
:1026100063656E746572696E670053656C662063EE
:10262000656E746572696E67003A00547970652052
:102630006F662061786973004154524500524541EC
:102640005400414552540052544145004465666C63
:1026500074206D6F64653A005B53746172745D0041
:1026600043616C6962726174696F6E3A0053746998
:10267000636B730000000000000000000000000019
:102680000053776974636865730000000000000000
:10269000000000000042617474657279000000005F
:1026A000000000000000000000536563757269744B
:1026B000790000000000000000000000004D697378
:1026C00063656C6C616E656F7573000000000000DF
:1026D0000044656275670000000000000000000013
:1026E00000000000004175746F68696465207472B1
:1026F000696D733A00416E696D6174696F6E733A0A
:1027000000526F756E6420636F726E6572733A006B
:1027100044656E736572206D656E75733A004B6526
:102720006570206D656E75207073746E3A004D652E
:102730006E752069636F6E733A004B657920666928
:102740006C7465723A004B657973000000000000FC
:102750004163747674790000000057616B652075E1
:10276000703A00357300000000000000003135733E
:102770000000000000000033307300000000000083
:1027800000316D696E000000000000356D696E005B
:10279000000000000031356D696E00000000004E41
:1027A00065766572000000000054696D656F757490
:1027B0003A0025004272696768746E6573733A0067
:1027C000456E61626C653A004B6579733A004B6EF9
:1027D0006F62733A005472696D733A00537769748B
:1027E000636865733A006D696E004F666600496EF6
:1027F0006163747674793A00456E61626C653A0083
:102800004C6F77000000000000004D656469756D35
:10281000000000004D6178000000000000005246FA
:1028200020706F7765723A005246206F757470752C
:10283000743A005246207365747570000000000001
:1028400000000000000000536F756E64000000007F
:1028500000000000000000000000004261636B6C9B
:10286000696768740000000000000000000000417B
:102870007070656172616E636500000000000000A9
:10288000000000416476616E636564000000000032
:102890000000000000000044656C657465207365ED
:1028A0006E736F723F0A0A596573205B55705D2025
:1028B0000A4E6F205B446F776E5D005265636F72E6
:1028C000644D696E3A005265636F72644D61783A87
:1028D000004F6E20686F6D653A00546872657368CA
:1028E0003A003C546872657368003E5468726573C0
:1028F00068004F666600416C657274733A004F66FB
:10290000667365743A00466163746F7231303A00E1
:1029100030002E004D756C74706C723A00300049B6
:10292000443A002D2D00556E6974733A002D2D0028
:102930004E616D653A0053656E736F72005370653A
:102940006369667920756E6974730053656E736F81
:1029500072206E616D65005B52657365745D004D3C
:10296000696E696D756D3A005B52657365745D00E3
:102970004D6178696D756D3A0056616C206E6F77A8
:102980003A0053746174730044656C657465207318
:10299000656E736F7200456469742073656E736F42
:1029A00072005669657720737461747300525353D3
:1029B000490054656D70657261747572650052509E
:1029C0004D203420426C616465730052504D2033B9
:1029D00020426C616465730052504D203220426C7D
:1029E0006164657300457874566F6C74732034535A
:1029F00000457874566F6C747320335300457874B7
:102A0000566F6C74732032530053656E736F72206F
:102A10006E616D650054656D706C61746573004E18
:102A200065772073656E736F72003A004661646566
:102A30002D696E3A004E2F41005377697463683AEE
:102A4000002D2D004E616D653A00464D4400466CE8
:102A5000676874206D6F6465206E616D6500462D3A
:102A60004D6F646500436F6D6D6F6E0044697361F7
:102A7000626C656400207472696D3A004D6964008F
:102A8000446F776E005570004E6F6E65003A0053CC
:102A9000776974636820005468726F74746C653A67
:102AA0000052657365742073657474696E67730092
:102AB00052657365742074696D6572005374617238
:102AC000742074696D65720053746F702074696D41
:102AD000657200506572736973743A00206D696E97
:102AE00000496E697469616C3A0052657365743AA5
:102AF000005377697463683A002D2D004E616D654F
:102B00003A0054696D65720054696D6572206E619A
:102B10006D6500436C65617220616C6C20636F753C
:102B20006E7465720A7265676973746572733F0AC1
:102B30000A596573205B55705D200A4E6F205B4417
:102B40006F776E5D00436F756E74657200436F75CD
:102B50006E746572206E616D6500436C65617220F4
:102B6000616C6C00436C65617220636F756E746597
:102B7000720052657365742073657474696E67734F
:102B80000052656E616D6520636F756E74657200CD
:102B9000436F707920746F00506572736973743A73
:102BA00000436C6561723A00446F776E00557000A7
:102BB000446972656374696F6E3A004D6F64756C39
:102BC00075733A004475616C0046616C6C696E67A0
:102BD00000526973696E6700456467653A00436C2B
:102BE0006F636B3A00436F756E746572003A00460E
:102BF000756E6367656E206F7574707574730046CB
:102C000067656E0052657365742073657474696ED0
:102C1000677300436F707920746F00566965772081
:102C20006F7574707574730053796E636564005BBF
:102C300053796E635D0050686173653A0046697848
:102C40006564004175746F005068617365206D6F35
:102C500064653A00526576657273653A00436F6E3B
:102C600074726F6C3A004D617820706572696F64A0
:102C70003A004D617820696E7472766C3A004D6945
:102C80006E20706572696F6400506572696F643A96
:102C9000004D696E20696E7472766C3A00496E74EC
:102CA000657276616C3A005661726961626C6500AA
:102CB000466978656400506572696F64206D6F6461
:102CC000653A00496E7472766C206D6F64653A00E7
:102CD00053696E65000000000000537175617265F4
:102CE00000000000547269616E676C6500005361FA
:102CF00077746F6F7468000052616E646F6D0000CE
:102D0000000057617665666F726D3A004C0052653F
:102D10007365742073657474696E677300436F70B4
:102D20007920746F00FFF88208BA48AA48BA48822E
:102D300008FFF83800FFF88208BA48AA48BA488263
:102D400008FFF800E02D2D0044757261746E3A00A2
:102D50002D2D0044656C61793A00436C6561723ACF
:102D6000004475616C0046616C6C696E6700526965
:102D700073696E67002D2D002D2D0056616C7565F1
:102D8000323A00456467653A0052657365743A00EB
:102D9000506572696F643A002D2D0056616C75653F
:102DA000313A00436C6F636B3A005365743A0057D5
:102DB000696474683A002D2D0000000000000000D6
:102DC000613E7800000000000000613C78000000D7
:102DD00000000000613D3D78000000000000613E01
:102DE0003D78000000000000613C3D7800000000DC
:102DF00000007C617C3E7800000000007C617C3C2F
:102E00007800000000007C617C3D3D7800000000FF
:102E10007C617C3E3D78000000007C617C3C3D781C
:102E200000000000613E6200000000000000613C04
:102E30006200000000000000613D3D6200000000F3
:102E40000000613E3D62000000000000613C3D6208
:102E5000000000000000414E44000000000000009F
:102E60004F520000000000000000584F52000000C8
:102E7000000000004C617463680000000000546FA3
:102E800067676C650000000050756C73650000009A
:102E9000000046756E63746E3A00506F696E743A46
:102EA000200044656C65746520706F696E74006203
:102EB00065666F72653A00496E7365727420706F53
:102EC000696E74004375727665004375727665208D
:102ED0006E616D65004D696E696D756D20707473FE
:102EE0002072656163686564004D6178696D756D18
:102EF0002070747320726561636865640044656C5A
:102F000065746520706F696E7400496E73657274C4
:102F100020706F696E7400466C69702076657274FB
:102F20006963616C00466C697020686F72697A6FC2
:102F30006E74616C0052657365742063757276659A
:102F40000052656E616D6520637572766500436F32
:102F5000707920637572766520746F00536D7468A4
:102F60003A005976616C3A005876616C3A005074B8
:102F70003A0070747300547970653A0043727600B9
:102F8000437573746F6D206375727665730000000E
:102F90000000000046756E63746E2067656E657292
:102FA00061746F72730000004C6F676963616C201D
:102FB000737769746368657300000000436F756E12
:102FC0007465727300000000000000000000000043
:102FD00054696D657273000000000000000000007D
:102FE0000000000053616665747920636865636B57
:102FF00073000000000000005472696D2073657456
:10300000757000000000000000000000466C696759
:103010006874206D6F64657300000000000000009C
:103020004368616E6E656C206E616D650052656E01
:10303000616D65206368616E6E656C0056696577C9
:10304000206F75747075747300456E647074733A94
:10305000004E6F50756C736500486F6C640046617C
:10306000696C736166653A002D2D004F766572724A
:103070006964653A005375627472696D3A0052650D
:1030800076657273653A00437276002D2D004375A4
:103090007276653A004368004368616E6E656C3A0B
:1030A00000486F6C64003D002A3D002B3D004E6FD0
:1030B000206D6978657320646566696E6564207942
:1030C0006574004F76657276696577004D6978237F
:1030D0000056697274004368004D69786572206F0C
:1030E000757470757400526573657420616C6C2022
:1030F0006D697865733F0A0A596573205B55705D89
:10310000200A4E6F205B446F776E5D004D6978201A
:103110006E616D65004F6E65206F72206D6F726518
:103120000A64657374696E6174696F6E20736C6F85
:1031300074730A616C7265616479206F6363757082
:103140006965642E0A436F6E74696E75653F0A0A7D
:10315000596573205B55705D200A4E6F205B446F8C
:10316000776E5D00446966662074687275737400DA
:10317000567461696C00456C65766F6E00426173D0
:10318000696300496E73657274206661696C656479
:103190000054656D706C617465730053686F7720BF
:1031A0006F7665727669657700436F6D70616374E1
:1031B000206D6978657300526573657420616C6C6D
:1031C000206D69786573005265736574206D697848
:1031D0000052656E616D65206D697800496E73659A
:1031E00072742066726565004D6F7665206D697832
:1031F00020746F00436F7079206D697820746F00C0
:1032000056696577206F7574707574730053656CBB
:10321000656374206174206C65617374206F6E65E2
:10322000002000464D4400536C6F77446E3A0053C3
:103230006C6F7755703A00446C7920446E3A0044C4
:103240006C792055703A002C00416C6C00462D4D75
:103250006F64653A004E2F41005472696D20203A28
:1032600000437276002D2D000000783E300000787B
:103270003C3000007C787C000043727656616C3AEA
:103280000044696666004578706F0046756E63009D
:103290004373746D004375727665203A004F66661D
:1032A0007365743A005765696768743A00496E70CF
:1032B0007574203A00486F6C640052706C6357005C
:1032C0004D6C74706C7900416464004F7065727469
:1032D0006E3A005377697463683A004F757470757D
:1032E000743A0023004D6978206E6F3A0030003147
:1032F0003030002D313030003A200053776974634C
:10330000686573003A004B6E6F6273003A00537445
:1033100069636B7300FE8282828282FEFA868CDA97
:10332000F2A2FE536D74683A005976616C3A005807
:1033300076616C3A0050743A007074730043757291
:10334000763A005372633A0028526174653129005D
:1033500028526174653229005372633A002D2D00A2
:10336000442F523A0025004578706F3A00250052EC
:103370006174653A0044656C657465206D6F6465C1
:103380006C3F0A0A596573205B55705D200A4E6FC9
:10339000205B446F776E5D004D6F64656C206461E7
:1033A00074612077696C6C0A62652072657365745C
:1033B0002E0A436F6E74696E75653F0A0A5965730C
:1033C000205B55705D200A4E6F205B446F776E5D09
:1033D000004D6F64656C20646174612077696C6C6A
:1033E0002062650A6F7665727772697474656E2EF5
:1033F0000A436F6E74696E75653F0A0A59657320DA
:103400005B55705D200A4E6F205B446F776E5D00E8
:103410004261636B7570206661696C656400412070
:103420006261636B757020776974680A61207369E3
:103430006D696C6172206E616D650A65786973747F
:10344000732E0A4F76657277726974652069743FCE
:103450000A0A596573205B55705D200A4E6F205B28
:10346000446F776E5D004D4F44454C005265737458
:103470006F7265206661696C6564004D6F64656C90
:1034800020646174612077696C6C2062650A6F76D4
:1034900065727772697474656E2E0A436F6E746913
:1034A0006E75653F0A0A596573205B55705D200A89
:1034B0004E6F205B446F776E5D00526573746F7260
:1034C000652066726F6D205344004E6F206D6F64EF
:1034D000656C73206F6E20534400436F70792066D3
:1034E000726F6D004D6F64656C206E616D65004F8D
:1034F00074686572004D756C7469636F7074657281
:1035000000416972706C616E65004D6F64656C207E
:103510007479706500526573746F72652066726F9E
:103520006D205344004E6577206D6F64656C0042DA
:1035300061636B757020746F2053440044656C6543
:103540007465206D6F64656C004C6F6164206D6FF5
:1035500064656C004E6F206672656520736C6F74D5
:103560007300526573746F72652066726F6D2053BD
:1035700044004261636B757020746F2053440052A5
:1035800065736574206D6F64656C00436F7079209E
:1035900066726F6D004475706C696361746500528A
:1035A000656E616D65206D6F64656C000204885006
:1035B0002074065E06480632061C060606F005DA8A
:1035C00005C4054D6F64656C00000000000000003C
:1035D00000000000000000496E7075747300000068
:1035E00000000000000000000000004D69786572D6
:1035F0000000000000000000000000000000004F7C
:103600007574707574730000000000000000000005
:103610000000004578747261730000000000000033
:103620000000000000000054656C656D65747279DF
:103630000000000000000000000000537973746572
:103640006D000000000000000000000000000052BB
:103650006563656976657200000000000000000087
:1036600000000041626F757400000000000000005F
:10367000000000000000004D61696E206D656E75F0
:1036800000576964676574005265736574207769D3
:1036900064676574004D6F766520746F00436F70CA
:1036A0007920746F00005E005E005E00FFA1FFA144
:1036B000FFA1FF4D61783A0052696768743A004D86
:1036C000696E3A004C6566743A0043656E746572C3
:1036D0004761756765004761756765004E756D6583
:1036E000726963616C00446973703A002000546928
:1036F0006D657200436F756E7465720020004368DB
:10370000004175746F6D61746963005372633A00B0
:10371000436F756E746572730054696D65727300E2
:103720004D697853726373004F75747075747300CC
:1037300054656C656D6574727900547970653A00F2
:1037400057696467657400576964676574730053EB
:10375000657475702077696467657473005265736A
:1037600065742074696D65722031000000000000EE
:103770000052657365742074696D657220320000B3
:10378000000000000052657365742074696D6572F5
:103790002033000000000000005374617274207434
:1037A000696D6572203100000000000000537461F3
:1037B00072742074696D6572203200000000000090
:1037C0000053746172742074696D65722033000057
:1037D000000000000053746F702074696D657220E2
:1037E00031000000000000000053746F7020746905
:1037F0006D65722032000000000000000053746FFD
:10380000702074696D6572203300000000000000B4
:103810000020003A004368004F757470757473009F
:1038200054656C656D6574727920756E6D7574651F
:10383000640054656C656D65747279206D7574658E
:1038400064003A00436F756E746572003A00206F31
:103850007574004368003A003A0040D4C8D4402947
:10386000002800464D440020505050F8D8F8103041
:10387000D592D530104482BA925410107C3C3E5EF2
:103880002B3D3F2F5B5D3B2C2A225C00000020007B
:103890002300260029002C002F0032000001000028
:1038A0000301060109010200002200250028002B67
:1038B000002E003100340002010000050108010B58
:1038C00001507265706172696E672073746F726106
:1038D0006765004D6F64656C206461746120696E7A
:1038E0000A45787465726E616C20454550524F4DA3
:1038F0000A706F737369626C7920636F727275708E
:10390000742E0A52657365742069743F0A0A5965FA
:1039100073205B55705D200A4E6F205B446F776E9D
:103920005D0045787465726E616C20454550524F5C
:103930004D0A6E6F7420666F726D61747465642ECB
:103940000A507265737320616E79206B657900503F
:103950007265706172696E672073746F72616765FA
:1039600000507265706172696E672073746F726166
:103970006765004D6F64656C206461746120696ED9
:103980000A496E7465726E616C20454550524F4D08
:103990000A706F737369626C7920636F72727570ED
:1039A000742E0A52657365742069743F0A0A59655A
:1039B00073205B55705D200A4E6F205B446F776EFD
:1039C0005D0053797374656D20646174610A706F72
:1039D000737369626C7920636F72727570742E0AEA
:1039E00052657365742069743F0A0A596573205BD8
:1039F00055705D200A4E6F205B446F776E5D004905
:103A00006E7465726E616C20454550524F4D0A6E62
:103A10006F7420666F726D61747465642E0A5072E3
:103A200065737320616E79206B6579000000210059
:103A3000240027002A002D0030003300010100007F
:103A4000040107010A01010210202008081020408B
:103A50001020408002010201080402010102040852
:103A600010204080804020100804020180040201E0
:103A70008040201008040201080402010102040829
:103A80001020408001020408102040800505050533
:103A9000070508080808020202020A0A08080404C6
:103AA00004040101010101010101030303030303F4
:103AB0000303040707070C0C0C0C0C0C0C0C020283
:103AC000020206060606060606060B0B0B0B0B0B80
:103AD0000B0B57656C636F6D650000060D13191FA6
:103AE000252B30363B4044494D5154585A5D5F6157
:103AF00062636464646362615F5D5A5854514D4906
:103B000044403B36302B251F19130D0600FAF3ED08
:103B1000E7E1DBD5D0CAC5C0BCB7B3AFACA8A6A39C
:103B2000A19F9E9D9C9C9C9D9E9FA1A3A6A8ACAF7F
:103B3000B3B7BCC0C5CAD0D5DBE1E7EDF3FA0500E9
:103B40000F001E003C002C018403000066616C73B2
:103B5000650074727565003A200020200073002E05
:103B60000001020702070B070B0E0B0E0D0E0D08CE
:103B70000D080408040104010200000A0B02090CEC
:103B80000D0E080703040100000000000000000003
:103B90000000000000000000000000000000000025
:103BA00000000000001211100000000000000000E2
:103BB0000000000000000000000000000000005FA6
:103BC000446F776E005F4D6964005F5570004E6F03
:103BD0006E65007FFFFF8080000040800000408015
:103BE0000000608000006080000060800000608055
:103BF00000006080000040800000407FFFFF807F69
:103C0000FFFF80F8000040F8000040F0000060F086
:103C1000000060F0000060E0000060E0000060C0B4
:103C2000000040C00000407FFFFF807FFFFF80C09A
:103C3000000040C0000040E0000060E0000060F0D4
:103C4000000060F0000060F0000060F8000040F844
:103C50000000407FFFFF80436F756E7465720056F1
:103C6000697274004368004C004667656E005377C4
:103C7000005275640059617700456C6500506974A5
:103C800063680041696C00526F6C6C00546872008C
:103C90004D6178004B6E6F6242004B6E6F62410067
:103CA0005934005834005933005833005932005801
:103CB00032005931005831004E6F6E650021464D7B
:103CC0004400464D4400214C004C005377002153E2
:103CD00077002D2D00005EBCE2613FDD83C29C7E3B
:103CE00020A3FD1F419DC3217FFCA2401E5F01E375
:103CF000BD3E6082DC237D9FC1421CFEA0E1BF5D12
:103D00000380DE3C62BEE0025CDF81633D7C22C05A
:103D10009E1D43A1FF4618FAA427799BC584DA3873
:103D200066E5BB5907DB856739BAE406581947A52C
:103D3000FB7826C49A653BD987045AB8E6A7F91BD5
:103D400045C6987A24F8A6441A99C7257B3A648612
:103D5000D85B05E7B98CD2306EEDB3510F4E10F23F
:103D6000AC2F7193CD114FADF3702ECC92D38D6FDC
:103D700031B2EC0E50AFF1134DCE90722C6D33D1A9
:103D80008F0C52B0EE326C8ED0530DEFB1F0AE4CC2
:103D90001291CF2D73CA947628ABF517490856B403
:103DA000EA6937D58B5709EBB536688AD495CB29A4
:103DB00077F4AA4816E9B7550B88D6346A2B75975D
:103DC000C94A14F6A8742AC896154BA9F7B6E80A8A
:103DD00054D7896B354261642073797374656D20A3
:103DE000646174612E0A4C6F6164696E672064655A
:103DF0006661756C747300426164206D6F64656CFC
:103E000020646174612E0A4C6F6164696E6720647E
:103E1000656661756C74730000000000003E5B4FC6
:103E20005B3E3E6B4F6B3E1C3E7C3E1C183C7E3C1A
:103E3000181C577D571C1C5E7F5E1C00183C180028
:103E4000FFE7C3E7FF0018241800FFE7DBE7FF30B8
:103E5000483A060E2629792926407F050507407F26
:103E600005253F5A3CE73C5A7F3E1C1C08081C1C99
:103E70003E7F14227F22145F5F005F5F06097F018F
:103E80007F006689956A606060606094A2FFA2947A
:103E900004027F020410207F201008082A1C080852
:103EA0001C2A08081E101010100C1E0C1E0C303896
:103EB0003E3830060E3E0E06000000000000005F97
:103EC00000000007000700147F147F14242A6B2AC7
:103ED000122313086462364955225000000700007F
:103EE000001C2241000041221C0014083E08140856
:103EF000083E0808000050300008080808080000C4
:103F000060600020100804023E5149453E44427F53
:103F1000404042615149462141454B311814127FBE
:103F20001027454545393C4A494930010179050387
:103F30003649494936064949291E00002400000037
:103F400040340000000814224114141414144122B7
:103F500014080002015109063E4149550E7E111117
:103F6000117E7F494949363E414141227F414122EC
:103F70001C7F494949417F090909013E415151725C
:103F80007F0808087F00417F41002040413F017FBA
:103F9000081422417F404040407F020C027F7F0492
:103FA00008107F3E4141413E7F090909063E4151CB
:103FB000215E7F09192946264949493201017F01BD
:103FC000013F4040403F1F2040201F7F2018207F9E
:103FD00063140814630708700807615149454300DA
:103FE0007F41410002040810200041417F0004028B
:103FF00001020480808080808003050000205454EA
:1040000054787F4844443838444444203844444831
:104010007F3854545458087E09090298A4A4A87CF7
:104020007F0804047800447D40004080847D007F48
:1040300020102844003F4040207C041804787C086D
:104040000404783844444438FC28242418182424D0
:1040500028FC7C080404084854545424043F444475
:10406000203C4040207C1C2040201C3C4030403CF8
:1040700044281028449CA0A0A07C4464544C4400D4
:10408000083E414100007F000041413E080002011E
:104090000302013C2623263C1EA1A161123A4040A6
:1040A000207A385454555921555579412254547821
:1040B00042215554784020545579400C1E527212BA
:1040C0003955555559395454545939555454580043
:1040D00000457C410002457D420001457C407D1247
:1040E00011127DF0282528F07C54554500205454A9
:1040F0007C547C0A097F4932494949323A44444454
:104100003A324A4848303A4141217A3A424020788E
:10411000009DA0A07D3D4242423D3D4040403D3C8F
:1041200024FF2424487E4943662B2FFC2F2BFF09B4
:1041300029F620C0887E09032054547941000044A8
:104140007D413048484A32384040227A007A0A0A93
:10415000727D0D19317D2629292F28262929292606
:1041600030484D4020380808080808080808382F4B
:1041700010C8ACBA2F102834FA00007B00000814D5
:104180002A142222142A14085500550055AA55AAAB
:1041900055AAFF55FF55FF000000FF00101010FF4B
:1041A00000141414FF001010FF00FF1010F010F0A6
:1041B000141414FC001414F700FF0000FF00FF1497
:1041C00014F404FC141417101F10101F101F1414E3
:1041D000141F00101010F0000000001F101010102D
:1041E0001F10101010F010000000FF101010101021
:1041F00010101010FF10000000FF140000FF00FF5F
:1042000000001F10170000FC04F4141417101714FA
:1042100014F404F40000FF00F7141414141414141C
:10422000F700F7141414171410101F101F1414148F
:10423000F4141010F010F000001F101F0000001FF9
:1042400014000000FC140000F010F01010FF10FF2C
:1042500008081408081010101F00000000F010FFDC
:10426000FFFFFFFFF0F0F0F0F0FFFFFF00000000A5
:1042700000FFFF0F0F0F0F0F3844443844FC4A4A29
:104280004A347E02020606027E027E0263554941DE
:10429000633844443C04407E201E2006027E020215
:1042A00099A5E7A5991C2A492A1C4C7201724C3029
:1042B0004A4D4D303048784830BC625A463D3E4900
:1042C0004949007E0101017E2A2A2A2A2A44445FA4
:1042D000444440514A444040444A51400000FF0198
:1042E00003E080FF000008086B6B083612362436A6
:1042F0000006090600000018180000001010003029
:1043000040FF0101001F01011E00191D1712003C92
:104310003C3C3C000000000000000000003E5B4F01
:104320005B3E3E6B4F6B3E1C3E7C3E1C183C7E3C15
:10433000181C577D571C1C5E7F5E1C00183C180023
:10434000FFE7C3E7FF0018241800FFE7DBE7FF30B3
:10435000483A060E2629792926407F050507407F21
:1043600005253F5A3CE73C5A7F3E1C1C08081C1C94
:104370003E7F14227F22145F5F005F5F06097F018A
:104380007F006689956A606060606094A2FFA29475
:1043900004027F020410207F201008082A1C08084D
:1043A0001C2A08081E101010100C1E0C1E0C303891
:1043B0003E3830060E3E0E06000000000000005F92
:1043C00000000007000700147F147F14242A6B2AC2
:1043D000122313086462364955225000000700007A
:1043E000001C2241000041221C0014083E08140851
:1043F000083E0808000050300008080808080000BF
:1044000060600020100804023E5149453E44427F4E
:10441000404042615149462141454B311814127FB9
:104420001027454545393C4A494930010179050382
:104430003649494936064949291E00002400000032
:1044400040340000000814224114141414144122B2
:1044500014080002015109063E4149550E7E111112
:10446000117E7F494949363E414141227F414122E7
:104470001C7F494949417F090909013E4151517257
:104480007F0808087F00417F41002040413F017FB5
:10449000081422417F404040407F020C027F7F048D
:1044A00008107F3E4141413E7F090909063E4151C6
:1044B000215E7F09192946264949493201017F01B8
:1044C000013F4040403F1F2040201F7F2018207F99
:1044D00063140814630708700807615149454300D5
:1044E0007F41410002040810200041417F00040286
:1044F00001020480808080808003050000205454E5
:1045000054787F484444383844444420384444482C
:104510007F3854545458087E09090298A4A4A87CF2
:104520007F0804047800447D40004080847D007F43
:1045300020102844003F4040207C041804787C0868
:104540000404783844444438FC28242418182424CB
:1045500028FC7C080404084854545424043F444470
:10456000203C4040207C1C2040201C3C4030403CF3
:1045700044281028449CA0A0A07C4464544C4400CF
:10458000083E414100007F000041413E0800020119
:104590000302013C2623263C1EA1A161123A4040A1
:1045A000207A38545455592155557941225454781C
:1045B00042215554784020545579400C1E527212B5
:1045C000395555555939545454593955545458003E
:1045D00000457C410002457D420001457C407D1242
:1045E00011127DF0282528F07C54554500205454A4
:1045F0007C547C0A097F4932494949323A4444444F
:104600003A324A4848303A4141217A3A4240207889
:10461000009DA0A07D3D4242423D3D4040403D3C8A
:1046200024FF2424487E4943662B2FFC2F2BFF09AF
:1046300029F620C0887E09032054547941000044A3
:104640007D413048484A32384040227A007A0A0A8E
:10465000727D0D19317D2629292F28262929292601
:1046600030484D4020380808080808080808382F46
:1046700010C8ACBA2F102834FA00007B00000814D0
:104680002A142222142A14085500550055AA55AAA6
:1046900055AAFF55FF55FF000000FF00101010FF46
:1046A00000141414FF001010FF00FF1010F010F0A1
:1046B000141414FC001414F700FF0000FF00FF1492
:1046C00014F404FC141417101F10101F101F1414DE
:1046D000141F00101010F0000000001F1010101028
:1046E0001F10101010F010000000FF10101010101C
:1046F00010101010FF10000000FF140000FF00FF5A
:1047000000001F10170000FC04F4141417101714F5
:1047100014F404F40000FF00F71414141414141417
:10472000F700F7141414171410101F101F1414148A
:10473000F4141010F010F000001F101F0000001FF4
:1047400014000000FC140000F010F01010FF10FF27
:1047500008081408081010101F00000000F010FFD7
:10476000FFFFFFFFF0F0F0F0F0FFFFFF00000000A0
:1047700000FFFF0F0F0F0F0F3844443844FC4A4A24
:104780004A347E02020606027E027E0263554941D9
:10479000633844443C04407E201E2006027E020210
:1047A00099A5E7A5991C2A492A1C4C7201724C3024
:1047B0004A4D4D303048784830BC625A463D3E49FB
:1047C0004949007E0101017E2A2A2A2A2A44445F9F
:1047D000444440514A444040444A51400000FF0193
:1047E00003E080FF000008086B6B083612362436A1
:1047F0000006090600000018180000001010003024
:1048000040FF0101001F01011E00191D1712003C8D
:104810003C3C3C00000000005368757474696E678E
:1048200020646F776E003A200066616C73650074D7
:10483000727565004578706F32004578706F310091
:10484000526174653200526174653100FA00910E54
:1048500010004B006E02200010032000A403200073
:1048600097041000A000000008000B021000930243
:104870001000780000000800D20104005A00000077
:1048800008000B022000880120000B022000FA0023
:104890004B021000D20000001000B807100000000A
:1048A0001000B807080022011704040000002000CF
:1048B000A40304000000200010030400780000009E
:1048C000100093020800506C656173652077616980
:1048D00074000A42617474657279206C6F77002BE2
:1048E0003CFF3B2B3CFF3B2B3CD33BD33B4D6F640E
:1048F000656C0030003A0030003A002D0056003060
:10490000002E002D0073002E002030F8FCF830201F
:10491000746F3A004D6F76652000436F7079200008
:104920004E6F20646174610030002E002D004361E1
:104930006E277420626520656D70747900496E631E
:104940006F72726563742070617373776F72640045
:10495000456E7465722070617373776F7264004383
:10496000616E2774206C6F61642068657265005BFE
:104970004F4B5D20746F20736B69700043686563F3
:104980006B2073776974636865733A000700436846
:1049900065636B207468726F74746C653A0007000D
:1049A0005741524E494E470004000A0011001500BD
:1049B00024802480404044408020FFE0980011245F
:1049C0001FBECFEFD1E2DEBFCDBF00E00CBF13E0D2
:1049D000A0E0B2E0E8E6F4EC02E00BBF02C0079012
:1049E0000D92A632B107D9F72EE1A6E2B3E001C0DD
:1049F0001D92A134B207E1F714E2CFEDD4E200E05A
:104A000006C021970109802FFE010F948361CE3DDE
:104A1000D10780E00807A9F70F947C3A0D94326221
:104A20000C9400002F923F924F925F926F927F9270
:104A30008F929F92AF92BF92CF92DF92EF92FF92AE
:104A40000F931F93CF93DF93CDB7DEB7CC5AD10925
:104A50000FB6F894DEBF0FBECDBF8091CE07811197
:104A600004C080910F15811129C297EFE92E9CE1B6
:104A7000F92E05E614E0C057DF4F19830883C059AB
:104A8000D0402BEEA22E2CE1B22E3FEDC32E3CE106
:104A9000D32E4CED842E4CE1942E58E6252E54E076
:104AA000352E0FE918E0CE56DF4F1882C259D0409C
:104AB000D80155968C91882309F4ADC1F10110827B
:104AC0000F9467058111ACC1F70180819181A281AA
:104AD000B381F50180839183A283B3830E9455ED56
:104AE000D6016D937D938D939C931397F40110825F
:104AF000D80156968C918111BAC1F80127892223D9
:104B000049F130E0A0E6BAEE0F94CF5FD7012D91C6
:104B10003D914D915C91621773078407950770F47E
:104B20002B013C01B4EF4B0EB1E05B1E611C711C0C
:104B3000241535054605570508F4ABC12617370778
:104B40004807590738F4C057DF4FA881B981C059C9
:104B5000D0401C92F801808D882309F495C1F7019B
:104B600080819181A281B381F801818F928FA38F7F
:104B7000B48FCE56DF4FB881C259D040BF5FCE56FA
:104B8000DF4FB883C259D040015F1F4FE4E0EE0E03
:104B9000F11CC057DF4F28813981C059D0402F5FA9
:104BA0003F4FC057DF4F39832883C059D04034E08E
:104BB000A30EB11C44E0C40ED11C5FEF851A950A08
:104BC0006FEF261A360AB33009F072CF0F94C12E58
:104BD0000F94A60FF0906D1DF11003C18091FC148D
:104BE0008111ECC110923F0281E08093F915909100
:104BF0000E1D9D3508F47DC190930D1D10920E1D64
:104C00008093430210924B1D809341028093420295
:104C10008FEF809340020F949C0F80914402882371
:104C200009F4F1C280911A158111E5C180911C151A
:104C30008111DEC10E945AE00E949AE1A3E0CA2ECF
:104C4000ADE1DA2EB7EFAB2EB7E0BB2E01E511E1F7
:104C50008BE0682E88E0782E760194E6292E312CA0
:104C6000412C512C8824839419C022E092120EC04A
:104C7000F80147815085052E000C660B770B8417D1
:104C80009507A607B70714F4D7018C92BFEFEB1A6C
:104C9000FB0A045E1F4F6A147B04E9F1D7011C92E2
:104CA000F501219131915F012F3FFFE73F0771F33C
:104CB000D80116969C901697992041F30D90BC91BF
:104CC000A02D0F948B61A20191010F947B5FF801DD
:104CD00083819481092E000CAA0BBB0B820F931FBA
:104CE000A41FB51FF1E09F12C0CFF8014781508586
:104CF000052E000C660B770B481759076A077B07D0
:104D00002CF6D7019C92BFEFEB1AFB0A045E1F4FF3
:104D10006A147B0419F626E733E0ECE6F3E04DE095
:104D20005DE191E0B9010BC080818111D5C0DB014B
:104D30001C926F5F7F4F31964C155D05B1F0D60127
:104D40008D916D01813081F7DB018C918111F1CF63
:104D500080818F5F8083873960F3DB019C936F5F75
:104D60007F4F31964C155D0551F740E853E005C083
:104D70004E175F0711F40C94D555F90181919F01ED
:104D80008823B1F380916B03882309F420C16091DB
:104D9000231570912415809125159091261521E0F9
:104DA00020936B03009167031091680320916903BE
:104DB00030916A03601B710B820B930B2AEF30E07A
:104DC00040E050E00F94AD5F672B682B692B39F4FE
:104DD00080916004811103C085E08093AB140E9430
:104DE00093FAC455DF4F0FB6F894DEBF0FBECDBFA8
:104DF000DF91CF911F910F91FF90EF90DF90CF90B7
:104E0000BF90AF909F908F907F906F905F904F90EA
:104E10003F902F900895D1018C91882309F454CEAE
:104E2000D5014D905D906D907C900E9455EDAB0149
:104E3000BC01D6018D919D910D90BC91A02D481A79
:104E4000590A6A0A7B0AD301C201840F951FA61F63
:104E5000B71FF70180839183A283B383E1E0D4017C
:104E6000EC93D80156968C91882309F446CE0F9482
:104E70006705882309F441CECE56DF4F8881C25999
:104E8000D0400F94BB3939CE118E128E138E148EF2
:104E900070CEC057DF4FA881B981C059D040EC9186
:104EA000E1114CCEB3E0B093AB1421E0C057DF4F1B
:104EB000E881F981C059D04020834CCE80910B15F8
:104EC000882309F4D2CD8091CD078150833008F03A
:104ED000CCCD0F949C0FC9CD81508083882309F4D9
:104EE00026CF873908F425CFDB018C91811121CFA2
:104EF00034CFE92FF0E08827EF57F84D8F4F0D940E
:104F00008361114B1D402853D9403442914F914F3A
:104F1000D4539052C952173BBF3B4A3C993CF03C9A
:104F2000CF52754D974D8E33D3334534FF520F48D2
:104F30003848D6291928162A652E262E262E172FF0
:104F40005A2D812D812DE42DDA34C92ACE3DD73A50
:104F5000FC3DCB3260335A3D8F3F152B9D2BA92C46
:104F6000FB2CBF302E327234A034332DBD3AB13811
:104F70003539CA3704389139343AB236E14CCC3637
:104F80006D3797427B513B50DE50A632F7463B4689
:104F90007546984391447E453546943D6A4EEE4DA4
:104FA000835420473247DA531E541E54452FD52FC1
:104FB0003030A951D3424943D04FB54A65E08EEF16
:104FC00094E10F943617882309F40ECE0BCE60912E
:104FD00023157091241580912515909126156093C5
:104FE0006703709368038093690390936A03D7CE35
:104FF0001092F9151FCEE12C09E02DE047E362E79E
:1050000088EE95E10E9401F983E78093F01588E32B
:105010008093F11540917612509177126091781239
:10502000709179122AE030E088EE95E10E9451E714
:10503000FDCD80914B1D811103C085E00F94A12B04
:105040002091430280911D02281718F420931D021D
:10505000822F30E0482F50E04D5F5F4F8F5F421747
:10506000530714F00CC0892F91E0980F482F50E09F
:105070004D5F5F4F42175307B4F380931D02809139
:10508000EF1590E06C0104E2C01AD108D7FE04C00D
:105090006C0113E2C11AD108D594C794BB24B39410
:1050A000BC0C68E28EEF8C0D0E9427E41B2DF12CC6
:1050B000A9E16A2EB3E27B2E0DE0A02E90901D0296
:1050C0009F0C80914302891511F40C94235C9A94EF
:1050D000492C512CE091EF036E9EF0011124E05A0F
:1050E000F64F808190E0092C02C0959587950A942F
:1050F000E2F74CE153E380FD02C045E153E3EE24C7
:10510000E39407E027E0612F89E10E94CEE27092EC
:10511000F0151093F11563E272E388EE95E10E94B9
:1051200077E7B2016F5F7F4F88EE95E10E9421E43F
:1051300061E272E388EE95E10E9477E79A9CB00104
:1051400011246453704F88EE95E10E9462E7F39456
:10515000175F24E0F212B2CF8091141581110C94E4
:105160002F7ABC2C84E290E020911D0230E07C017B
:1051700004E010E045E050E06B2D80E70F94C32879
:1051800080914C1D813011F40C9481B680914B1D9F
:10519000882339F080911D158250823010F40C94D0
:1051A000D68180911E15813009F037CDE091EF0353
:1051B00059E1E59FF0011124E05AF64F90819F716B
:1051C00011F00C9423A20F949C0F8DE092E3909326
:1051D0004A1D8093491D0E9455ED6093451D7093B3
:1051E000461D8093471D9093481D6053784F8F4F05
:1051F0009F4F6093411D7093421D8093431D909378
:10520000441D109244020E9455EDAB01BC01009177
:10521000451D1091461D2091471D3091481D8091DC
:10522000411D9091421DA091431DB091441D805E8F
:105230009C4FAF4FBF4F401751076207730708F4E9
:10524000ABC0481759076A077B0708F0A5C0E09173
:105250001515EE2311F40C94E45568017901E0E989
:10526000CE0EE1E0DE1EE11CF11C4C155D056E0565
:105270007F0510F00C948356401B510B620B730B8F
:10528000DB01CA01880F991FAA1FBB1F880F991F36
:10529000AA1FBB1F880F991FAA1FBB1F880F991F2A
:1052A000AA1FBB1F5C016D01A41AB50AC60AD70A62
:1052B000C601B50120E931E040E050E00F94AD5F58
:1052C000E22FF0E0EF54F04EE4918FE3F82EFE1A57
:1052D0008091491D90914A1D0F94F45E982F990F6B
:1052E000890F182F110F8091EE15811B990B97FDD7
:1052F000019695958795D82E25E0821710F435E014
:10530000D32E8091141581110C94D95549E0410F89
:105310008BEF8D0D00E0E12C2BE06F2D0E9433E22E
:1053200080911415811105C0CE56DF4F1882C259E5
:10533000D04047E0410FCE56DF4FA880C259D04041
:105340008A2D90E0880F991F4817190649F044F0FC
:105350000A2D29E061E06F0D8CEF8D0D0E9494E223
:105360001092F215D092F015F394F394F092F11597
:105370006091491D70914A1D40E250E08DE49DE12D
:105380000F94E05E6DE47DE188EE95E10E9462E7B6
:1053900081E08093F21546CC84179507A607B707DE
:1053A00008F040CC81E0809344023CCC8BEE95E346
:1053B0000F9454361091EF03612E712C8091EE03FF
:1053C00081110EC089E1869DF001879DF00D1124A9
:1053D000E95AF64F80818093ED0381E08093EE03DC
:1053E00089E1869DF001879DF00D1124E85AF64F62
:1053F00020813091A80880E091E0F12C12C08A3021
:1054000011F40C943F56E1E0F0E0EC0FFD1FEF0DBE
:10541000F11D8083F3949F3011F40C9401579F5F2A
:105420008F5F233061F7843070F3F5CF80E092E333
:105430009093211D8093201D1092101D84EF91E305
:105440009093231D8093221D81E08093111D88EE8F
:1054500091E39093251D8093241D82E08093121D7B
:105460008CED91E39093271D8093261D83E080931C
:10547000131D81ED91E39093291D8093281D84E0F5
:105480008093141D87EC91E390932B1D80932A1D2C
:1054900085E08093151D87EB91E390932D1D8093FC
:1054A0002C1D86E08093161D89EA91E390932F1DB1
:1054B00080932E1D87E08093171D8BE991E39093D5
:1054C000311D8093301D89E08093181D8093401D0D
:1054D0008091A808823010F40C94C7760F94B32BF7
:1054E00010914002111117C080910E1D80930D1D67
:1054F0008BE180930E1D81E08093430210924B1D3F
:1055000080934102809342028FEF809340020F9478
:105510009C0F10914002113011F40C9414B712300A
:1055200011F40C94F7B6133011F40C945D77143029
:1055300011F40C947BCB153011F40C9455CB163030
:1055400011F40C943CCB173011F40C941B771830E9
:1055500011F40C9423CB193011F40C942CA08091ED
:105560001E15813009F059CB90910E1D90930D1DA1
:1055700098E190930E1D8093430210924B1D8093EF
:105580004102809342028FEF809340020F949C0F60
:1055900044CB8CE390E39093211D8093201D1092C7
:1055A000101D8DE290E39093231D8093221D81E0D6
:1055B0008093111D82E08093401D0F94B32B1091B6
:1055C0004002113011F40C948DC5111114C080915A
:1055D0000E1D80930D1D81E080930E1D809343026C
:1055E00010924B1D80934102809342028FEF809373
:1055F00040020F949C0F80911E15813009F00DCB55
:1056000090910E1D90930D1D93E290930E1D80932B
:10561000430210924B1D80934102809342028FEF10
:10562000809340020F949C0FF8CA1091E703E12E7B
:10563000F12C8091DD03811118C081E08093DD039E
:105640008091E603882371F098E29E9DF0019F9D72
:10565000F00D1124E25CF24F20812150330B8217B0
:1056600013060CF081E08093170263E28EE00E9443
:1056700027E401E10093F01582E18093F11562EADD
:105680007EE288EE95E10E9477E70093F0150CE149
:105690000093F1156AE97EE288EE95E10E9477E7D2
:1056A00087E48093F0150093F115609117026F590C
:1056B00088EE95E10E9486F86CE18FE30F94D43672
:1056C00081E080934B1D48E2D42EDE9CF001DF9CEC
:1056D000F00D1124E25CF24F40814250550B809155
:1056E000170202E021E061E070E090E00F94D7291A
:1056F000982F8093170220914C1D213011F40C94A7
:10570000E37680911E15813009F087CA1092DD037F
:1057100090910E1D90930D1D97E290930E1D809316
:10572000430210924B1D80934102809342028FEFFF
:10573000809340020F949C0F70CA1092F91588EA6A
:105740009FE20F9454369090DC03C92CD12C560163
:10575000AA0CBB1CAA0CBB1CAA0CBB1CF501EC0DB3
:10576000FD1DE853F14F80818351833010F40C9478
:10577000BD7680914B1D882311F40C941AB680914C
:105780004302873011F40C94B976863011F40C94EE
:10579000AB7680914C1D813011F40C94DCC488E010
:1057A0008093F01589E08093F1156091DC03635ECE
:1057B00040E28DE49DE10F9465156DE47DE188EE96
:1057C00095E10E9462E72091F015295001E041E146
:1057D00068E088EE95E10E948AF91092F01514E1D4
:1057E0001093F11562E97EE288EE95E10E9477E779
:1057F00086E38093F0151093F11585010C0D1D1DA6
:105800000853114FF8016081FAE06F9FB001112435
:105810006A54724D40E250E08DE49DE10F94E05EE9
:105820006DE47DE188EE95E10E9462E71092F0154B
:105830008DE18093F115D8018C91853111F40C9490
:10584000D4C4833111F40C94CCC4843111F40C947D
:10585000C4C46BE97DE288EE95E10E9477E786E3B8
:105860008093F0158DE18093F115C5018C0D9D1D80
:105870008156974FFC01E75DF94F2081222311F4F7
:105880000C94C773253110F00C9424C5203110F00E
:105890000C94E0C4213078F0865D994F40E2FC0121
:1058A00060818DE49DE10F9465156DE47DE188EEE6
:1058B00095E10E9462E71092F01586E28093F1155F
:1058C000F501EC0DFD1DE853F14F8081853111F498
:1058D0000C9495B6833111F40C948DB6843111F487
:1058E0000C9485B66BE77DE288EE95E10E9477E740
:1058F00086E38093F01586E28093F115F501EC0DB7
:10590000FD1DE853F14FE081EE2311F40C94DB769A
:10591000E150E53110F00C94F35FF0E08827EC568D
:10592000F34D8F4F0D948361B2B6B2B6B2B6B2B634
:10593000B2B6B2B6B2B6B2B6B2B6B2B69DB69DB651
:105940009DB69DB69DB61FB61FB61FB61FB6DB5FD0
:1059500015CB8DE19DE29093211D8093201D109227
:10596000101D8EE09DE29093231D8093221D01E087
:105970000093111D82E08093401D0F94B32B109172
:10598000400211111AC08091DC038093DB038091E7
:105990000E1D80930D1D8FE280930E1D0093430218
:1059A00010924B1D00934102009342028FEF8093AF
:1059B00040020F949C0F10914002113011F40C948E
:1059C000F1C480911E15813009F027C990910E1DF8
:1059D00090930D1D9DE290930E1D809343021092B3
:1059E0004B1D80934102809342028FEF80934002CF
:1059F0000F949C0F12C981E080934B1D8091DB03B3
:105A000002E021E043E150E070E060E090E00F94BC
:105A1000D7298093DB0321E0482F6091DC038CE0E1
:105A20009DE20F941E3780914C1D813011F40C942F
:105A30009CA080911E15813009F0EFC890910E1D39
:105A400090930D1D9DE290930E1D80934302109242
:105A50004B1D80934102809342028FEF809340025E
:105A60000F949C0FDAC883E19BE20F94BE388091BB
:105A70004C1D823011F40C94EA7E833029F0809121
:105A80001E15813009F0C9C880910E1D80930D1D2F
:105A900080E380930E1D81E08093430210924B1DA2
:105AA00080934102809342028FEF809340020F94D3
:105AB0009C0FB3C886EE90E30F94BE3880914C1DC6
:105AC000823011F40C9447C7833029F080911E1561
:105AD000813009F0A2C880910E1D80930D1D88E1D0
