:100000000C94071D0C94381D0C94381D0C94381D4D
:100010000C94381D0C94381D0C94381D0C94381D0C
:100020000C94381D0C94381D0C94381D0C94381DFC
:100030000C94381D0C9434F60C94381D0C94381D17
:100040000C94381D0C94381D0C94381D0C94381DDC
:100050000C94381D0C94381D0C94381D0C94B2F778
:100060000C94381D0C94D3F40C9493F40C94381D18
:100070000C94381D0C94381D0C94381D0C94381DAC
:100080000C94381D0C94381D0C94381D0C94381D9C
:100090000C945DF40C941DF40C94381D0D940A0C12
:1000A0000C94381D0C94381D0C94381D0C94381D7C
:1000B0000C94381D0C94381D0C94381D0C94381D6C
:1000C0000C94381D0C94381D0C94381D0C94381D5C
:1000D0000C94381D0C94381D0C94381D0C94381D4C
:1000E0000C94381D0D944A370C94AE380D94873714
:1000F0000D948F6A0C94552F0D94C9910D94AFBA3D
:100100000C945EF50C94A78B0D94F30C0C94B438FE
:100110000C94C1F10C94468C0C940B8C0C943955B6
:100120000D9475370C9410500C9424520C943C2D63
:100130000D94A6910D94AD910D94640D0D944763AB
:100140000C944EF20C942C580C94B9820C942051BF
:100150000D947F910C94107A0C94C3540C94775D99
:100160000D94BB910C9452F50D94C2910C946B3E7E
:100170000C94D5320C9412A10C94BB3F0C942A3AE7
:100180000C94FA8A0C94F13B0C94454E0C943E94DA
:100190000C94994F0C9442400D944A6A0C94CE42B0
:1001A0000C9450F20D9441BA0C9470F50D942D6698
:1001B0000C94112B0D94A60D0D94206D0D94C83741
:1001C0000C9430F50C942D3B0C944F810C94303FE3
:1001D0000C9437900C94FA260D944EBA0C948B5DC7
:1001E0000D947D370C9465230C94E13E0C948A4E5B
:1001F0000C94D45D0C9440500C94FB510D94BE377C
:100200000D946B910D9446B90C943DF20C942D35E0
:100210000C941E280C942F470D94ECB70D944D911F
:100220000C94472E0D9478910C94652D0D94989113
:100230000D9426BA0D94AC0D0C94D2510C944B4EE7
:100240000C94AE640D94730D0C9458340C94735448
:100250000C94C26B0C94224B0C94A5420D94CE0DC1
:100260000D944F370D948D670D9488910C94F35035
:100270000C940C4E0C9474380C9402400D94CF6581
:100280000C9429820C94D8230D946D370D94593712
:100290000D94EDB80C941E370C94B2F20D9450CB23
:1002A0000D9489050C94E87A0C941E340C94D74B69
:1002B0000C9464430C94222D0C942CF50C949D31D9
:1002C0000C94802C0C9463310C9420640C94356E47
:1002D0000C94298C0C9463420C9473F20C94CE26EB
:1002E0000C944CF50C945F520C94117A0D9494BAC2
:1002F0000C9474290C94B65D0C94DB8B0C949B5479
:100300000C94FF530C9449640D944B0D0C9406828D
:100310000D944DB80D94B4910C94FA3D0C94D53FC6
:100320000D94AA370C946E7A0C94956E0C94857586
:100330000C94934F0C94BF2E0C94EB820C94923639
:100340000C944B540D94A8000C9481240C94CF6E03
:100350000C94BF7A0C945FF20C94662A0D94450DB0
:100360000C945C830D941F6D0C9434F50C9440F543
:100370000C946F7A0D940B0D0C94BE7A0C94D6826B
:100380000C94832F0C940D2E0C94477A0D944E0DE3
:100390000D940BBA0D94C7000D9464910C94E9541C
:1003A0000D9463370D946D050C94A95D0C94A04CCD
:1003B0000C94FDF10D949A050C940C230C94628B13
:1003C0000C9411550C940EF20D948F0D0C949C50BE
:1003D0000D945A0D0C940B830C941CF20C944FF258
:1003E0000D9416B80D94330D0C94C8290C941F8AE3
:1003F0000D9461B90C9454260C947CF50C947F48B0
:100400000D94D2370D9491910C9470400C948134DA
:100410000C9450440C946F390C9476F50C944DF276
:100420000C943C300C94AC7A0C945D390D941E0DF8
:100430000C942BF50C94FC420C94E15D0C949427E5
:100440000C9446830C9458F50C9486750C9489781A
:100450000C945CF10C9419F10C946AF50C949A4686
:100460000C94F36B0D9445370D9425370C946BFE6B
:100470000C94CB820C9409360C94CC270C94915894
:100480000C9403730C94ED790D94C80D0C94467A7A
:100490000C94606B0C9446F50C9471330C942DF114
:1004A0000C94B9FD0C94EE790C94A6340D94B437E9
:1004B0000D94D0910D946C670C9486370C947AF25D
:1004C0000D94870D0C9425240C941C250D949B37BA
:1004D0000C9464F50C943AF50C9486640C94BE402C
:1004E0000C94E77A0C949B820C949E430C947F2589
:1004F0000C94ED4E0C941B2F0C94158B0D9491378E
:100500000C9432330C94FF370C9426F50C94A7F01E
:100510000C94916B0C944E3C0D94046C0D94490D0D
:100520000D949F910C94EC5C0C94A52B0C94364389
:100530000C9469780C942E730D946A0D03F0000CE2
:100540004800108400208A00408A004042007C3F1E
:100550000082408084BF00884100783E0007C000D0
:1005600003F0000C4800108400208A00408A007CC0
:100570004200823F008240807CBF00204100183E44
:100580000007C00003F0000C4800108400788A00C7
:10059000848A00824200823F0044408038BF0020AD
:1005A0004100183E0007C000000003800EE00FE08D
:1005B0001CF01EF01EF00C600FE003800000000035
:1005C00000003FF0201C38102010385020103FF061
:1005D0000000000000000000200850141FF01FF071
:1005E000501420080000000000000000001000204F
:1005F000021002200300018004E00E001F00000032
:1006000000001E40124012701E0000001EF01290EA
:1006100012901EF0000000001FF0200821882248E0
:100620002228212020901E50003000000000600C85
:100630001390044009200920092004401390600C05
:10064000000000000FE01010121001103C9001108B
:10065000121010100FE0000000001FF0101017D053
:10066000101017D01050105010101FF00000416CE7
:100670006C00536F6D65206461746120736B6970E9
:1006800070656400426164206D6F64656C20646114
:1006900074612E0A4C6F6164696E672064656661DF
:1006A000756C7473005465787400546F6E650054F3
:1006B0006F6E65004E6F74696669636174696F6E11
:1006C0000023202D2D2D2D2D2D204E6F7469666950
:1006D000636174696F6E73202D2D2D2D2D2D0043B8
:1006E0006800436F756E7465720054696D657200C1
:1006F00047617567654D61780047617567654D694C
:100700006E00446973700053726300547970650021
:100710005769646765740023202D2D2D2D2D2D2004
:1007200057696467657473202D2D2D2D2D2D00457F
:100730006E64706F696E745200456E64706F696E9E
:10074000744C004661696C73616665004F76657232
:100750007269646556616C004F7665727269646592
:10076000537769746368005375627472696D0052DF
:1007700065766572736500437276004375727665BF
:1007800000FF4E6F6E6500000000000000000000DA
:100790000000000000000000000000000000000059
:1007A000000000000000000000000000004368613D
:1007B0006E6E656C0023202D2D2D2D2D2D204F7557
:1007C00074707574206368616E6E656C73202D2D76
:1007D0002D2D2D2D005472616E736974696F6E54E6
:1007E000696D650023202D2D2D2D2D2D20466C6942
:1007F000676874206D6F646573202D2D2D2D2D2D50
:1008000000446972656374696F6E004D6F64756C46
:10081000757300436C656172004564676500436CE5
:100820006F636B00436F756E7465720023202D2D0E
:100830002D2D2D2D20436F756E74657273202D2D17
:100840002D2D2D2D0056616C340056616C330056F1
:10085000616C320056616C310046756E63004C6FFE
:10086000676963616C5377697463680023202D2D79
:100870002D2D2D2D204C6F676963616C2073776976
:100880007463686573202D2D2D2D2D2D00437573F8
:10089000746F6D43757276650023202D2D2D2D2DDF
:1008A0002D20437573746F6D2063757276657320A8
:1008B0002D2D2D2D2D2D00536C6F77446F776E00ED
:1008C000536C6F7755700044656C6179446F776E37
:1008D0000044656C61795570002C00416C6C0046D9
:1008E0006C696768744D6F6465005472696D456E1C
:1008F00061626C656400437276004375727665567A
:10090000616C00437572766554797065005765694E
:1009100067687400496E707574004F706572617419
:10092000696F6E004F7574707574004D69786572EB
:100930000023202D2D2D2D2D2D204D697865722021
:100940002D2D2D2D2D2D005068617365416E676C26
:10095000650050686173654D6F646500526576652A
:100960007273654D6F64756C61746F72004D6F6466
:10097000756C61746F7253726300506572696F6455
:100980003200506572696F643100506572696F643E
:100990004D6F64650057617665666F726D004675D0
:1009A0006E6367656E0023202D2D2D2D2D2D204685
:1009B000756E6374696F6E2067656E657261746FC2
:1009C0007273202D2D2D2D2D2D00506974636844D8
:1009D00075616C5261746500456C654475616C525B
:1009E00061746500536D6F6F7468005956616C00D7
:1009F0005856616C004E756D506F696E747300547B
:100A000068726F74746C6543757276650023202D6F
:100A10002D2D2D2D2D205468726F74746C652063FC
:100A200075727665202D2D2D2D2D2D00526F6C6C3D
:100A30004475616C526174650041696C4475616C08
:100A400052617465005961774475616C52617465D7
:100A5000005275644475616C52617465004578702C
:100A60006F32004578706F31005261746532005208
:100A7000617465310023202D2D2D2D2D2D205261E7
:100A800074657320616E64206578706F202D2D2D44
:100A90002D2D2D0059325472696D005832547269EF
:100AA0006D0059315472696D00436F6D6D6F6E54F6
:100AB00072696D005472696D5374617465005831C8
:100AC0005472696D0023202D2D2D2D2D2D20547253
:100AD000696D73202D2D2D2D2D2D0050657273699C
:100AE000737456616C0050657273697374656E74CB
:100AF00000496E69744D696E0052657365740053E8
:100B000077697463680054696D65720023202D2D28
:100B10002D2D2D2D2054696D657273202D2D2D2DB9
:100B20002D2D005265636F72644D696E696D756D30
:100B3000005265636F72644D6178696D756D005325
:100B4000686F774F6E486F6D6500416C61726D54D0
:100B500068726573686F6C6400416C61726D436F9D
:100B60006E646974696F6E004F6666736574004DDC
:100B7000756C7469706C69657200466163746F723C
:100B80003130004964656E74696669657200556E3E
:100B90006974734E616D65004E616D65004E6F2E18
:100BA0000054656C656D657472790023202D2D2DC0
:100BB0002D2D2D2054656C656D65747279202D2D59
:100BC0002D2D2D2D003A20005377697463685761ED
:100BD000726E00436865636B5468726F74746C6501
:100BE0000023202D2D2D2D2D2D205761726E696E25
:100BF0006773202D2D2D2D2D2D00506974636853A2
:100C0000726300456C65537263005468725372637B
:100C100000526F6C6C5372630041696C53726300D5
:100C200059617753726300527564537263004D6F5C
:100C300064656C54797065004D6F64656C4E616DD0
:100C400065002323232323204D6F64656C20636F8D
:100C50006E66696775726174696F6E2066696C652E
:100C600020232323232300456C766F6E5200456CAE
:100C7000766F6E5200456C766F6E4C00456C766FE9
:100C80006E4C00567461696C5200567461696C5206
:100C900000567461696C4C00567461696C4C004D6F
:100CA0006F746F7252004D6F746F7252004D6F749B
:100CB0006F724C004D6F746F724C00560045787423
:100CC000566F6C7473005600457874566F6C74736D
:100CD000005600457874566F6C74730064426D0062
:100CE000525353490025004C696E6B516C74790066
:100CF0001B1E392D36274B4EC98DC687D89C786C64
:100D0000B4E493D2B1E17263000204060708090952
:100D10000A0A0A0A0A0A0A0A000204060708090956
:100D20000A0A0A0A0A0A0A0A2E002070F8486953B9
:100D3000636F72653A200053636F72653A2020201A
:100D40000047616D65206F76657200840560053C23
:100D500005040C06020306040C080808080C040C21
:100D600008080C06040C0C04040C08080E0303020B
:100D7000020604040C080C08080808080C04070103
:100D80000302020202020604040602060307040428
:100D9000040C080C0C08080808080C0603070404D7
:100DA000040C060206040C08080C040404040404E1
:100DB0000406030101030202030202020303060602
:100DC00002020604040E0808080C060604060206C1
:100DD00004476574207265616479004661696C65D9
:100DE0006420746F20616C6C6F636174650A6D655B
:100DF0006D6F727920666F722067616D65002D2DB1
:100E00002D2D2D446973636C61696D65722D2D2DD7
:100E10002D2D0A54686520736F66747761726520A2
:100E200069732070726F7669646564202261732033
:100E300069732220776974686F75742077617272A4
:100E4000616E7479206F6620616E79206B696E64C3
:100E50002C2065787072657373206F7220696D70D5
:100E60006C6965642E20496E206E6F206576656E14
:100E700074207368616C6C20746865206175746897
:100E80006F7273206F7220636F7079726967687414
:100E900020686F6C64657273206265206C696162A2
:100EA0006C6520666F7220616E792064697265637B
:100EB000742C20696E6469726563742C20696E639A
:100EC0006964656E74616C2C207370656369616C14
:100ED0002C206578656D706C617279206F7220636B
:100EE0006F6E73657175656E7469616C2064616D98
:100EF000616765732028696E636C7564696E67202D
:100F0000627574206E6F74206C696D6974656420FD
:100F1000746F20706572736F6E616C20616E642FE8
:100F20006F722070726F70657274792064616D6188
:100F3000676529206F72206F74686572206C696123
:100F400062696C6974792061726973696E67206681
:100F5000726F6D2074686520757365206F662074EC
:100F6000686520736F6674776172652E0A0A496D31
:100F700070726F7065726C79206F706572617469E0
:100F80006E67205243206D6F64656C732063616EE1
:100F900020636175736520736572696F757320696D
:100FA0006E6A757279206F722064656174682E00B4
:100FB000F8702046572076657273696F6E3A20315B
:100FC0002E300A28632920323032332042756B37A5
:100FD0003435360A68747470733A2F2F67697468F1
:100FE00075622E636F6D2F0A62756B373435362F3D
:100FF000467265655458004E6F20726573706F6E4F
:101000007365005772697465206661696C65640078
:1010100057726974652073756363657373005772E3
:101020006974696E672073657474696E6773005BB9
:1010300057726974655D0050574D00536572766F45
:10104000004467746C003A0020004368616E6E656E
:101050006C004F757470757420636F6E66696700FD
:101060004E6F20726573706F6E73650052656164B8
:10107000696E672073657474696E67730042696E88
:10108000642074696D656F75740042696E642066D2
:1010900061696C65640042696E64207375636365A1
:1010A00073730042696E64696E67005365636F6EA7
:1010B000646172792072637672004D61696E20728C
:1010C000637672005B436F6E6669677572655D007B
:1010D0005B42696E645D00466163746F7279207271
:1010E00065736574206861730A6265656E20696E58
:1010F000697469617465642E0A5265626F6F742049
:10110000746F20636F6E74696E75650046616374F9
:101110006F72792072657365742077696C6C0A64EC
:10112000656C65746520616C6C20646174612C0A67
:10113000696E636C7564696E67206D6F64656C734E
:101140002E0A0A5072657373205B55505D0A7265F2
:101150007065617465646C7900300030006D7300F7
:10116000467864206C6F6F703A004C6F6F7020236C
:101170003A00627974657300467265652072616D2C
:101180003A0055702074696D653A002C2000506B50
:101190007420726174653A005B466163746F7279A2
:1011A0002052657365745D005B56696577206368DE
:1011B0006172207365745D005B44756D70206578A5
:1011C000746E6C20454550524F4D5D005B44756D0B
:1011D0007020696E746E6C20454550524F4D5D0015
:1011E0004D61792072656475636520706572666F04
:1011F000726D6E63004E6F204C434420696E7465BF
:10120000726C6163696E670049443A307833302C00
:10121000205372633A56697274310053696D756C6C
:101220006174652074656C656D65747279005368CE
:101230006F77206C6F6F702074696D65004E2F4161
:101240000044666C74204368206F726465723A00D3
:101250004D697865722074656D706C74733A0041E5
:1012600075746F736C637420696E7075743A005B8B
:101270004368616E67652070617373776F72645D38
:10128000005B5365742070617373776F72645D00E7
:101290004C6F636B206D6F64656C73004C6F636B98
:1012A00020737461727475700050617373776F721C
:1012B00064005B4E6578745D00290028004D756CF4
:1012C00074706C723A004761756765206D61783A99
:1012D000004761756765206D696E3A005B4E657801
:1012E000745D0033504F530032504F5300416273CE
:1012F000656E74003A0053776974636820000A547D
:10130000686573652073657474696E6773206D69B1
:101310006768740A61666665637420796F75722008
:101320006578697374696E670A6D6F64656C732E96
:101330000A0A5B4F4B5D20746F20636F6E74696E99
:101340007565005B46696E6973685D005B4E657824
:10135000745D00290028004E2F410025003A00410D
:10136000646A75737420646561647A6F6E65005B8E
:101370004E6578745D004D6F766520737469636B9C
:10138000732066756C6C792C0A7468656E206365D1
:101390006E746572207468656D2E0A005B4E657808
:1013A000745D004E6F6E2063656E746572696E6762
:1013B0000053656C662063656E746572696E6700C4
:1013C0003A0054797065206F662061786973004136
:1013D0005452450052454154004145525400525424
:1013E0004145004465666C74206D6F64653A005B2E
:1013F00053746172745D0043616C696272617469F7
:101400006F6E3A00537469636B7300000000000054
:101410000000000000000000537769746368657382
:101420000000000000000000000000004261747431
:10143000657279000000000000000000000000005C
:101440005365637572697479000000000000000044
:10145000000000004D697363656C6C616E656F75AB
:101460007300000000000000446562756700000022
:101470000000000000000000000000004E756D65D7
:101480007269632042617474563A0057656C636FE9
:101490006D65206D73673A0053706C6173682073DB
:1014A000637265656E3A004175746F6869646520A2
:1014B0007472696D733A00416E696D6174696F6E23
:1014C000733A00526F756E6420636F726E6572734B
:1014D0003A004B656570206D656E75207073746E93
:1014E0003A004D656E752069636F6E733A004B6507
:1014F000792066696C7465723A004B6579730000F7
:1015000000000000416374767479000000005761A8
:101510006B652075703A0035730000000000000014
:10152000003135730000000000000033307300000C
:101530000000000000316D696E0000000000003501
:101540006D696E00000000000031356D696E0000AD
:101550000000004E65766572000000000054696D61
:10156000656F75743A0025004272696768746E652C
:1015700073733A00456E61626C653A004B6579732E
:101580003A004B6E6F62733A005472696D733A00A1
:1015900053776974636865733A006D696E004F66CE
:1015A0006600496E6163747674793A00456E6162D3
:1015B0006C653A004C6F77000000000000004D653C
:1015C0006469756D000000004D6178000000000046
:1015D0000000524620706F7765723A005246206FC5
:1015E00075747075743A0052462073657475700096
:1015F0000000000000000000000000536F756E64E2
:101600000000000000000000000000000000004298
:1016100061636B6C69676874000000000000000083
:10162000000000417070656172616E6365000000CA
:1016300000000000000000416476616E6365640094
:10164000000000000000000000000044656C6574AC
:10165000652073656E736F723F0A0A596573205B6C
:1016600055705D200A4E6F205B446F776E5D0052AF
:1016700065636F72644D696E3A005265636F7264A0
:101680004D61783A004F6E20686F6D653A0054687E
:10169000726573683A00004F666600000000000043
:1016A000000000000000000000000000013E54683F
:1016B0007265736800000000000000000000000078
:1016C0000000023C5468726573680000000000006E
:1016D000000000000000000000000000000000000A
:1016E0000000000000000000000000000000416C4D
:1016F000657274733A004F66667365743A004661AA
:1017000063746F7231303A0030002E004D756C7486
:10171000706C723A00300030780049443A002D2D48
:1017200000556E6974733A002D2D004E616D653A57
:101730000053656E736F720053706563696679203C
:10174000756E6974730053656E736F72206E616D90
:1017500065005B52657365745D002061676F00739F
:10176000006D696E006872004E6F206461746100E4
:1017700054696D6520726376643A004C617374201D
:1017800056616C3A005B52657365745D004D696E1D
:10179000696D756D3A005B52657365745D004D61EE
:1017A00078696D756D3A0053746174730044656CAB
:1017B0006574652073656E736F720045646974208B
:1017C00073656E736F720056696577207374617408
:1017D000730052535349004C696E6B207175616CF4
:1017E00069747900457874566F6C747320345300B3
:1017F000457874566F6C7473203353004578745673
:101800006F6C74732032530053656E736F72206E69
:10181000616D650054656D706C61746573004E6533
:10182000772073656E736F72003A00466164652DB0
:10183000696E3A004E2F41005377697463683A002D
:101840002D2D004E616D653A00464D4400466C6793
:101850006874206D6F6465206E616D650000446979
:101860007361626C6564000000000000000000000D
:1018700000000001436F6D6D6F6E000000000000FE
:1018800000000000000000000002466C69676874F8
:101890004D6F6465000000000000000000000000C3
:1018A0000000000000000000000000000000000038
:1018B0000000000000207472696D3A002300526538
:1018C0007365742073657474696E677300436F7019
:1018D0007920746F002D2D00546578743A00546F90
:1018E0006E653A005377697463683A004E6F7469A5
:1018F0006669636174696F6E0054657874000055A1
:101900007000000000000000000000000000000067
:101910000000000001446F776E000000000000002E
:1019200000000000000000000000024D696400009B
:1019300000000000000000000000000000000000A7
:10194000FF4E6F6E65000000000000000000000008
:101950000000000000000000000000000000000087
:101960000000000000000000000000003A00537773
:101970006974636820005468726F74746C653A000F
:1019800052657365742073657474696E6773005271
:10199000657365742074696D657200537461727447
:1019A0002074696D65720053746F702074696D6581
:1019B0007200506572736973743A00206D696E002D
:1019C000496E697469616C3A0052657365743A00D6
:1019D0005377697463683A002D2D004E616D653A46
:1019E0000054696D65720054696D6572206E616D99
:1019F0006500436C65617220616C6C20636F756E6D
:101A00007465720A7265676973746572733F0A0A56
:101A1000596573205B55705D200A4E6F205B446FE3
:101A2000776E5D00436F756E74657200436F756EFF
:101A3000746572206E616D6500436C656172206132
:101A40006C6C00436C65617220636F756E746572B7
:101A50000052657365742073657474696E677300F2
:101A600052656E616D6520636F756E7465720043BB
:101A70006F707920746F00506572736973743A00E7
:101A8000436C6561723A0000557000000000000070
:101A90000000000000000000000000000001446F92
:101AA000776E000000000000000000000000000051
:101AB0000000000000000000000000000000000026
:101AC0000000000000000000004469726563746952
:101AD0006F6E3A004D6F64756C75733A00456467BC
:101AE000653A00436C6F636B3A00436F756E7465C3
:101AF00072003A0046756E6367656E206F7574708C
:101B0000757473004667656E005265736574207363
:101B1000657474696E677300436F707920746F0029
:101B200056696577206F7574707574730053796E9C
:101B3000636564005B53796E635D00506861736533
:101B40003A00004175746F000000000000000000C2
:101B50000000000000000000014669786564000094
:101B60000000000000000000000000000000000075
:101B70000000000000000000000000000000000065
:101B8000000000005068617365206D6F64653A0065
:101B9000526576657273653A00436F6E74726F6C4E
:101BA0003A004D617820706572696F643A004D614A
:101BB0007820696E7472766C3A004D696E2070659B
:101BC00072696F6400506572696F643A004D696EA6
:101BD00020696E7472766C3A00496E746572766133
:101BE0006C3A00005661726961626C650000000029
:101BF00000000000000000000001466978656400F4
:101C000000000000000000000000000000000000D4
:101C100000000000000000000000000000000000C4
:101C20000000000000506572696F64206D6F64658C
:101C30003A00496E7472766C206D6F64653A0000EC
:101C400053696E6500000000000000000000000005
:101C50000000000000015371756172650000000012
:101C600000000000000000000000000254726961E2
:101C70006E676C65000000000000000000000000BE
:101C80000003536177746F6F7468000000000000F8
:101C9000000000000000000452616E646F6D0000DF
:101CA0000000000000000000000000000000000034
:101CB0000000000000000000000000000000000024
:101CC00000000057617665666F726D3A0020003A39
:101CD000004C004C6F676963616C207377206F75EF
:101CE0007470757473004C0052657365742073656D
:101CF0007474696E677300436F707920746F005657
:101D0000696577206F757470757473002D2D0044AC
:101D1000757261746E3A002D2D0044656C61793ADC
:101D20000000506F73697469766500000000000060
:101D300000000000000000014E656761746976656F
:101D40000000000000000000000000000002426FE0
:101D500074680000000000000000000000000000A7
:101D60000000000000000000000000000000000073
:101D700000000000000000000044697263746E3AC5
:101D800000436C6561723A0000526973696E6700C6
:101D900000000000000000000000000000000146FC
:101DA000616C6C696E6700000000000000000000BC
:101DB00000000000024475616C000000000000009B
:101DC0000000000000000000000000000000000013
:101DD0000000000000000000000000000000000003
:101DE0002D2D002D2D0056616C7565323A0045642D
:101DF00067653A0052657365743A00506572696FA1
:101E0000643A002D2D002D2D0056616C7565313A18
:101E100000436C6F636B3A005365743A0057696412
:101E200074683A00004E6F6E65000000000000000C
:101E30000000000000000000000001613E7800008A
:101E40000000000000000000000000000000000092
:101E500002613C780000000000000000000000006B
:101E600000000000000003613D3D7800000000001C
:101E700000000000000000000000000004613E3D82
:101E800078000000000000000000000000000000DA
:101E9000000005613C3D78000000000000000000EB
:101EA0000000000000000000067C617C3E7800001D
:101EB0000000000000000000000000000000077C9F
:101EC000617C3C7800000000000000000000000081
:101ED00000000000087C617C3D3D780000000000AF
:101EE00000000000000000000000097C617C3E3D15
:101EF000780000000000000000000000000000006A
:101F00000A7C617C3C3D780000000000000000007D
:101F10000000000000000B7C64656C74617C3E78FE
:101F20000000000000000000000000000C613E62A4
:101F300000000000000000000000000000000000A1
:101F400000000D613C620000000000000000000085
:101F500000000000000000000E613D3D6200000036
:101F600000000000000000000000000000000F6101
:101F70003E3D620000000000000000000000000084
:101F80000000000010613C3D620000000000000005
:101F90000000000000000000000011414E4400005D
:101FA0000000000000000000000000000000000031
:101FB000124F52000000000000000000000000006E
:101FC00000000000000013584F5200000000000005
:101FD000000000000000000000000000144C6174CC
:101FE0006368000000000000000000000000000026
:101FF000000015546F67676C65000000000000006A
:1020000000000000000000001650756C73650000B1
:1020100000000000000000000000000000000000C0
:1020200000000000000000000000000000000000B0
:10203000000000007CEB7C3E78002D2D0046756E84
:1020400063746E3A00FFF88208BA48AA48BA488218
:1020500008FFF83800FFF88208BA48AA48BA488250
:1020600008FFF800E0506F696E743A200044656C18
:1020700065746520706F696E74006265666F726565
:102080003A00496E7365727420706F696E74004314
:1020900075727665004375727665206E616D6500B8
:1020A0004D696E696D756D20707473207265616322
:1020B000686564004D6178696D756D20707473207A
:1020C000726561636865640044656C657465207061
:1020D0006F696E7400496E7365727420706F696EFB
:1020E0007400466C697020766572746963616C0077
:1020F000466C697020686F72697A6F6E74616C00EB
:1021000052657365742063757276650052656E6101
:102110006D6520637572766500436F707920637515
:1021200072766520746F00536D74683A0059766159
:102130006C3A005876616C3A0050743A00707473CF
:1021400000547970653A0043727600437573746F7A
:102150006D20637572766573000000000000004614
:10216000756E63746E2067656E657261746F7273ED
:102170000000004C6F676963616C2073776974635A
:102180006865730000000054696D6572730000009B
:102190000000000000000000000000436F756E7436
:1021A0006572730000000000000000000000004E97
:1021B0006F74696669636174696F6E730000000013
:1021C00000000053616665747920636865636B7312
:1021D000000000000000005472696D207365747582
:1021E0007000000000000000000000466C69676895
:1021F00074206D6F646573000000000000000043F0
:1022000068616E6E656C206E616D650052656E6111
:102210006D65206368616E6E656C00566965772038
:102220006F75747075747300456E647074733A00E2
:102230009A486F6C6400000000000000000000007D
:102240000000000000009B4E6F50756C736500002D
:10225000000000000000000000000000000000007E
:10226000000000000000000000000000000000006E
:1022700000004661696C736166653A002D2D004F60
:10228000766572726964653A005375627472696D3D
:102290003A00526576657273653A00437276002D96
:1022A0002D0043757276653A004368004368616E9D
:1022B0006E656C3A00486F6C64003D002A3D002B4F
:1022C0003D004E6F206D6978657320646566696EA8
:1022D000656420796574004F76657276696577006C
:1022E0004D6978230056697274004368004D69781F
:1022F0006572206F75747075740052657365742013
:10230000616C6C206D697865733F0A0A59657320AA
:102310005B55705D200A4E6F205B446F776E5D00E9
:102320004D6978206E616D65004F6E65206F72207B
:102330006D6F72650A64657374696E6174696F6E3E
:1023400020736C6F74730A616C7265616479206FBD
:10235000636375706965642E0A436F6E74696E7588
:10236000653F0A0A596573205B55705D200A4E6F00
:10237000205B446F776E5D00446966662074687206
:1023800075737400567461696C00456C65766F6E88
:1023900000426173696300496E73657274206661FF
:1023A000696C65640054656D706C6174657300538D
:1023B000686F77206F7665727669657700436F6D19
:1023C00070616374206D697865730052657365741C
:1023D00020616C6C206D697865730052657365745B
:1023E000206D69780052656E616D65206D697800B9
:1023F000496E736572742066726565004D6F76650F
:10240000206D697820746F00436F7079206D697852
:1024100020746F0056696577206F757470757473DA
:102420000053656C656374206174206C656173741E
:10243000206F6E65002000464D4400536C6F77445A
:102440006E3A00536C6F7755703A00446C792044B3
:102450006E3A00446C792055703A002C00416C6C47
:1024600000462D4D6F64653A004E2F41005472694D
:102470006D20203A0043727600004E6F6E650000BA
:10248000000000000000000000000000000000014B
:10249000783E300000000000000000000000000056
:1024A000000000000002783C300000000000000046
:1024B0000000000000000000000000037C787C00A9
:1024C000000000000000000000000000000000000C
:1024D00000000000000000000000000000000000FC
:1024E0000000000000000043727656616C3A000064
:1024F0004469666600000000000000000000000063
:102500000000000000014578706F0000000000002E
:1025100000000000000000000000000246756E632D
:1025200000000000000000000000000000000000AB
:102530000003437573746F6D00000000000000001D
:10254000000000000000000000000000000000008B
:102550000000000000000000000000000043757251
:102560007665203A004F66667365743A0057656970
:102570006768743A00496E707574203A00004164CF
:1025800064000000000000000000000000000000E7
:10259000000000014D6C74706C79000000000000B8
:1025A000000000000000000000014D756C746970AF
:1025B0006C79000000000000000000000000000234
:1025C00052706C6357000000000000000000000023
:1025D0000000000000025265706C6163650000003D
:1025E000000000000000000000000003486F6C6461
:1025F00000000000000000000000000000000000DB
:1026000000000000000000000000000000000000CA
:10261000000000000000004F706572746E3A0053B5
:1026200077697463683A004F75747075743A002363
:10263000004D6978206E6F3A003000313030002D47
:10264000313030003A200053776974636865730055
:102650003A004B6E6F6273003A00537469636B7398
:1026600000FE8282828282FEFA868CDAF2A2FE5319
:102670006D74683A005976616C3A005876616C3A2C
:102680000050743A0070747300437572763A0053C8
:1026900072633A00285261746531290028526174CE
:1026A000653229005372633A002D2D00442F523AAF
:1026B0000025004578706F3A002500526174653A34
:1026C0000044656C657465206D6F64656C3F0A0A33
:1026D000596573205B55705D200A4E6F205B446F17
:1026E000776E5D004D6F64656C2064617461207766
:1026F000696C6C0A62652072657365742E0A436F9B
:102700006E74696E75653F0A0A596573205B557072
:102710005D200A4E6F205B446F776E5D004D6F64E5
:10272000656C20646174612077696C6C2062650A55
:102730006F7665727772697474656E2E0A436F6E78
:1027400074696E75653F0A0A596573205B55705D43
:10275000200A4E6F205B446F776E5D004261636BB1
:102760007570206661696C65640041206261636B0D
:10277000757020776974680A612073696D696C618E
:1027800072206E616D650A6578697374732E0A4FE5
:1027900076657277726974652069743F0A0A5965B3
:1027A00073205B55705D200A4E6F205B446F776E1F
:1027B0005D004D4F44454C00526573746F72652047
:1027C0006661696C6564004D6F64656C206461745A
:1027D000612077696C6C2062650A6F76657277722A
:1027E000697474656E2E0A436F6E74696E75653F09
:1027F0000A0A596573205B55705D200A4E6F205B95
:10280000446F776E5D00526573746F7265206672F7
:102810006F6D205344004E6F206D6F64656C7320A4
:102820006F6E20534400436F70792066726F6D00A5
:102830004D6F64656C206E616D650000416972705A
:102840006C616E65000000000000000000000000E8
:1028500000014D756C7469636F70746572000000DF
:1028600000000000000000024F7468657200000064
:102870000000000000000000000000000000000058
:102880000000000000000000000000000000000048
:102890000000004D6F64656C2074797065005265AE
:1028A00073746F72652066726F6D205344004E65BD
:1028B00077206D6F64656C004261636B7570207486
:1028C0006F2053440044656C657465206D6F6465CA
:1028D0006C004C6F6164206D6F64656C004E6F20FE
:1028E0006672656520736C6F747300526573746FE4
:1028F00072652066726F6D205344004261636B7590
:102900007020746F205344005265736574206D6F9E
:1029100064656C00436F70792066726F6D0044755A
:10292000706C69636174650052656E616D65206DE0
:102930006F64656C000204885020580642062C061D
:1029400016060006EA05D405BE05A8054D6F6465A8
:102950006C0000000000000000000000000000000B
:10296000496E7075747300000000000000000000E4
:10297000000000004D697865720000000000000052
:1029800000000000000000004F7574707574730043
:102990000000000000000000000000004578747294
:1029A0006173000000000000000000000000000053
:1029B00054656C656D65747279000000000000005C
:1029C0000000000053797374656D00000000000082
:1029D00000000000000000005265636569766572C2
:1029E00000000000000000000000000041626F7560
:1029F0007400000000000000000000000000000063
:102A00004D61696E206D656E750057696467657408
:102A100000526573657420776964676574004D6F53
:102A2000766520746F00436F707920746F00005ECC
:102A3000005E005E00FFA1FFA1FFA1FF4D61783A9B
:102A40000052696768743A004D696E3A004C6566D9
:102A5000743A00004E756D65726963616C00000028
:102A6000000000000000000000014761756765007C
:102A70000000000000000000000000000000000254
:102A800043656E74657247617567650000000000FC
:102A90000000000000000000000000000000000036
:102AA0000000000000000000000000446973703A5C
:102AB00000200054696D657200436F756E74657215
:102AC000002000436800064175746F00000000009C
:102AD00000000000000000000000000000000000F6
:102AE00000000000000000000000000000000000E6
:102AF00000005372633A000054656C656D65747232
:102B000079000000000000000000000000014D6995
:102B100078536F7572636573000000000000000059
:102B2000000000024F75747075747300000000009F
:102B30000000000000000000000354696D6572731E
:102B40000000000000000000000000000000000481
:102B5000436F756E74657273000000000000000022
:102B60000000000000000000000000000000000065
:102B70000000000000000000000000547970653A79
:102B8000005769646765740057696467657473000A
:102B90005365747570207769646765747300526556
:102BA0007365742074696D65722031000000000047
:102BB000000052657365742074696D65722032007F
:102BC00000000000000052657365742074696D6533
:102BD0007220330000000000000053746172742002
:102BE00074696D65722031000000000000005374AC
:102BF0006172742074696D657220320000000000FB
:102C0000000053746172742074696D657220330022
:102C100000000000000053746F702074696D6572CD
:102C20002031000000000000000053746F70207419
:102C3000696D6572203200000000000000005374CE
:102C40006F702074696D6572203300000000000011
:102C5000000020003A004368004F7574707574736B
:102C60000054656C656D6574727920756E6D757450
:102C700065640054656C656D65747279206D75745A
:102C80006564003A00436F756E746572003A002007
:102C90006F7574004368003A003A0040D4C8D440CD
:102CA00029002800464D440020505050F8D8F81014
:102CB00030D592D530104482BA925410107FFFFF65
:102CC00080800000408000004080000060800000A4
:102CD0006080000060800000608000006080000074
:102CE00040800000407FFFFF807FFFFF80F80000F2
:102CF00040F8000040F0000060F0000060F00000CC
:102D000060E0000060E0000060C0000040C0000023
:102D1000407FFFFF807FFFFF80C0000040C00000B9
:102D200040E0000060E0000060F0000060F00000A3
:102D300060F0000060F8000040F80000407FFFFFF6
:102D4000804D6F64656C0030003A0030003A002D11
:102D5000002D00560030002E002D0073002E002D97
:102D6000002030F8FCF83020746F3A004D6F766523
:102D70002000436F707920004E6F20646174610001
:102D800030002E002D0043616E277420626520659F
:102D90006D70747900496E636F7272656374207030
:102DA000617373776F726400456E74657220706131
:102DB0007373776F7264000A42617474657279206C
:102DC0006C6F7700152DE92C152DE92C152DBD2CD8
:102DD000BD2C5B4F4B5D20746F20736B697000439B
:102DE0006865636B2073776974636865733A00077D
:102DF00000436865636B207468726F74746C653A25
:102E00000007005741524E494E470004000A001186
:102E100000150024802480404044408020FFE07C56
:102E20003C3E5E2B3D3F2F5B5D3B2C2A225C00002D
:102E30000A141D262F383F474D53585C6062646466
:102E40006462605C58534D473F382F261D140A00BA
:102E5000F6ECE3DAD1C8C1B9B3ADA8A4A09E9C9C9E
:102E60009C9EA0A4A8ADB3B9C1C8D1DAE3ECF6002A
:102E70005EBCE2613FDD83C29C7E20A3FD1F419DBD
:102E8000C3217FFCA2401E5F01E3BD3E6082DC23C4
:102E90007D9FC1421CFEA0E1BF5D0380DE3C62BE9F
:102EA000E0025CDF81633D7C22C09E1D43A1FF46A2
:102EB00018FAA427799BC584DA3866E5BB5907DB85
:102EC000856739BAE406581947A5FB7826C49A6580
:102ED0003BD987045AB8E6A7F91B45C6987A24F867
:102EE000A6441A99C7257B3A6486D85B05E7B98C56
:102EF000D2306EEDB3510F4E10F2AC2F7193CD1155
:102F00004FADF3702ECC92D38D6F31B2EC0E50AF2B
:102F1000F1134DCE90722C6D33D18F0C52B0EE3236
:102F20006C8ED0530DEFB1F0AE4C1291CF2D73CA11
:102F3000947628ABF517490856B4EA6937D58B570C
:102F400009EBB536688AD495CB2977F4AA4816E9F7
:102F5000B7550B88D6346A2B7597C94A14F6A874EE
:102F60002AC896154BA9F7B6E80A54D7896B3505D8
:102F7000000F001E003C002C018403000000002014
:102F8000002300260029002C002F00320000010041
:102F90000003010601090166616C736500747275B6
:102FA00065003A200073002E0066616C7365007442
:102FB000727565003A200020200043616E2774205E
:102FC0006C6F616420686572650001020702070B7F
:102FD000070B0E0B0E0D0E0D080D0804080401045E
:102FE00001020200000000003E5B4F5B3E3E6B4F63
:102FF0006B3E1C3E7C3E1C183C7E3C181C577D578B
:103000001C1C5E7F5E1C00183C1800FFE7C3E7FF36
:103010000018241800FFE7DBE7FF30483A060E26C9
:1030200029792926407F050507407F05253F5A3C21
:10303000E73C5A7F3E1C1C08081C1C3E7F14227F64
:1030400022145F5F005F5F06097F017F006689953C
:103050006A606060606094A2FFA29404027F020430
:1030600010207F201008082A1C08081C2A08081EA7
:10307000101010100C1E0C1E0C30383E3830060E8E
:103080003E0E06000000000000005F000000070088
:103090000700147F147F14242A6B2A122313086458
:1030A0006236495522500000070000001C224100F2
:1030B0000041221C0014083E081408083E080800BD
:1030C0000050300008080808080000606000201068
:1030D0000804023E5149453E44427F40404261510E
:1030E00049462141454B311814127F10274545456B
:1030F000393C4A4949300101790503364949493685
:10310000064949291E000024000000403400000048
:10311000081422411414141414412214080002014A
:103120005109063E4149550E7E1111117E7F4949D4
:1031300049363E414141227F4141221C7F49494954
:10314000417F090909013E415151727F0808087FFA
:1031500000417F41002040413F017F081422417F10
:10316000404040407F020C027F7F0408107F3E41B8
:1031700041413E7F090909063E4151215E7F0919FF
:103180002946264949493201017F01013F4040401B
:103190003F1F2040201F7F2018207F6314081463E6
:1031A00007087008076151494543007F414100020B
:1031B000040810200041417F0004020102048080C5
:1031C000808080800305000020545454787F484458
:1031D00044383844444420384444487F3854545494
:1031E00058087E09090298A4A4A87C7F08040478E2
:1031F00000447D40004080847D007F2010284400F2
:103200003F4040207C041804787C0804047838444B
:10321000444438FC2824241818242428FC7C08045E
:1032200004084854545424043F4444203C40402063
:103230007C1C2040201C3C4030403C44281028444A
:103240009CA0A0A07C4464544C4400083E41410032
:10325000007F000041413E080002010302013C26BC
:1032600023263C1EA1A161123A4040207A385454D2
:103270005559215555794122545478422155547855
:103280004020545579400C1E5272123955555559EB
:10329000395454545939555454580000457C410010
:1032A00002457D420001457C407D1211127DF028CF
:1032B0002528F07C545545002054547C547C0A0940
:1032C0007F4932494949323A4444443A324A4848AB
:1032D000303A4141217A3A42402078009DA0A07DB9
:1032E0003D4242423D3D4040403D3C24FF24244875
:1032F0007E4943662B2FFC2F2BFF0929F620C0881F
:103300007E090320545479410000447D41304848EF
:103310004A32384040227A007A0A0A727D0D193109
:103320007D2629292F28262929292630484D402065
:10333000380808080808080808382F10C8ACBA2F41
:10334000102834FA00007B000008142A14222214EA
:103350002A14085500550055AA55AA55AAFF55FF2D
:1033600055FF000000FF00101010FF00141414FFA0
:10337000001010FF00FF1010F010F0141414FC00E7
:103380001414F700FF0000FF00FF1414F404FC14F1
:103390001417101F10101F101F1414141F001010EA
:1033A00010F0000000001F101010101F101010105F
:1033B000F010000000FF101010101010101010FF7F
:1033C00010000000FF140000FF00FF00001F101796
:1033D0000000FC04F414141710171414F404F4007F
:1033E00000FF00F714141414141414F700F7141445
:1033F00014171410101F101F141414F4141010F0CC
:1034000010F000001F101F0000001F14000000FC3F
:10341000140000F010F01010FF10FF080814080846
:103420001010101F00000000F010FFFFFFFFFFF062
:10343000F0F0F0F0FFFFFF0000000000FFFF0F0FB3
:103440000F0F0F3844443844FC4A4A4A347E020283
:103450000606027E027E0263554941633844443CBD
:1034600004407E201E2006027E020299A5E7A5994F
:103470001C2A492A1C4C7201724C60584658603014
:1034800048784830BC625A463D3E494949007E0171
:1034900001017E2A2A2A2A2A44445F444440514A90
:1034A000444040444A51400000FF0103E080FF00D7
:1034B0000008086B6B083612362436000609060031
:1034C000000018180000001010003040FF0101003B
:1034D0001F01011E00191D1712003C3C3C3C00005E
:1034E00000000000002100240027002A002D0030E9
:1034F00000330001010000040107010A010000225D
:1035000000250028002B002E0031003400020100AD
:1035100000050108010B0105050505070508080858
:1035200008020202020A0A08080404040401010154
:10353000010101010103030303030303030407075C
:10354000070C0C0C0C0C0C0C0C02020202060606FA
:1035500006060606060B0B0B0B0B0B0B0B010210E2
:10356000202008081020401020408002010201089D
:10357000040201010204081020408080402010084D
:1035800004020180040201804020100804020108A6
:103590000402010102040810204080010204081006
:1035A00020408000000A0B02090C0D0E08070304DE
:1035B000010000000000000000000000000000000A
:1035C00000000000000000000000000000000012E9
:1035D00011100000000000000000000000000000CA
:1035E0000000000000000000005F446F776E005F85
:1035F0004D6964005F55700021464D4400464D44BE
:1036000000214C004C00537700215377002D2D00F2
:103610004E6F6E650054696D657200436F756E7410
:1036200065720056697274004368004C0046676515
:103630006E005377005275640059617700456C65E0
:103640000050697463680041696C00526F6C6C00D3
:10365000546872004D6178004B6E6F6242004B6E91
:103660006F62410059340058340059330058330018
:103670005932005832005931005831004E6F6E6592
:10368000004261642073797374656D2064617461B4
:103690002E0A4C6F6164696E672064656661756CA3
:1036A000747300426164206D6F64656C20646174A2
:1036B000612E0A4C6F6164696E672064656661758E
:1036C0006C747300507265706172696E67207374F8
:1036D0006F72616765004D6F64656C206461746131
:1036E00020696E0A45787465726E616C204545509C
:1036F000524F4D0A706F737369626C7920636F72F9
:10370000727570742E0A52657365742069743F0A6D
:103710000A596573205B55705D200A4E6F205B442B
:103720006F776E5D0045787465726E616C204545FB
:1037300050524F4D0A6E6F7420666F726D617474D3
:1037400065642E0A507265737320616E79206B6513
:103750007900507265706172696E672073746F7260
:1037600061676500507265706172696E672073747D
:103770006F72616765004D6F64656C206461746190
:1037800020696E0A496E7465726E616C2045455001
:10379000524F4D0A706F737369626C7920636F7258
:1037A000727570742E0A52657365742069743F0ACD
:1037B0000A596573205B55705D200A4E6F205B448B
:1037C0006F776E5D0053797374656D206461746109
:1037D0000A706F737369626C7920636F72727570AF
:1037E000742E0A52657365742069743F0A0A59651C
:1037F00073205B55705D200A4E6F205B446F776EBF
:103800005D00496E7465726E616C20454550524F83
:103810004D0A6E6F7420666F726D61747465642EEC
:103820000A507265737320616E79206B6579005759
:10383000656C636F6D65005368757474696E67209D
:10384000646F776E007D0000002000B80710004D07
:103850000A08006F0F1000000000000000000000C8
:103860000000000000000000000000000000000058
:103870000000000000000000000000000000000048
:1038800000000000007D0000002000900B10004DA3
:103890000A1000B9091000A9081000B8071000A903
:1038A000081000B90910004D0A1000900B1000001C
:1038B0000000000000000000000000000000000008
:1038C00000000000007D0000002000200610000025
:1038D0000020002D08100000000000000000000083
:1038E00000000000000000000000000000000000D8
:1038F00000000000000000000000000000000000C8
:1039000000000000007D0000002000E00610004DD7
:103910000A1000A9081000000000000000000000CC
:103920000000000000000000000000000000000097
:103930000000000000000000000000000000000087
:1039400000000000007D0000002000FA0C0800A923
:10395000080800FA0C0800A9080800000000000090
:103960000000000000000000000000000000000057
:103970000000000000000000000000000000000047
:103980000000000000FA00910E10004B006E0220B3
:103990000010032000A403200097041000A00000E2
:1039A0000008000B021000930210007800000008CD
:1039B00000D20104005A00000008000B0220008819
:1039C0000120000B022000FA004B021000D2000080
:1039D000001000B807100000001000B8070800220F
:1039E000011704040000002000A4030400000020CC
:1039F000001003040078000000100093020800503B
:103A00006C65617365207761697400004E01112453
:103A10001FBECFEFD1E2DEBFCDBF00E00CBF13E091
:103A2000A0E0B2E0E0EDFDEB03E00BBF02C00790C9
:103A30000D92AC34B107D9F72EE1ACE4B3E001C08C
:103A40001D92A139B207E1F71DE1C7E0DDE100E019
:103A500006C021970109802FFE010F943CDEC6307D
:103A6000D10780E00807A9F70F941FA60D94E6DEA2
:103A70000C9400002F923F924F925F926F927F9230
:103A80008F929F92AF92BF92CF92DF92EF92FF926E
:103A90000F931F93CF93DF93CDB7DEB7C55CD109EA
:103AA0000FB6F894DEBF0FBECDBF8091811788237B
:103AB00021F080917D1781110FC307E51BE0C455EC
:103AC000DF4F19830883CC5AD04011E3E12E15E073
:103AD000F12E0CEA13E0CA55DF4F19830883C65A4A
:103AE000D04008E5A02E03E0B02E8CE4C82E83E081
:103AF000D82E07EA13E0C655DF4F19830883CA5A48
:103B0000D04094EA892E93E0992E180107E51BE036
:103B1000CB55DF4F1882C55AD040D80155968C91AD
:103B2000882309F416C2F40110820F94DB7B811103
:103B300015C2F70180819181A281B381F501808353
:103B40009183A283B3830E946FF3D6016D937D931B
:103B50008D939C931397F1011082D80156968C9106
:103B6000811122C2F8012789222339F130E0A0E631
:103B7000BAEE0F948ADCD7014D905D906D907C90E9
:103B8000641575058605970560F49B01AC012C5002
:103B90003E4F4F4F5F4F421653066406750608F4BA
:103BA00015C2461657066806790638F4CA55DF4F1F
:103BB000A881B981C65AD0401C92F801808D882313
:103BC00009F4FFC1F70180819181A281B381F801DD
:103BD000818F928FA38FB48FCB55DF4FB881C55A99
:103BE000D040BF5FCB55DF4FB883C55AD040015F8F
:103BF0001F4FE4E0EE0EF11CCA55DF4F28813981DA
:103C0000C65AD0402F5F3F4FCA55DF4F39832883B4
:103C1000C65AD04034E0A30EB11C44E0C40ED11CFF
:103C20005FEF251A350A6FEF861A960AB33009F04E
:103C300074CF0F94286FE6EBF4E086E0DF011D926D
:103C40008A95E9F720919508309196082F3FBFE7B4
:103C50003B0711F110914D141123F1F0A09147147D
:103C6000B09148140F9444DE24E630E040E050E088
:103C70000F9436DC80914A1490914B14092E000C5D
:103C8000AA0BBB0B820F931FA41FB51F113009F4A1
:103C90002BC4123009F44AC4209197083091980837
:103CA0002F3FEFE73E0711F1109169141123F1F056
:103CB000A0916314B09164140F9444DE24E630E0C4
:103CC00040E050E00F9436DC8091661490916714C8
:103CD000092E000CAA0BBB0B820F931FA41FB51F4C
:103CE000113009F4F0C3123009F432C4209199085C
:103CF00030919A082F3FFFE73F0711F1109185148B
:103D00001123F1F0A0917F14B09180140F9444DE40
:103D100024E630E040E050E00F9436DC80918214DD
:103D200090918314092E000CAA0BBB0B820F931FDA
:103D3000A41FB51F113009F4E8C3123009F41AC4E6
:103D400020919B0830919C082F3F0FE7300711F11D
:103D50001091A1141123F1F0A0919B14B0919C1427
:103D60000F9444DE24E630E040E050E00F9436DC6F
:103D700080919E1490919F14092E000CAA0BBB0BEE
:103D8000820F931FA41FB51F113009F469C31230AD
:103D900009F402C420919D0830919E082F3F1FE72F
:103DA000310711F11091BD141123F1F0A091B71456
:103DB000B091B8140F9444DE24E630E040E050E0C7
:103DC0000F9436DC8091BA149091BB14092E000C2C
:103DD000AA0BBB0B820F931FA41FB51F113009F450
:103DE00050C3123009F4EAC320919F083091A00813
:103DF0002F3F4FE7340789F11091D914112369F14E
:103E0000A091D314B091D4140F9444DE24E630E092
:103E100040E050E00F9436DC8091D6149091D71496
:103E2000092E000CAA0BBB0B820F931FA41FB51FFA
:103E3000113009F437C3123081F44091DA145091F3
:103E4000DB14052E000C660B770B84179507A6076D
:103E5000B7071CF481E08093BB048091B6048130E5
:103E600009F400C28091B4038111C0C01092BA035A
:103E700090E08091B704813009F4CEC08091B50301
:103E8000811112C21092BB038091B804813009F4F1
:103E9000D7C08091B6038111F6C11092BC03809106
:103EA000B904813009F4E0C08091B70381111EC2CA
:103EB0001092BD038091BA04813009F4E9C0809169
:103EC000B803811102C21092BE038091BB048130FD
:103ED00009F4F2C08091B903811119C21092BF0395
:103EE000911126C28091BB03811122C28091BC0333
:103EF00081111EC28091BD0381111AC28091BE033F
:103F0000811116C28091BF03811112C21092B303B6
:103F10000F94848900912305002309F4FBC0CB533F
:103F2000DF4F0FB6F894DEBF0FBECDBFDF91CF914C
:103F30001F910F91FF90EF90DF90CF90BF90AF90C7
:103F40009F908F907F906F905F904F903F902F90B9
:103F50000895D4018C91882309F4EBCDD5014D90BF
:103F60005D906D907C900E946FF3AB01BC01F601F7
:103F700080819181A281B381481A590A6A0A7B0A19
:103F8000D301C201840F951FA61FB71FF7018083BD
:103F90009183A283B383E1E0D101EC93D8015696DB
:103FA0008C91882309F4DECD0F94DB7B882309F400
:103FB000D9CDCB55DF4F8881C55AD0400F940371BE
:103FC000D1CD118E128E138E148E06CECA55DF4FB0
:103FD000E881F981C65AD04020812111E2CDDF016C
:103FE000F3E0F0931D17E1E0EC93E7CD815080936F
:103FF000B403882309F43ACF9091BA03873908F4BF
:1040000038CF911136CF81E08093BA0391E080914F
:10401000B704813009F032CF8091BB03811134CFD6
:104020008091B5038F5F8093B503873908F42CCF57
:1040300081E08093BB038091B804813009F029CFDF
:104040008091BC0381112BCF8091B6038F5F809349
:10405000B603873908F423CF81E08093BC038091B5
:10406000B904813009F020CF8091BD03811122CFA6
:104070008091B7038F5F8093B703873908F41ACF15
:1040800081E08093BD038091BA04813009F017CF9D
:104090008091BE03811119CF8091B8038F5F809307
:1040A000B803873908F411CF81E08093BE03809173
:1040B000BB04813009F00ECF8091BF03811110CF76
:1040C0008091B9038F5F8093B903873908F408CFD3
:1040D00081E08093BF0304CF8091400981110BC020
:1040E00080913F099FEF980F923010F40C94D358B1
:1040F000833009F486C28091B504882309F4DDCCAD
:1041000080910205833009F0D8CC1092B50410924A
:104110000205D3CC81E08093D9199091BD049136EA
:1041200008F435C19093BC041092BD0480932F0213
:104130001092F00480932D0280932E028FEF8093D3
:104140002C020F947A8980913602882311F40C9402
:10415000515680911E1790910C02891711F40C94FE
:10416000405680930C0281E08093D8031FEF109398
:10417000D5031093D6031093D703809176120F9432
:10418000DB7B8093CB03809185120F94DB7B809344
:10419000CC03809194120F94DB7B8093CD038091AC
:1041A000A3120F94DB7B8093CE038091B2120F9405
:1041B000DB7B8093CF038091C1120F94DB7B8093D4
:1041C000D0038091D0120F94DB7B8093D103809138
:1041D000DF120F94DB7B8093D2038091EE120F9459
:1041E000DB7B8093D3038091FD120F94DB7B809364
:1041F000D40310930B02B12C8091D6038F3F09F0AA
:10420000B3948091D7038F3F09F0B39466E7E62E0D
:1042100062E1F62E7BECC72E73E0D72E10E0AA24C5
:10422000A39416C00023D9F0F6018081811105C046
:10423000A082F3E0BF120C9426561F5FBFE0EB0E86
:10424000F11CEFEFCE1ADE0A1A3011F40C9465550A
:10425000D7010C91802F0F94DB7B8111E3CFD60126
:104260001C92EBCF9091BA03911103CE8091B403CD
:104270008F5F8093B403873908F4FBCD81E080938E
:10428000BA0391E0C4CE81508093B603882309F429
:1042900004CE873908F403CE8091BC038111FFCD91
:1042A00081E08093BC03DBCE81508093B5038823EB
:1042B00009F4E8CD873908F4E7CD8091BB0381117B
:1042C000E3CD81E08093BB03B6CE81508093B803E9
:1042D000882309F4F8CD873908F4F7CD8091BE031F
:1042E0008111F3CD81E08093BE03E1CE81508093B4
:1042F000B703882309F4DCCD873908F4DBCD80913E
:10430000BD038111D7CD81E08093BD03BCCE815028
:104310008093B903882309F4E1CD873908F4E0CD0F
:104320008091BF038111DCCD81E08093BF03D8CDA4
:104330008091B303882309F453C16091971770915A
:1043400098178091991790919A1721E02093B303C1
:104350000091AF031091B0032091B1033091B203EB
:10436000601B710B820B930B2AEF30E040E050E0B2
:104370000F9468DC672B682B692B09F0C9CD8091FD
:10438000B0048111C5CD85E080931D17C1CDE92F03
:10439000F0E08827E153FE4D8F4F0D943CDE5044F2
:1043A0009E432051C8298A4E4B4E4B4E454E0C4ED3
:1043B000934FED4E303FE13E9C5040501050994F8E
:1043C0005F52F3502452D53FFB51D2517F482F47C3
:1043D000D74B224B713332333233CE42A542644342
:1043E00064436342BE40704042400240A04C9A4643
:1043F0003643FC426B3EFA3D4E3CF13B6331832F2A
:104400009D31472E552F1B2F3C2D222D3C30BF2E8A
:104410000D2E652D802CA52BBB3F112B1E28CC27E4
:104420009427FA26D5327429CE265426A634813410
:1044300058341E3486372D357F251C25AE38743808
:104440002A3AFF376F395D392D3B662A1E371E37F2
:104450009236B438093681242524D82365230C23C9
:104460004091A2145091A314052E000C660B770BFB
:10447000481759076A077B070CF08CCC1093B904D6
:1044800089CC4091BE145091BF14052E000C660BD0
:10449000770B481759076A077B070CF0A5CC1093D8
:1044A000BA04A2CC4091DA145091DB14052E000C12
:1044B000660B770B481759076A077B070CF0CDCCC2
:1044C0001093BB04CACC40916A1450916B14052E12
:1044D000000C660B770B481759076A077B070CF02F
:1044E00005CC1093B70402CC40914E1450914F1458
:1044F000052E000C660B770B481759076A077B07D8
:104500000CF0CACB1093B604C7CB409186145091DF
:104510008714052E000C660B770B481759076A079E
:104520007B070CF00DCC1093B8040ACC40914E14CC
:1045300050914F14052E000C660B770B84179507CE
:10454000A607B7070CF0A8CB81E08093B604A4CBF4
:1045500040916A1450916B14052E000C660B770B7A
:1045600084179507A607B7070CF0C0CB81E08093AE
:10457000B704BCCB4091861450918714052E000CD3
:10458000660B770B84179507A607B7070CF0D8CBF7
:1045900081E08093B804D4CB4091A2145091A3142D
:1045A000052E000C660B770B84179507A607B70737
:1045B0000CF0F0CB81E08093B904ECCB4091BE14B9
:1045C0005091BF14052E000C660B770B84179507CE
:1045D000A607B7070CF008CC81E08093BA0404CC9E
:1045E00060919717709198178091991790919A17E9
:1045F0006093AF037093B0038093B1039093B203C1
:10460000A4CE8091BD0481110C94E15810929117B1
:1046100081E08093B50474CD8091DB03811107C0E4
:1046200081E08093DB031092DA031092D903C090EB
:10463000D903D090DA03F12C54E1E52E0F2D000FB1
:10464000000F000F0C5F2091E1033091E20310E0B6
:104650002DC0111102C08032A1F18A3011F40C94E6
:10466000AD5FF6013197E20FF31FE491E03211F4F0
:104670000C94F357C114D10411F40C94F357912FF7
:10468000990F910F990F9F5F9093D0190093D119B3
:104690000F94BF3AFFEFCF1ADF0A1F5F153111F4F5
:1046A0000C941C582091E1033091E203A9014C0DB8
:1046B0005D1DFA018491882311F40C94A4598D3066
:1046C00041F6FFEFCF1ADF0AE9CF1092D919009116
:1046D000DE031091DF030115110511F40C9480A580
:1046E000F80185A1813011F40C9410A610F40C94FB
:1046F0008EA58230C9F563E28EE00F94BB5B11E1B9
:104700001093D01982E18093D11981E49DE00F9438
:104710002E4A1093D0198CE18093D11987E39DE044
:104720000F942E4AE091DE03F091DF03828D938D8A
:104730000F9451541093D01986E28093D1198DE2D1
:104740009DE00F942E4A8091DC039091DD030F943D
:10475000515480910205813039F4E091DE03F091EB
:10476000DF0315A20F947A8910919217113009F086
:10477000EACC8091DE039091DF030F945BDA109214
:10478000DF031092DE038091BD048093BC0488E0B7
:104790008093BD0410932F021092F00410932D0209
:1047A00010932E028FEF80932C020F947A89CBCC3A
:1047B0008CEE99E20F94111F83EB9FE00F948627F4
:1047C000EE24E39403E025E040EB5FE06DE38DE34E
:1047D0000F94B74480910205833011F40C9461A5C5
:1047E000813011F40C94D0840E946FF300919B17D8
:1047F00010919C1720919D1730919E17601B710B93
:10480000820B930B653F71408105910510F010926A
:10481000E00380919217813009F095CC1092E0036B
:104820009091BD049093BC0498E09093BD04809354
:104830002F021092F00480932D0280932E028FEFAE
:1048400080932C020F947A897ECC8091F0038111A1
:104850000FC081E08093F0030E946FF36093EC033C
:104860007093ED038093EE039093EF03109218087A
:1048700083EA90E10F94862780918617882329F098
:104880008091D119845F0F94F05B1091180811305A
:1048900011F40C94AA8C123011F40C9479860E94B5
:1048A0006FF30091EC031091ED032091EE03309132
:1048B000EF03601B710B820B930B69387341810509
:1048C000910508F440CC70E060E08DE790E10F9432
:1048D000C65B8091BD048093BC048BE58093BD04CE
:1048E00081E080932F021092F00480932D02809338
:1048F0002E028FEF80932C020F947A891092F0038E
:1049000022CC8091EB03811111C01092EA030E9426
:104910006FF36093E6037093E7038093E80390934B
:10492000E9031092160881E08093EB038091EA037B
:10493000882311F40C947F84823011F40C949D9E92
:10494000813009F000CC8EE190E10F9486278091B0
:104950008617882329F08091D119845F0F94F05B2A
:104960008091E503811105C081E080935508809313
:10497000E50380911708882359F1813041F470E0F4
:1049800060E080E190E10F94C65B8091170882306F
:1049900031F470E060E083E090E10F94C65B109228
:1049A000EB031092E5038091BD048093BC048BE57A
:1049B0008093BD0481E080932F021092F0048093D5
:1049C0002D0280932E028FEF80932C020F947A8910
:1049D0000E946FF30091E6031091E7032091E80332
:1049E0003091E903601B710B820B930B653C79409E
:1049F0008105910508F4A7CB70E060E087EF9FE0A8
:104A00000F94C65B1092EB031092E5038091BD04F6
:104A10008093BC048BE58093BD0481E080932F02DA
:104A20001092F00480932D0280932E028FEF8093DA
:104A30002C020F947A8987CB83E296E10F94111FA1
:104A4000198281E08A8392E09B8393E09C8394E0C7
:104A50009D8395E09E8396E09F8397E09887909151
:104A6000020491110C94558480932F0280930104C9
:104A7000809302048091F004882311F40C945984EB
:104A800080910205813011F40C945A9C19E0F12CAC
:104A9000E12CBE016F5F7F4F1B0120910104A091AB
:104AA0002F02C701820F911DA817190611F40C944B
:104AB0003B5EF101EE0DFF1DE20FF11D3197E0812C
:104AC000AC0FBD2FB11D8C910091F0048E1300E04E
:104AD0001092D0191093D119E83010F00C9415549D
:104AE000F0E08827E958FA4D8F4F0D943CDE395598
:104AF000E9549B5473544B54FF53C35411558FE0E6
:104B000096E10F94111F1092D01989E08093D1196A
:104B100084E795E10F942E4A80917D1748E656E28E
:104B2000811102C041E656E227E069E08EE40F946D
:104B3000574580917D17882309F474C08091F00453
:104B4000882311F40C94559C1092D01902E1009323
:104B5000D11988E695E10F942E4A1EE41093D019DE
:104B60000093D1194AE050E060917E1788EC99E1FA
:104B70000E94BCF386E695E10F942E4A1092D0195C
:104B80000BE10093D1198DE595E10F942E4A109316
:104B9000D0190093D11960917F170AE0609FB0018E
:104BA0001124695E7A4E40E250E083E095E00F9474
:104BB0009BDB83E095E00F9494471092D019E4E2D8
:104BC000FE2EF092D1198EE095E10F942E4A1093AB
:104BD000D019F092D11960918017609FB001112413
:104BE00066507B4E40E250E083E095E00F949BDB03
:104BF00083E095E00F9494471092D0198DE2809352
:104C0000D1198EEE94E10F942E4A8091811748E6D7
:104C100056E2811102C041E656E227E06DE28EE4E1
:104C20000F94574580910205813011F40C94018D49
:104C300080912F02682F660F660F660F680F86E45B
:104C40000F94681F80912F02813011F40C94EE8C28
:104C5000823011F40C94DF8C833011F40C94D08CDE
:104C6000843011F40C94188D853011F40C94058D5A
:104C700010919217113009F066CA0F943A8F809103
:104C8000BD048093BC048AE48093BD0410932F027A
:104C90001092F00410932D0210932E028FEF809348
:104CA0002C020F947A894FCA8CEF97E19093D0042D
:104CB0008093CF041092BF0480EF97E19093D204C9
:104CC0008093D104FF24F394F092C00484EE97E122
:104CD0009093D4048093D30412E0E12EE092C104B7
:104CE00087ED97E19093D6048093D50484E0809378
:104CF000C20482ED97E19093D8048093D70483E0B7
:104D00008093C30485E08093EF040F94600E1091AC
:104D10002C02112311F40C940E84113011F40C9414
:104D2000A89C123011F40C94369D133011F40C949D
:104D3000F09C143011F40C940F9C1F3FA9F080914B
:104D4000BD048093BC0482E48093BD0481E0809321
:104D50002F021092F00480932D0280932E028FEF89
:104D600080932C020F947A8980919217813009F0F8
:104D7000EAC99091BD049093BC0492E49093BD0461
:104D800080932F021092F00480932D0280932E02C4
:104D90008FEF80932C020F947A89D5C911E010937C
:104DA000BE04609107048CE1689FB0011124685C27
:104DB0007B4EE12C01E020E049E088E098E10F948F
:104DC0005C0F8091BE048111BEC98091BD048093A7
:104DD000BC0488E48093BD0410932F021092F00469
:104DE00010932D0210932E028FEF80932C020F94BC
:104DF0007A89A9C980EB99E20F94111F8091080468
:104E0000811108C0809107048F5F80932F0281E099
:104E1000809308048091F004811103C086E00F9410
:104E20004B0E80912F0220911602821718F4809366
:104E30001602282F682F70E0422F50E04B5F5F4F23
:104E40004617570774F42F5F01C0292F91E0920F86
:104E5000422F50E04B5F5F4F46175707B4F3209344
:104E600016029AE0D92EF12CE12C3CE1B32E40E160
:104E7000C42E43C001E00093D019D092D1194AE06A
:104E800050E0612F88EC99E10E94BCF30093D219A5
:104E90001150812E912C1B9DC00111249C01285C76
:104EA0003B4E3901C9010F94AC2D811117C0C0923E
:104EB000D019D092D119C3010F94944789E298E197
:104EC0000F942E4AF401EE0FFF1FEB56F74F20818F
:104ED0003181412F6D2D89E40F945E173FEFE31A66
:104EE000F30A49E0D40E80912F0256E0E516F10452
:104EF00011F40C94125E20911602122F1E0D2E0D2D
:104F00003F2D311D8217130609F0B4CF47E01A3048
:104F100008F04DE001E029E06FEF6D0D80E00F94A7
:104F2000983F1092D219A6CF81E08093F00480912F
:104F30000A0402E021E049E050E070E060E090E027
:104F40000F94857280930A0421E0482F60910F042A
:104F50008CEB98E10F94BF1F80910205813011F412
:104F60000C94B89B80919217813009F0ECC8909115
:104F7000BD049093BC049FE39093BD0480932F02E3
:104F80001092F00480932D0280932E028FEF809375
:104F90002C020F947A89D7C88DEC98E19093D004B5
:104FA0008093CF041092BF048EEB98E19093D204CB
:104FB0008093D10401E00093C00482E08093EF0469
:104FC0000F94600E10912C0211111AC080910F04E1
:104FD00080930A048091BD048093BC0481E4809393
:104FE000BD0400932F021092F00400932D02009351
:104FF0002E028FEF80932C020F947A8910912C024D
:10500000113011F40C94E39B80919217813009F0D8
:105010009AC89091BD049093BC049FE39093BD0403
:1050200080932F021092F00480932D0280932E0221
:105030008FEF80932C020F947A8985C810910F040A
:10504000E12EF12C8091BE0481110C94F1848091A9
:105050000E0481110EC08FE08E9DF0018F9DF00D2A
:105060001124EA58FD4E808180930D0481E08093E5
:105070000E048FEA91E20F94111F88E08093D019FB
:1050800089E08093D1198CEE98E10F942E4A80919B
:105090000F0490E001960F9451542091D01929509B
:1050A00001E041E168E088EC99E10F949884109266
:1050B000D01964E1D62ED092D11984EE98E10F94E4
:1050C0002E4A06E30093D019D092D11940E26091A4
:1050D0000D0483E095E00F943E9083E095E00F94FB
:1050E00094471092D0197DE1D72ED092D1198EED30
:1050F00098E10F942E4A0093D019D092D11988E3E9
:1051000093E00F949447EFE0DE2EDE9CF001DF9CED
:10511000F00D1124E958FD4E80818A50990B0F94AF
:1051200051541092D019F6E2CF2EC092D11988EDC9
:1051300098E10F942E4A0093D019C092D1191D9D69
:10514000F0011124E858FD4E8081882309F453C0F2
:10515000803211F00C94CE788181882309F44BC001
:10516000803211F00C94CE788281882309F443C0F8
:10517000803211F00C94CE7883818823E1F1803263
:1051800011F00C94CE7884818823A9F1803211F03B
:105190000C94CE788581882371F1803211F00C94C3
:1051A000CE788681882339F1803211F00C94CE7844
:1051B0008781882301F1803211F00C94CE788085AC
:1051C0008823C9F0803211F00C94CE788185882331
:1051D00091F0803211F00C94CE788285882359F0BA
:1051E000803211F00C94CE788385882321F08032B0
:1051F00011F00C94CE7885ED98E10F942E4A8091B1
:105200002F02813011F40C94E88F853010F40C9447
:10521000DD8F00E027E048E060E088E70F94983FEA
:1052200080912F0245E35AE2853011F04EE25AE2B6
:1052300028E060E088E70F9457458091F0048823C8
:1052400011F40C94859780910205813011F40C942F
:10525000819780912F02813011F40C946A978230EB
:1052600011F40C945D97833011F40C94AF72843078
:1052700011F40C94B994853011F40C94F09480914D
:10528000F004882311F40C94F47280913F09882370
:1052900011F40C94278D80919217813011F00C94A9
:1052A000A3209091BD049093BC0496E29093BD041A
:1052B00080932F021092F00480932D0280932E028F
:1052C0008FEF80932C020F947A898FE08E9DF001EE
:1052D0008F9DF00D1124EA58FD4E80910D048083BE
:1052E00010920E040C94A3208EE198E19093D004C8
:1052F0008093CF041092BF0484E198E19093D2048C
:105300008093D10401E00093C00482E08093EF0415
:105310000F94600E10912C0211111AC08091070495
:105320000F94E6928091BD048093BC0485E4809341
:10533000BD0400932F021092F00400932D020093FD
:105340002E028FEF80932C020F947A8910912C02F9
:10535000113011F40C94FDCB80919217813011F033
:105360000C94A3209091BD049093BC0492E490937C
:10537000BD0480932F021092F00480932D0280933D
:105380002E028FEF80932C020F947A890C94A32025
:1053900088E89BE20F94111FF090AD048F2C912CA4
:1053A00088E08093D01989E08093D11981E89BE24D
:1053B0000F942E4A8091AD0490E001960F945154C1
:1053C0002091D019295001E041E168E088EC99E191
:1053D0000F9498848401000F111F000F111F000FFC
:1053E000111FC80188199909895A944FFC01E75780
:1053F000F64F20813DEF320F323010F40C94C67816
:10540000222311F40C947C72B7E0FB9EF00111246E
:10541000EE51FB4E808181110C94657221961FAE76
:10542000219781E022968FAF229782E023968FAF5B
:10543000239743E0A42EB2E04B2E4A0CCC54DF4F0E
:105440004882C45BD0408091F004811103C0842D58
:105450000F944B0E80910205813011F40C943E8D17
:1054600080912F02813011F40C946C6FCC54DF4F7B
:105470005880C45BD040851511F40C946C6F9091EA
:105480002802823010F40C946F6F981720F09FEF71
:10549000980F90932802482F50E0292F30E02B5F7F
:1054A0003F4F2417350714F00C946F6F9F5F01C0B6
:1054B000962F61E0690F292F30E02B5F3F4F2417B3
:1054C0003507B4F3909328020C946F6F88E694E14B
:1054D0000F94111F81E0809357089091FF07198264
:1054E0008A8382E08B8383E08C8384E08D8385E0F4
:1054F0008E8386E08F8387E0888788E0898789E0CC
:105500008A878AE08B87992311F40C9479758BE054
:105510008C878CE08D871DE0F12E8091F80381113E
:1055200007C081E08093F7038093F6038093F8032C
:105530008091F70380932F029091F004992311F446
:105540000C942B5980912F02682F70E0FE01E60F1A
:10555000F71F2081253091F32091F603821718F46C
:105560008093F603282F422F50E04B5F5F4F461782
:10557000570774F42F5F01C0292F91E0920F422F3B
:1055800050E04B5F5F4F46175707B4F32093F60385
:105590008093F70319E0D12CC12CAE014F5F5F4F10
:1055A0001A0198E0492E38E4E32E5E0150E4A50E7E
:1055B000B11C4AE5542E99249A9459E5652E68E564
:1055C000762EA601420F511D8417150611F40C9476
:1055D000945BF101EC0DFD1DE20FF11D31979081FF
:1055E000FE01E80FF11D00814092D0191093D119EE
:1055F0009D3010F00C94C658E92FF0E08827EC5F3E
:10560000F44D8F4F0D943CDEEB825C834683B98270
:105610009B82CB8291588978697829820682D682CA
:105620000B831092EF04E09112048E2F90E00FE0B4
:10563000E09FF0011124E95AF44F2589211113C08C
:10564000FC01E955FC4F8081882311F40C94ABAB2D
:1056500087EA99E19093D0048093CF041092BF041D
:1056600081E08093EF042091EF04822F90E0FC0111
:10567000EE0FFF1FE153FB4F4FE859E15183408389
:1056800081549B4F01E0DC010C9381E0820F90E09C
:10569000FC01EE0FFF1FE153FB4F40E859E151833E
:1056A000408381549B4F32E0FC0130832E5F209376
:1056B000EF040F94600E10912C02111122C0809102
:1056C000120490E0FC01EC55FC4F89559C4FDC0125
:1056D0008C91802780838091BD048093BC048DE3EE
:1056E0008093BD0400932F021092F00400932D02CA
:1056F00000932E028FEF80932C020F947A891091E1
:105700002C02113011F40C94B4AA123011F40C9440
:1057100088AA80919217813011F00C94A320909167
:10572000BD049093BC049DE39093BD0480932F022D
:105730001092F00480932D0280932E028FEF8093BD
:105740002C020F947A890C94A32083EC91E20F949D
:10575000111F8091600B823011F40C94F7A3198211
:1057600080916017E1E0882319F081E08A83E2E00C
:1057700080916117882339F0DE01AE0FB11D82E000
:1057800011968C93EF5F80916217882339F0DE01C8
:10579000AE0FB11D83E011968C93EF5F809163177C
:1057A000882339F0DE01AE0FB11D84E011968C9391
:1057B000EF5F80916417882339F0DE01AE0FB11DD1
:1057C00085E011968C93EF5F80916517882339F0FF
:1057D000DE01AE0FB11D86E011968C93EF5F8091D4
:1057E0006617882339F0DE01AE0FB11D87E01196F0
:1057F0008C93EF5F809167171E2F882339F011E09B
:105800001E0FEC0FFD2FF11D88E0818380911104A4
:1058100081110C942B7481E080932F0280931004EB
:10582000809311048091F004882311F40C942F7458
:1058300080910205813011F40C94F3A3112309F433
:1058400043C0B9E09B2EF12CE12C9E012F5F3F4F0E
:10585000190108E4802EB12E80912F02E0911004EE
:1058600097012E0F311D8217130611F40C94595A0B
:1058700091012E0D3F1DE20FF32FF11D3197108185
:10588000FE01E80FF11D8081A090F0048113A12C8E
:105890001092D0199092D119112311F40C94E75958
:1058A0000FEF010F083010F40C941B5AE5E0EE16D0
:1058B000F10411F40C94DC78FFEFEF1AFF0A89E091
:1058C000482E940CEB1440F280919217813011F025
:1058D0000C94A3209091BD049093BC0496E2909305
:1058E000BD0480932F021092F00480932D028093C8
:1058F0002E028FEF80932C020F947A890C94A320B0
:1059000087ED91E20F94111F85E021968FAF2197CB
:1059100086E022968FAF229787E023968FAF23975A
:1059200088E024968FAF2497E5E5F2E08E010F5FC3
:105930001F4F1801D80101900D928A95E1F79E0141
:10594000205C3F4F7901680119E002E41092D01900
:105950001093D119D7016D917D0140E283E095E06C
:105960000F94E19083E095E00F94944785EB98E1E4
:105970000F942E4A0093D0191093D119D601ED91AE
:10598000FD916D0160818DE598E10F94E97A0F94A6
:105990009447175F1D32D1F68091F004811103C046
:1059A00084E00F944B0E80910205813011F40C9429
:1059B00084AA80912F02682F660F660F660F680F0A
:1059C0008AE30F94681F8091F0048823F9F0E09037
:1059D0002F02EA94F12CEE0CFF1CE20CF31C02C027
:1059E0008230A1F4F701C080D180D6018C9102E011
:1059F00021E042E050E070E060E090E00F948572BA
:105A0000F60180839091600B923051F38091921750
:105A1000813011F00C94A3209091BD049093BC04AC
:105A200096E29093BD0480932F021092F00480932D
:105A30002D0280932E028FEF80932C020F947A898F
:105A40000C94A32010910904E12EF12C8091BE0446
:105A5000882311F40C940A79FDE01F9FB0011124F2
:105A6000645D7D4EE12C01E021E047E08DE498E1AA
:105A70000F945C0F0C94A32082EF99E10F9486277A
:105A800080910205823011F40C948CA4833031F0A3
:105A900080919217813011F00C94A3208091BD0465
:105AA0008093BC0481E38093BD0481E080932F0246
:105AB0001092F00480932D0280932E028FEF80933A
:105AC0002C020F947A890C94A3201092D91984EF98
:105AD0009AE10F94111F8091150481110DC08091DE
