:100000000C94B5100C94E6100C94E6100C94E610C9
:100010000C94E6100C94E6100C94E6100C94E61088
:100020000C94E6100C94E6100C94E6100C94E61078
:100030000C94E6100C9453460C94E6100C94E610C5
:100040000C94E6100C94E6100C94E6100C94E61058
:100050000C94E6100C94E6100C94E6100C941347E4
:100060000C94E6100C94E6100C94E6100C94E61038
:100070000C94E6100C94E6100C94E6100C94E61028
:100080000C94E6100C94E6100C94E6100C94E61018
:100090000C94DD460C94B3460C94E6100C94E610D8
:1000A0000C94E6100C94E6100C94E6100C94E610F8
:1000B0000C94E6100C94E6100C94E6100C94E610E8
:1000C0000C94E6100C94E6100C94E6100C94E610D8
:1000D0000C94E6100C94E6100C94E6100C94E610C8
:1000E0000C94E6100C94FA360C9423610C94DF21E6
:1000F0000C94C2140C94C3360C9471750C94105269
:100100000C94CF6D0C9404630C94F9450C945478C2
:100110000C9425290C941B770C94B4360C94E63679
:100120000C9464150C941F590C94DF450C940C141A
:100130000C943E4F0C94BC450C941B140C94E55845
:100140000C946C150C94EA710C945F600C9430461E
:100150000C943C6D0C9476150C948B780C94BE62C8
:100160000C9444460C94DC360C943A570C94306E44
:100170000C94ED6D0C9403460C943B150C945A159D
:100180000C94C74E0C94706E0C94F1360C944F1A6C
:100190000C94451A0C9482570C94AD580C94AF6192
:1001A0000C94FA780C94CB450C94CE270C94D8215F
:1001B0000C9446150C94C8360C94E7760C942F14C6
:1001C0000C941C240C94CD570C94E1620C94607038
:1001D0000C940F6E0C94FA7B0C948A490C94416237
:1001E0000C944E460C943A460C94A56D0C94CE2972
:1001F0000C9471150C9453580C9495360C94371537
:100200000C9409590C942E560C94646D0C94501552
:100210000C94EA770C943B1A0C945E1A0C9483624B
:100220000C94D5450C94E4550C94591A0C941F75F4
:100230000C9431150C940B780C94EF450C94B74545
:100240000C948B250C9456660C9403610C946D5F92
:100250000C944C150C94BE360C94E1360C94954BD2
:100260000C94A6770C94B9360C94401A0C946761E0
:100270000C94D06B0C94B9760C94EE6C0C944A1AD6
:100280000C9443150C94A2660C94541A0C94751497
:100290000C943A580C941C460C9463730C94587448
:1002A0000C94DF130C945F760C943D770C94987645
:1002B0000C94C1450C9472150C94D97A0C948277E5
:1002C0000C9426460C94BC570C9485260C94561519
:1002D0000C94D7610C946D7C0C943D750C94CD29D5
:1002E0000C94E4720C943D140C94D2360C941D1AA8
:1002F0000C943F150C940D460C942F680C94E74514
:100300000C94AF360C9423640C9468150C945F63C2
:100310000C945E770C94CD360C9456750C94F17950
:100320000C94AA360C9449610C9425630C947022A9
:100330000C94D7360C945E150C94D2600C948A61A0
:100340000C94C8777FFFFF80800000408000004051
:10035000800000608000006080000060800000601D
:100360008000006080000040800000407FFFFF8030
:100370007FFFFF80F8000040F8000040F0000060C0
:10038000F0000060F0000060E0000060E00000604D
:10039000C0000040C00000407FFFFF807FFFFF8063
:1003A000C0000040C0000040E0000060E0000060CD
:1003B000F0000060F0000060F0000060F800004015
:1003C000F80000407FFFFF80000003800EE00FE098
:1003D0001CF01EF01EF00C600FE003800000000017
:1003E00000003FF0201C38102010385020103FF043
:1003F0000000000000000000200850141FF01FF053
:100400005014200800000000000000000010002030
:10041000021002200300018004E00E001F00000013
:1004200000001E40124012701E0000001EF01290CC
:1004300012901EF0000000001FF0200821882248C2
:100440002228212020901E50003000000000600C67
:100450001390044009200920092004401390600CE7
:10046000000000000FE01010121001103C9001106D
:10047000121010100FE0000000001FF0101017D035
:10048000101017D01050105010101FF00000005E18
:10049000BCE2613FDD83C29C7E20A3FD1F419DC362
:1004A000217FFCA2401E5F01E3BD3E6082DC237D14
:1004B0009FC1421CFEA0E1BF5D0380DE3C62BEE046
:1004C000025CDF81633D7C22C09E1D43A1FF461874
:1004D000FAA427799BC584DA3866E5BB5907DB8522
:1004E0006739BAE406581947A5FB7826C49A653BD4
:1004F000D987045AB8E6A7F91B45C6987A24F8A606
:10050000441A99C7257B3A6486D85B05E7B98CD233
:10051000306EEDB3510F4E10F2AC2F7193CD114FE1
:10052000ADF3702ECC92D38D6F31B2EC0E50AFF193
:10053000134DCE90722C6D33D18F0C52B0EE326CC5
:100540008ED0530DEFB1F0AE4C1291CF2D73CA94F3
:100550007628ABF517490856B4EA6937D58B5709A1
:10056000EBB536688AD495CB2977F4AA4816E9B753
:10057000550B88D6346A2B7597C94A14F6A8742A85
:10058000C896154BA9F7B6E80A54D7896B3542616E
:10059000642073797374656D20646174612E0A4CF4
:1005A0006F6164696E672064656661756C74730061
:1005B000426164206D6F64656C20646174612E0A11
:1005C0004C6F6164696E672064656661756C7473F5
:1005D0000000000000003E5B4F5B3E3E6B4F6B3EF9
:1005E0001C3E7C3E1C183C7E3C181C577D571C1C36
:1005F0005E7F5E1C00183C1800FFE7C3E7FF001891
:10060000241800FFE7DBE7FF30483A060E26297979
:100610002926407F050507407F05253F5A3CE73CDA
:100620005A7F3E1C1C08081C1C3E7F14227F22148B
:100630005F5F005F5F06097F017F006689956A60E2
:100640006060606094A2FFA29404027F0204102004
:100650007F201008082A1C08081C2A08081E1010F1
:1006600010100C1E0C1E0C30383E3830060E3E0E9C
:1006700006000000000000005F0000000700070007
:10068000147F147F14242A6B2A1223130864623601
:10069000495522500000070000001C224100004183
:1006A000221C0014083E081408083E0808000050E8
:1006B00030000808080808000060600020100804E6
:1006C000023E5149453E44427F40404261514946C5
:1006D0002141454B311814127F1027454545393CBF
:1006E0004A494930010179050336494949360649E5
:1006F00049291E00002400000040340000000814B6
:100700002241141414141441221408000201510946
:10071000063E4149550E7E1111117E7F49494936E9
:100720003E414141227F4141221C7F494949417F4D
:10073000090909013E415151727F0808087F0041B3
:100740007F41002040413F017F081422417F40400B
:1007500040407F020C027F7F0408107F3E414141F0
:100760003E7F090909063E4151215E7F091929464C
:10077000264949493201017F01013F4040403F1F66
:100780002040201F7F2018207F631408146307086F
:100790007008076151494543007F41410002040848
:1007A00010200041417F000402010204808080800B
:1007B00080800305000020545454787F4844443816
:1007C0003844444420384444487F385454545808EA
:1007D0007E09090298A4A4A87C7F08040478004438
:1007E0007D40004080847D007F20102844003F40F1
:1007F00040207C041804787C08040478384444447D
:1008000038FC2824241818242428FC7C0804040814
:100810004854545424043F4444203C4040207C1C11
:100820002040201C3C4030403C44281028449CA0E0
:10083000A0A07C4464544C4400083E414100007F29
:10084000000041413E080002010302013C2623262C
:100850003C1EA1A161123A4040207A3854545559A7
:1008600021555579412254547842215554784020DD
:10087000545579400C1E52721239555555593954F8
:1008800054545939555454580000457C4100024590
:100890007D420001457C407D1211127DF028252803
:1008A000F07C545545002054547C547C0A097F49FF
:1008B00032494949323A4444443A324A4848303A43
:1008C0004141217A3A42402078009DA0A07D3D42DE
:1008D00042423D3D4040403D3C24FF2424487E4967
:1008E00043662B2FFC2F2BFF0929F620C0887E0999
:1008F0000320545479410000447D413048484A3235
:10090000384040227A007A0A0A727D0D19317D261C
:1009100029292F28262929292630484D4020380802
:1009200008080808080808382F10C8ACBA2F102883
:1009300034FA00007B000008142A142222142A141E
:10094000085500550055AA55AA55AAFF55FF55FF51
:10095000000000FF00101010FF00141414FF00101E
:1009600010FF00FF1010F010F0141414FC00141409
:10097000F700FF0000FF00FF1414F404FC14141728
:10098000101F10101F101F1414141F00101010F04F
:10099000000000001F101010101F10101010F01099
:1009A000000000FF101010101010101010FF1000A9
:1009B0000000FF140000FF00FF00001F10170000E0
:1009C000FC04F414141710171414F404F40000FFBA
:1009D00000F714141414141414F700F71414141753
:1009E0001410101F101F141414F4141010F010F031
:1009F00000001F101F0000001F14000000FC140066
:100A000000F010F01010FF10FF0808140808101074
:100A1000101F00000000F010FFFFFFFFFFF0F0F0DC
:100A2000F0F0FFFFFF0000000000FFFF0F0F0F0FAF
:100A30000F3844443844FC4A4A4A347E02020606CF
:100A4000027E027E0263554941633844443C0440BF
:100A50007E201E2006027E020299A5E7A5991C2A87
:100A6000492A1C4C7201724C6058465860304878D4
:100A70004830BC625A463D3E494949007E01010169
:100A80007E2A2A2A2A2A44445F444440514A444048
:100A900040444A51400000FF0103E080FF0000088D
:100AA000086B6B0836123624360006090600000073
:100AB00018180000001010003040FF0101001F0155
:100AC000011E00191D1712003C3C3C3C00000000B8
:100AD00000507265706172696E672073746F726125
:100AE000676500507265706172696E672073746F1C
:100AF00072616765004D6F64656C2064617461208C
:100B0000696E0A496E7465726E616C20454550527B
:100B10004F4D0A706F737369626C7920636F7272E4
:100B20007570742E0A52657365742069743F0A0AE1
:100B3000596573205B55705D200A4E6F205B446FD2
:100B4000776E5D0053797374656D20646174610A1A
:100B5000706F737369626C7920636F7272757074F1
:100B60002E0A52657365742069743F0A0A596573C9
:100B7000205B55705D200A4E6F205B446F776E5D81
:100B800000496E7465726E616C20454550524F4D40
:100B90000A6E6F7420666F726D61747465642E0ADC
:100BA000507265737320616E79206B6579005765AB
:100BB0006C636F6D6500FA00910E10004B006E02C1
:100BC000200010032000A403200097041000A000C0
:100BD000000008000B0210009302100078000000D3
:100BE0000800D20104005A00000008000B02200097
:100BF000880120000B022000FA004B021000D200F6
:100C000000001000B807100000001000B80708002E
:100C100022011704040000002000A40304000000C7
:100C20002000100304007800000010009302080068
:100C3000506C656173652077616974000A42617464
:100C400074657279206C6F77009C0370039C03704D
:100C5000039C03440344035B4F4B5D20746F20737C
:100C60006B697000436865636B20737769746368B0
:100C700065733A000700436865636B207468726FA0
:100C800074746C653A0007005741524E494E470054
:100C900004000A00110015002480248040404440D4
:100CA0008020FFE04D6F64656C0030003A0030003A
:100CB0003A002D0073002E002030F8FCF83020FEA2
:100CC0008282828282FEFA868CDAF2A2FE30002EC6
:100CD000002D0000002100240027002A002D0030F4
:100CE00000330001010000040107010A0100002295
:100CF00000250028002B002E0031003400020100E6
:100D000000050108010B0100002000230026002936
:100D1000002C002F00320000010000030106010931
:100D20000105050505070508080808020202020A70
:100D30000A0808040404040101010101010101037E
:100D400003030303030303040707070C0C0C0C0C39
:100D50000C0C0C0202020206060606060606060B2C
:100D60000B0B0B0B0B0B0B010210202008081020A3
:100D70004010204080020102010804020101020427
:100D800008102040808040201008040201800402E6
:100D9000018040201008040201080402010102043D
:100DA0000810204080010204081020408000000A42
:100DB0000B02090C0D0E08070304010000000000DF
:100DC0000000000000000000000000000000000023
:100DD00000000000000000000012111000000000E0
:100DE0000000000000000000000000000000000003
:100DF0000000000200020406070809090A0A0A0A9C
:100E00000A0A0A0A2E000A4657207665723A312EDF
:100E1000300A286329323032322D323032330A42DE
:100E2000756B373435360A0A6769746875622E63E4
:100E30006F6D2F62756B37343536005365636F6E97
:100E4000646172792072637672004D61696E2072FE
:100E5000637672005B436F6E6669677572655D00ED
:100E60005B42696E645D004175746F6869646520FA
:100E70007472696D733A00416E696D6174696F6E69
:100E8000733A00526F756E6420636F726E65727391
:100E90003A004B656570206D656E75207073746ED9
:100EA0003A004D656E752069636F6E733A004B654D
:100EB000792066696C7465723A004B65797300003D
:100EC00000000000416374767479000000005761EF
:100ED0006B652075703A003573000000000000005B
:100EE0000031357300000000000000333073000053
:100EF0000000000000316D696E0000000000003548
:100F00006D696E00000000000031356D696E0000F3
:100F10000000004E65766572000000000054696DA7
:100F2000656F75743A0025004272696768746E6572
:100F300073733A00456E61626C653A004B65797374
:100F40003A004B6E6F62733A005472696D733A00E7
:100F500053776974636865733A006D696E004F6614
:100F60006600496E6163747674793A00456E616219
:100F70006C653A004C6F77000000000000004D6582
:100F80006469756D000000004D617800000000008C
:100F90000000524620706F7765723A005246206F0B
:100FA00075747075743A00524620736574757000DC
:100FB0000000000000000000000000536F756E6428
:100FC00000000000000000000000000000000042DF
:100FD00061636B6C696768740000000000000000CA
:100FE000000000417070656172616E636500000011
:100FF0000000000000000044656C657465207365A6
:101000006E736F723F0A0A596573205B55705D20DD
:101010000A4E6F205B446F776E5D005265636F729E
:10102000644D696E3A005265636F72644D61783A3F
:10103000004F6E20686F6D653A0054687265736882
:101040003A00004F6666000000000000000000004B
:101050000000000000000000013E546872657368E3
:101060000000000000000000000000000000023C42
:101070005468726573680000000000000000000002
:101080000000000000000000000000000000000060
:1010900000000000000000000000416C65727473E5
:1010A0003A004F66667365743A00466163746F7206
:1010B00031303A0030002E004D756C74706C723A0D
:1010C00000300030780049443A002D2D00556E69FB
:1010D00074733A002D2D004E616D653A0053656EB4
:1010E000736F72005370656369667920756E6974F9
:1010F000730053656E736F72206E616D6500446599
:101100006C6574652073656E736F720045646974F5
:101110002073656E736F720053656E736F72206E0D
:10112000616D65004E65772073656E736F72003A6E
:1011300000466164652D696E3A004E2F4100537779
:10114000697463683A002D2D004E616D653A004662
:101150004D4400466C676874206D6F6465206E6155
:101160006D65000044697361626C65640000000095
:1011700000000000000000000001436F6D6D6F6E05
:10118000000000000000000000000000000000025D
:10119000466C696768744D6F64650000000000006C
:1011A000000000000000000000000000000000003F
:1011B0000000000000000000000000207472696D53
:1011C0003A00005570000000000000000000000020
:1011D000000000000000000001446F776E00000076
:1011E0000000000000000000000000000000024DB0
:1011F0006964000000000000000000000000000022
:1012000000000000FF4E6F6E65000000000000004F
:1012100000000000000000000000000000000000CE
:1012200000000000000000000000000000000000BE
:101230003A0053776974636820005468726F74745D
:101240006C653A00506572736973743A00206D6979
:101250006E00496E697469616C3A00526573657419
:101260003A005377697463683A002D2D004E616D22
:10127000653A0054696D65720054696D6572206E3F
:10128000616D6500506572736973743A00436C65F3
:1012900061723A000055700000000000000000007C
:1012A0000000000000000000000001446F776E00A5
:1012B000000000000000000000000000000000002E
:1012C000000000000000000000000000000000001E
:1012D000000000000000446972656374696F6E3A33
:1012E000004D6F64756C75733A00456467653A002C
:1012F000436C6F636B3A00436F756E746572005395
:10130000796E636564005B53796E635D005068615C
:1013100073653A00004175746F0000000000000022
:1013200000000000000000000000014669786564CC
:1013300000000000000000000000000000000000AD
:10134000000000000000000000000000000000009D
:101350000000000000005068617365206D6F6465D7
:101360003A00526576657273653A00436F6E747227
:101370006F6C3A004D617820706572696F643A0055
:101380004D617820696E7472766C3A004D696E20FA
:10139000706572696F6400506572696F643A004DE0
:1013A000696E20696E7472766C3A00496E7465726B
:1013B00076616C3A00005661726961626C6500008A
:1013C0000000000000000000000000014669786590
:1013D00064000000000000000000000000000000A9
:1013E00000000000000000000000000000000000FD
:1013F00000000000000000506572696F64206D6F8E
:1014000064653A00496E7472766C206D6F64653A5B
:10141000000053696E65000000000000000000003D
:10142000000000000000000153717561726500004A
:1014300000000000000000000000000000025472E4
:1014400069616E676C65000000000000000000002C
:1014500000000003536177746F6F74680000000030
:101460000000000000000000000452616E646F6D17
:10147000000000000000000000000000000000006C
:10148000000000000000000000000000000000005C
:10149000000000000057617665666F726D3A002D9E
:1014A0002D0044757261746E3A002D2D0044656CF8
:1014B00061793A0000506F736974697665000000C5
:1014C00000000000000000000000014E656761742C
:1014D00069766500000000000000000000000000C8
:1014E00002426F746800000000000000000000006D
:1014F00000000000000000000000000000000000EC
:101500000000000000000000000000004469726359
:10151000746E3A00436C6561723A000052697369F7
:101520006E670000000000000000000000000000E6
:10153000000146616C6C696E6700000000000000ED
:1015400000000000000000024475616C0000000013
:10155000000000000000000000000000000000008B
:10156000000000000000000000000000000000007B
:101570000000002D2D002D2D0056616C7565323A4E
:1015800000456467653A0052657365743A005065BA
:1015900072696F643A002D2D002D2D0056616C7517
:1015A00065313A00436C6F636B3A005365743A00DF
:1015B00057696474683A00004E6F6E650000000061
:1015C0000000000000000000000000000001613E7B
:1015D0007800000000000000000000000000000093
:1015E00000000002613C78000000000000000000E4
:1015F00000000000000000000003613D3D78000095
:1016000000000000000000000000000000000004D6
:10161000613E3D7800000000000000000000000076
:10162000000000000005613C3D7800000000000063
:101630000000000000000000000000067C617C3E0D
:101640007800000000000000000000000000000022
:1016500000077C617C3C7800000000000000000076
:1016600000000000000000087C617C3D3D78000027
:1016700000000000000000000000000000097C6184
:101680007C3E3D78000000000000000000000000EB
:101690000000000A7C617C3C3D78000000000000F6
:1016A0000000000000000000000B7C64656C7461A9
:1016B0007C3E780000000000000000000000000CEC
:1016C000613E620000000000000000000000000019
:1016D00000000000000D613C6200000000000000FE
:1016E00000000000000000000000000E613D3D62AF
:1016F00000000000000000000000000000000000EA
:10170000000F613E3D62000000000000000000008C
:101710000000000000000010613C3D62000000007D
:101720000000000000000000000000000011414E19
:101730004400000000000000000000000000000065
:10174000000000124F5200000000000000000000E6
:1017500000000000000000000013584F520000007D
:101760000000000000000000000000000000001465
:101770004C6174636800000000000000000000007D
:10178000000000000015546F67676C6500000000E2
:1017900000000000000000000000001650756C738F
:1017A00065000000000000000000000000000000D4
:1017B0000000000000000000000000000000000029
:1017C000000000000000007CEB7C3E78002D2D0026
:1017D00046756E63746E3A00FFF88208BA48AA48EC
:1017E000BA488208FFF83800FFF88208BA48AA48C9
:1017F000BA488208FFF800E0536D74683A005976E1
:10180000616C3A005876616C3A0050743A0070741A
:101810007300547970653A004372760043757374AF
:101820006F6D206375727665730000000000000024
:1018300046756E63746E2067656E657261746F7253
:10184000730000004C6F676963616C207377697483
:101850006368657300000000436F756E7465727392
:1018600000000000000000000000000054696D65E9
:101870007273000000000000000000000000000083
:1018800053616665747920636865636B730000005B
:10189000000000005472696D20736574757000005B
:1018A0000000000000000000466C69676874206D4D
:1018B0006F6465730000000000000000456E6470F6
:1018C00074733A009A486F6C6400000000000000D6
:1018D000000000000000000000009B4E6F50756C7F
:1018E0007365000000000000000000000000000020
:1018F00000000000000000000000000000000000E8
:101900000000000000004661696C736166653A0082
:101910002D2D004F766572726964653A00537562C9
:101920007472696D3A00526576657273653A004368
:10193000727600FF4E6F6E65000000000000000030
:101940000000000000000000000000000000000097
:101950000000000000000000000000000000004344
:10196000757276653A004368004368616E6E656C17
:101970003A0053656C656374206174206C65617313
:1019800074206F6E65002000464D4400536C6F77E5
:10199000446E3A00536C6F7755703A00446C79206E
:1019A000446E3A00446C792055703A002C00416C2A
:1019B0006C00462D4D6F64653A004E2F4100547205
:1019C000696D20203A0043727600004E6F6E65000C
:1019D0000000000000000000000000000000000007
:1019E00001783E3000000000000000000000000010
:1019F00000000000000002783C3000000000000001
:101A0000000000000000000000000000037C787C63
:101A100000000000000000000000000000000000C6
:101A200000000000000000000000000000000000B6
:101A3000000000000000000043727656616C3A001E
:101A4000004469666600000000000000000000001D
:101A5000000000000000014578706F0000000000E9
:101A60000000000000000000000000000246756E4B
:101A70006300000000000000000000000000000003
:101A8000000003437573746F6D00000000000000D8
:101A90000000000000000000000000000000000046
:101AA000000000000000000000000000000043757E
:101AB000727665203A004F66667365743A00576522
:101AC000696768743A00496E707574203A00004185
:101AD000646400000000000000000000000000003E
:101AE00000000000014D6C74706C79000000000073
:101AF00000000000000000000000014D756C7469DA
:101B0000706C790000000000000000000000000080
:101B10000252706C635700000000000000000000DB
:101B2000000000000000025265706C6163650000F7
:101B300000000000000000000000000003486F6C7F
:101B40006400000000000000000000000000000031
:101B50000000000000000000000000000000000085
:101B600000000000000000004F706572746E3A00C3
:101B70005377697463683A004F75747075743A00EE
:101B800023004D6978206E6F3A003000313030000C
:101B90002D313030003A20005377697463686573E3
:101BA000003A004B6E6F6273003A00537469636BC6
:101BB0007300536D74683A005976616C3A00587638
:101BC000616C3A0050743A00707473004375727619
:101BD0003A005372633A0028526174653129002833
:101BE000526174653229005372633A002D2D00440E
:101BF0002F523A0025004578706F3A002500526157
:101C000074653A0044656C657465206D6F64656C3D
:101C10003F0A0A596573205B55705D200A4E6F209C
:101C20005B446F776E5D004D6F64656C206461741A
:101C3000612077696C6C0A62652072657365742E29
:101C40000A436F6E74696E75653F0A0A59657320A1
:101C50005B55705D200A4E6F205B446F776E5D00B0
:101C60004D6F64656C20646174612077696C6C20D1
:101C700062650A6F7665727772697474656E2E0A92
:101C8000436F6E74696E75653F0A0A596573205B10
:101C900055705D200A4E6F205B446F776E5D004388
:101CA0006F70792066726F6D004D6F64656C206E89
:101CB000616D650000416972706C616E65000000C5
:101CC00000000000000000000000014D756C746908
:101CD000636F707465720000000000000000000077
:101CE000024F7468657200000000000000000000F0
:101CF00000000000000000000000000000000000E4
:101D00000000000000000000000000004D6F64654E
:101D10006C2074797065004E6577206D6F64656C1A
:101D20000044656C657465206D6F64656C004C6F74
:101D30006164206D6F64656C004E6F20667265652E
:101D400020736C6F7473005265736574206D6F64DB
:101D5000656C00436F70792066726F6D004475701A
:101D60006C69636174650052656E616D65206D6FAD
:101D700064656C000204885020780462044C0436C8
:101D80000420040A04F403DE03C8034D6F64656C89
:101D900000000000000000000000000000000049FA
:101DA0006E707574730000000000000000000000F9
:101DB0000000004D6978657200000000000000001E
:101DC000000000000000004F75747075747300000F
:101DD00000000000000000000000004578747261FF
:101DE000730000000000000000000000000000542C
:101DF000656C656D6574727900000000000000007C
:101E000000000053797374656D000000000000004D
:101E1000000000000000005265636569766572008D
:101E2000000000000000000000000041626F7574B7
:101E30000000000000000000000000000000004D55
:101E400061696E206D656E75004D61783A0052696A
:101E50006768743A004D696E3A004C6566743A00E2
:101E6000004E756D65726963616C000000000000D2
:101E70000000000000000147617567650000000078
:101E80000000000000000000000000000243656E3A
:101E9000746572476175676500000000000000000E
:101EA0000000000000000000000000000000000032
:101EB0000000000000000000446973703A00200038
:101EC00054696D657200436F756E74657200200011
:101ED0004368000A4175746F0000000000000000B4
:101EE00000000000000000000000000000000000F2
:101EF000000000000000000000000000000000538F
:101F000072633A000054656C656D65747279000007
:101F100000000000000000000000014D6978536FD0
:101F2000757263657300000000000000000000008F
:101F3000024F75747075747300000000000000009B
:101F40000000000000000354696D6572730000001A
:101F500000000000000000000000000004436F7556
:101F60006E74657273000000000000000000000045
:101F70000000000000000000000000000000000061
:101F80000000000000000000547970653A005769B5
:101F9000646765740057696467657473005365749A
:101FA0007570207769646765747300526573657432
:101FB0002074696D6572203100000000000000523D
:101FC000657365742074696D6572203200000000CD
:101FD00000000052657365742074696D657220336A
:101FE0000000000000000053746172742074696D79
:101FF00065722031000000000000005374617274AB
:102000002074696D657220320000000000000053EA
:10201000746172742074696D657220330000000071
:1020200000000053746F702074696D657220310078
:102030000000000000000053746F702074696D652B
:10204000722032000000000000000053746F702006
:1020500074696D65722033000000000000000020EC
:10206000003A004368004F757470757473005465CE
:102070006C656D6574727920756E6D75746564003C
:1020800054656C656D65747279206D757465640056
:102090003A00436F756E746572003A00206F757474
:1020A000004368003A003A0040D4C8D4401030D50C
:1020B00092D530104482BA925410104E6F20646151
:1020C00074610043616E277420626520656D7074D1
:1020D00079001B1E392D36274B4EC98DC687D89CDB
:1020E000786CB4E493D2B1E1726321464D4400466A
:1020F0004D4400214C004C00537700215377002DB4
:102100002D00436F756E74657200566972740043DA
:1021100068004C004667656E005377005275640096
:1021200059617700456C65005069746368004169C6
:102130006C00526F6C6C00546872004D6178004BFB
:102140006E6F6242004B6E6F62410059340058342A
:1021500000593300583300593200583200593100C9
:102160005831004E6F6E65008A4911241FBECFEFB3
:10217000D1E2DEBFCDBF00E00CBF12E0A0E0B2E0D4
:10218000E0E8FEEF00E00BBF02C007900D92A63919
:10219000B107D9F725E1A6E9B2E001C01D92A83F39
:1021A000B207E1F710E1C5EBD0E100E006C02197EE
:1021B0000109802FFE010E94167FC43BD10780E0F9
:1021C0000807A9F70E94D4490C943E7F0C940000A4
:1021D000CF93DF93E091F015F091F115908120916C
:1021E000F615922B9083E091F215F091F315908102
:1021F0002091F715922B9083E091EC15F091ED155D
:1022000020819091F41590959223908382B9EEEEFF
:10221000F5E1C081D1818881A5EFB5E19C91892B41
:102220008883C895C895C8950000C895C895C89575
:1022300000000190F081E02D90818C9180958923A0
:102240008083C895C895C8950000C895C895C8955D
:102250000000C895C895C8950000C895C895C89550
:102260000000C895C895C8950000C895C895C89540
:102270000000DF91CF910895FF920F931F93CF93AA
:10228000DF938091EB11882309F4FBC180919D07B6
:1022900091E0892780939D078111FAC100E810E041
:1022A00092E0F92ED7E0C1E08C2F886B0E94E810F5
:1022B00080E40E94E810E091EC15F091ED1580812A
:1022C0009091F415892B8083E091F015F091F11530
:1022D00080819091F615892B8083E091F215F09121
:1022E000F31590818091F715809589238083F801FB
:1022F000E652FE4E90E08F010A5D1141903809F4DC
:10230000CDC1903499F4A091F215B091F3158C9150
:102310002091F715822B8C93A091F015B091F115B7
:102320002C918091F615809582238C93828982B9B5
:10233000A091EE15B091EF158C912091F515822B9F
:102340008C93C895C895C8950000C895C895C89540
:102350000000A091EE15B091EF152C918091F5152C
:10236000809582238C93C895C895C8950000C89520
:10237000C895C8950000C895C895C8950000C8952F
:10238000C895C8950000C895C895C8950000C8951F
:10239000C895C8950000838982B9A091EE15B091C7
:1023A000EF158C912091F515822B8C93C895C895CB
:1023B000C8950000C895C895C8950000A091EE1575
:1023C000B091EF152C918091F515809582238C9317
:1023D000C895C895C8950000C895C895C8950000CF
:1023E000C895C895C8950000C895C895C8950000BF
:1023F000C895C895C8950000C895C895C8950000AF
:10240000848982B9A091EE15B091EF158C9120913D
:10241000F515822B8C93C895C895C8950000C89572
:10242000C895C8950000A091EE15B091EF152C91BC
:102430008091F515809582238C93C895C895C89591
:102440000000C895C895C8950000C895C895C8955E
:102450000000C895C895C8950000C895C895C8954E
:102460000000C895C895C8950000858982B9A091DB
:10247000EE15B091EF158C912091F515822B8C9370
:10248000C895C895C8950000C895C895C89500001E
:10249000A091EE15B091EF152C918091F5158095D6
:1024A00082238C93C895C895C8950000C895C89597
:1024B000C8950000C895C895C8950000C895C895EE
:1024C000C8950000C895C895C8950000C895C895DE
:1024D000C8950000868982B9A091EE15B091EF15DC
:1024E0008C912091F515822B8C93C895C895C89531
:1024F0000000C895C895C8950000A091EE15B09150
:10250000EF152C918091F515809582238C93C895B9
:10251000C895C8950000C895C895C8950000C8958D
:10252000C895C8950000C895C895C8950000C8957D
:10253000C895C8950000C895C895C89500008789BA
:1025400082B9A091EE15B091EF158C912091F515FF
:10255000822B8C93C895C895C8950000C895C895DE
:10256000C8950000A091EE15B091EF152C918091C7
:10257000F515809582238C93C895C895C895000061
:10258000C895C895C8950000C895C895C89500001D
:10259000C895C895C8950000C895C895C89500000D
:1025A000C895C895C8950000808D82B9A091EE1598
:1025B000B091EF158C912091F515822B8C93C895D5
:1025C000C895C8950000C895C895C8950000A09109
:1025D000EE15B091EF152C918091F5158095822321
:1025E0008C93C895C895C8950000C895C895C8959E
:1025F0000000C895C895C8950000C895C895C895AD
:102600000000C895C895C8950000C895C895C8959C
:102610000000818D82B9A091EE15B091EF158C91DB
:102620002091F515822B8C93C895C895C89500000C
:10263000C895C895C8950000A091EE15B091EF150A
:102640002C918091F515809582238C93C895C8951F
:10265000C8950000C895C895C8950000C895C8954C
:10266000C8950000C895C895C8950000C895C8953C
:10267000C8950000C895C895C8950000985F389621
:102680003ACE10E000E0FF24F394D7E0C0E00CCE97
:1026900010E000E082E0F82ED6E0F8CF8091EB1158
:1026A000882311F000581F4FCF0DDC1708F0FCCD28
:1026B000DF91CF911F910F91FF9008958F929F927C
:1026C000AF92BF92CF92DF92EF92FF920F931F9340
:1026D000CF93DF93EC016B015A017901261B370B75
:1026E000D8010E941E7F28EC30E040E050E00E94BC
:1026F000617E4501820E931E8C169D06C4F5092C41
:10270000000CAA08BB089E01DD0F440B550B2819CD
:1027100039094A095B09A3EFB1E00E94807E970165
:10272000FF0C440B550B281939094A095B090E9413
:10273000617EDA01C9010196A11DB11D853F21E02D
:10274000920714F084EF91E08C302EEF920714F48E
:102750008CE09EEFDF91CF911F910F91FF90EF9052
:10276000DF90CF90BF90AF909F908F900895A21A66
:10277000B30A90E080E0CA15DB0564F70D2C000C6D
:10278000EE08FF089E01DD0F440B550B2C193D0987
:102790004E095F09A3EFB1E00E94807E9501BB0C5A
:1027A000440B550B2C193D094E095F090E94617EAF
:1027B000DA01C901845F9140A109B109BFCFAF928D
:1027C000BF92CF92DF92EF92FF920F931F93CF931E
:1027D000DF936C017B018B01040F151FEB015E0180
:1027E000AE18BF08C017D10759F06991D601ED9115
:1027F000FC910190F081E02DC6011995892B79F7A4
:10280000C501DF91CF911F910F91FF90EF90DF9065
:10281000CF90BF90AF900895FC01538D448D252F2C
:1028200030E0842F90E0821B930B541710F0CF966A
:10283000089501970895FC01918D828D981761F09C
:10284000A28DAE0FBF2FB11D5D968C91928D9F5FB3
:102850009F73928F90E008958FEF9FEF0895FC0192
:10286000918D828D981731F0828DE80FF11D858D45
:1028700090E008958FEF9FEF0895FC01918D228DD8
:10288000892F90E0805C9F4F821B91098F7399275D
:1028900008958DE391E10E943D1421E0892B09F414
:1028A00020E0822F0895FC01A48DA80FB92FB11D3F
:1028B000A35ABF4F2C91848D90E001968F73992776
:1028C000848FA689B7892C93A089B1898C91837054
:1028D00080648C93938D848D981306C00288F3894D
:1028E000E02D80818F7D80830895EF92FF920F937A
:1028F0001F93CF93DF93EC0181E0888F9B8D8C8DAC
:1029000098131AC0E889F989808185FF15C09FB79F
:10291000F894EE89FF896083E889F9898081837062
:10292000806480839FBF81E090E0DF91CF911F9111
:102930000F91FF90EF900895F62E0B8D10E00F5F32
:102940001F4F0F731127E02E8C8D8E110CC00FB608
:1029500007FCFACFE889F989808185FFF5CFCE01A0
:102960000E945314F1CFEB8DEC0FFD2FF11DE35AB4
:10297000FF4FF0829FB7F8940B8FEA89FB89808123
:102980008062CFCFCF93DF93EC01888D8823B9F09D
:10299000AA89BB89E889F9898C9185FD03C080816A
:1029A00086FD0DC00FB607FCF7CF8C9185FFF2CFE7
:1029B000808185FFEDCFCE010E945314E9CFDF91D6
:1029C000CF91089580E090E0892B49F080E090E07D
:1029D000892B29F00E94000081110E94000080E0F4
:1029E00090E0892B29F00E94491481110E94000077
:1029F00080E090E0892B49F080E090E0892B29F07D
:102A00000E94000081110E94000080E090E0892B6C
:102A100049F080E090E0892B29F00E9400008111AC
:102A20000C94000008958150823108F05AC0E82FBC
:102A3000F0E08827E15EFA4E8F4F0C94167F3F1529
:102A40004315311537153B15711546154C155015A5
:102A500056155A155E156415681571156C157215A5
:102A60007615809180008F77809380000895809103
:102A700080008F7DF9CF80918000877FF5CF84B56E
:102A80008F7784BD089584B58F7DFBCF8091B00092
:102A90008F778093B00008958091B0008F7DF9CF3B
:102AA000809190008F77809390000895809190009E
:102AB0008F7DF9CF80919000877FF5CF8091A00026
:102AC0008F778093A00008958091A0008F7DF9CF2B
:102AD0008091A000877FF5CF809120018F77809330
:102AE00020010895809120018F7DF9CF80912001F0
:102AF000877FF5CFCF93DF93282F30E0F901E3559F
:102B0000F24F8491F901E959F24FD491F901EF5D47
:102B1000F24FC491CC23A1F081110E941315EC2F28
:102B2000F0E0EE0FFF1FE95FF24FA591B491EC9139
:102B3000ED2381E090E009F480E0DF91CF910895EA
:102B400080E090E0FACF1F93CF93DF93282F30E0FF
:102B5000F901E355F24F8491F901E959F24FD4910B
:102B6000F901EF5DF24FC491CC23A9F0162F81112A
:102B70000E941315EC2FF0E0EE0FFF1FE351F34F0F
:102B8000A591B4918FB7F894EC91111108C0D0952C
:102B9000DE23DC938FBFDF91CF911F910895DE2B51
:102BA000F8CF9091060289130DC0E3EFFDE0E491A8
:102BB0009FEF90930602E230E1F038F4EE2381F0CB
:102BC000E13089F060E00C94A315E43049F110F194
:102BD000E530C1F7909173009D7F90937300F2CF21
:102BE00010926E00EFCF90916F009D7F90936F00D9
:102BF000E9CF909170009D7F9093700091E0909349
:102C0000B0009091B100987F94609093B1001092C1
:102C1000B300D8CF909171009D7F90937100D2CF77
:102C2000909172009D7F90937200CCCF1F93CF93B1
:102C3000DF93EC0183E090E090931F0280931E02EB
:102C400011E01093AC041092A8041092A904109201
:102C5000AA041092AB047093A7046093A604D093C7
:102C6000A504C093A4040E94D115FE0185919491FE
:102C70009093A3048093A2041093A104DF91CF91B9
:102C80001F910895CF93DF9390E0FC01E959F24F33
:102C900024918F5D924FFC0184918823C9F090E0CC
:102CA000880F991FFC01ED52F34FA591B491FC01DF
:102CB000E351F34FC591D49161110DC09FB7F894C2
:102CC0008C91209582238C938881282328839FBF11
:102CD000DF91CF910895623051F49FB7F8943C9101
:102CE000822F809583238C93E8812E2BEFCF8FB793
:102CF000F894EC912E2B2C938FBFEACF8653209122
:102D00007B00982F987F277F922B90937B00877072
:102D1000806480937C0080917A00806480937A0044
:102D200080917A0086FDFCCF8091780090917900A7
:102D300008953FB7F89480915B0390915C03A09154
:102D40005D03B0915E0326B5A89B05C02F3F19F027
:102D50000196A11DB11D3FBFBA2FA92F982F88271B
:102D6000BC01CD01620F711D811D911D42E0660FF6
:102D7000771F881F991F4A95D1F708958F929F92C8
:102D8000AF92BF92CF92DF92EF92FF924B015C0124
:102D90000E9499166B017C010E9499166C197D099D
:102DA0008E099F09683E734081059105A8F321E0D3
:102DB000821A9108A108B10888EEC80E83E0D81ED7
:102DC000E11CF11C81149104A104B10429F7FF90C6
:102DD000EF90DF90CF90BF90AF909F908F9008952D
:102DE0002FB7F8946091570370915803809159035D
:102DF00090915A032FBF08959093A00480939F044D
:102E00000E94F01660939B0470939C0480939D0431
:102E100090939E046053784F8F4F9F4F6093970419
:102E2000709398048093990490939A0410921D02D1
:102E30000895AC0190911704903180F4292F30E06F
:102E4000F901EE0FFF1FEA5CFC4F518340832A5DBE
:102E50003C4FF90160839F5F909317040895CF92D0
:102E6000DF92EF92FF9280918B07882309F442C092
:102E70000E94F016C0902203D0902303E090240318
:102E8000F09025039B01AC012C193D094E095F0907
:102E900069017A0120918B0730E0A0E6BAEE0E942A
:102EA000B57E685A744E8F4F9F4F6C157D058E0509
:102EB0009F0500F50E94F016C0901E03D0901F03DE
:102EC000E0902003F09021036C197D098E099F0981
:102ED000613375478105910568F00E94F016609393
:102EE0001E0370931F03809320039093210384E0BB
:102EF00080932C04FF90EF90DF90CF900895863060
:102F000070F08B3070F08B3071F0813170F0853162
:102F100070F0853171F0863171F487E0089581E0B9
:102F2000089582E0089583E0089584E0089585E09F
:102F3000089586E0089580E00895E0E5FEE0A9E1C7
:102F4000B4E08081882329F08181928111969C933D
:102F50008E93709612968EE0E03AF80791F70895F6
:102F6000E9E1F4E011821082138212821582148248
:102F7000178216821186108608950F931F93CF93A0
:102F8000DF930EEB17E0D0E0C0E0F801808D8823DE
:102F9000D9F0818D928DA38DB48DFE01E55BFB4F41
:102FA00080839183A283B383FE01ED5CFB4F80831A
:102FB0009183A283B3830E94F016FE01E15CFB4F74
:102FC0006083718382839383015F1F4F2496CC308B
:102FD000D105D9F6DF91CF911F910F9108950F93ED
:102FE0001F93CF93DF93C82FD0E08E01000F111FE6
:102FF000000F111FF801ED5CFB4F1082118212824D
:103000001382F801E55BFB4F10821182128213825A
:103010000E94F016F801E15CFB4F608371838283AC
:103020009383C05DDB4F1882DF91CF911F910F9189
:103030000895CF93DF9380E00E94EF17C7E5D4E0B7
:10304000188281E00E94EF17198282E00E94EF1738
:103050001A82DF91CF9108952F923F924F925F9203
:103060006F927F928F929F92AF92BF92CF92DF9298
:10307000EF92FF920F931F93CF93DF9300D0CDB7C2
:10308000DEB77C017B836A836A01122F80919004F2
:10309000811103C0FB82EA82D9C08EEF800F812CA0
:1030A000912C5401712C823008F041C060917B0456
:1030B00070917C0480917D0490917E048090E40264
:1030C0009090E502A090E602B090E70268197909B5
:1030D0008A099B0926E030E040E050E00E94937EA0
:1030E00070908E04672B682B692B09F0712C0330CC
:1030F00009F08EC00E94F01680908A0490908B0494
:10310000A0908C04B0908D04681979098A099B09F4
:10311000812C912C54016F3279408105910538F052
:1031200020ED822E27E0922EA12CB12C04E08CEF12
:10313000800F823010F470908E042A803B80C2147D
:10314000D3040CF06AC09A818B81DB82CA82C92EBB
:10315000D82E92E0692E23E02983043008F465C05C
:10316000772009F462C00E94F01620918A04309101
:103170008B0440918C0450918D041B012C01221A68
:10318000330A440A550AB201A1014E555140610962
:103190007109D501C4018053984FAF4FBF4F8417B9
:1031A0009507A607B707F0F582E090E01401250126
:1031B00020EA220E2FE0321E411C511C2416350637
:1031C0004606570620F4053011F48AE090E030E41A
:1031D000830E3FE1931EA11CB11C84169506A60622
:1031E000B70620F4053011F484E690E020919003B6
:1031F0002980221511F072101BC0E80EF91ECE14A2
:10320000DF040CF047CF111121C0DB82CA821EC03F
:10321000812C912C540102E08ACF83E0682E32E0A9
:1032200039839BCF81E090E0C1CF81E090E0DECF99
:10323000261511F076102ECFE81AF90A4A805B8025
:10324000E414F5040CF026CF1111DFCF8A819B81A5
:103250000F900F900F90DF91CF911F910F91FF90E2
:10326000EF90DF90CF90BF90AF909F908F907F9026
:103270006F905F904F903F902F900895DF92EF9264
:10328000FF920F931F93CF93DF93CDB7DEB7C35653
:10329000D1090FB6F894DEBF0FBECDBF182F8091B5
:1032A0009004882309F453C0EFEFFFEF40E020E0E3
:1032B000062F0470862F8270D82E362F317086E04C
:1032C000E82EF12CE03390F43323B1F0CF01B701B5
:1032D0000E94027F6159784FDB019C91992361F034
:1032E000913021F4813041F0833030F48FEC820F43
:1032F000883288F4D11013C02F5F3196233611F72E
:10330000FE01319680E07F01841791F091911917A9
:1033100081F08F5FF9CF293510F0002369F3A1E028
:10332000B0E0AC0FBD1FA40FB11D2C934F5FE4CFD5
:1033300080E04150550B02E020E070E060E090E05A
:103340000E942C188E0D9F2D911DFC011081812F44
:10335000CD59DF4F0FB6F894DEBF0FBECDBFDF9162
:10336000CF911F910F91FF90EF90DF9008950F93F1
:1033700090919004911112C091E090939004682F65
:1033800070E08091170202E021E041E050E090E01F
:103390000E942C1880931702109290040F910895A8
:1033A00090918F04913029F4809190048927809323
:1033B000900408958091AC04882331F080911E021E
:1033C0000E94D1151092AC0408954F925F926F92B3
:1033D0007F928F929F92AF92BF92CF92DF92EF92A5
:1033E000FF920F931F93CF93DF9300D01F921F92F2
:1033F000CDB7DEB780918607811102C010922C04F0
:10340000E0912C048091D302E81709F45CC0E093AA
:10341000D302E150EA30B8F4F0E08827ED5EF54ED3
:103420008F4F0C94167F3B1A1D1A401A4A1A4F1AD6
:10343000541A591A5E1A451A451A65E070E086E278
:103440009CE00E94161610922C040F900F900F9083
:103450000F900F90DF91CF911F910F91FF90EF9000
:10346000DF90CF90BF90AF909F908F907F906F90A4
:103470005F904F9008956BE070E080E19CE0E1CFB9
:1034800069E070E08EEF9BE0DCCF63E070E088EFF6
:103490009BE0D7CF69E070E086EE9BE0D2CF65E09D
:1034A00070E08CED9BE0CDCF67E070E08EEC9BE0B0
:1034B000C8CF69E070E08CEB9BE0C3CF63E070E0C5
:1034C00086EB9BE0BECF8091AC04882309F4BBCF90
:1034D0000E94F0160091A8041091A9042091AA045A
:1034E0003091AB04601771078207930708F4ABCFE4
:1034F0008091A1048983082F10E08091A604909107
:10350000A7040817190718F00E94DA199CCFE09059
:103510001E02F0901F028E2D0E94D1158091A404EE
:103520009091A5049801220F331FFC01E20FF31FB5
:1035300005911491F9013296E80FF91FA590B49006
:103540002091A2043091A304032E000C440B550BD0
:1035500060E67AEE80E090E00E94617ECA01B901E7
:1035600022E0660F771F881F991F2A95D1F79501D2
:1035700050E040E00E94617E29013A010E94F0166D
:10358000640D751D861D971D6093A8047093A90492
:103590008093AA049093AB0499819E5F9093A104B9
:1035A0000115110509F44FCF80910602E816F9F0D4
:1035B0008F3F09F048CFE0920602E3EFFDE09491DF
:1035C0009D83892F9F3F09F43ECF923009F4E4C0D8
:1035D00008F076C0992309F49EC0913009F4B8C070
:1035E00087FD31CF61E08E2D0E9442160DC0E3EFC2
:1035F000FDE084918D8387FD26CF61E08E2D0E94B2
:1036000042168D81882321F09D81923009F0CAC134
:103610004801B12CA12C60E072E18AE790E0A5019D
:1036200098010E94617E29833A834B835C83690100
:103630007A0181E0C81AD108E108F1089FEFC916A4
:10364000D104E104F10409F00CF47BC160E472E4FC
:103650008FE090E0A50198010E94617E69017A01E6
:1036600081E0C81AD108E108F1089D81923009F083
:1036700000C18FEFC816D104E104F10409F00CF485
:10368000BCC260E970ED83E090E0A50198010E9462
:10369000617E69017A0191E0C91AD108E108F10857
:1036A0008FEFC816D104E104F10411F00CF082C2CE
:1036B00083E09091B100987F892B8093B10049C13C
:1036C000943009F4B3C008F48DC0953009F088CF68
:1036D0001092200110922101809121018860809335
:1036E000210180912101816080932101C7019927E7
:1036F000FC01EF5DF24FE491F0E0EE0FFF1FE351AC
:10370000F34F25913491FC01E959F24FE491E09394
:10371000BA0295E089C014BC15BC84B5826084BD32
:1037200085B5816085BDC7019927FC01EF5DF24F2A
:10373000E491F0E0EE0FFF1FE351F34F2591349138
:10374000FC01E959F24FE491E093BE021D8255CF8E
:103750001092800010928100809181008860809397
:10376000810080918100816080938100C701992749
:10377000FC01EF5DF24FE491F0E0EE0FFF1FE3512B
:10378000F34F25913491FC01E959F24FE491E09314
:10379000BD0281E08D8331CF1092B0001092B10054
:1037A0008091B00082608093B0008091B100816010
:1037B0008093B100C7019927FC01EF5DF24FE491BE
:1037C000F0E0EE0FFF1FE351F34F2591349130935A
:1037D000600320935F03FC01E959F24FE491E09309
:1037E00061030BCF10929000109291008091910094
:1037F0008860809391008091910081608093910016
:10380000C7019927FC01EF5DF24FE491F0E0EE0F64
:10381000FF1FE351F34F25913491FC01E959F24F19
:10382000E491E093BC0293E09D83E7CE1092A00068
:103830001092A1008091A10088608093A1008091E6
:10384000A10081608093A100C7019927FC01EF5D71
:10385000F24FE491F0E0EE0FFF1FE351F34F25919B
:103860003491FC01E959F24FE491E093BB0284E00A
:1038700091CF9FEFC916D104E104F10409F00CF4D3
:103880008FC068E478EE81E090E0A50198010E9485
:10389000617E69017A0181E0C81AD108E108F10866
:1038A0009D81992309F49FC19FEFC916D104E104BA
:1038B000F10409F00CF495C162E17AE780E090E050
:1038C000A50194010E94617E69017A0181E0C81A14
:1038D000D108E108F1089D81992309F462C18FEFB5
:1038E000C816D104E104F10411F008F036C186E0F5
:1038F000E0CE64E274EF80E090E0A50194010E94C4
:10390000617E69017A0181E0C81AD108E108F108F5
:1039100085E09FEFC916D104E104F10409F008F431
:10392000C8CE62E17AE780E090E0A50194010E94B0
:10393000617E69017A0191E0C91AD108E108F108B4
:10394000CECF81E09D819111B4CE95B5987F892B22
:1039500085BD2FEF3FEFA9014114510461047104AB
:1039600009F049C09D81923009F4E7C00CF0CEC047
:10397000992309F4D3C0913009F065CDD092890024
:10398000C09288002093CB023093CC024093CD02AA
:103990005093CE0280916F00826080936F0053CD70
:1039A00082E0D0CFB12CA12C60E072E18AE790E0F8
:1039B000A50198010E94617E69017A0181E0C81A1F
:1039C000D108E108F108C114D10491E0E906F1043D
:1039D00004F591E08D81813069F580918100887FC7
:1039E000892B809381002FEF3FEFA90141145104EF
:1039F0006104710419F2D801AA0FBB1FA30192013F
:103A00000E94807E28EE33E040E050E00E94937EEA
:103A1000A9CF68E478EE81E090E0A50198010E94CA
:103A2000617E69017A0181E0C81AD108E108F108D4
:103A300093E0D0CF8D81833001F580919100887F14
:103A4000892B809391002FEF3FEFA901411451047E
:103A50006104710481F6D0929900C092980020937D
:103A6000C7023093C8024093C9025093CA028091A2
:103A70007100826080937100E6CC8D81843009F5FD
:103A80008091A100887F892B8093A1002FEF3FEFC9
:103A9000A901411451046104710409F0ACCFD09222
:103AA000A900C092A8002093C3023093C40240939F
:103AB000C5025093C60280917200826080937200AA
:103AC000C2CC8D81853009F044CF80912101887F5F
:103AD000892B809321012FEF3FEFA901411451045D
:103AE0006104710409F087CFD0922901C0922801A6
:103AF0002093BF023093C0024093C1025093C20290
:103B0000809173008260809373009DCC8D8184309E
:103B100031F20CF4A0CF853039F395CCC7BC20939B
:103B2000CF023093D0024093D1025093D2028091C1
:103B30006E00826080936E0086CCC092B3002093AA
:103B40006203309363034093640350936503809151
:103B5000700082608093700076CCC980DA80EB8040
:103B6000FC809AE0F594E794D794C7949A95D1F79E
:103B700091E0C91AD108E108F10887E09ACDC9801F
:103B8000DA80EB80FC808AE0F594E794D794C794C0
:103B90008A95D1F791E0C91AD108E108F10885E0CA
:103BA000D4CE8FEFC816D104E104F10409F038F740
:103BB00084E0CBCE68E478EE81E090E0A501980146
:103BC0000E94617E69017A0191E0C91AD108E10879
:103BD000F1088FEFC816D104E104F10411F00CF0E4
:103BE00088CE84E066CD8FEFC816D104E104F104DD
:103BF00011F00CF061CE83E0A8CE82E05ACD8F9216
:103C00009F92AF92BF92CF92DF92EF92FF928CE39E
:103C10000E947E16A0917B07B0917C079C010E94B8
:103C20001E7F24E6822E912CA12CB12CA50194019B
:103C30000E94617EA5E0B0E00E94807E6B017C0165
:103C4000A0912804B09129042FE530E00E94267F3E
:103C50006C0D7D1D8E1D9F1DA50194010E94617E2E
:103C60003093290420932804809177079091780756
:103C7000821793075CF010921B02FF90EF90DF9089
:103C8000CF90BF90AF909F908F9008958C599F4F89
:103C90008217930794F781E080931B02EECF91E0A7
:103CA000882361F19FEF980F903390F58150990B25
:103CB00066E070E00E94027F69567C4FFB01208124
:103CC00083309105E9F04CF48130910579F0029749
:103CD00091F091E0222391F00CC084309105A1F085
:103CE0000597B9F791E0213049F403C091E0223003
:103CF00029F090E003C091E02130D9F7892F089591
:103D000091E02111FBCFF5CF91E02230B9F7F1CF4F
:103D10009FEC980F983220F491E0853478F7E9CF42
:103D200027EA280F91E02530A8F28E3539F7E1CF48
:103D30004F925F926F927F928F929F92AF92BF92BB
:103D4000CF92DF92EF92FF920F931F93CF93DF9367
:103D5000DC01FB01211136C04D915C911197129647
:103D60002D913C916281738180819181681B790BD7
:103D7000072E000C880B990BEAE0660F771F881F4F
:103D8000991FEA95D1F74217530709F44FC0241B36
:103D9000350B032E000C440B550B0E94617ECA01AB
:103DA000B901DF91CF911F910F91FF90EF90DF90BC
:103DB000CF90BF90AF909F908F907F906F905F90CB
:103DC0004F90089530E050E0CA0101972817390755
:103DD00091F542505048440F551FED01C40FD51FB7
:103DE0000990D881C02DBA016E5F7F4FA60FB71F13
:103DF0002D913C916E0F7F1FE40FF51FDB016D913C
:103E00007C9180819181681B790B072E000C880BB7
:103E1000990B4AE0660F771F881F991F4A95D1F7C3
:103E2000C217D30719F02C1B3D0BB3CF21E030E0B4
:103E300040E050E0B2CF21503048220F331FED0157
:103E4000C20FD31FA880B980B9016E5F7F4FED010B
:103E5000C60FD71FE880F980A9014C5F5F4FA40F00
:103E6000B51FCD91DC916E0F7F1FDB01CD90DC90F3
:103E70004E0F5F1FDA010D911C91E20FF31F20819D
:103E80003181A601421B530B052E000C660B770BEC
:103E9000CB01BA012AE0660F771F881F991F2A9568
:103EA000D1F721E030E040E050E0AE14BF0439F03B
:103EB00097012A193B09032E000C440B550B0E9455
:103EC000617E49015A01CA01B90121E030E040E0B8
:103ED00050E0EC16FD0639F09E012E193F09032E25
:103EE000000C440B550B81149104A104B10409F496
:103EF00058CFB8016C197D09072E000C880B990B5F
:103F0000EAE0660F771F881F991FEA95D1F70E9494
:103F1000617E29013A01411451046104710439F0B0
:103F2000181419041A041B0434F477FE0EC060E060
:103F300070E0CB0136CF81149104A104B10429F0C3
:103F4000141415041604170494F3C501B401640D88
:103F5000751D861D971D22E030E040E050E00E9474
:103F6000617E69017A01A3E0B0E0A50194010E949D
:103F7000807E1616170618061906F4F46C157D05D2
:103F80008E059F050CF40DCFA3E0B0E0A3019201D4
:103F90000E94807E8B019C01C701B601101611069C
:103FA00012061306A4F406171707280739070CF0A2
:103FB000F8CEC901B801F5CE6115710581059105ED
:103FC00019F3C616D706E806F906F4F6EACE011587
:103FD00011052105310509F4E4CE60177107820748
:103FE00093070CF0DECEE5CF2F923F924F925F9277
:103FF0006F927F928F929F92AF92BF92CF92DF92F9
:10400000EF92FF920F931F93CF93DF93CDB7DEB75D
:10401000A0970FB6F894DEBF0FBECDBFFC01A08104
:10402000B1812A173B070CF5DB012D913C91032E42
:10403000000C440B550BC901A0960FB6F894DEBFD7
:104040000FBECDBFDF91CF911F910F91FF90EF90E9
:10405000DF90CF90BF90AF909F908F907F906F90A8
:104060005F904F903F902F900895E42FF0E0E15043
:10407000F0487F01EE0CFF1C6C01CE0CDF1CF6013A
:10408000008111810217130734F4F701E60FF71FBF
:1040900020813181CCCFA00FB11FB7FD11968901CE
:1040A0004F8F1B019E838D839D01359527953C87FE
:1040B0002B8718A220E030E0A9016F8D6150770BAB
:1040C0007E8F6D8F78A1872F90E0AD8DBE8D8A1782
:1040D0009B070CF0B0CF880F991FED81FE81E80F90
:1040E000F91F60817181061717079CF17C01B2E00E
:1040F000EB0EF11CED81FE81EE0DFF1D0190F081B4
:10410000E02DE017F1072CF1A101480F591FDA014A
:104110000D90BC91A02DBE87AD87D701A20DB31D18
:104120002D913C91388B2F876E177F07B1F44B850B
:104130005C85401751073CF00D851E859801110FD5
:10414000440B550B78CF6F8578899B01770F440B13
:10415000550B78A17F5F78A3B5CFE61BF70BCF0196
:10416000FF0FAA0BBB0B8F839887A987BA87D8014B
:10417000A61BB70BBD01072E000C880B990B2AE07C
:10418000660F771F881F991F2A95D1F72F813885D1
:1041900049855A850E94617E29013A01CA01B90107
:1041A0000E94C47E6B017C016AE0F594E794D79489
:1041B000C7946A95D1F7C701B6010E94C47E20E07A
:1041C00034E040E050E00E94617E49015A01D7018D
:1041D000C601880F991FAA1FBB1F281B390B4A0B4A
:1041E0005B0B29833A834B835C83240D351D461D6D
:1041F000571D298B3A8B4B8B5C8BAEEFBFEFA50124
:1042000094010E948E7E2B013C01A3E0B0E0A70147
:1042100096010E94807E460E571E681E791E4981B7
:104220005A816B817C814C0D5D1D6E1D7F1D498304
:104230005A836B837C8328A14F8DB1018D819E8130
:104240000E94981E6D8B7E8B8F8B988F28A12F5F7D
:104250004F8DB1018D819E810E94981E698F7A8F4A
:104260008B8F9C8F880C991CAA1CBB1CADEFBFEFD9
:10427000A70196010E948E7E860E971EA81EB91E6B
:10428000A50194013C5F4F4F5F4FAD85BE850E94F5
:104290008B7E6B017C0129893A894B895C896D8908
:1042A0007E898F89988D0E94C47E20E034E040E0B2
:1042B00050E00E94617E6F81788589859A850E9491
:1042C000C47EC60ED71EE81EF91EAF85B889A301AD
:1042D00092010E948B7EC60ED71EE81EF91E298110
:1042E0003A814B815C81698D7A8D8B8D9C8D0E948A
:1042F000C47E20E034E040E050E00E94617E6F81A7
:10430000788589859A850E94C47E6C0D7D1D8E1DE1
:104310009F1D20E034E040E050E00E94617E6B850C
:104320007C85601771070CF414CF85CE0F93CF9363
:10433000DF9367FF08C0362F31953217A8F5303468
:1043400098F5260F60E0260F215027FD2FE7342F28
:104350003770E1E0F0E001C0EE0F3A95EAF74695DC
:104360004695469530E8439FA00111244E5E5F4F6D
:10437000A62FB0E04A0F5B1FEC01C40FD51F01113F
:104380000AC0E095261780F08991DE0111978E23EF
:104390008C936F5FF7CF261738F08991DE01119764
:1043A0008E2B8C936F5FF7CFDF91CF910F91089594
:1043B0000F93403410F40E9496210F9108954F926C
:1043C0005F926F927F928F929F92AF92BF92CF92A5
:1043D000DF92EF92FF920F93CF93DF937C016B37C5
:1043E00008F056C0403408F053C0842F8695869557
:1043F000869597E0940F903408F09FE396959695F4
:104400009695477058E0541B30E8839F5001112463
:1044100070E8979F60011124A5E02A9F9001112464
:10442000D0E0C0E02F523A4FF901EC0FFD1FB491DC
:10443000AC2FA60F4A2E512C4501840C951C8E0CD6
:104440009F1CF4017289EB2FF0E03F01042E01C0A4
:10445000660C0A94EAF7002359F1672AD4015296B0
:104460006C92891789F0D201AC0DBD1DAE0DBF1D38
:10447000052E02C0F595E7950A94E2F752967C91D5
:104480005297E72B5296EC932196C530D10561F6F1
:10449000DF91CF910F91FF90EF90DF90CF90BF9081
:1044A000AF909F908F907F906F905F904F90089506
:1044B00060946722D40152966C92891729F3D20135
:1044C000AC0DBD1DAE0DBF1D052E02C0F595E795C7
:1044D0000A94E2F7E09552967C915297E723D2CF67
:1044E0000F931F93CF93DF93CDB7DEB760970FB6CF
:1044F000F894DEBF0FBECDBF67FD4FC0403450F013
:10450000342F3195321708F048C0303408F045C0D8
:10451000240F40E0240F2150203408F02FE3542FC3
:10452000569556955695122F16951695169538E070
:10453000E4E2F2E0DE01119601900D923A95E1F786
:1045400038E0ECE2F2E0DE01199601900D923A9526
:10455000E1F770E0477030E8139FF0011124E60F97
:10456000F71F277030E0A1E0B0E0AC0FBD1FA40F33
:10457000B11DE80FF91F4C91A9E0B0E0AC0FBD1FD1
:104580002A0F3B1FD901002309F442C03C9151136B
:104590000FC043238289482B428B60960FB6F89454
:1045A000DEBF0FBECDBFDF91CF911F910F91089558
:1045B00020E8529FD0011124A60FB71FA80FB91FE2
:1045C00052962C915297422B52964C934289432BF0
:1045D000428B21E0250F40E8249F90011124620FB7
:1045E000731F30E020E04FEF2F5F3F4FE52FE20FCA
:1045F000E11798F6F901F695FE2FEE27F795E79566
:10460000E60FF71FEE56F109E80FF91F4083ECCFD4
:104610002C91511305C04223409582894823BCCF79
:1046200030E8539FD0011124A60FB71FA80FB91F60
:10463000409552963C915297432352964C93422F69
:10464000409522894223428B21E0250F40E8249F98
:1046500090011124620F731F30E020E02F5F3F4F65
:10466000452F420F411708F098CFF901F695FE2F1C
:10467000EE27F795E795E60FF71FEE56F109E80FDD
:10468000F91F1082EBCF7F928F929F92AF92BF92D1
:10469000CF92DF92EF92FF920F931F93CF93DF930E
:1046A000E82EC62EA22EB02ED1E0D41BF42EF1940B
:1046B000FF0CC42F83E0D82E10E099249394900E21
:1046C0001C1784F5D7FD04C0C150F394F394DF0D9B
:1046D0001F5FDD0D2C2F220F4C2D4C1B7B2C7D0CD6
:1046E0008C2C811A81E0290D01E06E2DA81210C0DA
:1046F000610F8AED91E10E947022272D482D6C2FC9
:104700006E0D8AED91E10E947022D394D394D8CF9C
:10471000611B8AED91E10E947022272D482D6E2D9C
:104720006C1BEFCFDF91CF911F910F91FF90EF9016
:10473000DF90CF90BF90AF909F908F907F90089523
:104740007F928F929F92AF92BF92CF92DF92EF9221
:10475000FF920F931F93CF93DF93782ED62F59019B
:1047600047016A01F12CE12CC0E0C114D104E1043D
:10477000F10499F09401D8010E94B57E97018A0155
:104780003595279517950795600F711F821F931F09
:10479000A70196010E94617EC22FD401C53020F48A
:1047A0001597AC0FB11DC5E0C114D104E104F104AB
:1047B000A1F09501215031090E94B57E9701860133
:1047C0003595279517950795600F711F821F931FC9
:1047D000A70196010E94617E69014D2F4C0D242F87
:1047E0002C0F3327331F8D0E911C8216930608F46D
:1047F000415001E02C2F672D8AED91E10E9470223B
:10480000DF91CF911F910F91FF90EF90DF90CF90AC
:10481000BF90AF909F908F907F900895EF92FF92FE
:104820000F931F930417150710F40E94A0231F91E4
:104830000F91FF90EF90089567FD1BC04034C8F4BE
:10484000E42FE695E695E69530E8E39FF001112424
:10485000E60FF11DE80FF91F9289842F877041E060
:1048600050E001C0440F8A95EAF7222319F0492B42
:10487000428B089540954923FBCF9F92AF92BF9200
:10488000CF92DF92EF92FF920F931F93CF93DF931C
:10489000182FF62E81E0E82EE41AC42EC194CC0C19
:1048A000C42FD0E0822F8470B82E822F8270A82E61
:1048B000822F8870982E2170D22EDC170CF05DC0EC
:1048C000E7FC04C0C150C394C394EC0CDF5F8D2F90
:1048D000880F8F5FE80EBB2091F0202F4C2F4F0DDB
:1048E000612F6D0F8AED91E10E941C24202F4F2D26
:1048F0004D0F6C2F610F8AED91E10E941C24AA20BC
:1049000091F0202F4F2D4C1B612F6D0F8AED91E1FF
:104910000E941C24202F4F2D4D1B612F6C0F8AED00
:1049200091E10E941C24992091F0202F4F2D4D0FD2
:10493000612F6C1B8AED91E10E941C24202F4F2DCA
:104940004C0F612F6D1B8AED91E10E941C24DD202C
:1049500009F4B3CF202F4F2D4D1B612F6C1B8AED17
:1049600091E10E941C24202F4F2D4C1B612F6D1BA9
:104970008AED91E10E941C24A0CFDF91CF911F917D
:104980000F91FF90EF90DF90CF90BF90AF909F90EE
:1049900008959F92AF92BF92CF92DF92EF92FF92D3
:1049A0000F931F93CF93DF93C82F162FB42ED22EC1
:1049B000D02FA02EAA0C942E9A18C02EC80E0E2D01
:1049C000292D462F6C2D8AED91E10E94D821FF24DC
:1049D000FA94FD0CF10E292D4F2D6C2D8AED91E1ED
:1049E0000E94D821DA181D0F2D2D412F6C2F8AED32
:1049F00091E10E947022C150CB0D2D2D412F6C2FC3
:104A00008AED91E10E94702221E04D2F612F8C2DC3
:104A10000E943D24CD1B22E04D2F612F8C2F0E9440
:104A20003D24FD1A24E04D2F6F2D8C2F0E943D2434
:104A300028E04D2F6F2D8C2D0E943D24DF91CF91CA
:104A40001F910F91FF90EF90DF90CF90BF90AF90AC
:104A50009F9008957F928F929F92AF92BF92CF9234
:104A6000DF92EF92FF920F931F93CF93DF93782EF5
:104A7000162F5A01F22EC22ED12C87E0C80ED11C5F
:104A800083E0D594C7948A95E1F7060F912C812C89
:104A9000C0E0D0E08D2F8770CC0F81110AC0ED2FC0
:104AA000E695E695E695E80DF92DF11DEA0DFB1D5D
:104AB000C491C7FF08C02E2D412F672D6D0F8AEDC1
:104AC00091E10E941C24DF5FFD12E4CF1F5F8C0C7C
:104AD0009D1C1013DECFDF91CF911F910F91FF909E
:104AE000EF90DF90CF90BF90AF909F908F907F908E
:104AF0000895EF920F9341110BC04FEB5CE0EE2451
:104B0000E39407E027E00E942A250F91EF90089593
:104B100046EC5CE0F4CF0F93CF93DF93EC016A3067
:104B200051F418868985885F898781E090E0DF915C
:104B3000CF910F9108956D30C1F38C85882361F07A
:104B4000888590E005962E812817190609F024F42F
:104B500089851886885F8987262FE881F9810488EE
:104B6000F589E02D0A8549856885CE0119958885E6
:104B70008A5F8887DACF0F931F93CF93DF938C01DF
:104B8000D0E0C0E0F801EC0FFD1F6491662341F016
:104B90008AED91E10E948B25892B11F02196F2CFAD
:104BA000CE01DF91CF911F910F910895BF92CF92C7
:104BB000DF92EF92FF920F931F93CF93DF938C01BD
:104BC000DD24D39480E0F801E80FF11DD491DD23BA
:104BD00031F0E491EA3009F4D3948F5FF4CF8091FF
:104BE000E1114D2D57EF540390011124820F932FA3
:104BF000911D97FD019695958795C1E0C80FB12C41
:104C0000DB1491F1FD2EEF2CED1AF801EF0DF11DE3
:104C100084918A3029F0E491EE2311F0F394F3CFDC
:104C20008091E0114AEF5E2D450390011124820F1F
:104C3000932F911D97FD0196959587958093E2118D
:104C4000C093E311CD2EFC1451F0F801EC0DF11DD1
:104C500064918AED91E10E948B25C394F4CFE39493
:104C6000DE0DC75FB394CCCFDF91CF911F910F9131
:104C7000FF90EF90DF90CF90BF9008958F929F921A
:104C8000AF92BF92CF92DF92EF92FF920F931F935A
:104C9000CF93DF935C01D62EC42E85E0289FE001E0
:104CA0001124F12CE12CCF52DA4FFE01EE0DFF1D45
:104CB000E49110E08E2E912CE0FF0CC0D501ED9117
:104CC000FC910084F185E02D202F4C2D410F6D2D9E
:104CD000C50119951F5FF401F595E795183051F757
:104CE000BFEFEB1AFB0AD39485E0E816F104E9F66E
:104CF000DF91CF911F910F91FF90EF90DF90CF90B8
:104D0000BF90AF909F908F900895CF92DF92EF92D7
:104D1000FF920F931F93CF93DF936C01C62FD42F75
:104D2000F22E102F802F90E0880F991FF816190689
:104D300009F08CF4F60ECF15F9F0D601ED91FC9147
:104D40000484F585E02D0E2D212F4D2F6C2FC601EB
:104D50001995CF5FF0CF140FD11771F0D601ED91F7
:104D6000FC910684F785E02D0E2D2F2D4D2F6C2FF5
:104D7000C6011995DF5FF0CFDF91CF911F910F91A1
:104D8000FF90EF90DF90CF900895BF92CF92DF9287
:104D9000EF92FF920F931F93CF93DF93182FF62E6E
:104DA000C42EC22FD02FB02EBB0CD02ED80E242F45
:104DB0002B19EE24E3940C2F462F6D2D8AED91E1F3
:104DC0000E948526C150CB19FD0E8FEF810F8C0DEF
:104DD0000C2F21E04D2F6F2D8D1B0E94432322E0CD
:104DE0004D2F6F2D8D2D0E944323DF91CF911F9169
:104DF0000F91FF90EF90DF90CF90BF900895DF92DA
:104E0000EF92FF920F931F93CF93DF93D82FC62F6C
:104E1000142F01E0222309F442C029E2462F682F13
:104E20008AED91E10E94D82164E1610FD60F2DEF48
:104E3000F22EFD0E3DEFD32EDC0EE12C07E027E035
:104E40004D2D6F2D8AED91E10E948526EE24E3948D
:104E500002E027E047E06D2D8F2D0E94C924C1504C
:104E600017FF11C06FEF6D0F01E023E04C2F8AEDAB
:104E700091E10E947022DF91CF911F910F91FF90DD
:104E8000EF90DF90089501E023E04C2F61E06D0F7B
:104E90008AED91E10E9470221111EDCFE3CF29E25A
:104EA000462F682F8AED91E10E947022CC5EC11BD3
:104EB0008DEFD82EDC0E9DEFF92EFD0EE12C07E0D4
:104EC00027E04D2D6F2D8AED91E10E948526EE247D
:104ED000E39402E027E047E06D2D8F2D0E94C92466
:104EE000D15017FF0AC041E04C0F01E023E06D2FC5
:104EF0008AED91E10E94D821BECF01E023E04FEF7F
:104F00004C0F6D2F8AED91E10E94D8211111B3CF82
:104F1000EACFEF920F931F93CF93DF93C82FD62F33
:104F200080919004882381F10E94F01600919204F0
:104F3000109193042091940430919504601B710B9F
:104F4000820B930B28EE33E040E050E00E94937E0A
:104F5000643F71408105910528F080919104825051
:104F6000823060F44FEF4D0F63E06C0FEE24E3945A
:104F700009E022E08AED91E10E948526DF91CF9140
:104F80001F910F91EF900895EE24E39407E026E03F
:104F900048EB5CE08C2F0E942A25F0CFCF92DF9265
:104FA000EF92FF920F931F93CF93DF93EC01D62ED6
:104FB000F42E122FC02EE881F9810684F785E02DAA
:104FC0000E2D19954FEF4C0D4F0DE881F981068498
:104FD000F785E02D212F6D2DCE011995E881F981FE
:104FE0000484F585E02D2C2D4F2D6D2DCE011995C6
:104FF0006FEF610F6D0DE881F9810484F585E02D77
:105000002C2D4F2DCE011995DF91CF911F910F912E
:10501000FF90EF90DF90CF900895DF92EF92FF9294
:105020000F931F93CF93DF93C82FD62F80919407B0
:10503000882309F454C001E021E64C2F6FE08AED8B
:1050400091E10E94D821EC2EED0E4FEF4E0D21E69E
:105050006FE08AED91E10E94D821D85014E01C0F36
:105060002D2F412F6BE08AED91E10E9470222D2FB0
:10507000412F63E78AED91E10E947022D0E0EA942B
:10508000EA94CF5F8D2F8170D82E1DE0D0FD10E700
:10509000FC2ED23008F0FE2C01E022E04F2D612FD3
:1050A0008AED91E10E94D82141E0D23008F04EEF24
:1050B0004F0D62E0D11001C06FEF610F01E022E0FF
:1050C0008AED91E10E947022DF5FD430D9F6DF9142
:1050D000CF911F910F91FF90EF90DF900895EE24F4
:1050E000E394062F29E64C2F6BE08AED91E10E94B4
:1050F000CE27EDCF8F929F92AF92BF92CF92DF9249
:10510000EF92FF920F931F93CF93DF93182F4B01D2
:105110005A01E901EE24E39404E029E2482F69E40E
:105120008AED91E10E94CE27AC16BD06B4F56E0162
:10513000CA18DB080D2C000CEE08FF08C4018A1405
:105140009B040CF4C5018C179D070CF4EC01DE01E7
:10515000AA19BB0927E230E00E94267F4B015C01BF
:10516000C701B601B7FE26C022E030E040E050E0C3
:105170000E94617EC501B401621B730B840B950B09
:10518000A70196010E94617EEE24E39404E0412F82
:105190006AE48AED91E10E948526DF91CF911F910B
:1051A0000F91FF90EF90DF90CF90BF90AF909F90C6
:1051B0008F9008959595879577956795680D791DDA
:1051C0008A1D9B1DDDCFEF92FF920F931F93CF930C
:1051D000DF937C01162FC42FD22FD40FCD1769F087
:1051E000D701ED91FC910084F185E02D202F4C2F0B
:1051F000612FC7011995CF5FF1CFDF91CF911F913B
:105200000F91FF90EF900895EF92FF920F931F93ED
:10521000CF93DF937C01C62F142FD22FD60FCD173B
:1052200069F0D701ED91FC910084F185E02D202FEC
:10523000412F6C2FC7011995CF5FF1CFDF91CF912F
:105240001F910F91FF90EF9008952F923F924F92F0
:105250005F926F927F928F929F92AF92BF92CF9206
:10526000DF92EF92FF920F931F93CF93DF9300D0C3
:105270001F921F92CDB7DEB73C016A013D832C839C
:10528000EB825801A41AB50AB7FE03C0B194A194E9
:10529000B1088C809D80861A970A97FE03C091946E
:1052A000819491088A149B045CF0902F812F0C81CB
:1052B0001D819C838D839C2D8D2D6B01692F782FF3
:1052C0000C151D055CF09C818D817D836C83692F9D
:1052D000782F902F812F8601C92ED82E1601201AE3
:1052E000310A2B012C813D81421A530A57FE03C01B
:1052F000519441945108710137FE03C03FEFE31A06
:10530000F30AF594E7948C819D818617970744F5FD
:10531000A1E0B0E0BA83A983C016D10634F1D3016D
:10532000ED91FC910084F185E02D2B81402F6C8163
:105330008A149B0414F04C81602FC3011995E41862
:10534000F508F7FE0AC02C813D8189819A81280FDA
:10535000391F3D832C83E20CF31C0F5F1F4FDCCF02
:105360002FEF3FEF3A832983D7CF0F900F900F9005
:105370000F900F90DF91CF911F910F91FF90EF90C1
:10538000DF90CF90BF90AF909F908F907F906F9065
:105390005F904F903F902F900895089590E080E0A7
:1053A00008952F923F924F925F926F927F928F92C9
:1053B0009F92AF92BF92CF92DF92EF92FF920F93A4
:1053C0001F93CF93DF9300D000D000D01F92CDB7B2
:1053D000DEB789E30E947E164C019093B20380935E
:1053E000B10388E30E947E165C019093B003809322
:1053F000AF0386E30E947E166C019093AE03809308
:10540000AD0387E30E947E167C019093AC038093EA
:10541000AB0381E40E947E169A8789879093AA0342
:105420008093A90380E40E947E163C019093A80318
:105430008093A70383E40E947E169A8389839093C6
:10544000A6038093A50382E40E947E169C838B832F
:105450009093A4038093A3038AE30E947E169E8305
:105460008D839093A2038093A1038BE30E947E1609
:1054700098878F8380915E07E0913207F091330720
:1054800060912E0770912F078111BCC100916607B2
:1054900010E040913007509131079F01C4010E94F4
:1054A0005E139093B2038093B103E0913807F091BB
:1054B0003907609134077091350780915F0781113A
:1054C000D0C10091670710E040913607509137072F
:1054D0009F01C5010E945E139093B0038093AF03B8
:1054E000E0913E07F0913F0760913A0770913B07CA
:1054F000809160078111E4C10091680710E040913C
:105500003C0750913D079F01C6010E945E13909396
:10551000AE038093AD03E0914407F091450760919D
:10552000400770914107809161078111F8C1009196
:10553000690710E040914207509143079F01C7015E
:105540000E945E139093AC038093AB03E0914A07F3
:10555000F0914B0760914607709147078091620771
:1055600081110CC200916A0710E0409148075091E8
:1055700049079F0189859A850E945E139093AA032B
:105580008093A903E0915007F091510760914C0777
:1055900070914D0780916307811121C200916B07C3
:1055A00010E040914E0750914F079F01C3010E94A8
:1055B0005E139093A8038093A703E0915607F091A0
:1055C00057076091520770915307809164078111CA
:1055D00035C200916C0710E0409154075091550777
:1055E0009F0189819A810E945E139093A603809304
:1055F000A503E0915C07F0915D07609158077091F9
:1056000059078091650781114AC200916D0710E02A
:1056100040915A0750915B079F018B819C810E94AA
:105620005E139093A4038093A3038D819E819C01BC
:10563000990F440B550B2451310941095109A8EE2A
:10564000B3E00E94807E27ED33E040E050E00E940E
:10565000617EDA01C901845F9140A109B1098C0121
:105660009A838983053F91E0190724F044EF51E0C4
:105670005A83498389819A818C309E4F24F44CE06F
:105680005EEF5A83498389819A819093A203809324
:10569000A1038F8198859C01990F440B550B2451D0
:1056A000310941095109A8EEB3E00E94807E27ED3F
:1056B00033E040E050E00E94617EDA01C901845F7E
:1056C0009140A109B109AC019C01453F91E0590706
:1056D00014F024EF31E02C308EEF380714F42CE076
:1056E0003EEF3093A00320939F038091010217FDAA
:1056F00007C2823009F00FC281E0809301028091DD
:105700008907882319F089E080932C048091000296
:1057100057FD08C2823009F010C281E08093000278
:1057200080918907882319F089E080932C04809167
:10573000B1039091B2034091AF035091B003840F35
:10574000951F4091AD035091AE03840F951F40917A
:10575000AB035091AC03840F951F4091A903509166
:10576000AA03840F951F4091A7035091A803840FAB
:10577000951F4091A5035091A603840F951F40915A
:10578000A3035091A403840F951F49815A81840F6C
:10579000951F820F931F2091A3023091A402AC01A8
:1057A000421B530B9A0157FF03C0319521953109D4
:1057B0002333310574F09093A4028093A3020E94D6
:1057C000F016609322037093230380932403909335
:1057D00025032A960FB6F894DEBF0FBECDBFDF912A
:1057E000CF911F910F91FF90EF90DF90CF90BF90DE
:1057F000AF909F908F907F906F905F904F903F9071
:105800002F9008951B01770F440855089401990CB7
:10581000440B550B2219330944095509A8EEB3E08E
:105820000E94807E9F01FF0F440B550B2219330904
:10583000440955090E94617E245F314041095109A4
:10584000253F41E0340714F024EF31E02C305EEFC7
:10585000350714F42CE03EEF3093B2032093B103EC
:1058600024CE1B01770F440855089501BB0C440B4F
:10587000550B2219330944095509A8EEB3E00E94DB
:10588000807E9F01FF0F440B550B221933094409F9
:1058900055090E94617E245F314041095109253F2D
:1058A00081E0380714F024EF31E02C309EEF390707
:1058B00014F42CE03EEF3093B0032093AF0310CEEE
:1058C0004B01770FAA08BB089601DD0C440B550B62
:1058D000281939094A095B09A8EEB3E00E94807EC5
:1058E0009F01FF0F440B550B281939094A095B0921
:1058F0000E94617E245F314041095109253F41E00A
:10590000340714F024EF31E02C305EEF350714F447
:105910002CE03EEF3093AE032093AD03FCCD4B0162
:10592000770FAA08BB089701FF0C440B550B2819E9
:1059300039094A095B09A8EEB3E00E94807E9F0105
:10594000FF0F440B550B281939094A095B090E94BE
:10595000617E245F314041095109253F81E03807CC
:1059600014F024EF31E02C309EEF390714F42CE0D2
:105970003EEF3093AC032093AB03E8CD6B01770F80
:10598000EE08FF0889859A859C01990F440B550BF9
:105990002C193D094E095F09A8EEB3E00E94807EF4
:1059A0009F01FF0F440B550B2C193D094E095F0950
:1059B0000E94617E245F314041095109253F91E0F9
:1059C000390714F024EF31E02C304EEF340714F493
:1059D0002CE03EEF3093AA032093A903D3CD6B01B3
:1059E000770FEE08FF089301770C440B550B2C1929
:1059F0003D094E095F09A8EEB3E00E94807E9F0139
:105A0000FF0F440B550B2C193D094E095F090E94ED
:105A1000617E245F314041095109253F51E035073E
:105A200014F024EF31E02C308EEF380714F42CE022
:105A30003EEF3093A8032093A703BFCD6B01770FF0
:105A4000EE08FF0889819A819C01990F440B550B40
:105A50002C193D094E095F09A8EEB3E00E94807E33
:105A60009F01FF0F440B550B2C193D094E095F098F
:105A70000E94617E245F314041095109253F91E038
:105A8000390714F024EF31E02C304EEF340714F4D2
:105A90002CE03EEF3093A6032093A503AACD6B0123
:105AA000770FEE08FF088B819C819C01990F440BB6
:105AB000550B2C193D094E095F09A8EEB3E00E9471
:105AC000807E9F01FF0F440B550B2C193D094E0999
:105AD0005F090E94617E245F314041095109253FE1
